:020000040800F2
:1000000000040020CF010008A91B0008811100088E
:10001000A51B0008BD070008AB2C0008000000006D
:100020000000000000000000000000007D28000823
:100030005908000800000000C11B000891290008B1
:10004000EF010008EF010008EF010008211F000880
:10005000EF010008EF010008EF010008EF010008C0
:10006000EF010008EF010008EF010008EF010008B0
:10007000EF010008EF010008EF010008C1070008C8
:10008000EF010008EF010008EF010008EF01000890
:10009000EF010008EF010008EF010008EF01000880
:1000A000EF010008EF010008EF010008EF01000870
:1000B000F52900080D2A0008EF010008EF010008EB
:1000C000EF010008EF010008EF010008EF01000850
:1000D000EF010008C52B0008EF010008EF01000840
:1000E0005D080008EF010008EF010008EF010008BB
:1000F000EF010008EF010008EF010008EF01000820
:10010000EF010008EF010008EF010008EF0100080F
:10011000EF010008EF010008EF010008EF010008FF
:10012000EF010008EF010008EF010008EF010008EF
:1001300000F002F800F03AF80AA090E8000C8244BF
:100140008344AAF10107DA4501D100F02FF8AFF29C
:10015000090EBAE80F0013F0010F18BFFB1A43F0A5
:1001600001031847746A0000946A0000103A24BF23
:1001700078C878C1FAD8520724BF30C830C144BF0C
:1001800004680C607047000000230024002500264E
:10019000103A28BF78C1FBD8520728BF30C148BFEA
:1001A0000B6070471FB51FBD10B510BD00F0E6F81D
:1001B0001146FFF7F7FF04F0F1FB00F004F903B478
:1001C000FFF7F2FF03BC03F0D0F8000070470B48C4
:1001D00080470B4981F308880A480047FEE7FEE79D
:1001E000FEE7FEE7FEE7FEE7FEE7FEE7FEE7FEE7E7
:1001F00005480649044A064B70470000CD01000837
:1002000088060020310100088804002088060020AC
:1002100088040020704710B54C1084EA530404D5BC
:100220004042C1F1000138BF491E1B4204D5524271
:10023000C3F1000338BF5B1E00F015F814F0804FC7
:1002400004D04042C1F1000138BF491E14F0004FF4
:1002500004D05242C3F1000338BF5B1E10BD70478B
:1002600070477047704753EA020C00F069802DE92F
:10027000F04B4FF00006002B1FBFB3FA83F503FAD3
:1002800005F424FA05F65E4012BF1643B2FA82F571
:1002900002FA05F4C5F120051EBF22FA05FC44EA66
:1002A0000C04203556EA044C4FEA144418BF641C71
:1002B0004FF000084FF00009904271EB030C39D366
:1002C000002919BFB1FA81F701FA07F6B0FA80F7F1
:1002D00000FA07F6C7F120071EBF20FA07FC46EA1E
:1002E0000C062037B6FBF4FCA7EB0507103F07F020
:1002F0001F0BCBF120060CFA0BFB2CFA06F644BFC1
:10030000B3460026202FA4BF5E464FF0000B5BEAE9
:10031000060C08BF4FF0010B19EB0B09ABFB027C7D
:1003200048EB0608C01B06FB02CC0BFB03CC71EBB1
:100330000C01C1E70B46024641464846BDE8F08B3A
:1003400013B54FF000004FF00001AFF30080BDE89F
:100350001C40704710B500F009F8006810BD10B5DA
:10036000044600F003F8046010BD00000048704728
:100370002404002000487047240400207546FFF73D
:10038000F9FFAE4605006946534620F00700854652
:1003900018B020B5FFF72CFFBDE820404FF0000655
:1003A0004FF000074FF000084FF0000B21F007015D
:1003B000AC46ACE8C009ACE8C009ACE8C009ACE8A0
:1003C000C0098D4670470446AFF300802046FFF712
:1003D000F6FE21B1826842F00102826003E0826889
:1003E00022F001028260704710B504461248844230
:1003F00008D10121401501F039FC0021601501F000
:1004000035FC17E00D48844208D10121001501F0A8
:100410002DFC0021201501F029FC0BE00848844246
:1004200008D10121C80301F021FC00214FF4004054
:1004300001F01CFC10BD0000002401400028014018
:10044000003C0140014600208A6802F004020AB123
:10045000012000E0002070470146C86C80B2704760
:100460000246002013680B400BB1012000E0002081
:100470007047014600208A6802F008020AB1012094
:1004800000E000207047000030B502460020002345
:1004900050680F4C20400D790C6844EA0524204335
:1004A000506090680B4C2040D1E902542C434D79A8
:1004B00044EA450420439060D06A20F470000C7C2C
:1004C000641EE4B2234340EA0350D06230BD000012
:1004D000FFFEF0FFFDF7F1FFF0B504460D460020EA
:1004E0000021092D11DDE068A5F10A0606EB46079B
:1004F000072606FA07F18843A5F10A0606EB460629
:1005000003FA06F10843E0600CE0206905EB4507BB
:10051000072606FA07F1884305EB450603FA06F1BC
:1005200008432061072A0FDA606B561E06EB860728
:100530001F2606FA07F18843561E06EB860605FAC3
:1005400006F10843606322E00D2A0FDA206BD61F04
:1005500006EB86071F2606FA07F18843D61F06EB2F
:10056000860605FA06F10843206310E0E06AA2F16E
:100570000D0606EB86071F2606FA07F18843A2F14F
:100580000D0606EB860605FA06F10843E062F0BDAB
:10059000816841F008018160704721B1826842F4AE
:1005A000A002826003E0826822F4A00282607047A9
:1005B000816841F0040181607047000000B587B098
:1005C00001214FF4017001F041FB4FF4004001F0B4
:1005D00021FB0220ADF8040000208DF8070001A9DE
:1005E000174800F089F91748FFF7FEFE0020029037
:1005F0008DF80C008DF80D004FF460200490002061
:10060000059001208DF8180002A90E48FFF73CFF65
:1006100001210C48FFF7DDFE0A48FFF7B9FF00BFD4
:100620000848FFF726FF0028FAD10648FFF7C0FF69
:1006300000BF0448FFF706FF0028FAD107B000BD4D
:10064000000801400024014070B504460D461CB965
:100650002946514801F07CF950494F4801F084F88F
:10066000012C03D13B21D02001F0FEF84B4800893A
:100670004B49C988401A00B2484908810846408958
:1006800047490989401A00B244494881084680898F
:1006900043494989401A00B240498881B1F90000B4
:1006A00005F052FE064631463E4804F028F93B4923
:1006B000B1F9020005F048FE064631463A4804F01A
:1006C0001EF93649B1F9040005F03EFE06463146F2
:1006D000364804F014F93348C06835490860324898
:1006E000C06848603148C06888602C49B1F908008A
:1006F00005F02AFE2E49C8602849B1F90A0005F024
:1007000023FE2B4908612549B1F90C0005F01CFEB8
:10071000274948612749264800F0A4F9204AD168B2
:10072000234A906905F0A8FF0646214881693046B2
:1007300005F097FF1E498861194A11691C4AD06962
:1007400005F09AFF06461A48C169304605F089FF50
:100750001749C861C868184905F086FE06464FF07B
:10076000804105F081FE1249C8600869124905F010
:100770007BFE06464FF0804105F076FE0C4908618D
:1007800048690D4905F070FE06464FF0804105F0BE
:100790006BFE0749486170BD000100200E0100207A
:1007A00084020020C4000020D4000020E4000020C7
:1007B0009C020020B020CD3BF6FFF93C00BFFEE7D5
:1007C00010B54FF4003000F02FF801280DD140048F
:1007D00000F010F80021054800F001FD0121034858
:1007E00000F021FD01200249086010BD00580040C2
:1007F0003000002000F0805111B10349086001E091
:1008000002494860704700000404024000000240B2
:1008100021B1026842F00102026004E002684FF672
:10082000FE731A400260704701460020002201F06A
:10083000805313B1054B1A6801E0054B1A6802EAB0
:1008400001030BB1012000E00020704700040240CA
:1008500000000240416070477047000010B54FF43F
:10086000804000F035F838B34FF4804000F02AF8AB
:100870004FF48041114800F0CAF8012808D1002146
:10088000800702F09DF90121880702F070F913E05A
:100890004FF48041094800F0BAF868B900214FF0E0
:1008A000804002F064F94FF0804002F06CF9044699
:1008B00000F03EFC0249086010BD0000000C014041
:1008C0002C0000200149086070470000140401401A
:1008D000014600200022074B1B6803EA0102054B7A
:1008E00014331B680B4013B10AB1012000E0002053
:1008F00070470000000401402DE9F0410246002548
:100900000026002000230024002791F803C00CF0EB
:100910000F0591F803C00CF0100CBCF1000F03D0D0
:1009200091F802C04CEA050591F800C0BCF1000F37
:1009300031D0146800202BE04FF0010C0CFA00F3CA
:10094000B1F800C00CEA03069E4220D183004FF0AC
:100950000F0C0CFA03F7BC4305FA03FC4CEA040441
:1009600091F803C0BCF1280F06D14FF0010C0CFA2E
:1009700000FCC2F814C00AE091F803C0BCF1480FB3
:1009800005D14FF0010C0CFA00FCC2F810C0401C5D
:100990000828D1D31460B1F800C0BCF1FF0F34DDDA
:1009A000546800202EE000F1080C4FF0010808FA0E
:1009B0000CF3B1F800C00CEA03069E4221D183007B
:1009C0004FF00F0C0CFA03F7BC4305FA03FC4CEA9A
:1009D000040491F803C0BCF1280F05D100F1080C04
:1009E00008FA0CF8C2F8148091F803C0BCF1480F63
:1009F00007D100F1080C4FF0010808FA0CF8C2F812
:100A00001080401C0828CED35460BDE8F081024617
:100A1000002093680B400BB1012000E000207047DC
:100A2000016170470AB1016100E041617047000057
:100A300010B504460723012221460948FFF74CFD63
:100A400001210748FFF7A9FD00BF02210448FFF775
:100A500007FD0028F9D00248FFF7FEFC10BD00009A
:100A60000024014003B59FB04FF07C51209805F061
:100A7000FBFC0D90FE4880680590FD4800680490DE
:100A8000059905F0F1FC0790F948C0680590F84811
:100A900040680490059905F0E7FC0690079905F079
:100AA000EBFD4FF08041089005F0DEFC1C90F04813
:100AB000C0680590EE4880680490059905F0D4FC64
:100AC0000790EB4840680590E94800680490059954
:100AD00005F0CAFC0690079905F090FA4FF08041A6
:100AE000089005F0C1FC1D90E14880680490E04842
:100AF00080680390049905F0B7FC0690DC484068D4
:100B00000490DB4840680390049905F0ADFC059023
:100B1000069905F073FA4FF08041079005F0A4FCA8
:100B20004FF07E51089005F09CFD1E901F98806844
:100B300005901F9880680490059905F095FC079032
:100B40001F98406803901F9840680290039905F031
:100B50008BFC05901F98006803901F980068029016
:100B6000039905F081FC0490059905F047FA069079
:100B7000079905F043FA089001F024F80E901F98A9
:100B8000006808900E9905F06FFC19901F98006896
:100B900008900E9905F068FC1A901F98006808905C
:100BA0000E9905F061FC1B901D9806901B9805900E
:100BB000069905F059FC08901E9806901A98059021
:100BC000069905F051FC0790089905F055FD139022
:100BD0001E98069019980590069905F045FC089016
:100BE0001C9806901B980590069905F03DFC07900F
:100BF000089905F041FD14901C9806901A980590EC
:100C0000069905F031FC08901D98069019980590FA
:100C1000069905F029FC0790089905F02DFD15901F
:100C20001398079093480168079805F01DFC0890F9
:100C30009148006801460790089805F0DFF98E4951
:100C40000860149807908B480168079805F00CFC21
:100C500008908948406801460790089805F0CEF949
:100C6000854948601598079082480168079805F003
:100C7000FBFB08908048806801460790089805F0C3
:100C8000BDF97D4988601398014605907B4800684E
:100C900005F0EAFB07901F98C0687949049005F0B9
:100CA000E3FB4FF08041059005F0DEFB06900799CD
:100CB00005F0A4F90890704800680146079008986C
:100CC00005F09CF916901498014605906B48006851
:100CD00005F0CAFB07901F9800696949049005F068
:100CE000C3FB4FF08041059005F0BEFB06900799CD
:100CF00005F084F90890604840680146079008981C
:100D000005F07CF917901598014605905B4800683E
:100D100005F0AAFB07901F9840695949049005F017
:100D2000A3FB4FF08041059005F09EFB06900799CC
:100D300005F064F9089050488068014607900898CB
:100D400005F05CF91890189805904948C06804901F
:100D5000059905F089FB079017980390444880682F
:100D60000290039905F080FB05904148406880F0AF
:100D700000400390169801460290039805F074FB1A
:100D80000490059905F078FC0690079905F074FC2D
:100D900008900D9905F068FB12901898059034485A
:100DA00080680490059905F05FFB07901798039001
:100DB0002F48C0680290039905F056FB05901698DD
:100DC00003902B4800680290039905F04DFB0490B6
:100DD000059905F051FC0690079905F00FF9089068
:100DE0000D9905F041FB1190189805902048406836
:100DF0000490059905F038FB0790179803901C485C
:100E000000680290039905F02FFB05901698039057
:100E10001748C0680290039905F026FB04900599D5
:100E200005F0ECF80690079905F026FC08900D995E
:100E300005F01AFB1090189805900D480068049072
:100E4000059905F011FB0790179803900848406832
:100E50000290039905F008FB05900548806880F032
:100E60000040039016980146029003980AE00000A3
:100E7000B4000020FC000020C4020020F800002084
:100E80002E9E0B3A05F0F0FA0490059905F0B6F89D
:100E90000690079905F0B2F808900D9905F0E4FA6C
:100EA0000F909E4800680890129905F0A7F89B499A
:100EB0000860084640680890119905F09FF8974926
:100EC0004860084680680890109905F097F89349A3
:100ED00088600846C06808900F9905F08FF88F4920
:100EE000C8600846C06805900846C0680490059927
:100EF00005F0BAFA079089488068039087488068AF
:100F00000290039905F0B0FA05908448406801907A
:100F1000824840680090019905F0A6FA03907F4846
:100F2000006801907D4800680090019905F09CFAE6
:100F30000290039905F062F80490059905F05EF8B7
:100F40000690079905F05AF8089000F03BFE0E90C5
:100F50007248006808900E9905F086FA6F4908609B
:100F60000846406808900E9905F07EFA6B49486083
:100F70000846806808900E9905F076FA67498860FF
:100F80000846C06808900E9905F06EFA6349C8607B
:100F900008464068014605904FF0804005F064FA2D
:100FA00006905E48C06801460590069805F05CFA18
:100FB00008905A480068014605904FF0804005F0BF
:100FC00053FA06905548806801460590069805F04A
:100FD0004BFA0790089905F04FFB0C904F480068BA
:100FE000014605904FF0804005F03EFA06904B48D0
:100FF000406801460590069805F036FA0890474883
:101000008068014605904FF0804005F02DFA06906B
:101010004248C06801460590069805F025FA0790F9
:10102000089904F0EBFF0B903C48C06806903B48E1
:10103000C0680590069905F017FA0890374880684F
:101040000490364880680390049905F00DFA0690E4
:10105000324840680290314840680190029905F09A
:1010600003FA04902D48006802902C480068019013
:10107000029905F0F9F90390049905F0FDFA05903D
:10108000069905F0F9FA0790089904F0B7FF0A905D
:101090001F9840692249079005F0E6F94FF080411A
:1010A000089005F0E1F909904FF07E51099805F09C
:1010B000A7FA04D31B49099805F0A2F90DD220998B
:1010C000099805F0D1F908901F98006A0146079029
:1010D000089804F093FF1F9908620C9804F062FFCF
:1010E000CDE9020102F044F94FF000520E4BCDE978
:1010F000040104F047FCCDE9060104F067F91F99EB
:101100008861DDE90A1002F07BFB0849089005F0D0
:10111000ABF91F99C86121B000BD0000B4000020E8
:10112000F6FFF93C000080BFDCA54C40E12E654293
:101130002DE9F0410446204605F006F90746054929
:1011400004F0D0FF0646044905F08EF9054628460E
:10115000BDE8F08100409C460000AA4310B5012282
:10116000D1030648FFF75EFC0F2002F00DFD0022C0
:101170004FF400410148FFF755FC10BD000C014041
:1011800000BFFEE721B1028842F48062028004E0E1
:1011900002884FF6FF331A400280704770B502464E
:1011A0000024002500230020958A138B1B0445EAA8
:1011B000030626F07F4404EA01068E4201D1012095
:1011C00000E0002070BD21B1028842F001020280DF
:1011D00004E002884FF6FE731A400280704721B186
:1011E000828842F40062828004E082884FF2FF73BA
:1011F0001A408280704721B1828842F480528280F6
:1012000004E082884EF6FF731A408280704721B155
:10121000028842F48072028004E002884FF6FF6385
:101220001A400280704721B1028842F400720280A5
:1012300004E002884FF6FF531A40028070470CB555
:101240000246002000230193009300920B0F0193AC
:1012500021F07F41019B1BB1009B1433009303E0FD
:10126000090C009B18330093009B1B680B400BB1CB
:10127000012000E000200CBD2DE9F04385B00446BC
:101280000D460026B1460427DFF8CC80A6884FF62D
:10129000C0700640684600F0F9FCDDF808802F4871
:1012A000B8FBF0F01FFA80F946EA0906A68020880C
:1012B0004FF6FE71084020800026294928688842A0
:1012C0000CD828684000B8FBF0F087B2042F00DA91
:1012D00004273E4309F10100208427E0E8884BF60B
:1012E000FF71884206D1286800EB4000B8FBF0F09F
:1012F00087B209E0286800EBC00101EB0010B8FBE1
:10130000F0F087B247F48047C7F30B0008B947F005
:10131000010747F4004006434FF4967009FB00F0C4
:101320004FF47A7190FBF1F0401C2084A683208852
:1013300040F00100208026884FF6F5300640A8884E
:101340006989084306432680A889298908432081A2
:1013500005B0BDE8F083000000127A0040420F00A3
:10136000A08601000146088AC0B2704712B141F060
:10137000010102E04FF6FE731940018270470182BD
:101380007047000010B500200F4908600F48006842
:1013900020F470400D4908600846006840F4405051
:1013A000086000200A49C1F8AC01022002F0ECFB01
:1013B000012005490860022002F0E6FB00200449F4
:1013C000C1F8A80110BD0000A8812142040C014011
:1013D0000080214210B500200F4908600F480068C6
:1013E00020F470400D4908600846006840F4405001
:1013F000086001200A49C1F8AC01022002F0C4FBD8
:10140000012005490860022002F0BEFB00200449CB
:10141000C1F8A80110BD0000A8812142040C0140C0
:101420000080214270B5054600241748006820F46A
:101430007040154908600846006840F400400860A4
:10144000002616E0002011490860022002F09CFBF3
:1014500001200F49C1F8A8016006040E0B487C3832
:10146000006808B1601CC4B2012002F08DFB701C42
:10147000C6B2082EE6DB15B9FFF7ACFF01E0FFF7B7
:1014800081FF204670BD0000040C0140A88121426C
:101490000080214270B504461548006820F4704071
:1014A000134908600846006840F440500860002076
:1014B00010490860002517E0E0090E49091D086081
:1014C0006006040E022002F05FFB01200A49C1F809
:1014D000A801022002F058FB002006490860022003
:1014E00002F052FB681CC5B2082DE5DB70BD0000A0
:1014F000040C0140A88121420080214210B50F4810
:10150000006820F470400D4908600846006840F407
:101510004050086001200A4908600A49C1F8A80142
:10152000042002F031FB002005490860042002F08D
:101530002BFB00200349C1F8A80110BD040C014099
:10154000AC8121420080214210B50F48006820F490
:1015500070400D4908600846006840F4405008603B
:1015600000200A4908600A49C1F8AC01042002F0D1
:101570000BFB0120054908600549C1F8AC010420B6
:1015800002F002FB10BD0000040C0140A8812142C2
:101590000080214210B500241448006820F47040F7
:1015A000124908600846006840F4004008600120C5
:1015B0000F49086002F0E8FA01200E49C1F8A801BD
:1015C00002F0E2FA07E0601CC4B2FA2C03DDFFF778
:1015D000BBFF012010BD0648803800680028F2D10A
:1015E0000349091F086000BFF4E70000040C014034
:1015F000AC8121420080214210B501F0CBF900F00E
:1016000045F800F02FF802F077FAFEF7D7FF4FF415
:10161000A06000F0CBFA012003F074F8012000F084
:10162000CDFF012000F07EFA10BD0146CA1701EB84
:1016300092729210A1EB820292B9642091FBF0F2B7
:1016400000FB121050B94FF4C87091FBF0F200FB90
:10165000121008B9012070470020FCE70120FAE7CA
:101660000020F8E708B50121102000F0EFFA4FF450
:101670000050ADF8000048208DF80300694602488C
:10168000FFF73AF908BD00000010014008B501213C
:10169000042000F0DBFA4FF47060ADF80000102079
:1016A0008DF8030003208DF8020069460448FFF717
:1016B00023F94FF470610248FFF7B2F908BD00004A
:1016C000000801402DE9F047054600210F468846F5
:1016D00000262EE02946204800F03AF91F491E480E
:1016E00000F042F8042421E01C4931F9140004F010
:1016F0002BFE82461A4904F0B7FE81464FF0804126
:1017000004F0B2FE174941F824003846414604F07F
:1017100036FE8246134850F82410504604F06EFC02
:10172000814605F01FF807468846641C062CDBDD61
:10173000761C642ECEDB4FF4967200233846414669
:10174000FEF769FD401F71F1000102DA0120BDE8DA
:10175000F0870020FBE70000000100200E010020C0
:10176000F6FFF93C340100202DE9F04705460E460E
:1017700000240AE0681C10F8140015F8141000EB9F
:10178000012000B226F81400641C072CF2DB0024B0
:101790005BE0304830F91400002811DB2D4931F9A5
:1017A000140004F0D1FD80462B4904F09BFC074651
:1017B0004FF0814104F058FE284941F8240011E01F
:1017C000244931F9140004F0BFFD80464FF08E41EA
:1017D00004F088FC07464FF0814104F045FE1F49A4
:1017E00041F824001B49201D31F91000002815DBA9
:1017F0000A46211D32F9110004F0A6FD8146164962
:1018000004F070FC8046164904F02EFE07460021C5
:1018100004F027FF134941F8240015E00D4A211D6B
:1018200032F9110004F090FD81464FF08E4104F032
:1018300059FC80460A4904F017FE0746002104F0CF
:1018400010FF084941F82400641C032CA1DBBDE80B
:10185000F08700000E01002000FEFF461C01002062
:101860000000FA442801002070B504460E46002509
:1018700000213248FEF7CCFF0E213048FEF7EAFF88
:1018800005E06D1C41F28830854200DD70BD4FF4EB
:1018900000312B48FFF7D3FC0028F2D10121284862
:1018A000FFF7A9FC01212648FFF7B1FC00BF25493D
:1018B0002348FFF773FC0028F9D000222146204876
:1018C000FFF754FD00BF20491D48FFF767FC0028C3
:1018D000F9D001211A48FFF776FC31461848FFF786
:1018E0004EFD00BF1849891C1548FFF757FC00281A
:1018F000F8D001211248FFF78AFC00BF11491048B7
:10190000FFF74CFC0028F9D0012221460C48FFF7D4
:101910002DFD00BF0B49491C0948FFF73FFC00287B
:10192000F8D001210548FEF773FF01210448FFF7B5
:1019300056FC00200549086000BFA7E75800024098
:101940000058004001000300820007003000002022
:1019500070B504460D4635B90E2322463B21D020F2
:1019600002F02CFF05E00E2322463B21D02002F09E
:1019700097FF70BD70B50546002420E029466048F9
:10198000FFF7E6FF5F495E48FFF7EEFE5E48C0885E
:101990005C490989084400B25B49C880084600894F
:1019A00058494989084400B2574908810846408986
:1019B00054498989084400B253494881641C642C05
:1019C000DCDB5148B0F90600642190FBF1F000B275
:1019D0004D49C8800846B0F90800642190FBF1F039
:1019E00000B2494908810846B0F90A00642190FB19
:1019F000F1F000B244494881002470E02946404893
:101A0000FFF7A6FF3F493E48FFF7AEFE3D4800897D
:101A10003D49C988401A00B23A49088108464089C0
:101A200039490989401A00B23649488108468089F7
:101A300035494989401A00B232498881B1F900001C
:101A400004F082FC06463146304802F058FF2D492A
:101A5000B1F9020004F078FC064631462C4802F049
:101A60004EFF2849B1F9040004F06EFC06463146E9
:101A7000284802F044FF2548C068274908602448E8
:101A8000C06848602348C06888601E49B1F90800F2
:101A900004F05AFC2049C8601A49B1F90A0004F060
:101AA00053FC1D4908611749B1F90C0004F04CFCC6
:101AB0001949486119491848FEF7D4FF164A916937
:101AC000114AD06804F09AFA0F49C860124AD169E5
:101AD0000D4A106904F092FA0B490861641C642CE9
:101AE0008CDB0949C8680E4904F0FCFA0649C86055
:101AF00008690B4904F0F6FA0349086170BD00005B
:101B0000000100200E01002084020020C4000020FB
:101B1000D4000020E40000209C020020B020CD3B37
:101B20000000C84210B50446CCB900226B21D02079
:101B300002F090FD07221921D02002F08BFD062231
:101B40001A21D02002F086FD09221C21D02002F0AB
:101B500081FD18221B21D02002F07CFD18E000221C
:101B60006B21D02002F0B4FD07221921D02002F011
:101B7000AFFD06221A21D02002F0AAFD09221C2165
:101B8000D02002F0A5FD18221B21D02002F0A0FDDC
:101B900000BF2046FFF796FD0028FAD02046FFF749
:101BA000E9FE10BD00BFFEE7704700000249014397
:101BB000024A1160704700000000FA050CED00E0D9
:101BC000704700002DE9F05F04464FF07F594FF059
:101BD0007C51204604F048FC824625462E460C489F
:101BE000A0EB660635462946504604F03DFC834688
:101BF000294604F039FC8046494604F032FD074688
:101C0000294604F031FC05462846BDE8F09F000057
:101C1000DF59375F01460020034A506820F44040F6
:101C200008435060704700000010024029B1064A86
:101C3000D2690243044BDA6104E0034AD269824369
:101C4000014BDA61704700000010024029B1064ADA
:101C500092690243044B9A6104E0034A9269824309
:101C6000014B9A61704700000010024029B1064AFA
:101C7000D2680243044BDA6004E0034AD26882432C
:101C8000014BDA60704700000010024030B50021BF
:101C90000022002400232D4D6D6805F00C0121B1B8
:101CA000042905D0082923D105E0294D056022E04B
:101CB000274D05601FE0254D6D6805F47012234D1A
:101CC0006D6805F48034022505EB92421CB9214D64
:101CD000554305600BE01D4D6D6805F400351DB1E1
:101CE0001C4D5543056002E0194D5543056002E067
:101CF000174D056000BF00BF144D6D6805F0F00181
:101D00000909154D6B5C0568DD4045600F4D6D6838
:101D100005F4E061090A104D6B5C4568DD408560A3
:101D20000A4D6D6805F46051C90A0B4D6B5C45683E
:101D3000DD40C560054D6D6805F44041890B074DD8
:101D40006B5CC568B5FBF3F5056130BD0010024062
:101D500000127A0000093D00180000202800002031
:101D6000024909888143014A1180704704280040D4
:101D700070B500260024002500F07AF806463848A1
:101D8000B6FBF0F437480088A0423CD035490C80BF
:101D900040F2B27510E02846FFF747FC40B1B4F5B9
:101DA000B77F02D3A4F5B77404E0681C85B206E0DF
:101DB000A4F26D14681C85B2B4F5B67FEBD800BFF1
:101DC00029488580002516E027498888FFF72DFCE3
:101DD00030B1012D04D11D2C01D31D3C09E00CE0D4
:101DE0002248405DA04203D82048405D241A00E00C
:101DF00003E0681C85B21C2CE6D200BF681C1A499F
:101E00008871601CC8711648B6FBF0F100FB1164C4
:101E10004FF46160B4FBF0F0134908704FF4616057
:101E2000B4FBF0F100FB11403C21B0FBF1F00E4996
:101E300048704FF46160B4FBF0F100FB11403C21AD
:101E4000B0FBF1F201FB1200074988700B46DA790A
:101E50009979988800F028F803490872002070BD2D
:101E6000805101003C000020500100203269000830
:101E7000002103480188001F008841EA00407047A4
:101E80001C28004001460020064A12880A40D0B2B1
:101E9000044A121F12880A4012B108B1012000E062
:101EA0000020704704280040F0B503460C46154654
:101EB000642093FBF0F0C6B2642093FBF0F700FBC4
:101EC0001730C1B2132E02DD01F16400C1B2084621
:101ED000CF1701EB977701EBA707BAB2072092FB68
:101EE000F0F700FB172082B25719601EDFF82CC0F4
:101EF0001CF80000384482B2CF1701EB9777BF106F
:101F0000A1EB87071FB9032C01DA501E82B207200C
:101F100092FBF0F700FB1720C0B2F0BD2669000865
:101F200010B50120FFF7AEFF08B1FFF721FF022037
:101F3000FFF7A8FF10B10220FFF712FF0520FFF7FF
:101F40000FFF00F001F810BD00BF0348008800F04B
:101F500020000028F9D07047042800402DE9FE43F6
:101F600007460D46BFB9CC20DA4908806FF482706D
:101F70004880D9484860D94888604FF20D50888120
:101F800040F2CA40C8814DF2DD500882B720488235
:101F90004FF6BD108882012F7CD165B9012302AABA
:101FA0001021EC2002F00AFC01236A461121EC20EA
:101FB00002F004FC0BE0012302AA1021EC2002F045
:101FC0006FFC01236A461121EC2002F069FC9DF8A8
:101FD00008409DF80060200140EA1610BD490880C5
:101FE0000846008800F4006028B10846B0F90000F7
:101FF00040F4704002E0B748B0F9000000B2B549C3
:10200000088065B9012302AA1121EC2002F0D6FB59
:1020100001236A461221EC2002F0D0FB0BE00123E1
:1020200002AA1121EC2002F03BFC01236A46122196
:10203000EC2002F035FC9DF808409DF8006004F0AB
:102040000F0046EA0020A34948800846408800F473
:10205000006028B10846B0F9020040F4704002E088
:102060009C48B0F9020000B29A4948809DB901230A
:1020700002AA1321EC2002F0A1FB012301AA1421E2
:10208000EC2002F09BFB01236A461521EC2002F0B4
:1020900095FB12E01BE1012302AA1321EC2002F0C0
:1020A000FFFB012301AA1421EC2002F0F9FB01231C
:1020B0006A461521EC2002F0F3FB9DF808409DF8DC
:1020C00004809DF80060200340EA081040EA2610D2
:1020D000804948600846406800F4002020B1084666
:1020E00040687F49084301E07A4840687949486080
:1020F00095B9012302AA1521EC2002F05FFB012310
:1021000001AA1621EC2002F059FB01236A4617218F
:10211000EC2002F053FB11E0012302AA1521EC2070
:1021200002F0BEFB012301AA1621EC2002F0B8FB4D
:1021300001236A461721EC2002F0B2FB9DF808400B
:102140009DF804809DF80060200440EA0820304398
:10215000604988600846806800F4002020B1084685
:1021600080685F49084301E05A488068594988609F
:1021700065B9012302AA1821EC2002F01FFB0123FC
:102180006A461921EC2002F019FB0BE0012302AA98
:102190001821EC2002F084FB01236A461921EC206F
:1021A00002F07EFB9DF808409DF8006046EA04209E
:1021B00000B24849888165B9012302AA1A21EC209E
:1021C00002F0FCFA01236A461B21EC2002F0F6FA29
:1021D0000BE0012302AA1A21EC2002F061FB01238B
:1021E0006A461B21EC2002F05BFB9DF808409DF83D
:1021F000006046EA042000B23649C88165B901236F
:1022000002AA1C21EC2002F0D9FA01236A461D2102
:10221000EC2002F0D3FA0BE0012302AA1C21EC20EF
:1022200002F03EFB01236A461D21EC2002F038FB40
:102230009DF808409DF8006046EA042000B2254958
:10224000088265B9012302AA1E21EC2002F0B6FA29
:1022500001236A461F21EC2002F0B0FA0BE00123B3
:1022600002AA1E21EC2002F01BFB01236A461F215B
:10227000EC2002F015FB9DF808409DF8006046EA4E
:10228000042000B21349488265B9012302AA202123
:10229000EC2002F093FA01236A462121EC2002F09F
:1022A0008DFA0BE0012302AA2021EC2002F0F8FABB
:1022B00001236A462121EC2002F0F2FA9DF8084041
:1022C0009DF8006046EA042000B202498882BDE819
:1022D000FE8300005C010020553A01000F2AFFFF39
:1022E0000000F0FF2DE9FE4F002400250026002706
:1022F000A0463E49C86804F027F881463B49486833
:1023000004F022F88246494603F0ECFE04463749C1
:10231000886804F019F881463449086804F014F814
:102320008246494603F0DEFE05463149B1F9140004
:1023300004F00AF82946009004F096F883462C49E8
:10234000B1F9100004F000F85946019003F056FE70
:102350008246294604F088F881462549886803F0BA
:10236000F3FF4946029003F049FE06462049B1F9C1
:10237000120003F0E9FF2946019004F075F8824647
:102380001B49B1F90E0003F0DFFF8346514603F00D
:1023900035FE81462946204604F066F849460290FB
:1023A00004F062F807461249B1F90C0003F0CCFFC3
:1023B0002146029004F058F882463146284604F03F
:1023C00053F80B490290486803F0BEFF0190029950
:1023D00003F014FE8346514603F010FE8146394651
:1023E00003F00CFE80464046BDE8FE8F74010020DD
:1023F0005C01002038B504460020009034B9032366
:102400006A461946EC2002F0D9F905E003236A4632
:102410001946EC2002F044FA9DF8000000049DF8F3
:10242000011040EA01209DF8021008431C49486051
:102430000846406800F4000020B10846406840F0BB
:102440007F4001E0164840681549486034B90323CD
:102450006A460021EC2002F0B1F905E003236A4648
:102460000021EC2002F01CFA9DF8000000049DF809
:10247000011040EA01209DF8021008430849086055
:102480000846006800F4000020B10846006840F0EB
:102490007F4001E0024800680149086038BD000043
:1024A0007401002010B50446002008490860204649
:1024B00000F014F806498869064903F0D5FF06497B
:1024C000486201200149086010BD00004000002062
:1024D000740100200000C8429C0200202DE9F14F49
:1024E00086B000BF00BF00BF00BF2A492A48CDE91F
:1024F00004102A49086A03F055FD04460022284BBF
:1025000003F052F8CDE902010698FFF773FFFFF7D9
:10251000E9FE2249086202A80FC803F045F8804688
:10252000204A214B02F050FA06464FF066321F4B0C
:1025300003F028FA4FF066321C4BCDE9000103F09E
:1025400047FC04461A4A1B4B03F02EF8824602F061
:102550003DFF124948614869174903F085FF064667
:1025600003F0B6FE07460D490869134903F07CFFE6
:10257000064603F0ADFE381A05B2284603F0E4FE25
:1025800004460D4903F0AEFD0449886107B0BDE87B
:10259000F08F0000CDCCCCCCCC545940740100203D
:1025A00000408F40739B82A07A5AC83F66027240F7
:1025B00039B4C876BE9F7ABF00007A4438B5044665
:1025C00000BF34B901236A460821EC2002F0F6F876
:1025D00005E001236A460821EC2002F061F99DF82C
:1025E000000000F080008028EBD121460120FFF799
:1025F000B5FC00BF34B901236A460821EC2002F083
:10260000DDF805E001236A460821EC2002F048F9D4
:102610009DF8000000F040004028EBD12346202226
:102620008021002000F024F82346082220210120E8
:1026300000F01EF82CB907220821EC2002F00AF85D
:1026400004E007220821EC2002F042F840F6B830FE
:1026500001F074FA2046FFF741FF2046FFF73EFFE6
:10266000024840690149086138BD0000740100203A
:102670002DE9F84306460F4615461C4600200090FB
:102680008046102F22D008DC012F38D0022F0BD02B
:10269000042F0FD0082F31D112E0202F1CD0402F53
:1026A00020D0802F2AD123E09DF8000040F02000A8
:1026B000009025E09DF8000040F0400000901FE0F1
:1026C0009DF8000040F06000009019E09DF80000C7
:1026D00040F08000009013E09DF8000040F0A00062
:1026E00000900DE09DF8000040F0C000009007E071
:1026F0009DF8000040F0E000009001E000BF00BF46
:1027000000BF102D28D008DC012D46D0022D0BD0A3
:10271000042D11D0082D3FD116E0202D24D0402DBE
:102720002AD0802D38D12FE09DF8000040F0010024
:1027300000904FF4C01833E09DF8000040F0020014
:1027400000904FF460182BE09DF8000040F003006B
:1027500000904FF4F00823E04FF478389DF8000023
:1027600040F0040000901BE04FF4FC289DF80000AE
:1027700040F00500009013E04FF47E289DF8000023
:1027800040F0060000900BE04FF4FF189DF80000A9
:1027900040F00700009003E000BF4FF4002800BFA6
:1027A00000BF0EBB3448C0F8088034B99DF8002043
:1027B0000621EC2001F04EFF05E09DF800200621E7
:1027C000EC2001F085FF082D1DDD74B901236A4658
:1027D0000921EC2001F0F2FF9DF8000040F0040216
:1027E0000921EC2001F036FF0DE001236A460921A2
:1027F000EC2002F055F89DF8000040F00402092199
:10280000EC2001F065FF012E34D11B48C0F80C808C
:1028100044B99DF8000040F080020721EC2001F04F
:1028200019FF07E09DF8000040F080020721EC202E
:1028300001F04EFF082D1DDD74B901236A46092100
:10284000EC2001F0BBFF9DF8000040F008020921D8
:10285000EC2001F0FFFE0DE001236A460921EC2087
:1028600002F01EF89DF8000040F008020921EC205B
:1028700001F02EFFBDE8F88374010020704710B509
:1028800000F002F810BD00000CB50020019000908F
:102890003348006840F480303149086000BF304858
:1028A000006800F4003000900198401C01900098EE
:1028B00018B90198B0F5A06FF1D12948006800F46B
:1028C000003010B10120009001E00020009000983D
:1028D000012843D12348006840F0100021490860D6
:1028E0000846006820F0030008600846006840F0D1
:1028F000020008601A484068194948600846406864
:1029000048600846406840F4806048600846406877
:1029100020F47C1048600846406840F4E8104860A5
:102920000846006840F08070086000BF0C480068EE
:1029300000F000700028F9D00948406820F003003A
:10294000074948600846406840F00200486000BF00
:102950000348406800F00C000828F9D10CBD0000C5
:102960000010024000200240042808D14FF0E0216E
:10297000096941F004014FF0E022116107E04FF0D6
:10298000E021096921F004014FF0E0221161704754
:102990007047000010B51348006840F0010011496D
:1029A000086008464068104908400E4948600846DB
:1029B00000680E4908400B4908600846006820F48A
:1029C000802008600846406820F4FE0048604FF40C
:1029D0001F008860FFF753FF4FF000600449086054
:1029E00010BD0000001002400000FFF8FFFFF6FEDF
:1029F00008ED00E010B50121880700F0C7F818B114
:102A00000121880700F0B0F810BD000010B50121C9
:102A1000314800F0BBF801285CD101212E4800F0BC
:102A2000A3F801202D490860FEF798FB2C480068A8
:102A3000B0F57A7F1FDD2B49086803F065FC84B28E
:102A4000204600F051F82749486803F05DFC84B245
:102A5000204600F059F82349886803F055FC84B2F9
:102A6000204600F061F81F49C86803F04DFC84B2AD
:102A7000204600F069F81A480068B0F5C87F0FD109
:102A80004FF4AF7000F030F84FF4AF7000F03CF846
:102A90004FF4AF7000F048F84FF4AF7000F054F806
:102AA0000F480068B0F5487F0FD14FF4167000F062
:102AB0001BF84FF4167000F027F84FF4167000F072
:102AC00033F84FF4167000F03FF805480068401CDA
:102AD0000349086010BD00000004004038000020D9
:102AE000340000200404002010B5044640F2B63043
:102AF000844200DB044604EBC40081B2014800F0CC
:102B000056F810BD0008004010B5044640F2B6303B
:102B1000844200DB044604EBC40081B2014800F0AB
:102B200048F810BD0008004010B5044640F2B63029
:102B3000844200DB044604EBC40081B2014800F08B
:102B40003AF810BD0008004010B5044640F2B63017
:102B5000844200DB044604EBC40081B2014800F06B
:102B60002CF810BD00080040CA430282704721B112
:102B7000028842F00102028004E002884FF6FE73F0
:102B80001A40028070470146888C704730B5024673
:102B9000002000230024158A05EA0103958905EA2F
:102BA000010413B10CB1012000E0002030BD81868A
:102BB00070470187704781877047A0F840107047C1
:102BC0008184704710B540F225511D4800F03EF851
:102BD00010B31B4800F064F8C4B21A48008800F42F
:102BE0000040C8B91748008800F4804060B10A2C42
:102BF00003D000201349088020E01248008840F4E8
:102C000000401049088019E00D2C06D10D480088BD
:102C100040F480400B49088010E00A480088C0F367
:102C20000D0009490C5407480088401C05490880DC
:102C300008460088C72801DD0020088010BD00007C
:102C4000003801405C000020A001002070B5024661
:102C5000002400230025002040F66A16B14200D16E
:102C600000BFC1F3421501F01F03012606FA03F36A
:102C7000012D02D19689334006E0022D02D1168A39
:102C8000334001E0968A33400C12012606FA04F420
:102C90001688344013B10CB1012000E0002070BD53
:102CA00001468888C0F30800704700BFFEE749006E
:102CB00050EAC12018BF04204A0D18BF40F001009F
:102CC00040F2FF72B2EB515F08BF40F002000128F2
:102CD00008BF052070474100080218BF04200A0EF3
:102CE00018BF40F001004FF07F4232EA010108BFF7
:102CF00040F00200012808BF052070472DE9F74F7A
:102D0000144694B00021C4E902111599079121F0ED
:102D10000045C9498D4206DC1599C4E9000117B088
:102D20000020BDE8F08FC549DFF814A3A9423CDDBF
:102D30000799C44E0029C44FC44A1599534619DD5A
:102D400003F046F8554506D0C14AC24B03F040F89F
:102D5000C4E900010AE04FF0D352BE4B03F038F84B
:102D600032463B4603F034F8C4E9000117B00120B5
:102D7000BDE8F08F02F05CFB554506D0B44AB54B78
:102D800002F056FBC4E900010AE04FF0D352B14B08
:102D900002F04EFB32463B4602F04AFBC4E900011A
:102DA00017B04FF0FF30BDE8F08FAB49A94215993D
:102DB00078DB21F0004183468846A84AA84B02F000
:102DC000E1FD0022A74B02F033FB02F045FD099024
:102DD00002F071FD06460F469C4A534602F0D2FDB2
:102DE00043465A4602F002FF80468A46984A994B6B
:102DF0003046394602F0C6FD2A0D01250B924246A7
:102E0000534602F0F3FE032DC4E9000139D00B98BC
:102E1000C1F30A51401A05EB45111139814230DAEC
:102E20009148C346784400EB0510CDF80CA00C90F7
:102E3000D0E900233046394602F0A4FD02460B4695
:102E4000049106905846039902F0C2FF80468A46D4
:102E500002460B465846039902F0BAFF049B069AB5
:102E600002F0B6FF83460C9803913946D0E902235D
:102E7000304602F087FD5A46039B02F0A9FF6D1C05
:102E8000BDE707980028A2BF099817B0BDE8F08FEA
:102E9000616881F000416160099817B04042BDE867
:102EA000F08FFFE784461598C1F31301C0F30A5071
:102EB000A0F2F5304FEA601800F01F06C6F12000BE
:102EC000139000200690079041F4801E05206D4667
:102ED00076B1664A08EB00017A4452F8213002EBE1
:102EE0008101B3404A68139922FA01F1194305E0C0
:102EF0005F4908EB0002794451F82210A1FB0E272C
:102F0000A1FB0C131A449A4234BF0123002303EBA4
:102F1000070A05EB8003D3E901B70F448F4234BFA2
:102F20000121002193448B4411B1934502D903E060
:102F3000934501D2012100E00021C3E901B75144CA
:102F400045F82010011EA0F10100C1DC0298059F88
:102F500000F10050800F12900298DDE903568000C6
:102F600002F0A9FC834628460D9102F0BBFC6FF0ED
:102F70001D0203F06CFCCDE90E01304602F0B2FCFC
:102F80006FF03D0203F063FC80468A46384602F04B
:102F9000A9FC6FF05D0203F05AFC07464246534617
:102FA000119102F045FADDE90E2302F041FA5A468A
:102FB0000D9B02F03DFA00250E465A4628460D9B11
:102FC00002F006FFDDE90E2302F002FF42465346FF
:102FD00002F0FEFE3A46119B02F008FEDFF898A0D0
:102FE000244A534602F0CEFC07468846234A244B27
:102FF0003146284602F0C6FC3A46434602F018FA2B
:10300000074688464FF0A84253463146284602F00C
:10301000B9FC3A46434602F00BFA159A12F0004FFB
:1030200004D0129A81F0004152421292C4E9000188
:10303000129817B0BDE8F08FFB21E93F7CD9024020
:10304000FB21F93F7370032E8A19A33B0000405403
:103050003163621A61B4D03DFB21394183C8C96D27
:10306000305FE43F0000E03FC03C00003C3C00001B
:103070001E3C0000182D4454FB21F93D3326A611B7
:10308000460B113C2DE9FF4D21F0004807460C4648
:10309000B8F1795F08DA02F0DFFB002801BF0020F9
:1030A000324904B0BDE8F08D3A4623461046194631
:1030B00002F068FC054602462D480E460B460621E6
:1030C000784400F05DF82A46334602F05BFCDDE907
:1030D000022382468B463846214602F053FC0446C2
:1030E0000F4652465B462846314602F04BFC2246CC
:1030F0003B4602F06DFE07468A464FF0FF322846F7
:10310000314603F0A4FB1B4A90450ADA3A4653467F
:1031100002F05EFE04B00022BDE8F04D134B02F059
:1031200065BD154A4245A8BFA8F500154FF000043B
:10313000B8BF124D22462B4602F04AFE064688468C
:1031400022462B460020094902F042FE04460D4665
:103150003A4653463046414602F03AFE04B0224613
:103160002B46BDE8F04D02F041BD00000000F03FED
:10317000EC3900003333D33F0000E93F0000D23F79
:103180002DE9F0414F1E00EBC7010446D1E90001D3
:1031900015461E4637F006020DD02A46334602F089
:1031A000F1FB7F1E04EBC703D3E9002302F040F9D3
:1031B00037F00602F1D1022F25D0042F13D0062FAD
:1031C00018BFBDE8F0812A46334602F0DBFBD4E9A4
:1031D0000A2302F02DF92A46334602F0D3FBD4E944
:1031E000082302F025F92A46334602F0CBFBD4E946
:1031F000062302F01DF92A46334602F0C3FBD4E948
:10320000042302F015F92A46334602F0BBFBD4E949
:10321000022302F00DF92A46334602F0B3FBD4E94B
:103220000023BDE8F04102F003B900002DE9FF4D95
:10323000054621F0004084B00C46B0F1795F0BDA0E
:103240002846FFF734FD042808BF00F07FF8284621
:1032500008B02146BDE8F08D2A460B46104602F024
:1032600091FB06460F462A46234602F08BFB80461A
:1032700026488A4632463B4605217844FFF780FFC0
:1032800083461098029160B3214A224B4046514632
:1032900002F078FBCDE900015A4640465146029BB8
:1032A00002F070FB82468846DDE906014FF0FF32EE
:1032B00003F0CDFA5246434602F08AFD32463B46C1
:1032C00002F060FBDDE9062302F082FDDDE9002368
:1032D00002F07EFD08B02A462346BDE8F04D02F01C
:1032E00085BC0B465A463046394602F04BFB084A2D
:1032F000084B02F09DF84246534602F043FB08B0EB
:103300002A462346BDE8F04D02F092B8323900005B
:10331000495555555555C5BF00221346104601491C
:1033200002F042B90000F03F012203F090BA02F02F
:103330007FB8002213461046114602F035B940F21C
:10334000013200204FF0E04103F081BA024A002030
:10335000110703F07CBA000001FDFFFF02F04EBE32
:103360006FF05E01080703F0A0BA014600BF704786
:103370002DE9F04D8D4F21F0004A86B005460C46F0
:10338000BA452ADBAAEB070028430AD088488245C1
:1033900001DC1AD1CDB106B02846BDE8F04DFFF7EB
:1033A000C3BF844A844B284602F0ECFA07460E4617
:1033B000824A834B2846214602F0E4FA06B03A4698
:1033C0003346BDE8F04D02F033B80120FCF7C7FFEB
:1033D00006B0BDE8F04DFFF7ACBF7A48824542DA4F
:1033E000BAF1795F0BDA2846FFF761FC042808BFC1
:1033F000FFF7ACFF284606B02146BDE8F08D2A460F
:103400000B46104602F0BEFA834602466E480E4650
:103410000B4606217844FFF7B3FE5A46334602F0C6
:10342000B1FA804669488A465A46334604217844B0
:10343000FFF7A6FE5A46334602F0A4FA00223B46A6
:1034400001F0F6FF02460B464046514602F0ACF84A
:103450002A46234602F096FA06B02A462346BDE8DD
:10346000F04D01F0E5BF284624F0004100223D4622
:103470003B4602F0BBFB4FF0FF3203F0E8F9064693
:10348000024653480F460B4606217844FFF778FE64
:1034900032463B4602F076FACDE900014D4832460D
:1034A0003B4604217844FFF76BFE32463B4602F070
:1034B00069FA00222B4601F0BBFF83460291304699
:1034C000394601F05DFF804643480D46504517DC04
:1034D000DDE900015A46029B02F066F842462B469F
:1034E00002F050FA42462B4601F0A2FF012203F0FF
:1034F000AEF9304A304B02F06BFC304A304B4CE0B6
:103500004FF0000A52460B46404601F091FFCDE9CC
:10351000031052462B461046194602F033FA324643
:103520003B4602F063FBDDE9033202F03DF806465C
:103530000F46DDE900015A46029B02F035F883464A
:10354000009101223046394603F081F9194A1A4B9D
:1035500002F04CFB06460F4601224046294603F086
:1035600076F95A46009B02F00DFA32463B4602F0CD
:103570002FFC06460F4601225046294603F067F904
:103580000E4DDFF858802A46434602F02FFB3246A4
:103590003B4602F02BFB2A46434602F027FB002C59
:1035A000D8BF81F0004106B0BDE8F08D0000F03FCB
:1035B0000000F07F075C143326A6913C182D44547C
:1035C000FB21F93F0000E03F283500003E350000B8
:1035D000B2340000C83400003333EF3FFB21E93F31
:1035E0002DE9F84F04460D4621F000400091734943
:1035F000814211DC7249884201DC06D12CB120469F
:103600002946BDE8F84FFFF78FBE6E48002DCCBFAE
:103610006D496E49BDE8F88F6D49814211DD6D49F4
:103620008142D8BF4FF0FF366DDD20462946FFF7B7
:103630003EFB042808BFFFF789FE20462946BDE867
:10364000F88F6549654F25F00045814233DD6449B7
:10365000814219DD002632464FF08043204629463C
:1036600001F0E6FE80468A4601222046294603F004
:10367000EEF800223B4602F0ABFB4246534601F017
:1036800093FF04460D463EE001260022BA463B4623
:103690002046294601F0CCFE80460F4600225346C4
:1036A0002046294602F094FB42463B4601F07CFF4F
:1036B00004460D4627E04B4981421BDDDFF828A177
:1036C0000226002253462046294602F05BF90022DA
:1036D0003B4601F0ADFE80460F4600225346204691
:1036E000294602F075FB42463B4601F05DFF044669
:1036F0000D4608E0032622462B4600203B4901F0F8
:1037000053FF04460D4622462B461046194602F04A
:1037100039F98B46824602460B4602F033F90746DA
:103720000246334888460B4606217844FFF728FDB9
:1037300052465B4602F026F982462E488B463A46B0
:10374000434605217844FFF71BFD3A46434602F005
:1037500019F902460B46002E504659460CDA01F084
:1037600067FE22462B4602F00DF901B022462B4699
:10377000BDE8F04F02F03ABA01F05AFE22462B465D
:1037800002F000F91C4A7A4402EBC603D3E9002395
:1037900002F01EFB22462B4602F01AFB174A7A441F
:1037A00002EBC603D3E9002302F020FA009A002AB4
:1037B000B8BF81F00041BDE8F88F00000000104460
:1037C0000000F07F182D4454FB21F93FFB21F9BF85
:1037D0000000DC3F0000203E0000F33F0000F03F0F
:1037E0000000E63F008003400000F83F0000F0BF0B
:1037F000CA3200008832000026320000EE3100009C
:103800002DE9F0474FF0684202EB40030C460546B5
:10381000B3F1654F3CBF02EB4102B2F1654F7CD280
:10382000C0F3C753C1F3C7529A1A1B2A06DD10F022
:10383000004F14BF76487748BDE8F08712F11A0FA1
:1038400017DA11F0004F06D010F0004F0CBF72488D
:103850007248BDE8F0872146284602F043FC044642
:10386000FFF739FA042808BFFFF77AFD2046BDE8C4
:10387000F0874200B2EB410F25D910F0004F19BF7D
:10388000674F684E684F694E224685F000441546E2
:103890000A4680F0004110460A1A5200B2F1807FB9
:1038A00040D248406249DFF88CA110F0004F18D098
:1038B0004FF03F48384602F0DFFE0746514630469B
:1038C00002F0DAFE17E011F0004F04BF0026374681
:1038D000E2D010F0004F19BF574F584E584F594E75
:1038E000DAE74FF07C58384602F088FB074651462D
:1038F000304602F083FB06464146284602F0B4FDFE
:10390000214602F07BFB82462146404602F0ACFD98
:10391000294602F0A6FE514600E037E002F0E2FB45
:10392000044604E02146284602F0DCFB044601463A
:1039300002F09AFD8046444902F096FD434902F0A8
:103940005DFB414602F090FD414902F057FB4146C4
:1039500002F08AFD3F4902F051FB414602F084FD2E
:103960003D4902F04BFB05464146204602F07CFDF6
:10397000294602F079FD314602F040FB214602F073
:103980003DFB3946BDE8F04702F038BB4FF07F42BF
:10399000B2EB400F28BFB2EB410F03D2BDE8F047B6
:1039A000FFF7DCBC40EA01035B0008BF44F0FF41C5
:1039B0000AD0B2EB400F08BFB2EB410F06D125F0A1
:1039C000804024F0804105460C4629E7B2EB400FC9
:1039D00012BF5FEA410245F0FF4004F000413FF4AE
:1039E0001FAF4A0092EA40033FF51AAF002AACBF6E
:1039F0004FF09F464FF03E56314602F035FD0546EA
:103A00003146204602F030FD04462846214607E7AD
:103A1000DB0FC9BFDB0FC93FDB0F4940DB0F49C0DC
:103A20000000C9BF22AAFDB90000C93F22AAFD3982
:103A30000060ED3EC30ACE37000049C022AA7DBA1D
:103A40000000494022AA7D3A2DAD65BD8FB8D53D15
:103A50000FB511BE61C84C3EA8AAAABE00B5244B42
:103A600021F0004287B09A42DCBF0022134629DDD4
:103A7000204B9A4208D140B94FF00100FCF76FFC8F
:103A8000FFF757FC07B000BD03DBFFF74DFC07B0A5
:103A900000BD02AAFFF732F910F0030104BF0DF1D7
:103AA000080C9CE80F000DD0012001290ED002293E
:103AB00014D00DF1080C00909CE80F00FFF7B6FB46
:103AC00007B000BDFFF7DEFA07B000BD0DF1080C2E
:103AD00000909CE80F00FFF7A9FB05E00DF1080C32
:103AE0009CE80F00FFF7CEFA07B081F0004100BD5F
:103AF000FB21E93F0000F07F10B56FF00400FEF7F6
:103B000033FF0A4800680A49B0FBF1F00949087020
:103B10000846007800EB4001C1EBC0104FF6FF7182
:103B200001EAC0000449088010BD00000400002024
:103B300000127A0054000020560000200146114A6D
:103B400012884A434FF0E0235A6100229A611A46D4
:103B5000126942F001021A6100BF4FF0E0221069C1
:103B600000F001021AB100F48032002AF5D04FF0C3
:103B7000E022126922F001024FF0E0231A610022D4
:103B80009A617047560000200146114A12784A4354
:103B90004FF0E0235A6100229A611A46126942F0FE
:103BA00001021A6100BF4FF0E022106900F001022B
:103BB0001AB100F48032002AF5D04FF0E0221269E9
:103BC00022F001024FF0E0231A6100229A6170474F
:103BD000540000202DE9F04F8BB000200890099090
:103BE0005E4807904FF07E5006908146002432E0F8
:103BF0005B4951F824004FF07E5102F001FD02D2E2
:103C00000898401C0890564951F8240002F0CAF95F
:103C100007464FF03332534B01F078FE02D2099839
:103C2000401C09904E4951F82400079902F0E8FC25
:103C300004D225464A4850F824000790484951F8D4
:103C40002400069902F0DCFB04D22646444850F8D2
:103C500024000690641C042CCADB0898012845DB6C
:103C60003F4951F8250002F09DF907464FF03332E5
:103C70003C4B02F0ADF802460B46CDE904014FF093
:103C80006630394901F090FC824601F09FFB814685
:103C9000002424E0324951F8240002F083F98246DE
:103CA0004FF033322F4B02F093F8074688464846D0
:103CB00002F078F93A464346CDE9000101F062FE90
:103CC0004FF03332274BCDE9020101F0B1FBCDE9D2
:103CD000040101F07BFB224941F82400641C042C00
:103CE000D8DB4FF07E501E4941F825000998012885
:103CF00031DB1B4850F826104FF07E5002F0BCFC20
:103D0000059002F04FF907463A460B464FF06630F1
:103D1000154901F049FC824601F058FB8146002418
:103D200013E00F4850F824104FF07E5002F0A4FC2E
:103D30008046494602F098FB07464FF07E5102F05C
:103D400090FC074941F82400641C042CE9DB03487B
:103D5000034941F826000BB0BDE8F08F9A99993ECF
:103D6000040400203333D33F6666E63F03B595B0C5
:103D700002201190DDE91501FCF766FC002013908C
:103D800007E00021FE4A139842F820101398401CC7
:103D9000139013980428F4DBFA4880680490F948DB
:103DA00080680390049902F05FFB059002F0FAF836
:103DB000CDE9060101F0E4FACDE90A01F1484068D5
:103DC0000290F04840680190029902F04DFB049087
:103DD000EC4800680290EB4800680190029902F0FC
:103DE00043FB0390049902F009F9059002F0DAF818
:103DF000CDE9060101F0C4FACDE90801DDE90A23A5
:103E000001F0D2FBCDE90C01FFF7EAFBCDE90E0191
:103E1000DDE90E01FFF722FECDE90A0101F0D6FA35
:103E20000D90D848406A01460C900D9802F01CFB9A
:103E3000D44948620020D449C860C8608860D3482B
:103E400088610846C068D24AD2490D9000F083FDCF
:103E5000CD49C86008460069CD4ACE490D9000F0B2
:103E60007AFDC949086108464069002211460D9053
:103E700000F071FDC449486108468069002211467E
:103E80000D9000F068FDC049886111980A2801DD95
:103E90000A2011901198401EBF490968081A06D4DB
:103EA0001198401EBC490968081A129007E0119841
:103EB000401EB9490968401AC0F10B001290B6487B
:103EC0000068C0EBC000B54901EB800080690D902F
:103ED000B34880690C900D9902F0CEFBB04988611F
:103EE000A848406A0D90A84880690C900D9902F08E
:103EF000C3FBA9490968C1EBC101A84A02EB8101D2
:103F00008861A5480068C0EBC000114601EB800045
:103F100080690D90A24880690C900D9902F06EF8AE
:103F20009F4988611298C0EBC0009C4901EB80005A
:103F300080690A9098480068C0EBC00001EB8000DF
:103F4000806909900A9902F097FB0B909548806868
:103F500001460A900B9802F087FA0D90904880690C
:103F60000990904840680890099902F07DFA0B90FA
:103F700089480068C0EBC001884800EB8100806977
:103F80000990884800680890099902F06DFA0A9033
:103F90000B9902F033F80C900D9902F02FF8109065
:103FA00000221146109800F0D6FC109000201390CB
:103FB0000EE07349139851F820000D90109902F00B
:103FC0001DF86F4A139942F821001398401C139072
:103FD00013980428EDDB70480068C0EBC0006F49FF
:103FE00001EB8000C0680D906D48C0680C900D9981
:103FF00002F042FB6A49C860624880690D906248DD
:10400000C0680C900D9902F037FB63490968C1EB59
:10401000C101624A02EB8101C8605F480068C0EBE1
:10402000C000114601EB8000C0680D905C48C0687C
:104030000C900D9901F0E2FF5949C8601298C0EB4D
:10404000C000564901EB8000C0680A9052480068E1
:10405000C0EBC00001EB8000C06809900A9902F033
:104060000BFB0B905048806801460A900B9802F0B9
:10407000FBF90D904A48C06809904B484068089089
:10408000099902F0F1F90B9043480068C0EBC000B9
:10409000424901EB8000C0680990434800680890DD
:1040A000099902F0E1F90A900B9901F0A7FF0C9031
:1040B0000D9901F0A3FF34494860084640683B4A27
:1040C0003B490D9000F047FC2F494860324800689A
:1040D000C0EBC000314901EB800000690D90304811
:1040E00000690C900D9902F0C7FA2D490861254826
:1040F000C0690D90244800690C900D9902F0BCFA3B
:1041000025490968C1EBC101244A02EB810108611C
:1041100021480068C0EBC001104600EB8100006937
:104120000D901F4800690C900D9901F067FF1C4924
:1041300008611298C0EBC000184901EB80000069CB
:104140000A9015480068C0EBC00001EB80000069D0
:1041500009900A9902F090FA0B901648806801467F
:104160000A900B9802F080F90D900D4800690990B3
:10417000104840680890099902F076F90B901BE00E
:10418000140400209C0200206802002000007A44F1
:104190000000A0C20000A042F4000020D0020020D5
:1041A000E8030020A8000020600000200000B4C246
:1041B0000000B4426C000020F7480068C0EBC0016A
:1041C000F64800EB810000690990F5480068089006
:1041D000099902F049F90A900B9901F00FFF0C9030
:1041E0000D9901F00BFFEF49086008460068EE4AA0
:1041F000EE490D9000F0AFFBEA4908600021E94864
:1042000081608068E84AE9490D9000F0A4FBE54927
:104210008860E1480068C0EBC001E04800EB810025
:1042200040680D90E24840680C900D9902F024FA25
:10423000DF494860DF4800690D90DA4840680C901B
:104240000D9902F019FAD4490968C1EBC101D34AAA
:1042500002EB81014860D0480068C0EBC000114605
:1042600001EB800040680D90D14840680C900D999A
:1042700001F0C4FECE4948601298C0EBC000C749A7
:1042800001EB800040680A90C3480068C0EBC000A2
:1042900001EB8000406809900A9902F0EDF90B905B
:1042A000C548806801460A900B9802F0DDF80D9031
:1042B000BF4840680990C04840680890099902F0DA
:1042C000D3F80B90B4480068C0EBC000B34901EBD1
:1042D000800040680990B84800680890099902F089
:1042E000C3F80A900B9901F089FE0C900D9901F02A
:1042F00085FE109000221146109800F02CFB1090C3
:10430000AE4800680D90109901F078FEAB49086046
:10431000084640680D90109901F070FEA74948606A
:10432000084680680D90109902F0A6F9A3498860AC
:104330000846C0680D90109902F09EF99F49C86028
:1043400095480068C0EBC000944951F820000D90DA
:10435000974800680C900D9902F08EF99449086016
:104360009448C0680D908F4800680C900D9902F039
:1043700083F989490968C1EBC101884A42F82100E3
:1043800085480068C0EBC000114651F820000D9030
:10439000874800680C900D9901F030FE8449086050
:1043A0001298C0EBC0007D4951F820000A907A486D
:1043B0000068C0EBC00051F8200009900A9902F093
:1043C0005BF90B907E48806801460A900B9802F0DA
:1043D0004BF80D907648006809907948406808903D
:1043E000099902F041F80B906B480068C0EBC000DF
:1043F0006A4951F8200009907148006808900999AD
:1044000002F032F80A900B9901F0F8FD0C900D992A
:1044100001F0F4FD109000221146109800F09BFA74
:104420001090664800680D90109902F025F96349D4
:104430000860084640680D90109901F0DFFD5F4963
:104440004860084680680D90109901F0D7FD5B49DF
:1044500088600846C0680D90109902F00DF9574920
:10446000C8604D480068C0EBC0004C4901EB8000BB
:1044700080680D904E4880680C900D9902F0FCF811
:104480004B4988604B4840690D90464880680C90C5
:104490000D9902F0F1F840490968C1EBC1013F4AAA
:1044A00002EB810188603C480068C0EBC000114607
:1044B00001EB800080680D903D4880680C900D995C
:1044C00001F09CFD3A4988601298C0EBC001334866
:1044D00000EB810080680A902F480068C0EBC000A4
:1044E0002E4901EB8000806809900A9902F0C4F817
:1044F0000B903448806801460A900B9801F0B4FF95
:104500000D902B48806809902E48406808900999C2
:1045100001F0AAFF0B9020480068C0EBC0011F48C3
:1045200000EB81008068099026480068089009998E
:1045300001F09AFF0A900B9901F060FD0C900D9923
:1045400001F05CFD109000221146109800F003FA73
:1045500010901A4800680D90109901F04FFD17490E
:104560000860084640680D90109902F085F81349DC
:104570004860084680680D90109901F03FFD0F4992
:1045800088600846C0680D90109902F075F80B49D4
:10459000C860002013902BE0F4000020D00200201F
:1045A0006C000020680200200000B4C20000B44289
:1045B000E80300209C02002090000020140400204A
:1045C000840000209C0000201E49139851F8200010
:1045D0001D490D90139851F820000C900D9901F091
:1045E0000DFD194A139942F821001398401C1390AD
:1045F00013980428E8DBFFF7EDFA0020139010E091
:104600001149139851F82000104A4FF07E510D9037
:1046100000F0A1F90C4A139942F821001398401CAC
:10462000139013980428EBDB09480068401C0849E4
:104630000860084600680A2801D10020086017B009
:1046400000BD000014040020040400209A99993E43
:10465000F400002070B504460E46154601211948A5
:10466000FCF7D5FD00BF18491648FCF797FD002858
:10467000F9D0002221461348FCF778FE00BF134909
:104680001048FCF78BFD0028F9D031460D48FCF7A7
:1046900076FE00BF0D49891C0A48FCF77FFD002803
:1046A000F8D029460748FCF76AFE00BF0749891C75
:1046B0000448FCF773FD0028F8D001210148FCF7FD
:1046C000B2FD70BD005800400100030082000700E9
:1046D00070B504460D461646FCF710FF04F0FE00C8
:1046E000FCF7D8FEFCF756FF2846FCF7D3FEFCF794
:1046F00051FF3046FCF7CEFEFCF74CFFFCF724FFE1
:1047000070BD000010B586B004468CBB01210820A6
:10471000FDF79CFA01218805FDF788FA4FF4406007
:10472000ADF8140003208DF816001C208DF817003A
:1047300005A91D48FCF7E0F80020ADF808004BF68D
:10474000FF70ADF80A000A20ADF80C004FF480604D
:10475000ADF80E000001ADF810001448019001A959
:104760001348FCF789FD01211148FCF72CFD18E0E6
:10477000FFE701210820FDF769FA4FF44060ADF82A
:10478000140010208DF8170003208DF8160005A9DD
:104790000548FCF7B1F80120064908600649C1F850
:1047A000AC0106B010BD0000000C0140400D03003C
:1047B00000580040A8812142008021422DE9F041AB
:1047C00006460F4615461C4600BF4FF400313148DF
:1047D000FCF735FD0028F8D101212E48FCF717FD24
:1047E00000BF2D492B48FCF7D9FC0028F9D0002246
:1047F00031462848FCF7BAFD00BF28492548FCF798
:10480000CDFC0028F9D001212248FCF7DCFC394618
:104810002048FCF7B4FD00BF2049891C1D48FCF767
:10482000BDFC0028F8D001211A48FCF7F0FC00BFBD
:1048300019491848FCF7B2FC0028F9D0012231468A
:104840001448FCF793FD00BF1349491C1148FCF7BD
:10485000A5FC0028F8D015E0012C07D100210D4857
:10486000FCF790FC01210B48FCF7DDFC0A493F31C5
:104870000848FCF793FC28B10648FCF773FD287044
:104880006D1C641E002CE7D101210248FCF77AFC64
:10489000BDE8F081005800400100030082000700DD
:1048A0002DE9F04106460F4614461D46FCF726FE4C
:1048B00006F0FE00FCF7EEFDFCF76CFE3846FCF758
:1048C000E9FDFCF767FEFCF719FE46F00100FCF776
:1048D000E1FDFCF75FFE0CE0012D04D10020FCF7A8
:1048E000A1FD207003E00120FCF79CFD2070641CFA
:1048F0006D1E012DF0DAFCF727FEBDE8F0812DE9F1
:10490000F04704460D46D4E9000101F077FB8046EC
:104910004046A16801F072FB07463946404601F067
:10492000E1FB06462846E16801F0A6FE81463146D5
:1049300001F09AFD0746E16801F060FBE060314656
:104940004FF07E5001F098FE0746414601F08CFD85
:104950002060BDE8F08770B506460D46144629462E
:10496000204601F04DFE01D2304670BD00212846A0
:1049700001F07AFC05D02946304601F041FE00D214
:104980002E460021204601F06FFC05D0214630461E
:1049900001F036FD00D226463046E6E7FCF72CFE55
:1049A0000EE00120FCF744F8044601F015FD05492E
:1049B000086001210020FFF7D9F90120FDF772FD01
:1049C000EFE70000000000202DE9F04D16460F46ED
:1049D00094B01C4621F0004123F00042002814BF8F
:1049E0004FF0010C4FF0000C0CEB470CFE4B0CEBA6
:1049F00003054FEA630C65452BD3350018BF01252D
:104A000005EB44051D44F94B9D4222D3F84B52EA75
:104A1000060C02D09F4205D148B914B000201946B7
:104A2000BDE8F08D002808BF4FF0000C01D04FF01A
:104A3000010C0CEB470313F5001F0AD8002E14BF1E
:104A40004FF0010C4FF0000C0CEB440313F5001F6A
:104A500007D914B0324623463946BDE8F04DFEF77B
:104A600066BCDFF890834FF0000A002FB8BF4245C4
:104A700023DAE14B9A42A8BF4FF0020A1DDADC4B61
:104A800093421ADCDD4B03EB2253142B08DDC3F1F8
:104A9000340C26FA0CF303FA0CFCB4450DD108E0F3
:104AA0005EB9C3F1140C22FA0CF303FA0CFC944522
:104AB00003D103F00103C3F1020A51EA00031BD141
:104AC000002C19DA002F18BFBAF1020F02D0BAF188
:104AD000010F07D00220FBF742FC14B0BDE8F04DF7
:104AE000FEF71ABC0220FBF73AFCFEF715FC14B0E7
:104AF00081F00041BDE8F08D330070D1424525D1F1
:104B000007F1804212F5801201BF00280020B84949
:104B100014B008BFBDE8F08DB548884207DC002C12
:104B2000A1BF1846214614B0BDE8F08D07E0002C67
:104B3000BFBF184684F0004114B0BDE8F08DB04905
:104B40007944D1E9000114B0BDE8F08DDFF8A0C2CE
:104B500062452AD1002C24DA39B1414517D1002809
:104B600004BF002002461CD106E040B10220FBF742
:104B7000F6FBFEF7E4FB0A46394600F0D7BA9D4A39
:104B8000394614B0002062F31E01BDE8F08D08DA4A
:104B900014B03B46BDE8F04D02460020614600F0EF
:104BA00003BD14B03946BDE8F08D414517DAB4F1C4
:104BB000804F0CD0A4F10053B3F1FF530FD13B1E33
:104BC0000DDB14B01946BDE8F04D00F0D9BB3B46F3
:104BD00014B00246BDE8F04D194600F0D3BE050002
:104BE00027F000433AD1E1B1414537D1002F06DD2E
:104BF000002CA1BF0020414614B0BDE8F08D002F6D
:104C000001DD002C1FDB002F16DA002C14DBBAF1BB
:104C1000010F4FF0000014BF76497A4914B0BDE887
:104C2000F08DBAF1020F18BF002F0CD0BAF1010FAE
:104C300009D1002F07DA0BE0002FB8BF002C0DDAE6
:104C4000BAF1010F04D0002014B00146BDE8F08D88
:104C500014B000204FF00041BDE8F08D4FF0010886
:104C600008EBE77CCDF814C05CEA0A0C0DD0DFF845
:104C700098C162457EDDDFF894C1654B624512DD67
:104C80008B420ADB002C18DB23E00120FBF767FBDB
:104C900014B0BDE8F04DFEF74CBB554A8A4202DC29
:104CA000002C0ADC15E0994202DA002C11DA04E04B
:104CB0004F4B994219DD002C0BDD0220FBF74FFB17
:104CC000FEF73DFB4B4A14B061F31E021146BDE8EE
:104CD000F08D0220FBF743FBFEF738FB444A14B08B
:104CE00061F31E021146BDE8F08D0022394601F045
:104CF0006FF807460D466FF0010201F0A8FD4FF076
:104D00005532444B00F072FF3A462B4600F03AFE13
:104D10000022414B00F06AFF80468B463A462B4604
:104D20001046194600F02EFE42465B4600F02AFE71
:104D300088460E904FF0C042384B3846294600F066
:104D400021FE83460091364A344B41460E9800F0CE
:104D500019FE80460191334A334B3846294600F00C
:104D600011FE4246019B01F033F80D4602460B4608
:104D70000C9000E011E05846009900F059FB002724
:104D800088465A463846009B01F022F82B460C9A7A
:104D900000F02CFF024600F079B90020B1F5801F29
:104DA00007DA35222846194601F051FD05466FF015
:104DB000340000EB2150A0F2FF300190C1F313004A
:104DC00040F07F6141F04051029118498842D8BFBC
:104DD0004FF0000B35DD16498142C8BF4FF0010B83
:104DE0002FDC4FF0000B25E0FFFF1F00FFFF0F003F
:104DF0000000F03F0000F07F0000404301FCFFFF97
:104E00009C1F00000000F0FF0000E0410000F043A4
:104E1000FFFFEF3F5555D53F0000E03F4715F73FF7
:104E2000FE822B6544DF5DF80BAE543E8E98030086
:104E30007AB60B000198401C01900298A0F58010F2
:104E40000290FF480299784400EBCB000991D0E929
:104E5000002328460B93129200F0BAFF00910A90AB
:104E600028460B9B129A099900F0E2FA02460B467B
:104E70000020F44900F098FBCDE90C010B460246F6
:104E800000990A9800F07EFD0690EF4888460027BA
:104E900078440299006810904FF0005040EA610099
:104EA00000EB8B4000F5002102910B9B129A1098A9
:104EB00000F08EFF2A46099B00F098FE3A464346D2
:104EC00000F060FD0891129038464146029B109A0E
:104ED00000F058FD009B0A9A00F088FE089B129A89
:104EE00000F076FFDDE90C2300F04CFD0B91069AF3
:104EF000129043461046194600F044FD054602460E
:104F0000D2480B460A9106217844FEF739F90A9BEC
:104F10002A46089102901046194600F033FD089B7E
:104F2000029A00F02FFD054609914346384619467E
:104F3000069A00F07DFA0B9B129A00F023FD2A4698
:104F4000099B00F075FACDE908013A464346104640
:104F5000194600F017FD0A910022BD4B009000F0A9
:104F600067FADDE9082300F063FA0D463A46B84BCC
:104F7000384600F02DFF0A9B009A00F029FFDDE97A
:104F8000082300F033FECDE908013A462B461046CF
:104F9000414600F0F7FC00910A90DDE90801434624
:104FA000069A00F0EFFC069088462B463A460B998D
:104FB000129800F0E7FC4346069A00F039FA804662
:104FC0000B4602460D9100990A9800F031FA002034
:104FD0000F460546009B0A9A00F0FAFE42460D9BDA
:104FE00000F004FE88460E904FF06042994B284630
:104FF000394600F0C7FC02910090974A954B414614
:105000000E9800F0BFFC80460391944A944B2846CA
:10501000394600F0B7FC4246039B00F009FA914A7A
:105020007A4402EBCB03D3E9002300F001FA0546F2
:105030000791019800F03FFC0C9003912A46079BD2
:105040000299009800F0F4F9874A7A4402EBCB0306
:10505000D3E900239346019300F0EAF9039B0C9AED
:1050600000F0E6F9002788463846039B0C9A00F0CA
:10507000AFFE5A46019B00F0ABFE029B009A00F087
:10508000A7FE2A46079B00F0B1FD024600200690CD
:1050900005986C4DAAF10103184301D1734D069098
:1050A00000200B4604903046214600F06BFC8246FF
:1050B0008B46234630461946049A00F089FE3A464C
:1050C000434600F05FFC52465B4600F0B1F90646ED
:1050D0008A463A4643462146049800F053FC04466B
:1050E0000F463246534600F0A3F9614A8B4691427F
:1050F00021DBABEB020353EA000210D122463B4610
:1051000000F066FE804603915A4A5B4B304651469A
:1051100000F08EF94246039B00F032FD27D20220B8
:10512000FBF71DF9FEF70BF90A46294614B062F3A6
:105130001E01BDE8F08D514B2BF000429A4216D370
:105140004F4A0BEB020353EA000208D122463B46CA
:1051500000F03EFE3246534600F012FD07D8022012
:10516000FBF7FDF8FEF7F2F80A462946DEE72BF0DA
:1051700000404449444A01EB20514FF0000882426C
:1051800023DA481C4FF4801121FA00F058443F4ABA
:10519000C0F30A517A443E4BA1F2FF31CB4020EAE2
:1051A0000303C0F3130040F4801CC1F11400126823
:1051B0002CFA00F8BBF1000FB8BFC8F10008204678
:1051C000394600F005FE04460F4622463B4630466F
:1051D000514600F02DF94FF0000B5A462D4B584622
:1051E000039100F0CFFB00910A902B4A2B4B5846BD
:1051F000039900F0C7FB0491029022463B465846B3
:10520000039900F0E5FD3246534600F0EFFC244AD6
:10521000244B00F0B7FB049B029A00F009F9074603
:105220008A46009B0A9A00F003F904460E46009B4A
:105230000A9A00F0CDFD3A46534600F0D7FC33E021
:10524000DE1B00000000F03F4C1C00004C1B000067
:105250000000084009C7EE3FFD033ADCF5015B148E
:10526000E02F3EBE241A0000EA1900000000F0BF43
:1052700000009040FE822B654715973C00CC904083
:1052800000346F3F01FCFFFF0000E03F48190000C1
:10529000FFFF0F00432EE63F396CA80C615C20BE77
:1052A000EF39FAFE422EE63F0746224633460F917B
:1052B0001046194600F066FB834602462E488A4691
:1052C0000B4605217844FDF75BFF5A46534600F034
:1052D00059FB2246334600F089FC82468B463A460B
:1052E000204631460F9B00F04DFB3A460F9B00F0E5
:1052F0009FF80F460A9000224FF0804350465946CF
:1053000000F066FD0391009052465B462046314610
:1053100000F038FB039B009A00F046F93B460A9ADE
:1053200000F056FD2246334600F052FD0022134B9A
:1053300000F05CFC0E46044601EB085108150028FD
:1053400010DC42462046314601F081FAFDF7AFFC01
:10535000042808BFFDF7FAFF42462046314601F017
:1053600076FA044606980B4614B022462946BDE854
:10537000F04D00F007BB0000C01700000000F03F38
:105380002DE9F04106460F4600F03CFC04000D46B6
:1053900018BF0120284320F00040C0F17F6000F1D9
:1053A000E040C00F0ED0301C18BF0120384320F061
:1053B0000040C0F17F6000F1E040C00F04BF012059
:1053C000FAF7CDFF20462946BDE8F08121F00042E2
:1053D000A2F16052B2F5801F01F0004328BFD2F164
:1053E0007F6C0BD95FEA001C43EAC20242EB5070AB
:1053F00018BF704728BF20F001007047B2F5801F2A
:10540000BCBF184670474FEA410C1CF5001F02D282
:10541000084601F0F0B870B500F05EFB00000089AE
:10542000FFF7F6BF4FF00040A0F580007047000086
:1054300010B591EA030F48BF83F0004300F1D08418
:10544000841A71EB030C05D2121943EB0C03001BF9
:1054500061EB0C01DFF824E14FEA1154A4EB135C7B
:105460001EEA430F18BF9EEA445F73D023EA0E037F
:10547000DCF1200E21EA045143F4801332D322FAE6
:105480000CFE10EB0E0023FA0CFE41EB0E01CCF1EA
:10549000200E03FA0EFE10EB0E0051F10001B1F5E3
:1054A000801FCCF1200E32D201EB045112FA0EF221
:1054B000BDE8104058BF7047401C38BF5FEA420249
:1054C00018BF7047002814BF20F0010041F100010F
:1054D0004FEA410313F5001F38BF7047A1F1C041E7
:1054E00000F048BB012A43EB0302ACF1200CDCF1D5
:1054F0001F0E32BF4FF0000E23FA0CF310EB030027
:1055000041EB0451B4EB115FD0D0A1EB045101F594
:10551000801149085FEA300001EB04510ED350F1CD
:10552000000038BF12FA0EFE08D1BDE81040C9E7EE
:10553000401C38BF5FEA4202CAD1C3E7BDE8104051
:105540004FEA410313F5001F38BF7047A1F1C04176
:1055500000F010BB9EEA445F08D011EA5E0FBDE880
:10556000104004BF01F0004100207047BDE810402A
:1055700070B500F0B1FA00BF64FBBE3E0000E0FF72
:1055800002494FF0000001F030B900BF0000F87F81
:10559000491058BFC1F140415B1058BFC3F14043AF
:1055A0008B42EFF3008070472DE9C04130B4DFF843
:1055B000A0C23CEA111418BF3CEA131400F0EC80BE
:1055C00081EA03051CEA111444EAD57418BF1CEAE9
:1055D000131500F0C780A4EB05044FF0004545EA21
:1055E000C12145EAC32341EA505143EA525304F131
:1055F0007F74994204F500344FEAC0204FEAC2227A
:1056000008BF904200F09C804FEA13650FF24016ED
:10561000765D4FEA134506FB05F7C7F1807706FB79
:1056200007F74FEAD737A7FB03687642C8F58038FB
:10563000A7FB06CE38BFA8F1010807FB08E64FF02C
:10564000000EA6FB028CE6FB03CEDCF1000CCEF1D3
:10565000004E38BFAEF1010EA6FB0C584FF000070C
:105660004FF00005E6FB0E87A1FB08C6A0FB07CEA6
:1056700016EB0E0645F10005E1FB076515F1E04E5E
:105680007EBFA4F580345FEA46066D4116F18007BF
:1056900045F100054FEA17274FEA066647EA056716
:1056A000A6F1DE46B6F1805F4FEA15251FD93846D0
:1056B00024F0010C05EBC471BCF1FE6F01EB0C1181
:1056C00002D8F0BCBDE8008124425CBF01F5801E19
:1056D0009EEAC47F02D4F0BCBDE80081244238D4E5
:1056E000F0BCA1F1C041BDE8004100F043BA4FEA6F
:1056F000D22242EA43524FEAD323A7FB02864FEA63
:10570000D02040EA415007FB03661EEA0E0F4FEA25
:10571000D12105FB026658BFA6EB0056B6EB00563A
:105720004FEA520E4EEAC37E18EB0E0E56EB530EA6
:10573000BDD518EB02085E417F1C55F10005B6E7A8
:105740004FF480154FF000074FF000064FF00008AF
:10575000ADE7F0BC4FF0000001F1C04101F00041A5
:10576000BDE8008111EA0C1F0CEA131500D00CE013
:1057700013EA0C1F00F025804FF00000F0BC81EA16
:10578000030101F00041BDE80081F0BCBDE800412B
:1057900081EA030100F0EEB9F0BCBDE8004170B54C
:1057A00000F09AF9097EFC3E00F007B881EA030197
:1057B0004FF0000001F00041704781EA030100F062
:1057C000D9B9F0BCBDE800414FF000002149704755
:1057D000FFFDFBF9F7F5F4F2F0EEEDEBE9E8E6E4B6
:1057E000E3E1E0DEDDDBDAD8D7D5D4D3D1D0CFCD3D
:1057F000CCCBCAC8C7C6C5C4C2C1C0BFBEBDBCBB76
:10580000BAB9B8B7B6B5B4B3B2B1B0AFAEADACAB70
:10581000AAA9A8A8A7A6A5A4A3A3A2A1A09F9F9E4A
:105820009D9C9C9B9A9999989797969595949393FC
:10583000929191908F8F8E8E8D8C8C8B8B8A898993
:105840008888878786858584848383828281818016
:105850000000FF070000F87F4FEA41034FEA53536F
:10586000A3F58063D3F11E03C8BFD3F1210C0CDD77
:105870004FF0004242EAC12242EA505232FA03FC9F
:105880008CEAE17CACEBE1707047102BC4BF0020C8
:10589000704703F5787CBCF1FF3F04D06FF0004205
:1058A00082EA2100704770B500F016F94992248011
:1058B00000207047F2E710F0004248BF4042B0FAC3
:1058C00080F310FA03F10AD0C3F11D0303F58063DE
:1058D0004FEA415002EB035202EBD12170474FF0E7
:1058E00000007047B0FA80F310FA03F10AD0C3F158
:1058F0001D0303F580634FEA41504FEA035202EB68
:10590000D12170474FF000007047000051EA030CAE
:1059100017D41CF5801F58BFBCF5801F00F106800E
:10592000994218BF704708BF9042704707D711F5DA
:10593000801F58BF13F5801F19D4994270478942C0
:1059400070471CF5801F08D5BCF5801FF7D58B422A
:1059500018BF704708BF824270474FF4001C1CEB11
:10596000410F38BF1CEB430F01D28B42704770B51B
:1059700000F0B2F8922449004FF000514FF08053EC
:10598000FFF706BEDFF848C170B51CEA111E1EBF46
:105990001CEA13159EEA0C0F95EA0C0F00F06F80BD
:1059A00081EA030423EA4C134EEAD47E21EA4C1127
:1059B00041F4801143F48013AE44A1FB024CA0FBE0
:1059C0000365AEF17F7E361955EB0C05A1FB034C48
:1059D0004CF10003A0FB021C16EB0C06654153F1D1
:1059E0000003094218BF46F0010613F4007F0BD1F3
:1059F0004FEA03314FEA0530340341EA155140EADA
:105A000016506FF003020AE04FEAC3214FEAC520A7
:105A1000F40241EA555140EA56506FF0020202EB9F
:105A20002E4201EB025585EACE710AD05FEA440CA2
:105A300018BF24F0004450F1000041F1000120EAB9
:105A4000D47040F2FE7C624500D270BDA84214BF03
:105A50004FF080444FF04044002E08BF0024BEF1B8
:105A6000806FA8BFA1F1C041BDE8704080F2828084
:105A70004FF0000001F1C04101F0004170479EEA83
:105A80000C0F0CEA131518BF95EA0C0F06D04FF057
:105A9000000081EA030E0EF0004170BD00F01CF81A
:105AA0008900013E00F007B800F009B84FEA430C46
:105AB0005FEA5C5C08D081EA030100F05BB84FEA62
:105AC000410C5FEA5C5CF6D14FF000000149704781
:105AD0000000FF070000F87F0EF1020E2EF0030E0B
