:020000040800F2
:1000000000040020CF01000875160008210F000829
:100010007116000845050008DF25000800000000F3
:10002000000000000000000000000000B1210008F6
:100030002F06000800000000FD160008C522000879
:10004000EF010008EF010008EF010008451A000861
:10005000EF010008EF010008EF010008EF010008C0
:10006000EF010008EF010008EF010008EF010008B0
:10007000EF010008EF010008EF0100084905000842
:10008000EF010008EF010008EF010008EF01000890
:10009000EF010008EF010008EF010008EF01000880
:1000A000EF010008EF010008EF010008EF01000870
:1000B0002923000841230008EF010008EF01000890
:1000C000EF010008EF010008EF010008EF01000850
:1000D000EF010008F9240008EF010008EF01000813
:1000E00031060008EF010008EF010008EF010008E9
:1000F000EF010008EF010008EF010008EF01000820
:10010000EF010008EF010008EF010008EF0100080F
:10011000EF010008EF010008EF010008EF010008FF
:10012000EF010008EF010008EF010008EF010008EF
:1001300000F002F800F03AF80AA090E8000C8244BF
:100140008344AAF10107DA4501D100F02FF8AFF29C
:10015000090EBAE80F0013F0010F18BFFB1A43F0A5
:10016000010318472C6300004C630000103A24BFC1
:1001700078C878C1FAD8520724BF30C830C144BF0C
:1001800004680C607047000000230024002500264E
:10019000103A28BF78C1FBD8520728BF30C148BFEA
:1001A0000B6070471FB51FBD10B510BD00F0E6F81D
:1001B0001146FFF7F7FF04F067F800F004F903B405
:1001C000FFF7F2FF03BC02F06AFD000070470B4826
:1001D00080470B4981F308880A480047FEE7FEE79D
:1001E000FEE7FEE7FEE7FEE7FEE7FEE7FEE7FEE7E7
:1001F00005480649044A064B70470000CD01000837
:1002000070060020310100087004002070060020F4
:1002100070040020704710B54C1084EA530404D5D4
:100220004042C1F1000138BF491E1B4204D5524271
:10023000C3F1000338BF5B1E00F015F814F0804FC7
:1002400004D04042C1F1000138BF491E14F0004FF4
:1002500004D05242C3F1000338BF5B1E10BD70478B
:1002600070477047704753EA020C00F069802DE92F
:10027000F04B4FF00006002B1FBFB3FA83F503FAD3
:1002800005F424FA05F65E4012BF1643B2FA82F571
:1002900002FA05F4C5F120051EBF22FA05FC44EA66
:1002A0000C04203556EA044C4FEA144418BF641C71
:1002B0004FF000084FF00009904271EB030C39D366
:1002C000002919BFB1FA81F701FA07F6B0FA80F7F1
:1002D00000FA07F6C7F120071EBF20FA07FC46EA1E
:1002E0000C062037B6FBF4FCA7EB0507103F07F020
:1002F0001F0BCBF120060CFA0BFB2CFA06F644BFC1
:10030000B3460026202FA4BF5E464FF0000B5BEAE9
:10031000060C08BF4FF0010B19EB0B09ABFB027C7D
:1003200048EB0608C01B06FB02CC0BFB03CC71EBB1
:100330000C01C1E70B46024641464846BDE8F08B3A
:1003400013B54FF000004FF00001AFF30080BDE89F
:100350001C40704710B500F009F8006810BD10B5DA
:10036000044600F003F8046010BD00000048704728
:100370001004002000487047100400207546FFF765
:10038000F9FFAE4605006946534620F00700854652
:1003900018B020B5FFF72CFFBDE820404FF0000655
:1003A0004FF000074FF000084FF0000B21F007015D
:1003B000AC46ACE8C009ACE8C009ACE8C009ACE8A0
:1003C000C0098D4670470446AFF300802046FFF712
:1003D000F6FE000070B5044614B9514801F048F823
:1003E00050494F4800F050FF012C03D13B21D02051
:1003F00000F0CAFF4B4800894B49C988401A00B237
:10040000484908810846408947490989401A00B28D
:10041000444948810846808943494989401A00B2C5
:1004200040498881B1F9000005F0FCFB05462946EA
:100430003E4803F0D9FE3B49B1F9020005F0F2FB5A
:10044000054629463A4803F0CFFE3649B1F9040083
:1004500005F0E8FB05462946364803F0C5FE33485B
:10046000C068354908603248C06848603148C06893
:1004700088602C49B1F9080005F0D4FB2E49C8600A
:100480002849B1F90A0005F0CDFB2B49086125493F
:10049000B1F90C0005F0C6FB2749486127492648F9
:1004A00000F0B0F9204AD168234A906905F03EFD7A
:1004B000054621488169284605F02DFD1E498861C1
:1004C000194A11691C4AD06905F030FD05461A48E1
:1004D000C169284605F01FFD1749C861C868184959
:1004E00005F01CFC05464FF0804105F017FC124951
:1004F000C8600869124905F011FC05464FF08041BB
:1005000005F00CFC0C49086148690D4905F006FC32
:1005100005464FF0804105F001FC0749486170BD78
:10052000EC000020FA00002070020020B000002043
:10053000C0000020D000002088020020B020CD3B69
:10054000F6FFF93C00BFFEE710B54FF4003000F0B5
:100550002FF801280DD1400400F010F800210548C3
:1005600000F00DFD0121034800F02DFD012002499E
:10057000086010BD005800402C00002000F08051A1
:1005800011B10349086001E002494860704700006A
:10059000040402400000024021B1026842F001025E
:1005A000026004E002684FF6FE731A400260704772
:1005B00001460020002201F0805313B1054B1A6858
:1005C00001E0054B1A6802EA01030BB1012000E0CB
:1005D0000020704700040240000002401AB1036886
:1005E0000B43036002E003688B430360704710B560
:1005F0000022026847F6F0739A430C6A8B68234323
:100600000C6923434C6923438C692343CC692343FE
:100610004C6A23438C6A23431A430260CB684360CD
:100620000B6883604B68C36010BD416070477047C2
:1006300010B54FF4804000F035F838B34FF48040E7
:1006400000F02AF84FF48041114800F0CAF8012860
:1006500008D10021800701F04DFF0121880701F03A
:1006600020FF13E04FF48041094800F0BAF868B960
:1006700000214FF0804001F014FF4FF0804001F066
:100680001CFF044600F024FC0249086010BD000075
:10069000000C01402800002001490860704700005C
:1006A00014040140014600200022074B1B6803EAA6
:1006B0000102054B14331B680B4013B10AB1012032
:1006C00000E0002070470000000401402DE9F041E7
:1006D000024600250026002000230024002791F870
:1006E00003C00CF00F0591F803C00CF0100CBCF126
:1006F000000F03D091F802C04CEA050591F800C044
:10070000BCF1000F31D0146800202BE04FF0010C39
:100710000CFA00F3B1F800C00CEA03069E4220D1A7
:1007200083004FF00F0C0CFA03F7BC4305FA03FCEF
:100730004CEA040491F803C0BCF1280F06D14FF035
:10074000010C0CFA00FCC2F814C00AE091F803C0D6
:10075000BCF1480F05D14FF0010C0CFA00FCC2F8B7
:1007600010C0401C0828D1D31460B1F800C0BCF1FF
:10077000FF0F34DD546800202EE000F1080C4FF02C
:10078000010808FA0CF3B1F800C00CEA03069E4217
:1007900021D183004FF00F0C0CFA03F7BC4305FA8C
:1007A00003FC4CEA040491F803C0BCF1280F05D106
:1007B00000F1080C08FA0CF8C2F8148091F803C094
:1007C000BCF1480F07D100F1080C4FF0010808FAFE
:1007D0000CF8C2F81080401C0828CED35460BDE845
:1007E000F0810246002093680B400BB1012000E02D
:1007F00000207047016170470AB1016100E041616A
:100800007047000003B59FB04FF07C51209805F071
:1008100085FA0D90FE4880680590FD4800680490B8
:10082000059905F07BFA0790F948C0680590F848EB
:1008300040680490059905F071FA0690079905F053
:1008400075FB4FF08041089005F068FA1C90F04865
:10085000C0680590EE4880680490059905F05EFA3E
:100860000790EB4840680590E948006804900599B6
:1008700005F054FA0690079905F02EF84FF08041E4
:10088000089005F04BFA1D90E14880680490E0481C
:1008900080680390049905F041FA0690DC484068AE
:1008A0000490DB4840680390049905F037FA0590FE
:1008B000069905F011F84FF08041079005F02EFAE7
:1008C0004FF07E51089005F026FB1E901F9880681F
:1008D00005901F9880680490059905F01FFA07900D
:1008E0001F98406803901F9840680290039905F094
:1008F00015FA05901F98006803901F9800680290F1
:10090000039905F00BFA0490059904F0E5FF0690B1
:10091000079904F0E1FF089000F0F2FE0E901F9896
:10092000006808900E9905F0F9F919901F98006871
:1009300008900E9905F0F2F91A901F980068089037
:100940000E9905F0EBF91B901D9806901B980590E9
:10095000069905F0E3F908901E9806901A980590FC
:10096000069905F0DBF90790089905F0DFFA139076
:100970001E98069019980590069905F0CFF90890F1
:100980001C9806901B980590069905F0C7F90790EA
:10099000089905F0CBFA14901C9806901A980590C7
:1009A000069905F0BBF908901D98069019980590D6
:1009B000069905F0B3F90790089905F0B7FA159074
:1009C0001398079093480168079805F0A7F90890D5
:1009D0009148006801460790089804F07DFF8E4911
:1009E0000860149807908B480168079805F096F9FD
:1009F00008908948406801460790089804F06CFF09
:100A0000854948601598079082480168079805F065
:100A100085F908908048806801460790089804F09E
:100A20005BFF7D4988601398014605907B4800680C
:100A300005F074F907901F98C0687949049005F093
:100A40006DF94FF08041059005F068F9069007991F
:100A500004F042FF0890704800680146079008982B
:100A600004F03AFF16901498014605906B48006810
:100A700005F054F907901F9800696949049005F042
:100A80004DF94FF08041059005F048F9069007991F
:100A900004F022FF089060484068014607900898DB
:100AA00004F01AFF17901598014605905B480068FE
:100AB00005F034F907901F9840695949049005F0F2
:100AC0002DF94FF08041059005F028F9069007991F
:100AD00004F002FF0890504880680146079008988B
:100AE00004F0FAFE1890189805904948C0680490E0
:100AF000059905F013F9079017980390444880680A
:100B00000290039905F00AF905904148406880F089
:100B100000400390169801460290039805F0FEF8F5
:100B20000490059905F002FA0690079905F0FEF980
:100B300008900D9905F0F2F8129018980590344835
:100B400080680490059905F0E9F8079017980390DC
:100B50002F48C0680290039905F0E0F805901698B8
:100B600003902B4800680290039905F0D7F8049091
:100B7000059905F0DBF90690079904F0ADFE0890A1
:100B80000D9905F0CBF81190189805902048406811
:100B90000490059905F0C2F80790179803901C4837
:100BA00000680290039905F0B9F805901698039033
:100BB0001748C0680290039905F0B0F804900599B1
:100BC00004F08AFE0690079905F0B0F908900D9997
:100BD00005F0A4F81090189805900D48006804904E
:100BE000059905F09BF8079017980390084840680E
:100BF0000290039905F092F805900548806880F00E
:100C00000040039016980146029003980AE0000005
:100C1000A0000020E8000020B0020020E400002036
:100C20002E9E0B3A05F07AF80490059904F054FED4
:100C30000690079904F050FE08900D9905F06EF8A3
:100C40000F909E4800680890129904F045FE9B4959
:100C50000860084640680890119904F03DFE9749E5
:100C60004860084680680890109904F035FE934962
:100C700088600846C06808900F9904F02DFE8F49DF
:100C8000C8600846C06805900846C0680490059989
:100C900005F044F807908948806803908748806889
:100CA0000290039905F03AF8059084484068019055
:100CB000824840680090019905F030F803907F4821
:100CC000006801907D4800680090019905F026F8C1
:100CD0000290039904F000FE0490059904F0FCFDD5
:100CE0000690079904F0F8FD089000F009FD0E90B9
:100CF0007248006808900E9905F010F86F49086076
:100D00000846406808900E9905F008F86B4948605D
:100D10000846806808900E9905F000F867498860D9
:100D20000846C06808900E9904F0F8FF6349C8604F
:100D300008464068014605904FF0804004F0EEFF01
:100D400006905E48C06801460590069804F0E6FFEC
:100D500008905A480068014605904FF0804004F022
:100D6000DDFF06905548806801460590069804F01E
:100D7000D5FF0790089905F0D9F80C904F48006806
:100D8000014605904FF0804004F0C8FF06904B48A4
:100D9000406801460590069804F0C0FF0890474857
:100DA0008068014605904FF0804004F0B7FF069040
:100DB0004248C06801460590069804F0AFFF0790CE
:100DC000089904F089FD0B903C48C06806903B48A8
:100DD000C0680590069904F0A1FF08903748806824
:100DE0000490364880680390049904F097FF0690B9
:100DF000324840680290314840680190029904F0FE
:100E00008DFF04902D48006802902C4800680190E6
:100E1000029904F083FF0390049905F087F8059088
:100E2000069905F083F80790089904F055FD0A909B
:100E30001F9840692249079004F070FF4FF08041ED
:100E4000089004F06BFF09904FF07E51099805F06F
:100E500031F804D31B49099804F02CFF0DD22099D6
:100E6000099804F05BFF08901F98006A01460790FC
:100E7000089804F031FD1F9908620C9804F000FDF9
:100E8000CDE9020101F00EFF4FF000520E4BCDE90B
:100E9000040104F0E5F9CDE9060103F005FF1F990F
:100EA0008861DDE90A1002F045F90849089004F06C
:100EB00035FF1F99C86121B000BD0000A0000020CF
:100EC000F6FFF93C000080BFDCA54C40E12E6542F6
:100ED0002DE9F0410446204604F0A4FE07460549EA
:100EE00004F06EFD0646044904F018FF0546284646
:100EF000BDE8F08100409C460000AA4310B50122E5
:100F0000D1030648FFF778FC0F2002F0D7FA002241
:100F10004FF400410148FFF76FFC10BD000C014089
:100F200000BFFEE721B1028842F48062028004E043
:100F300002884FF6FF331A400280704770B50246B0
:100F40000024002500230020958A138B1B0445EA0A
:100F5000030626F07F4404EA01068E4201D10120F7
:100F600000E0002070BD21B1028842F00102028041
:100F700004E002884FF6FE731A400280704721B1E8
:100F8000828842F40062828004E082884FF2FF731C
:100F90001A408280704721B1828842F48052828058
:100FA00004E082884EF6FF731A408280704721B1B8
:100FB000028842F48072028004E002884FF6FF63E8
:100FC0001A400280704721B1028842F40072028008
:100FD00004E002884FF6FF531A40028070470CB5B8
:100FE0000246002000230193009300920B0F01930F
:100FF00021F07F41019B1BB1009B1433009303E060
:10100000090C009B18330093009B1B680B400BB12D
:10101000012000E000200CBD2DE9F04385B004461E
:101020000D460026B1460427DFF8CC80A6884FF68F
:10103000C0700640684600F0BBFBDDF808802F4812
:10104000B8FBF0F01FFA80F946EA0906A68020886E
:101050004FF6FE7108402080002629492868884202
:101060000CD828684000B8FBF0F087B2042F00DAF3
:1010700004273E4309F10100208427E0E8884BF66D
:10108000FF71884206D1286800EB4000B8FBF0F001
:1010900087B209E0286800EBC00101EB0010B8FB43
:1010A000F0F087B247F48047C7F30B0008B947F068
:1010B000010747F4004006434FF4967009FB00F027
:1010C0004FF47A7190FBF1F0401C2084A6832088B5
:1010D00040F00100208026884FF6F5300640A888B1
:1010E0006989084306432680A88929890843208105
:1010F00005B0BDE8F083000000127A0040420F0006
:10110000A08601000146088AC0B2704712B141F0C2
:10111000010102E04FF6FE7319400182704701821F
:10112000704710B501F0D0F800F042F800F02CF84C
:1011300002F07CF94FF4A06000F0D6FA02F0A6FFAE
:1011400000F02AFF00F072FA02F0DEF910BD01464D
:10115000CA1701EB92729210A1EB820292B964203D
:1011600091FBF0F200FB121050B94FF4C87091FBE4
:10117000F0F200FB121008B9012070470020FCE7D4
:101180000120FAE70020F8E708B50121102000F05F
:10119000FFFA4FF40050ADF8000048208DF803002E
:1011A00069460248FFF792FA08BD000000100140AE
:1011B00008B50121042000F0EBFA4FF47060ADF89F
:1011C000000010208DF8030003208DF8020069460E
:1011D0000448FFF77BFA4FF470610248FFF70AFBFF
:1011E00008BD0000000801402DE9F04700210E462F
:1011F0000F4600252DE0204800F03AF91F491E480F
:1012000000F042F8042421E01C4931F9140004F0F4
:1012100009FD81461A4904F081FD80464FF0804166
:1012200004F07CFD174941F824003046394604F0AB
:1012300014FD8146134850F82410484604F04CFB36
:10124000804604F0E9FE06460F46641C062CDBDDF2
:101250006D1C642DCFDB4FF4967200233046394667
:10126000FEF7D9FF401F71F1000102DA0120BDE84D
:10127000F0870020FBE70000EC000020FA000020CF
:10128000F6FFF93C200100202DE9F04705460E4607
:1012900000240AE0681C10F8140015F8141000EB84
:1012A000012000B226F81400641C072CF2DB002495
:1012B0005BE0304830F91400002811DB2D4931F98A
:1012C000140004F0AFFC80462B4904F079FB07467C
:1012D0004FF0814104F022FD284941F8240011E03B
:1012E000244931F9140004F09DFC80464FF08E41F2
:1012F00004F066FB07464FF0814104F00FFD1F49E3
:1013000041F824001B49201D31F91000002815DB8D
:101310000A46211D32F9110004F084FC8146164969
:1013200004F04EFB8046164904F0F8FC0746002105
:1013300004F0F1FD134941F8240015E00D4A211D88
:1013400032F9110004F06EFC81464FF08E4104F03A
:1013500037FB80460A4904F0E1FC0746002104F00F
:10136000DAFD084941F82400641C032CA1DBBDE828
:10137000F0870000FA00002000FEFF460801002070
:101380000000FA441401002070B504460E46002502
:1013900000213248FFF700F90E213048FFF745F9E8
:1013A00005E06D1C41F28830854200DD70BD4FF4D0
:1013B00000312B48FFF713FE0028F2D10121284805
:1013C000FFF7E9FD01212648FFF7F1FD00BF2549A0
:1013D0002348FFF7B3FD0028F9D00022214620481A
:1013E000FFF794FE00BF20491D48FFF7A7FD002826
:1013F000F9D001211A48FFF7B6FD31461848FFF72A
:101400008EFE00BF1849891C1548FFF797FD00287C
:10141000F8D001211248FFF7CAFD00BF114910485A
:10142000FFF78CFD0028F9D0012221460C48FFF778
:101430006DFE00BF0B49491C0948FFF77FFD0028DE
:10144000F8D001210548FFF7A7F801210448FFF76C
:1014500096FD00200549086000BFA7E7580002403C
:101460000058004001000300820007002C0000200B
:1014700010B504460E2322463B21D02002F042FE46
:1014800010BD000070B500241FE05F48FFF7F0FFBB
:101490005E495D48FFF7F8FE5D48C0885B490989F1
:1014A000084400B25A49C88008460089574949890A
:1014B000084400B256490881084640895349898941
:1014C000084400B252494881641C642CDDDB50485A
:1014D000B0F90600642190FBF1F000B24C49C880DD
:1014E0000846B0F90800642190FBF1F000B24849C9
:1014F00008810846B0F90A00642190FBF1F000B2BF
:101500004349488100246FE03F48FFF7B1FF3F495E
:101510003D48FFF7B9FE3D4800893D49C988401A5A
:1015200000B23A4908810846408939490989401A78
:1015300000B2364948810846808935494989401AB0
:1015400000B232498881B1F9000004F06BFB054616
:101550002946304802F048FE2C49B1F9020004F057
:1015600061FB054629462C4802F03EFE2749B1F9A9
:10157000040004F057FB05462946284802F034FED3
:101580002448C068264908602348C068486023484A
:10159000C06888601D49B1F9080004F043FB204988
:1015A000C8601A49B1F90A0004F03CFB1C49086103
:1015B0001649B1F90C0004F035FB19494861194985
:1015C0001748FFF71FF9164A9169114AD06804F0CD
:1015D00083F90F49C860124AD1690D4A106904F0B5
:1015E0007BF90B490861641C642C8DDB0849C868D1
:1015F0000D4904F0E5F90649C86008690A4904F094
:10160000DFF90349086170BDEC000020FA000020FA
:1016100070020020B0000020C0000020D000002098
:1016200088020020B020CD3B0000C84210B5002247
:101630006B21D02002F0ECFC07221921D02002F00F
:10164000E7FC06221A21D02002F0E2FC09221C212C
:10165000D02002F0DDFC18221B21D02002F0D8FCA3
:1016600000BFFFF7C1FD0028FBD0FFF70BFF10BD47
:1016700000BFFEE77047000070B5002100230F2275
:10168000C47804B3154C246804F4E064C4F5E06441
:10169000210AC1F10403CA40447804FA03F18478B2
:1016A0001440214309010E4C0678A155047804F03A
:1016B0001F050124AC4005786D11AD0005F1E02552
:1016C000C5F8004109E0047804F01F050124AC408E
:1016D000044D0678761145F8264070BD0CED00E00B
:1016E00000E400E080E100E002490143024A1160A9
:1016F000704700000000FA050CED00E070470000A4
:101700002DE9F05F04464FF07F594FF07C512046A1
:1017100004F004FB824625462E460C48A0EB6606E4
:1017200035462946504604F0F9FA8346294604F026
:10173000F5FA8046494604F0EEFB0746294604F0D8
:10174000EDFA05462846BDE8F09F0000DF59375FF7
:1017500029B1064A52690243044B5A6104E0034A24
:1017600052698243014B5A617047000000100240E9
:1017700029B1064AD2690243044BDA6104E0034A04
:10178000D2698243014BDA617047000000100240C9
:1017900029B1064A92690243044B9A6104E0034A64
:1017A00092698243014B9A61704700000010024029
:1017B00030B500210022002400232D4D6D6805F076
:1017C0000C0121B1042905D0082923D105E0294DB8
:1017D000056022E0274D05601FE0254D6D6805F48A
:1017E0007012234D6D6805F48034022505EB92429A
:1017F0001CB9214D554305600BE01D4D6D6805F486
:1018000000351DB11C4D5543056002E0194D55438F
:10181000056002E0174D056000BF00BF144D6D6804
:1018200005F0F0010909154D6B5C0568DD40456068
:101830000F4D6D6805F4E061090A104D6B5C456859
:10184000DD4085600A4D6D6805F46051C90A0B4D95
:101850006B5C4568DD40C560054D6D6805F4404131
:10186000890B074D6B5CC568B5FBF3F5056130BDB1
:101870000010024000127A0000093D001400002010
:1018800024000020024909888143014A11807047E1
:101890000428004070B500260024002500F07AF8E6
:1018A00006463848B6FBF0F437480088A0423CD0E2
:1018B00035490C8040F2B27510E02846FFF747FC2E
:1018C00040B1B4F5B77F02D3A4F5B77404E0681C47
:1018D00085B206E0A4F26D14681C85B2B4F5B67F3B
:1018E000EBD800BF29488580002516E02749888865
:1018F000FFF72DFC30B1012D04D11D2C01D31D3C6F
:1019000009E00CE02248405DA04203D82048405D39
:10191000241A00E003E0681C85B21C2CE6D200BF4C
:10192000681C1A498871601CC8711648B6FBF0F132
:1019300000FB11644FF46160B4FBF0F013490870D0
:101940004FF46160B4FBF0F100FB11403C21B0FBAF
:10195000F1F00E4948704FF46160B4FBF0F100FB08
:1019600011403C21B0FBF1F201FB120007498870E5
:101970000B46DA799979988800F028F803490872BB
:10198000002070BD80510100380000203C01002083
:10199000E6610008002103480188001F008841EA31
:1019A000004070471C28004001460020064A12886B
:1019B0000A40D0B2044A121F12880A4012B108B17C
:1019C000012000E00020704704280040F0B50346E5
:1019D0000C461546642093FBF0F0C6B2642093FBDE
:1019E000F0F700FB1730C1B2132E02DD01F16400E5
:1019F000C1B20846CF1701EB977701EBA707BAB240
:101A0000072092FBF0F700FB172082B25719601EE7
:101A1000DFF82CC01CF80000384482B2CF1701EB6D
:101A20009777BF10A1EB87071FB9032C01DA501E6F
:101A300082B2072092FBF0F700FB1720C0B2F0BD86
:101A4000DA61000810B50120FFF7AEFF08B1FFF71B
:101A500021FF0220FFF7A8FF10B10220FFF712FFBD
:101A60000520FFF70FFF00F001F810BD00BF03488D
:101A7000008800F020000028F9D0704704280040BA
:101A8000FEB50646BEB9CC20944908806FF482703A
:101A9000488093484860934888604FF20D50888191
:101AA00040F2CA40C8814DF2DD500882B72048821A
:101AB0004FF6BD108882012E75D1012302AA102194
:101AC000EC2002F01FFB01236A461121EC2002F0FA
:101AD00019FB9DF808409DF80050200140EA1510C0
:101AE0007E4908800846008800F4006028B1084656
:101AF000B0F9000040F4704002E07848B0F900000E
:101B000000B276490880012302AA1121EC2002F0DC
:101B1000F9FA01236A461221EC2002F0F3FA9DF84B
:101B200008409DF8005004F00F0045EA00206B4982
:101B300048800846408800F4006028B10846B0F9A3
:101B4000020040F4704002E06448B0F9020000B2C4
:101B500062494880012302AA1321EC2002F0D2FA44
:101B6000012301AA1421EC2002F0CCFA01236A46D9
:101B70001521EC2002F0C6FA9DF808409DF804708B
:101B80009DF80050200340EA071040EA2510534911
:101B900048600846406800F4002028B108464068C4
:101BA0005149084302E098E04C4840684B4948607E
:101BB000012302AA1521EC2002F0A4FA012301AAB4
:101BC0001621EC2002F09EFA01236A461721EC2030
:101BD00002F098FA9DF808409DF804709DF80050B6
:101BE000200440EA072028433C4988600846806872
:101BF00000F4002020B1084680683B49084301E01A
:101C00003648806835498860012302AA1821EC20F3
:101C100002F078FA01236A461921EC2002F072FAE8
:101C20009DF808409DF8005045EA042000B22B4979
:101C30008881012302AA1A21EC2002F063FA012311
:101C40006A461B21EC2002F05DFA9DF808409DF8E1
:101C5000005045EA042000B22049C881012302AAAD
:101C60001C21EC2002F04EFA01236A461D21EC20D3
:101C700002F048FA9DF808409DF8005045EA04201B
:101C800000B216490882012302AA1E21EC2002F0AC
:101C900039FA01236A461F21EC2002F033FA9DF83D
:101CA00008409DF8005045EA042000B20B494882E4
:101CB000012302AA2021EC2002F024FA01236A4623
:101CC0002121EC2002F01EFA9DF808409DF80050FA
:101CD00045EA042000B201498882FEBD4801002087
:101CE000553A01000F2AFFFF0000F0FF2DE9FE4FDB
:101CF0000024002500260027A0463E49C86803F0BE
:101D000091FF81463B49486803F08CFF8246494673
:101D100003F056FE04463749886803F083FF814686
:101D20003449086803F07EFF8246494603F048FEC6
:101D300005463149B1F9140003F074FF29460090BB
:101D400003F0ECFF83462C49B1F9100003F06AFF61
:101D50005946019003F0C0FD8246294603F0DEFF9C
:101D600081462549886803F05DFF4946029003F0EB
:101D7000B3FD06462049B1F9120003F053FF29468E
:101D8000019003F0CBFF82461B49B1F90E0003F02E
:101D900049FF8346514603F09FFD81462946204670
:101DA00003F0BCFF4946029003F0B8FF0746124912
:101DB000B1F90C0003F036FF2146029003F0AEFFAC
:101DC00082463146284603F0A9FF0B490290486835
:101DD00003F028FF0190029903F07EFD83465146EF
:101DE00003F07AFD8146394603F076FD8046404691
:101DF000BDE8FE8F600100204801002008B50020EA
:101E0000009003236A461946EC2002F07BF99DF806
:101E1000000000049DF8011040EA01209DF8021026
:101E20000843184948600846406800F4000020B1A3
:101E30000846406840F07F4001E012484068114980
:101E4000486003236A460021EC2002F05BF99DF80C
:101E5000000000049DF8011040EA01209DF80210E6
:101E60000843084908600846006800F4000020B1F3
:101E70000846006840F07F4001E0024800680149E0
:101E8000086008BD6001002010B500200749086007
:101E900000F014F806498869064903F03FFF064937
:101EA000486201200149086010BD00003C0000208C
:101EB000600100200000C842880200202DE9F04F98
:101EC00087B000BF00BF00BF00BF29492948CDE946
:101ED00004102949086A03F0D3FC04460022274B6A
:101EE00002F0D0FFCDE90201FFF788FFFFF7FEFE09
:101EF0002149086202A80FC802F0C4FF8046204AA8
:101F0000204B02F0CFF94FF066321F4BCDE90001B4
:101F100003F0A6F906464FF066321B4B03F0C6FBF2
:101F200004461A4A1A4B02F0ADFF824602F0BCFE8C
:101F3000114948614869174903F0F0FE064603F06D
:101F400035FE07460C490869124903F0E7FE0646CC
:101F500003F02CFE381A05B2284603F063FE04464F
:101F60000C4903F02DFD0449886107B0BDE8F08FEE
:101F7000CDCCCCCCCC5459406001002000408F40E7
:101F8000739B82A07A5AC83F6602724039B4C87601
:101F9000BE9F7ABF00007A4408B500BF01236A469D
:101FA0000821EC2002F0AEF89DF8000000F080005F
:101FB0008028F3D10120FFF763FD00BF01236A46AB
:101FC0000821EC2002F09EF89DF8000000F040008F
:101FD0004028F3D120228021002000F019F80822A7
:101FE0002021012000F014F807220821EC2002F043
:101FF0000FF840F6B83001F03BFAFFF75FFFFFF74C
:102000005DFF024840690149086108BD6001002088
:10201000F8B505460E461446002000900027102E05
:1020200022D008DC012E38D0022E0BD0042E0FD087
:10203000082E31D112E0202E1CD0402E20D0802E30
:102040002AD123E09DF8000040F02000009025E018
:102050009DF8000040F0400000901FE09DF8000057
:1020600040F06000009019E09DF8000040F0800012
:10207000009013E09DF8000040F0A00000900DE0FB
:102080009DF8000040F0C000009007E09DF80000BF
:1020900040F0E000009001E000BF00BF00BF102C46
:1020A00028D008DC012C46D0022C0BD0042C11D0F7
:1020B000082C3FD116E0202C24D0402C2AD0802C94
:1020C00038D12FE09DF8000040F0010000904FF45F
:1020D000C01733E09DF8000040F0020000904FF47C
:1020E00060172BE09DF8000040F0030000904FF4D3
:1020F000F00723E04FF478379DF8000040F004002B
:1021000000901BE04FF4FC279DF8000040F0050014
:10211000009013E04FF47E279DF8000040F0060089
:1021200000900BE04FF4FF179DF8000040F007000F
:10213000009003E000BF4FF4002700BF00BFBDB90F
:102140001A4887609DF800200621EC2001F060FF0E
:10215000082C0DDD01236A460921EC2001F0D2FF95
:102160009DF8000040F004020921EC2001F050FF2E
:10217000012D19D10D48C7609DF8000040F0800284
:102180000721EC2001F044FF082C0DDD01236A46F5
:102190000921EC2001F0B6FF9DF8000040F0080294
:1021A0000921EC2001F034FFF8BD0000600100209F
:1021B000704710B500F002F810BD00000CB500200B
:1021C000019000903348006840F480303149086045
:1021D00000BF3048006800F4003000900198401CB7
:1021E0000190009818B90198B0F5A06FF1D1294875
:1021F000006800F4003010B10120009001E00020E0
:1022000000900098012843D12348006840F0100056
:10221000214908600846006820F00300086008466D
:10222000006840F0020008601A4840681949486098
:102230000846406848600846406840F4806048604E
:102240000846406820F47C1048600846406840F426
:10225000E81048600846006840F08070086000BFE1
:102260000C48006800F000700028F9D00948406868
:1022700020F00300074948600846406840F002002B
:10228000486000BF0348406800F00C000828F9D1FE
:102290000CBD00000010024000200240042808D1BC
:1022A0004FF0E021096941F004014FF0E022116193
:1022B00007E04FF0E021096921F004014FF0E0222E
:1022C000116170477047000010B51348006840F076
:1022D00001001149086008464068104908400E494D
:1022E0004860084600680E4908400B4908600846E7
:1022F000006820F4802008600846406820F4FE0052
:1023000048604FF41F008860FFF753FF4FF00060F4
:102310000449086010BD0000001002400000FFF8F2
:10232000FFFFF6FE08ED00E010B50121880700F080
:10233000C7F818B10121880700F0B0F810BD0000FF
:1023400010B50121314800F0BBF801285CD1012112
:102350002E4800F0A3F801202D490860FEF7CEFDBD
:102360002C480068B0F57A7F1FDD2B49086803F020
:1023700039FC84B2204600F051F82749486803F040
:1023800031FC84B2204600F059F82349886803F0F4
:1023900029FC84B2204600F061F81F49C86803F0A8
:1023A00021FC84B2204600F069F81A480068B0F5B4
:1023B000C87F0FD14FF4AF7000F030F84FF4AF701A
:1023C00000F03CF84FF4AF7000F048F84FF4AF70F5
:1023D00000F054F80F480068B0F5487F0FD14FF473
:1023E000167000F01BF84FF4167000F027F84FF449
:1023F000167000F033F84FF4167000F03FF80548FF
:102400000068401C0349086010BD00000004004043
:102410003400002030000020F003002010B50446F6
:1024200040F2B630844200DB044604EBC40081B2C3
:10243000014800F056F810BD0008004010B50446F1
:1024400040F2B630844200DB044604EBC40081B2A3
:10245000014800F048F810BD0008004010B50446DF
:1024600040F2B630844200DB044604EBC40081B283
:10247000014800F03AF810BD0008004010B50446CD
:1024800040F2B630844200DB044604EBC40081B263
:10249000014800F02CF810BD00080040CA43028239
:1024A000704721B1028842F00102028004E00288F4
:1024B0004FF6FE731A40028070470146888C7047C1
:1024C00030B50246002000230024158A05EA0103E6
:1024D000958905EA010413B10CB1012000E0002048
:1024E00030BD818670470187704781877047A0F8AB
:1024F000401070478184704710B540F225511D4847
:1025000000F03EF810B31B4800F064F8C4B21A485B
:10251000008800F40040C8B91748008800F48040E3
:1025200060B10A2C03D000201349088020E0124833
:10253000008840F400401049088019E00D2C06D1B5
:102540000D48008840F480400B49088010E00A489C
:102550000088C0F30D0009490C5407480088401C4E
:102560000549088008460088C72801DD002008804A
:1025700010BD000000380140480000208C01002000
:1025800070B50246002400230025002040F66A169C
:10259000B14200D100BFC1F3421501F01F03012673
:1025A00006FA03F3012D02D19689334006E0022D8D
:1025B00002D1168A334001E0968A33400C1201267C
:1025C00006FA04F41688344013B10CB1012000E07F
:1025D000002070BD01468888C0F30800704700BF26
:1025E000FEE7490050EAC12018BF04204A0D18BF79
:1025F00040F0010040F2FF72B2EB515F08BF40F0C3
:102600000200012808BF052070474100080218BFDA
:1026100004200A0E18BF40F001004FF07F4232EA5A
:10262000010108BF40F00200012808BF05207047E3
:102630002DE9F74F144694B00021C4E90211159911
:10264000079121F00045C9498D4206DC1599C4E97E
:10265000000117B00020BDE8F08FC549DFF814A3D2
:10266000A9423CDD0799C44E0029C44FC44A1599BC
:10267000534619DD03F01AF8554506D0C14AC24B3E
:1026800003F014F8C4E900010AE04FF0D352BE4B46
:1026900003F00CF832463B4603F008F8C4E90001A9
:1026A00017B00120BDE8F08F02F030FB554506D091
:1026B000B44AB54B02F02AFBC4E900010AE04FF02E
:1026C000D352B14B02F022FB32463B4602F01EFBD6
:1026D000C4E9000117B04FF0FF30BDE8F08FAB49FF
:1026E000A942159978DB21F0004183468846A84A23
:1026F000A84B02F0B5FD0022A74B02F007FB02F049
:1027000019FD099002F045FD06460F469C4A5346C6
:1027100002F0A6FD43465A4602F0D6FE80468A469F
:10272000984A994B3046394602F09AFD2A0D012508
:102730000B924246534602F0C7FE032DC4E9000146
:1027400039D00B98C1F30A51401A05EB45111139E4
:10275000814230DA9148C346784400EB0510CDF849
:102760000CA00C90D0E900233046394602F078FDE9
:1027700002460B46049106905846039902F096FFD4
:1027800080468A4602460B465846039902F08EFF61
:10279000049B069A02F08AFF83460C9803913946FF
:1027A000D0E90223304602F05BFD5A46039B02F05B
:1027B0007DFF6D1CBDE707980028A2BF099817B0E0
:1027C000BDE8F08F616881F000416160099817B041
:1027D0004042BDE8F08FFFE784461598C1F313012E
:1027E000C0F30A50A0F2F5304FEA601800F01F065F
:1027F000C6F12000139000200690079041F4801E3F
:1028000005206D4676B1664A08EB00017A4452F81D
:10281000213002EB8101B3404A68139922FA01F199
:10282000194305E05F4908EB0002794451F8221092
:10283000A1FB0E27A1FB0C131A449A4234BF0123BB
:10284000002303EB070A05EB8003D3E901B70F442C
:102850008F4234BF0121002193448B4411B1934531
:1028600002D903E0934501D2012100E00021C3E930
:1028700001B7514445F82010011EA0F10100C1DC50
:102880000298059F00F10050800F12900298DDE938
:102890000356800002F07DFC834628460D9102F02D
:1028A0008FFC6FF01D0203F02CFCCDE90E013046C9
:1028B00002F086FC6FF03D0203F023FC80468A465E
:1028C000384602F07DFC6FF05D0203F01AFC07460B
:1028D00042465346119102F019FADDE90E2302F047
:1028E00015FA5A460D9B02F011FA00250E465A467B
:1028F00028460D9B02F0DAFEDDE90E2302F0D6FE3B
:102900004246534602F0D2FE3A46119B02F0DCFDED
:10291000DFF898A0244A534602F0A2FC07468846F6
:10292000234A244B3146284602F09AFC3A46434655
:1029300002F0ECF9074688464FF0A842534631466C
:10294000284602F08DFC3A46434602F0DFF9159A1C
:1029500012F0004F04D0129A81F0004152421292BC
:10296000C4E90001129817B0BDE8F08FFB21E93FE0
:102970007CD90240FB21F93F7370032E8A19A33BD7
:10298000000040543163621A61B4D03DFB213941EB
:1029900083C8C96D305FE43F0000E03F443C000065
:1029A000C03B0000A23B0000182D4454FB21F93D20
:1029B0003326A611460B113C2DE9FF4D21F00048AE
:1029C00007460C46B8F1795F08DA02F0B3FB00283D
:1029D00001BF0020324904B0BDE8F08D3A462346DD
:1029E0001046194602F03CFC054602462D480E46AC
:1029F0000B460621784400F05DF82A46334602F083
:102A00002FFCDDE9022382468B463846214602F040
:102A100027FC04460F4652465B462846314602F0E4
:102A20001FFC22463B4602F041FE07468A464FF015
:102A3000FF322846314603F064FB1B4A90450ADA10
:102A40003A46534602F032FE04B00022BDE8F04D93
:102A5000134B02F039BD154A4245A8BFA8F5001531
:102A60004FF00004B8BF124D22462B4602F01EFE66
:102A70000646884622462B460020094902F016FEEB
:102A800004460D463A4653463046414602F00EFE95
:102A900004B022462B46BDE8F04D02F015BD000003
:102AA0000000F03F703900003333D33F0000E93FAE
:102AB0000000D23F2DE9F0414F1E00EBC701044654
:102AC000D1E9000115461E4637F006020DD02A4610
:102AD000334602F0C5FB7F1E04EBC703D3E9002396
:102AE00002F014F937F00602F1D1022F25D0042F9D
:102AF00013D0062F18BFBDE8F0812A46334602F0F6
:102B0000AFFBD4E90A2302F001F92A46334602F06A
:102B1000A7FBD4E9082302F0F9F82A46334602F06D
:102B20009FFBD4E9062302F0F1F82A46334602F06F
:102B300097FBD4E9042302F0E9F82A46334602F071
:102B40008FFBD4E9022302F0E1F82A46334602F073
:102B500087FBD4E90023BDE8F04102F0D7B80000BC
:102B60002DE9FF4D054621F0004084B00C46B0F140
:102B7000795F0BDA2846FFF734FD042808BF00F020
:102B80007FF8284608B02146BDE8F08D2A460B465E
:102B9000104602F065FB06460F462A46234602F021
:102BA0005FFB804626488A4632463B4605217844EC
:102BB000FFF780FF83461098029160B3214A224BB1
:102BC0004046514602F04CFBCDE900015A464046D2
:102BD0005146029B02F044FB82468846DDE906012D
:102BE0004FF0FF3203F08DFA5246434602F05EFD8D
:102BF00032463B4602F034FBDDE9062302F056FD87
:102C0000DDE9002302F052FD08B02A462346BDE864
:102C1000F04D02F059BC0B465A463046394602F098
:102C20001FFB084A084B02F071F84246534602F077
:102C300017FB08B02A462346BDE8F04D02F066B8FF
:102C4000B6380000495555555555C5BF00221346A5
:102C50001046014902F016B90000F03F012203F0CE
:102C600050BA02F053B8002213461046114602F043
:102C700009B940F2013200204FF0E04103F041BABF
:102C8000024A0020110703F03CBA000001FDFFFFDB
:102C900002F022BE6FF05E01080703F060BA014641
:102CA00000BF70472DE9F04D8D4F21F0004A86B0EE
:102CB00005460C46BA452ADBAAEB070028430AD092
:102CC0008848824501DC1AD1CDB106B02846BDE85E
:102CD000F04DFFF7C3BF844A844B284602F0C0FA88
:102CE00007460E46824A834B2846214602F0B8FA30
:102CF00006B03A463346BDE8F04D02F007B8012071
:102D0000FDF72DFB06B0BDE8F04DFFF7ACBF7A48EC
:102D1000824542DABAF1795F0BDA2846FFF761FCA7
:102D2000042808BFFFF7ACFF284606B02146BDE8DF
:102D3000F08D2A460B46104602F092FA8346024670
:102D40006E480E460B4606217844FFF7B3FE5A46FE
:102D5000334602F085FA804669488A465A46334629
:102D600004217844FFF7A6FE5A46334602F078FA6B
:102D700000223B4601F0CAFF02460B464046514640
:102D800002F080F82A46234602F06AFA06B02A4684
:102D90002346BDE8F04D01F0B9BF284624F00041BC
:102DA00000223D463B4602F08FFB4FF0FF3203F01E
:102DB000A8F90646024653480F460B4606217844BA
:102DC000FFF778FE32463B4602F04AFACDE90001B1
:102DD0004D4832463B4604217844FFF76BFE3246AD
:102DE0003B4602F03DFA00222B4601F08FFF83465E
:102DF00002913046394601F031FF804643480D4686
:102E0000504517DCDDE900015A46029B02F03AF812
:102E100042462B4602F024FA42462B4601F076FF4A
:102E2000012203F06EF9304A304B02F03FFC304A89
:102E3000304B4CE04FF0000A52460B46404601F042
:102E400065FFCDE9031052462B461046194602F0A5
:102E500007FA32463B4602F037FBDDE9033202F067
:102E600011F806460F46DDE900015A46029B02F0C2
:102E700009F88346009101223046394603F041F9B2
:102E8000194A1A4B02F020FB06460F460122404623
:102E9000294603F036F95A46009B02F0E1F9324622
:102EA0003B4602F003FC06460F46012250462946E7
:102EB00003F027F90E4DDFF858802A46434602F00A
:102EC00003FB32463B4602F0FFFA2A46434602F035
:102ED000FBFA002CD8BF81F0004106B0BDE8F08DB0
:102EE0000000F03F0000F07F075C143326A6913C01
:102EF000182D4454FB21F93F0000E03FAC340000A2
:102F0000C2340000363400004C3400003333EF3F4D
:102F1000FB21E93F2DE9F84F04460D4621F0004022
:102F200000917349814211DC7249884201DC06D16B
:102F30002CB120462946BDE8F84FFFF78FBE6E48FA
:102F4000002DCCBF6D496E49BDE8F88F6D498142B7
:102F500011DD6D498142D8BF4FF0FF366DDD20464F
:102F60002946FFF73EFB042808BFFFF789FE2046ED
:102F70002946BDE8F88F6549654F25F00045814237
:102F800033DD6449814219DD002632464FF080432B
:102F90002046294601F0BAFE80468A460122204694
:102FA000294603F0AEF800223B4602F07FFB424682
:102FB000534601F067FF04460D463EE0012600221D
:102FC000BA463B462046294601F0A0FE80460F4601
:102FD000002253462046294602F068FB42463B4603
:102FE00001F050FF04460D4627E04B4981421BDDAE
:102FF000DFF828A10226002253462046294602F087
:103000002FF900223B4601F081FE80460F46002248
:1030100053462046294602F049FB42463B4601F012
:1030200031FF04460D4608E0032622462B460020C9
:103030003B4901F027FF04460D4622462B46104629
:10304000194602F00DF98B46824602460B4602F005
:1030500007F907460246334888460B46062178445E
:10306000FFF728FD52465B4602F0FAF882462E48EA
:103070008B463A46434605217844FFF71BFD3A4606
:10308000434602F0EDF802460B46002E50465946E4
:103090000CDA01F03BFE22462B4602F0E1F801B0CB
:1030A00022462B46BDE8F04F02F00EBA01F02EFE8C
:1030B00022462B4602F0D4F81C4A7A4402EBC6039F
:1030C000D3E9002302F0F2FA22462B4602F0EEFA90
:1030D000174A7A4402EBC603D3E9002302F0F4F95D
:1030E000009A002AB8BF81F00041BDE8F88F0000C7
:1030F000000010440000F07F182D4454FB21F93FDC
:10310000FB21F9BF0000DC3F0000203E0000F33F40
:103110000000F03F0000E63F008003400000F83F61
:103120000000F0BF4E3200000C320000AA31000057
:10313000723100002DE9F0474FF0684202EB400386
:103140000C460546B3F1654F3CBF02EB4102B2F1BC
:10315000654F7CD2C0F3C753C1F3C7529A1A1B2ADA
:1031600006DD10F0004F14BF76487748BDE8F087C1
:1031700012F11A0F17DA11F0004F06D010F0004FBD
:103180000CBF72487248BDE8F0872146284602F01D
:1031900017FC0446FFF739FA042808BFFFF77AFD49
:1031A0002046BDE8F0874200B2EB410F25D910F070
:1031B000004F19BF674F684E684F694E224685F031
:1031C000004415460A4680F0004110460A1A520093
:1031D000B2F1807F40D248406249DFF88CA110F004
:1031E000004F18D04FF03F48384602F09FFE074688
:1031F0005146304602F09AFE17E011F0004F04BF2E
:1032000000263746E2D010F0004F19BF574F584EF6
:10321000584F594EDAE74FF07C58384602F05CFBC5
:1032200007465146304602F057FB064641462846BF
:1032300002F074FD214602F04FFB824621464046D3
:1032400002F06CFD294602F066FE514600E037E0D0
:1032500002F0B6FB044604E02146284602F0B0FB2B
:103260000446014602F05AFD8046444902F056FDEC
:10327000434902F031FB414602F050FD414902F062
:103280002BFB414602F04AFD3F4902F025FB414637
:1032900002F044FD3D4902F01FFB05464146204631
:1032A00002F03CFD294602F039FD314602F014FBE4
:1032B000214602F011FB3946BDE8F04702F00CBB95
:1032C0004FF07F42B2EB400F28BFB2EB410F03D269
:1032D000BDE8F047FFF7DCBC40EA01035B0008BF34
:1032E00044F0FF410AD0B2EB400F08BFB2EB410FF0
:1032F00006D125F0804024F0804105460C4629E7A0
:10330000B2EB400F12BF5FEA410245F0FF4004F00C
:1033100000413FF41FAF4A0092EA40033FF51AAF65
:10332000002AACBF4FF09F464FF03E56314602F0A8
:10333000F5FC05463146204602F0F0FC04462846DE
:10334000214607E7DB0FC9BFDB0FC93FDB0F494051
:10335000DB0F49C00000C9BF22AAFDB90000C93F68
:1033600022AAFD390060ED3EC30ACE37000049C0F5
:1033700022AA7DBA0000494022AA7D3A2DAD65BD42
:103380008FB8D53D0FB511BE61C84C3EA8AAAABEE4
:1033900000B5244B21F0004287B09A42DCBF0022E6
:1033A000134629DD204B9A4208D140B94FF0010065
:1033B000FCF7D5FFFFF757FC07B000BD03DBFFF7B5
:1033C0004DFC07B000BD02AAFFF732F910F003016F
:1033D00004BF0DF1080C9CE80F000DD0012001295D
:1033E0000ED0022914D00DF1080C00909CE80F00BB
:1033F000FFF7B6FB07B000BDFFF7DEFA07B000BD70
:103400000DF1080C00909CE80F00FFF7A9FB05E008
:103410000DF1080C9CE80F00FFF7CEFA07B081F021
:10342000004100BDFB21E93F0000F07F10B56FF0C7
:103430000400FEF733FF0A4800680A49B0FBF1F0C8
:10344000094908700846007800EB4001C1EBC01044
:103450004FF6FF7101EAC0000449088010BD00006A
:103460000000002000127A004000002042000020EE
:103470000146114A12884A434FF0E0235A61002264
:103480009A611A46126942F001021A6100BF4FF0B8
:10349000E022106900F001021AB100F48032002A23
:1034A000F5D04FF0E022126922F001024FF0E02344
:1034B0001A6100229A617047420000200146114AB9
:1034C00012784A434FF0E0235A6100229A611A466B
:1034D000126942F001021A6100BF4FF0E022106948
:1034E00000F001021AB100F48032002AF5D04FF04A
:1034F000E022126922F001024FF0E0231A6100225B
:103500009A6170474000002000B58BB00121084649
:10351000FEF71EF9124800901248019000200A9010
:1035200008904FF480500990002002900E200390E4
:1035300000200490802005900020069007906946A6
:103540000948FDF754F800F011F801210648FDF78D
:1035500023F8012202210448FDF740F80BB000BD1A
:1035600010580040EC0000205800024008B50F2021
:103570008DF8000001208DF8030000208DF8010077
:103580008DF802006846FEF777F808BD2DE9F04F88
:103590008BB00020089009905E4807904FF07E5055
:1035A00006908146002432E05B4951F824004FF038
:1035B0007E5102F07FFC02D20898401C08905649C8
:1035C00051F8240002F05CF907464FF03332534BB8
:1035D00001F00AFE02D20998401C09904E4951F8A8
:1035E0002400079902F066FC04D225464A4850F8A8
:1035F00024000790484951F82400069902F05AFB2C
:1036000004D22646444850F824000690641C042C3A
:10361000CADB0898012845DB3F4951F8250002F034
:103620002FF907464FF033323C4B02F03FF8024689
:103630000B46CDE904014FF06630394901F022FC18
:10364000824601F031FB8146002424E0324951F8E2
:10365000240002F015F982464FF033322F4B02F06E
:1036600025F807468846484602F00AF93A46434696
:10367000CDE9000101F0F4FD4FF03332274BCDE9E5
:10368000020101F043FBCDE9040101F00DFB2249E9
:1036900041F82400641C042CD8DB4FF07E501E49F6
:1036A00041F825000998012831DB1B4850F8261005
:1036B0004FF07E5002F03AFC059002F0E1F8074628
:1036C0003A460B464FF06630154901F0DBFB824667
:1036D00001F0EAFA8146002413E00F4850F8241064
:1036E0004FF07E5002F022FC8046494602F016FB65
:1036F00007464FF07E5102F00EFC074941F82400C6
:10370000641C042CE9DB0348034941F826000BB094
:10371000BDE8F08F9A99993EF00300203333D33FF0
:103720006666E63F00B595B0022011900120FCF7D7
:1037300051FE0020139007E00021FE4A139842F842
:1037400020101398401C139013980428F4DBFA48B7
:1037500080680490F84880680390049902F0DEFACB
:10376000059002F08DF8CDE9060101F077FACDE978
:103770000A01F14840680290EF48406801900299C0
:1037800002F0CCFA0490EC4800680290EA48006825
:103790000190029902F0C2FA0390049902F09CF899
:1037A000059002F06DF8CDE9060101F057FACDE978
:1037B0000801DDE90A2301F065FBCDE90C01FFF703
:1037C000A9FBCDE90E01DDE90E01FFF7E1FDCDE931
:1037D0000A0101F069FA0D90D748406A01460C9041
:1037E0000D9802F09BFAD44948620020D349C86082
:1037F000C8608860D24888610846C068D14AD2490A
:103800000D9000F01DFDCD49C86008460069CD4A05
:10381000CD490D9000F014FDC84908610846406983
:10382000002211460D9000F00BFDC4494861084686
:103830008069002211460D9000F002FDBF498861A9
:1038400011980A2801DD0A2011901198401EBF49E5
:103850000968081A06D41198401EBC490968081A5C
:10386000129007E01198401EB8490968401AC0F14B
:103870000B001290B5480068C0EBC000B44901EBE2
:10388000800080690D90B34880690C900D9902F01A
:103890004DFBB0498861A848406A0D90A7488069EF
:1038A0000C900D9902F042FBA8490968C1EBC101D7
:1038B000A74A02EB81018861A4480068C0EBC00000
:1038C000114601EB800080690D90A24880690C9040
:1038D0000D9902F001F89F4988611298C0EBC00071
:1038E0009B4901EB800080690A9098480068C0EB12
:1038F000C00001EB8000806909900A9902F016FB74
:103900000B909548806801460A900B9802F006FAE1
:103910000D909048806909908F48406808900999F7
:1039200002F0FCF90B9089480068C0EBC0008849A0
:1039300001EB800080690990874800680890099928
:1039400002F0ECF90A900B9901F0C6FF0C900D996A
:1039500001F0C2FF109000221146109800F070FC98
:103960001090002013900EE07249139851F8200037
:103970000D90109901F0B0FF6E4A139942F82100A2
:103980001398401C139013980428EDDB6F480068CF
:10399000C0EBC0006E4901EB8000C0680D906D481F
:1039A000C0680C900D9902F0C1FA6A49C86062487B
:1039B00080690D906148C0680C900D9902F0B6FACC
:1039C00062490968C1EBC101614A02EB8101C8602B
:1039D0005E480068C0EBC000114601EB8000C06883
:1039E0000D905C48C0680C900D9901F075FF594925
:1039F000C8601298C0EBC000554901EB8000C06858
:103A00000A9052480068C0EBC00001EB8000C0681B
:103A100009900A9902F08AFA0B9050488068014692
:103A20000A900B9802F07AF90D904A48C068099004
:103A30004A4840680890099902F070F90B90434891
:103A40000068C0EBC000424901EB8000C0680990EB
:103A5000424800680890099902F060F90A900B99B1
:103A600001F03AFF0C900D9901F036FF33494860A0
:103A7000084640683A4A3B490D9000F0E1FB2F4967
:103A8000486032480068C0EBC000314901EB80005B
:103A900000690D902F4800690C900D9902F046FACC
:103AA0002C4908612448C0690D90244800690C9095
:103AB0000D9902F03BFA25490968C1EBC101244A7E
:103AC00002EB8101086121480068C0EBC00110468B
:103AD00000EB810000690D901E4800690C900D9963
:103AE00001F0FAFE1B4908611298C0EBC0001849AA
:103AF00001EB800000690A9014480068C0EBC00127
:103B0000134800EB8100006909900A9902F00EFA4F
:103B10000B901548806801460A900B9802F0FEF859
:103B20000D900C48006909900F4840680890099969
:103B30001CE0000000040020880200205402002045
:103B400000007A440000A0C20000A042E000002073
:103B5000BC020020D4030020940000204C00002070
:103B60000000B4C20000B4425800002002F0D6F8B1
:103B70000B90F8480068C0EBC001F74800EB8100EB
:103B800000690990F54800680890099902F0C6F8A4
:103B90000A900B9901F0A0FE0C900D9901F09CFE8B
:103BA000EF49086008460068EE4AEF490D9000F0C2
:103BB00047FBEB4908600020886008468068E94AB6
:103BC000E9490D9000F03CFBE5498860E148006858
:103BD000C0EBC001E04800EB810040680D90E34875
:103BE00040680C900D9902F0A1F9E0494860E04866
:103BF00000690D90DA4840680C900D9902F096F932
:103C0000D4490968C1EBC101D34A02EB8101486084
:103C1000D0480068C0EBC000114601EB800040684E
:103C20000D90D24840680C900D9901F055FECF4997
:103C300048601298C0EBC000C74901EB80004068A3
:103C40000A90C4480068C0EBC001C34800EB810083
:103C5000406809900A9902F069F90B90C54880689C
:103C600001460A900B9802F059F80D90BF48406841
:103C70000990C04840680890099902F04FF80B90ED
:103C8000B4480068C0EBC000B34901EB8000406855
:103C90000990B84800680890099902F03FF80A9026
:103CA0000B9901F019FE0C900D9901F015FE109082
:103CB00000221146109800F0C3FA1090AE48006838
:103CC0000D90109901F008FEAB4908600846406865
:103CD0000D90109901F000FEA749486008468068E1
:103CE0000D90109902F022F9A34988600846C06837
:103CF0000D90109902F01AF99F49C8609548006824
:103D0000C0EBC000944951F820000D90974800681E
:103D10000C900D9902F00AF9944908609448C06823
:103D20000D908F4800680C900D9902F0FFF88949BA
:103D30000968C1EBC101884A42F821008548006842
:103D4000C0EBC000114651F820000D908748006874
:103D50000C900D9901F0C0FD844908601298C0EBE9
:103D6000C0007D4951F820000A907A480068C0EBF5
:103D7000C00051F8200009900A9902F0D7F80B9082
:103D80007E48806801460A900B9801F0C7FF0D90AD
:103D9000764800680990794840680890099901F0D0
:103DA000BDFF0B906B480068C0EBC0016A4850F83B
:103DB00021000990714800680890099901F0AEFF50
:103DC0000A900B9901F088FD0C900D9901F084FD8B
:103DD000109000221146109800F032FA10906648B8
:103DE00000680D90109902F0A1F863490860084638
:103DF00040680D90109901F06FFD5F4948600846DA
:103E000080680D90109901F067FD5B498860084655
:103E1000C0680D90109902F089F85749C8604D4864
:103E20000068C0EBC0004C4901EB800080680D9039
:103E30004E4880680C900D9902F078F84B498860E4
:103E40004B4840690D90464880680C900D9902F0EF
:103E50006DF840490968C1EBC1013F4A02EB81019D
:103E600088603C480068C0EBC000114601EB800050
:103E700080680D903D4880680C900D9901F02CFDF4
:103E80003A4988601298C0EBC001334800EB8100CA
:103E900080680A902F480068C0EBC0012E4800EBF4
:103EA0008100806809900A9902F040F80B9034482C
:103EB000806801460A900B9801F030FF0D902B4866
:103EC000806809902E4840680890099901F026FF03
:103ED0000B9020480068C0EBC0011F4800EB810038
:103EE00080680990264800680890099901F016FF3B
:103EF0000A900B9901F0F0FC0C900D9901F0ECFC8C
:103F0000109000221146109800F09AF910901A486B
:103F100000680D90109901F0DFFC17490860084611
:103F200040680D90109902F001F813494860084666
:103F300080680D90109901F0CFFC0F498860084609
:103F4000C0680D90109901F0F1FF0B49C860002086
:103F500013902BE0E0000020BC020020580000205D
:103F6000540200200000B4C20000B442D403002078
:103F7000880200207C000020000400207000002047
:103F8000880000201E49139851F820001D490D900B
:103F9000139851F820000C900D9901F09DFC194ADE
:103FA000139942F821001398401C13901398042889
:103FB000E8DBFFF7EBFA0020139010E011491398AB
:103FC00051F82000104A4FF07E510D9000F038F962
:103FD0000C4A139942F821001398401C139013982F
:103FE0000428EBDB09480068401C084908600846C3
:103FF00000680A2801D10020086015B000BD00004B
:1040000000040020F00300209A99993EE00000206F
:1040100070B504460E46154601211948FCF7C7FF46
:1040200000BF18491648FCF789FF0028F9D0002284
:1040300021461348FDF76AF800BF13491048FCF702
:104040007DFF0028F9D031460D48FDF768F800BF24
:104050000D49891C0A48FCF771FF0028F8D0294651
:104060000748FDF75CF800BF0749891C0448FCF7C6
:1040700065FF0028F8D001210148FCF7A4FF70BDBE
:1040800000580040010003008200070000B585B021
:1040900001210820FDF77CFB01218805FDF768FB65
:1040A0004FF44060ADF8100003208DF812001C2082
:1040B0008DF8130004A91048FCF708FB0020ADF8A8
:1040C00004004BF6FF70ADF806000A20ADF80800BA
:1040D0004FF48060ADF80A000001ADF80C0007480D
:1040E000009069460648FCF797FF01210448FCF759
:1040F0003AFF05B000BD0000000C0140400D030078
:10410000005800402DE9F04106460F4615461C4672
:1041100000BF4FF400313148FCF761FF0028F8D1AF
:1041200001212E48FCF743FF00BF2D492B48FCF727
:1041300005FF0028F9D0002231462848FCF7E6FFA9
:1041400000BF28492548FCF7F9FE0028F9D00121D5
:104150002248FCF708FF39462048FCF7E0FF00BF83
:104160002049891C1D48FCF7E9FE0028F8D00121F0
:104170001A48FCF71CFF00BF19491848FCF7DEFE7F
:104180000028F9D0012231461448FCF7BFFF00BFD8
:104190001349491C1148FCF7D1FE0028F8D015E05E
:1041A000012C07D100210D48FCF7BCFE01210B4872
:1041B000FCF709FF0A493F310848FCF7BFFE28B168
:1041C0000648FCF79FFF28706D1C641E002CE7D189
:1041D00001210248FCF7A6FEBDE8F081005800402E
:1041E00001000300820007002DE9F04704460D4658
:1041F000D4E9000101F070FB80464046A16801F05F
:104200006BFB07463946404601F0DAFB0646284676
:10421000E16801F08BFE8146314601F07FFD0746E3
:10422000E16801F059FBE06031464FF07E5001F04B
:104230007DFE0746414601F071FD2060BDE8F08734
:1042400070B506460D4614462946204601F032FE5A
:1042500001D2304670BD0021284601F073FC05D024
:104260002946304601F026FE00D22E460021204687
:1042700001F068FC05D02146304601F01BFD00D25C
:1042800026463046E6E70000FCF74BFF07E004480F
:104290000068012801D1FFF745FAFDF7F5FDF6E7C3
:1042A0002C0000202DE9F04D16460F4694B01C4618
:1042B00021F0004123F00042002814BF4FF0010C10
:1042C0004FF0000C0CEB470CFE4B0CEB03054FEAD8
:1042D000630C65452BD3350018BF012505EB44055C
:1042E0001D44F94B9D4222D3F84B52EA060C02D0F2
:1042F0009F4205D148B914B000201946BDE8F08DA1
:10430000002808BF4FF0000C01D04FF0010C0CEB5F
:10431000470313F5001F0AD8002E14BF4FF0010CFD
:104320004FF0000C0CEB440313F5001F07D914B039
:10433000324623463946BDE8F04DFEF792BCDFF821
:1043400090834FF0000A002FB8BF424523DAE14BBB
:104350009A42A8BF4FF0020A1DDADC4B93421ADCE6
:10436000DD4B03EB2253142B08DDC3F1340C26FA8A
:104370000CF303FA0CFCB4450DD108E05EB9C3F1AF
:10438000140C22FA0CF303FA0CFC944503D103F04D
:104390000103C3F1020A51EA00031BD1002C19DA10
:1043A000002F18BFBAF1020F02D0BAF1010F07D0E7
:1043B0000220FBF7D4FF14B0BDE8F04DFEF746BC79
:1043C0000220FBF7CCFFFEF741FC14B081F0004166
:1043D000BDE8F08D330070D1424525D107F1804210
:1043E00012F5801201BF00280020B84914B008BFA0
:1043F000BDE8F08DB548884207DC002CA1BF184607
:10440000214614B0BDE8F08D07E0002CBFBF184670
:1044100084F0004114B0BDE8F08DB0497944D1E991
:10442000000114B0BDE8F08DDFF8A0C262452AD1CA
:10443000002C24DA39B1414517D1002804BF0020EF
:1044400002461CD106E040B10220FBF788FFFEF7D0
:1044500010FC0A46394600F0D7BA9D4A394614B0D6
:10446000002062F31E01BDE8F08D08DA14B03B466F
:10447000BDE8F04D02460020614600F003BD14B0D7
:104480003946BDE8F08D414517DAB4F1804F0CD0C4
:10449000A4F10053B3F1FF530FD13B1E0DDB14B059
:1044A0001946BDE8F04D00F0D9BB3B4614B00246BA
:1044B000BDE8F04D194600F0D3BE050027F00043DB
:1044C0003AD1E1B1414537D1002F06DD002CA1BF23
:1044D0000020414614B0BDE8F08D002F01DD002C16
:1044E0001FDB002F16DA002C14DBBAF1010F4FF09E
:1044F000000014BF76497A4914B0BDE8F08DBAF1D6
:10450000020F18BF002F0CD0BAF1010F09D1002FF4
:1045100007DA0BE0002FB8BF002C0DDABAF1010F5B
:1045200004D0002014B00146BDE8F08D14B0002086
:104530004FF00041BDE8F08D4FF0010808EBE77C3B
:10454000CDF814C05CEA0A0C0DD0DFF898C16245C2
:104550007EDDDFF894C1654B624512DD8B420ADBDC
:10456000002C18DB23E00120FBF7F9FE14B0BDE8B6
:10457000F04DFEF778BB554A8A4202DC002C0ADC7B
:1045800015E0994202DA002C11DA04E04F4B99420F
:1045900019DD002C0BDD0220FBF7E1FEFEF769FBC5
:1045A0004B4A14B061F31E021146BDE8F08D0220A3
:1045B000FBF7D5FEFEF764FB444A14B061F31E021C
:1045C0001146BDE8F08D0022394601F06FF807462C
:1045D0000D466FF0010201F094FD4FF05532444B4F
:1045E00000F072FF3A462B4600F03AFE0022414BA3
:1045F00000F06AFF80468B463A462B461046194625
:1046000000F02EFE42465B4600F02AFE88460E90E1
:104610004FF0C042384B3846294600F021FE834611
:104620000091364A344B41460E9800F019FE804600
:104630000191334A334B3846294600F011FE424679
:10464000019B01F033F80D4602460B460C9000E04A
:1046500011E05846009900F059FB002788465A4659
:104660003846009B01F022F82B460C9A00F02CFFF4
:10467000024600F079B90020B1F5801F07DA352233
:104680002846194601F03DFD05466FF0340000EB69
:104690002150A0F2FF300190C1F3130040F07F6180
:1046A00041F04051029118498842D8BF4FF0000BA9
:1046B00035DD16498142C8BF4FF0010B2FDC4FF0AA
:1046C000000B25E0FFFF1F00FFFF0F000000F03F81
:1046D0000000F07F0000404301FCFFFF781F000056
:1046E0000000F0FF0000E0410000F043FFFFEF3F5B
:1046F0005555D53F0000E03F4715F73FFE822B653B
:1047000044DF5DF80BAE543E8E9803007AB60B0082
:104710000198401C01900298A0F580100290FF487B
:104720000299784400EBCB000991D0E90023284698
:104730000B93129200F0BAFF00910A9028460B9B4F
:10474000129A099900F0E2FA02460B460020F44959
:1047500000F098FBCDE90C010B46024600990A983F
:1047600000F07EFD0690EF488846002778440299C5
:10477000006810904FF0005040EA610000EB8B4061
:1047800000F5002102910B9B129A109800F08EFF09
:104790002A46099B00F098FE3A46434600F060FD29
:1047A0000891129038464146029B109A00F058FD3D
:1047B000009B0A9A00F088FE089B129A00F076FF90
:1047C000DDE90C2300F04CFD0B91069A1290434654
:1047D0001046194600F044FD05460246D2480B46F5
:1047E0000A9106217844FEF765F90A9B2A4608914A
:1047F00002901046194600F033FD089B029A00F023
:104800002FFD05460991434638461946069A00F0A1
:104810007DFA0B9B129A00F023FD2A46099B00F0BB
:1048200075FACDE908013A4643461046194600F0AC
:1048300017FD0A910022BD4B009000F067FADDE9F8
:10484000082300F063FA0D463A46B84B384600F0AC
:104850002DFF0A9B009A00F029FFDDE9082300F0F4
:1048600033FECDE908013A462B461046414600F09A
:10487000F7FC00910A90DDE908014346069A00F032
:10488000EFFC069088462B463A460B99129800F0AA
:10489000E7FC4346069A00F039FA80460B4602468A
:1048A0000D9100990A9800F031FA00200F46054654
:1048B000009B0A9A00F0FAFE42460D9B00F004FEAF
:1048C00088460E904FF06042994B2846394600F0DA
:1048D000C7FC02910090974A954B41460E9800F014
:1048E000BFFC80460391944A944B2846394600F019
:1048F000B7FC4246039B00F009FA914A7A4402EB66
:10490000CB03D3E9002300F001FA05460791019893
:1049100000F03FFC0C9003912A46079B02990098F7
:1049200000F0F4F9874A7A4402EBCB03D3E9002381
:104930009346019300F0EAF9039B0C9A00F0E6F924
:10494000002788463846039B0C9A00F0AFFE5A4673
:10495000019B00F0ABFE029B009A00F0A7FE2A46E6
:10496000079B00F0B1FD02460020069005986C4DB3
:10497000AAF10103184301D1734D069000200B46A4
:1049800004903046214600F06BFC82468B4623465D
:1049900030461946049A00F089FE3A46434600F034
:1049A0005FFC52465B4600F0B1F906468A463A463D
:1049B00043462146049800F053FC04460F46324615
:1049C000534600F0A3F9614A8B46914221DBABEBE1
:1049D000020353EA000210D122463B4600F066FE75
:1049E000804603915A4A5B4B3046514600F08EF99F
:1049F0004246039B00F032FD27D20220FBF7AFFCBA
:104A0000FEF737F90A46294614B062F31E01BDE8E5
:104A1000F08D514B2BF000429A4216D34F4A0BEBCC
:104A2000020353EA000208D122463B4600F03EFE54
:104A30003246534600F012FD07D80220FBF78FFCE8
:104A4000FEF71EF90A462946DEE72BF000404449EE
:104A5000444A01EB20514FF00008824223DA481CFF
:104A60004FF4801121FA00F058443F4AC0F30A5134
:104A70007A443E4BA1F2FF31CB4020EA0303C0F35E
:104A8000130040F4801CC1F1140012682CFA00F8E5
:104A9000BBF1000FB8BFC8F100082046394600F04E
:104AA00005FE04460F4622463B463046514600F07E
:104AB0002DF94FF0000B5A462D4B5846039100F04C
:104AC000CFFB00910A902B4A2B4B5846039900F0DC
:104AD000C7FB0491029022463B465846039900F0DA
:104AE000E5FD3246534600F0EFFC244A244B00F02B
:104AF000B7FB049B029A00F009F907468A46009B1F
:104B00000A9A00F003F904460E46009B0A9A00F048
:104B1000CDFD3A46534600F0D7FC33E0BA1B000007
:104B20000000F03F281C0000281B00000000084087
:104B300009C7EE3FFD033ADCF5015B14E02F3EBEF2
:104B4000001A0000C61900000000F0BF00009040ED
:104B5000FE822B654715973C00CC904000346F3F98
:104B600001FCFFFF0000E03F24190000FFFF0F00E1
:104B7000432EE63F396CA80C615C20BEEF39FAFE8B
:104B8000422EE63F0746224633460F91104619460D
:104B900000F066FB834602462E488A460B460521F6
:104BA0007844FDF787FF5A46534600F059FB2246EA
:104BB000334600F089FC82468B463A462046314611
:104BC0000F9B00F04DFB3A460F9B00F09FF80F46FD
:104BD0000A9000224FF080435046594600F066FD8F
:104BE0000391009052465B462046314600F038FB68
:104BF000039B009A00F046F93B460A9A00F056FDE6
:104C00002246334600F052FD0022134B00F05CFCBC
:104C10000E46044601EB08510815002810DC4246F8
:104C20002046314601F06DFAFDF7DBFC042808BF91
:104C3000FEF726F842462046314601F062FA044665
:104C400006980B4614B022462946BDE8F04D00F008
:104C500007BB00009C1700000000F03F2DE9F04169
:104C600006460F4600F03CFC04000D4618BF01202C
:104C7000284320F00040C0F17F6000F1E040C00F09
:104C80000ED0301C18BF0120384320F00040C0F186
:104C90007F6000F1E040C00F04BF0120FBF75FFB25
:104CA00020462946BDE8F08121F00042A2F1605281
:104CB000B2F5801F01F0004328BFD2F17F6C0BD901
:104CC0005FEA001C43EAC20242EB507018BF704713
:104CD00028BF20F001007047B2F5801FBCBF184606
:104CE00070474FEA410C1CF5001F02D2084601F044
:104CF000DCB870B500F05EFB00000089FFF7F6BF7E
:104D00004FF00040A0F580007047000010B591EA18
:104D1000030F48BF83F0004300F1D084841A71EB85
:104D2000030C05D2121943EB0C03001B61EB0C01C1
:104D3000DFF824E14FEA1154A4EB135C1EEA430FA1
:104D400018BF9EEA445F73D023EA0E03DCF1200E05
:104D500021EA045143F4801332D322FA0CFE10EB03
:104D60000E0023FA0CFE41EB0E01CCF1200E03FAEB
:104D70000EFE10EB0E0051F10001B1F5801FCCF1D9
:104D8000200E32D201EB045112FA0EF2BDE81040AF
:104D900058BF7047401C38BF5FEA420218BF7047D7
:104DA000002814BF20F0010041F100014FEA410347
:104DB00013F5001F38BF7047A1F1C04100F048BB98
:104DC000012A43EB0302ACF1200CDCF11F0E32BFD1
:104DD0004FF0000E23FA0CF310EB030041EB0451EB
:104DE000B4EB115FD0D0A1EB045101F5801149085B
:104DF0005FEA300001EB04510ED350F1000038BFE0
:104E000012FA0EFE08D1BDE81040C9E7401C38BFB9
:104E10005FEA4202CAD1C3E7BDE810404FEA41034E
:104E200013F5001F38BF7047A1F1C04100F010BB5F
:104E30009EEA445F08D011EA5E0FBDE8104004BF4F
:104E400001F0004100207047BDE8104070B500F04F
:104E5000B1FA00BF64FBBE3E0000E0FF02494FF024
:104E6000000001F01CB900BF0000F87F491058BFD6
:104E7000C1F140415B1058BFC3F140438B42EFF397
:104E8000008070472DE9C04130B4DFF8A0C23CEA91
:104E9000111418BF3CEA131400F0EC8081EA0305FA
:104EA0001CEA111444EAD57418BF1CEA131500F06B
:104EB000C780A4EB05044FF0004545EAC12145EA4F
:104EC000C32341EA505143EA525304F17F7499429B
:104ED00004F500344FEAC0204FEAC22208BF9042D6
:104EE00000F09C804FEA13650FF24016765D4FEAA2
:104EF000134506FB05F7C7F1807706FB07F74FEA76
:104F0000D737A7FB03687642C8F58038A7FB06CEE3
:104F100038BFA8F1010807FB08E64FF0000EA6FB1A
:104F2000028CE6FB03CEDCF1000CCEF1004E38BF64
:104F3000AEF1010EA6FB0C584FF000074FF0000534
:104F4000E6FB0E87A1FB08C6A0FB07CE16EB0E06FC
:104F500045F10005E1FB076515F1E04E7EBFA4F5C4
:104F600080345FEA46066D4116F1800745F1000581
:104F70004FEA17274FEA066647EA0567A6F1DE46BD
:104F8000B6F1805F4FEA15251FD9384624F0010C91
:104F900005EBC471BCF1FE6F01EB0C1102D8F0BC43
:104FA000BDE8008124425CBF01F5801E9EEAC47FFB
:104FB00002D4F0BCBDE80081244238D4F0BCA1F199
:104FC000C041BDE8004100F043BA4FEAD22242EAB4
:104FD00043524FEAD323A7FB02864FEAD02040EA90
:104FE000415007FB03661EEA0E0F4FEAD12105FB75
:104FF000026658BFA6EB0056B6EB00564FEA520EBB
:105000004EEAC37E18EB0E0E56EB530EBDD518EBD1
:1050100002085E417F1C55F10005B6E74FF480158C
:105020004FF000074FF000064FF00008ADE7F0BC6E
:105030004FF0000001F1C04101F00041BDE80081E6
:1050400011EA0C1F0CEA131500D00CE013EA0C1F38
:1050500000F025804FF00000F0BC81EA030101F070
:105060000041BDE80081F0BCBDE8004181EA0301D8
:1050700000F0EEB9F0BCBDE8004170B500F09AF95F
:10508000097EFC3E00F007B881EA03014FF0000002
:1050900001F00041704781EA030100F0D9B9F0BC8A
:1050A000BDE800414FF0000021497047FFFDFBF9CA
:1050B000F7F5F4F2F0EEEDEBE9E8E6E4E3E1E0DE4B
:1050C000DDDBDAD8D7D5D4D3D1D0CFCDCCCBCAC8BD
:1050D000C7C6C5C4C2C1C0BFBEBDBCBBBAB9B8B7E4
:1050E000B6B5B4B3B2B1B0AFAEADACABAAA9A8A8D7
:1050F000A7A6A5A4A3A3A2A1A09F9F9E9D9C9C9BA5
:105100009A9999989797969595949393929191904F
:105110008F8F8E8E8D8C8C8B8B8A898988888787E0
:105120008685858484838382828181800000FF0755
:105130000000F87F4FEA41034FEA5353A3F5806321
:10514000D3F11E03C8BFD3F1210C0CDD4FF0004298
:1051500042EAC12242EA505232FA03FC8CEAE17C74
:10516000ACEBE1707047102BC4BF0020704703F513
:10517000787CBCF1FF3F04D06FF0004282EA21004E
:10518000704770B500F016F94992248000207047EE
:10519000F2E710F0004248BF4042B0FA80F310FA44
:1051A00003F10AD0C3F11D0303F580634FEA4150B8
:1051B00002EB035202EBD12170474FF00000704721
:1051C000B0FA80F310FA03F10AD0C3F11D0303F51E
:1051D00080634FEA41504FEA035202EBD1217047FE
:1051E0004FF000007047000051EA030C17D41CF583
:1051F000801F58BFBCF5801F00F10680994218BF80
:10520000704708BF9042704707D711F5801F58BFFD
:1052100013F5801F19D499427047894270471CF5D5
:10522000801F08D5BCF5801FF7D58B4218BF70478B
:1052300008BF824270474FF4001C1CEB410F38BF7F
:105240001CEB430F01D28B42704770B500F0B2F8EF
:10525000922449004FF000514FF08053FFF706BEF3
:10526000DFF848C170B51CEA111E1EBF1CEA1315F9
:105270009EEA0C0F95EA0C0F00F06F8081EA0304A0
:1052800023EA4C134EEAD47E21EA4C1141F48011FA
:1052900043F48013AE44A1FB024CA0FB0365AEF1C6
:1052A0007F7E361955EB0C05A1FB034C4CF1000336
:1052B000A0FB021C16EB0C06654153F100030942EA
:1052C00018BF46F0010613F4007F0BD14FEA0331FB
:1052D0004FEA0530340341EA155140EA16506FF0A9
:1052E00003020AE04FEAC3214FEAC520F40241EA73
:1052F000555140EA56506FF0020202EB2E4201EB8C
:10530000025585EACE710AD05FEA440C18BF24F03A
:10531000004450F1000041F1000120EAD47040F255
:10532000FE7C624500D270BDA84214BF4FF080449D
:105330004FF04044002E08BF0024BEF1806FA8BF8C
:10534000A1F1C041BDE8704080F282804FF00000C2
:1053500001F1C04101F0004170479EEA0C0F0CEAD8
:10536000131518BF95EA0C0F06D04FF0000081EA24
:10537000030E0EF0004170BD00F01CF88900013EE4
:1053800000F007B800F009B84FEA430C5FEA5C5C34
:1053900008D081EA030100F05BB84FEA410C5FEAF4
:1053A0005C5CF6D14FF00000014970470000FF0738
:1053B0000000F87F0EF1020E2EF0030E5EF8046B73
:1053C000364205D4012A43EB030515F5001F12D818
:1053D000012841EB010C1CF5001F0CD80ED14FEA3F
:1053E000D17C15F5001F0CEB4C0C0CF1020C08BF26
:1053F0004CEBD37C04E04FF0080C01E04FEAD37C87
:105400000CEB4C0526FA05F606F00706B6F1040C7F
:1054100006D20EEB860CBDE870404CF0010C6047E4
:10542000DFE80CF0090B02024FF000414FF00000E2
:10543000A1F5002170BD19461046012851EB010469
:1054400018BFD4F5001484BF002001F0004170BDE6
:105450000808A0F500114FEA3101704753EA010C2A
:1054600017D41CF5801F58BFBCF5801F00F10680C3
:105470008B4218BF704708BF8242704707D713F5A9
:10548000801F58BF11F5801F19D48B4270479B4273
:1054900070471CF5801F08D5BCF5801FF7D59942D1
:1054A00018BF704708BF904270474FF4001C1CEBB8
:1054B000430F38BF1CEB410F01D2994270470FB424
:1054C0000CBC03BCFFF7C1BE91EA030F10B581F01D
:1054D00000413FF523AC83F0004300F0EFB800003B
:1054E0002DE9F04101F5801CBCF5001FC0F2C3801E
:1054F0004FEA115C21EA0C510CF1FD0C41F48011D2
:105500005FEA5C0C0CF5C07C01D3400049413DA42E
:10551000890241EA905187028E0E0A0CA45D04FBB9
:1055200004F602FB06F6C6F14046A4FB0662F60D41
:1055300046EA422606FB06F4A4FB01235242C3F1CD
:10554000404338BF5B1EA6FB02420024E6FB032457
:10555000D20B42EA4446A6FB0623A1FB02E2A3FBD0
:1055600007E4A4184FF0000252F10002E3FB0142ED
:105570006442C2F1404E38BFAEF1010EA6FB0423D7
:105580004FF00002E6FB0E32A2FB03464FF0000490
:10559000B61954F10004E2FB0264A1FB06E6A4FB89
:1055A00007E816EB08064FF0000858F10008E4FB86
:1055B00001687642C8F1405838BFA8F10108A2FB43
:1055C00006E4A3FB08E52D194FF0000454F1000494
:1055D000E2FB0854A1FB05E6A7FB04E818EB06086C
:1055E0004FF0000656F10006E1FB048618F1200595
:1055F00056F10006A809A8F11B08B10908F03F08F8
:10560000B8F10A0F40EA86601CD901EB0C51BDE8E5
:10561000F08100BFFCF5EEE8E2DDD8D3CFCBC7C305
:10562000C0BDB9B6B4B1AEACA9A7A5A3A19F9D9BBF
:105630009A9896959392908F8D8C8B898887868582
:1056400084838281A0FB006800FB01F208EB420822
:10565000B8EB872807D5341858EB0104D5D5401C82
:1056600051F10001D1E7341A78EB0104CDD4401E8A
:1056700071F10001C9E75FEA4C0C5FEA9C5C0DD157
:1056800005D34FF0000001F00041BDE8F081BDE816
:10569000F04170B5FFF78EFE6DDBFFBEBDE8F04157
:1056A0004FF00000004970470000F87F10B591EA04
:1056B000030F48BF83F000433FF530AB841A71EB12
:1056C000030C07D212198CF0004C43EB0C03001BA7
:1056D00061EB0C01DFF8A4E14FEA1154A4EB135C79
:1056E0001EEA430F18BF9EEA445F00F0B08023EA31
:1056F0006E03524221EA0451C3EB6E0338BF5B1EB6
:10570000DCF1200E25D322FA0CFE10EB0E0043FA3A
:105710000CFE41EB0E01CCF1200E03FA0EFE10EB55
:105720000E0051F10001CCF1200E29D412FA0EF234
:1057300001EB0451BDE8104058BF7047401C1CBF2E
:10574000B2F1004F704700280CBF491C20F0010047
:10575000704712EB020E43EB030218BF4FF0010E2D
:105760004EEA4202ACF1200CDCF11E0E54D943FA91
:105770000CFE10EB0E0051F1FF31CCF11E0ED5D511
:105780000EF1010E12FA0EFE404141EB010101EB58
:10579000445C5FEA5C5C10D910EBDE7001EB0451F5
:1057A00038BFBEF1004FBDE8104018BF7047002859
:1057B0000CBF491C20F00100704730D24FEAD42CB6
:1057C00011F5001124F400641BD0B1FA81F20B3AF8
:1057D000A41AA41ED2F12003914030FA03F3194316
:1057E000904001EBCC71002C01EB0451BDE810405E
:1057F000A8BF704701F1C0414FF0000001F0004127
:105800007047B0FA80F310FA03F100D110BDE41A2A
:10581000173C4805C90AE4E701EB045110BD4910E3
:1058200001EB0451BDE810404FEA300002E04FF0B8
:10583000000170474A0008BF0042F8D0B2F5001FCF
:1058400028BF704701F000414FF0000070479EEA0A
:10585000445F07D011EA5E0FBDE8104004BF00218D
:1058600000207047BDE8104070B5FFF7A3FD00BFF2
:1058700040DFF63E83F00041104670470000E0FF35
:1058800043004FEAD30C4FEA3C0C43401FBF400794
:105890000CF1605113F0FE4F70471CF0006F03D104
:1058A00000200CF0004170470CF0004343EA5070B8
:1058B00010B540EACC0000F0B2FA00BF0000009240
:1058C0004FEA0001FFF7C4BD4FF000414FF0000068
:1058D000A1F500217047000090EA010F48BF81F058
:1058E000004100F12A83421A3CBF801A89184FEA0E
:1058F000D0524FF07F4C1CEA410FA2EBD15318BF9E
:105900009CEA026F00F03B804FF0004C4CEA002014
:105910004CEA012121FA03FC10EB0C0C1ED202F11F
:10592000FF325FEA1C2040EBC25038BF70471CF0CA
:105930007F0F4FEA400C18BFBCF17F4F38BF704754
:10594000C3F12003994008BF20F00100BCF17F4F54
:1059500038BF7047A0F1C04000F0A7BA4FEA3C0042
:10596000000A40EBC25028BF1CF0FF0F4FEA400C6A
:10597000E6D018BFBCF17F4F38BF7047EAE79CEA1A
:10598000026F05D010EA5C0F08BF00F000407047BE
:1059900010B500F044FA00BF64FBBE3E014800F0C1
:1059A0007EBB00BF0000C07F401058BFC0F1404028
:1059B000491058BFC1F140418142EFF30080704768
:1059C0004FF47F0C1CEAD0121EBF1CEAD11392EADE
:1059D0000C0F93EA0C0F00F0858090EA010F48BF8E
:1059E00042F4807240F4000C41F400002CF07F413E
:1059F00020F07F4000B58142A2EB03020FF2081CA9
:105A0000ACEB504EC0F100009EF800E04FEA4E0EA5
:105A100000FB0EFC38BF49004FEA2C1C02F5FA02CD
:105A20000CFB0EF34FEACE1E4FEA112C4FEAC121B8
:105A30000EEB635E42EB22420EFB0CFC4FEA1C5362
:105A400000FB03114FEA112C4FEA01310EFB0CFC55
:105A50004FEADC4C00FB0C11C14228BF09184CEB8B
:105A600003335DF804EB10EB410143EBC250B2F598
:105A70007C0F38BF704729D512F0F00F1CBF00F122
:105A8000C04000F000407047008182838485868793
:105A900088898B8C8D8E8F919293959697999A9CED
:105AA0009D9FA0A2A3A5A7A8AAACAEB0B2B3B5B75C
:105AB000B9BCBEC0C2C5C7C9CCCED1D4D7D9DCDF32
:105AC000E2E6E9ECF0F3F7FAFE0000004FEA400CE2
:105AD0000CF1807CBCF17E4F28BF7047B0F1C04014
