:020000040800F2
:1000000000040020CF01000825250008F51A00088B
:100010002125000831110008F33700080000000016
:10002000000000000000000000000000693200082D
:10003000CD11000800000000AD2500087D33000848
:10004000EF010008EF010008EF0100080D2900088A
:10005000EF010008EF010008EF010008EF010008C0
:10006000EF010008EF010008EF010008EF010008B0
:10007000EF010008EF010008EF010008351100084A
:10008000EF010008EF010008EF010008EF01000890
:10009000EF010008EF010008EF010008EF01000880
:1000A000EF010008EF010008EF010008EF01000870
:1000B000E1330008F9330008EF010008EF01000800
:1000C000EF010008EF010008EF010008EF01000850
:1000D000EF010008B1350008EF010008EF0100084A
:1000E000D1110008EF010008EF010008EF0100083E
:1000F000EF010008EF010008EF010008EF01000820
:10010000EF010008EF010008EF010008EF0100080F
:10011000EF010008EF010008EF010008EF010008FF
:10012000EF010008EF010008EF010008EF010008EF
:1001300000F002F800F03AF80AA090E8000C8244BF
:100140008344AAF10107DA4501D100F02FF8AFF29C
:10015000090EBAE80F0013F0010F18BFFB1A43F0A5
:10016000010318474C7600006C760000103A24BF5B
:1001700078C878C1FAD8520724BF30C830C144BF0C
:1001800004680C607047000000230024002500264E
:10019000103A28BF78C1FBD8520728BF30C148BFEA
:1001A0000B6070471FB51FBD10B510BD00F0E6F81D
:1001B0001146FFF7F7FF05F095F900F004F903B4D5
:1001C000FFF7F2FF03BC03F074FE000070470B481A
:1001D00080470B4981F308880A480047FEE7FEE79D
:1001E000FEE7FEE7FEE7FEE7FEE7FEE7FEE7FEE7E7
:1001F00005480649044A064B70470000CD01000837
:100200000807002031010008080500200807002029
:1002100008050020704710B54C1084EA530404D53B
:100220004042C1F1000138BF491E1B4204D5524271
:10023000C3F1000338BF5B1E00F015F814F0804FC7
:1002400004D04042C1F1000138BF491E14F0004FF4
:1002500004D05242C3F1000338BF5B1E10BD70478B
:1002600070477047704753EA020C00F069802DE92F
:10027000F04B4FF00006002B1FBFB3FA83F503FAD3
:1002800005F424FA05F65E4012BF1643B2FA82F571
:1002900002FA05F4C5F120051EBF22FA05FC44EA66
:1002A0000C04203556EA044C4FEA144418BF641C71
:1002B0004FF000084FF00009904271EB030C39D366
:1002C000002919BFB1FA81F701FA07F6B0FA80F7F1
:1002D00000FA07F6C7F120071EBF20FA07FC46EA1E
:1002E0000C062037B6FBF4FCA7EB0507103F07F020
:1002F0001F0BCBF120060CFA0BFB2CFA06F644BFC1
:10030000B3460026202FA4BF5E464FF0000B5BEAE9
:10031000060C08BF4FF0010B19EB0B09ABFB027C7D
:1003200048EB0608C01B06FB02CC0BFB03CC71EBB1
:100330000C01C1E70B46024641464846BDE8F08B3A
:1003400013B54FF000004FF00001AFF30080BDE89F
:100350001C40704710B500F009F8006810BD10B5DA
:10036000044600F003F8046010BD00000048704728
:10037000A404002000487047A40400207546FFF73D
:10038000F9FFAE4605006946534620F00700854652
:1003900018B020B5FFF72CFFBDE820404FF0000655
:1003A0004FF000074FF000084FF0000B21F007015D
:1003B000AC46ACE8C009ACE8C009ACE8C009ACE8A0
:1003C000C0098D4670470446AFF300802046FFF712
:1003D000F6FE21B1826842F00102826003E0826889
:1003E00022F001028260704710B504461248844230
:1003F00008D10121401502F02FF90021601502F00B
:100400002BF917E00D48844208D10121001502F0B4
:1004100023F90021201502F01FF90BE0084884425F
:1004200008D10121C80302F017F900214FF4004060
:1004300002F012F910BD0000002401400028014024
:10044000003C0140014600208A6802F004020AB123
:10045000012000E0002070470146C86C80B2704760
:100460000246002013680B400BB1012000E0002081
:100470007047014600208A6802F008020AB1012094
:1004800000E000207047000030B502460020002345
:1004900050680F4C20400D790C6844EA0524204335
:1004A000506090680B4C2040D1E902542C434D79A8
:1004B00044EA450420439060D06A20F470000C7C2C
:1004C000641EE4B2234340EA0350D06230BD000012
:1004D000FFFEF0FFFDF7F1FFF0B504460D460020EA
:1004E0000021092D11DDE068A5F10A0606EB46079B
:1004F000072606FA07F18843A5F10A0606EB460629
:1005000003FA06F10843E0600CE0206905EB4507BB
:10051000072606FA07F1884305EB450603FA06F1BC
:1005200008432061072A0FDA606B561E06EB860728
:100530001F2606FA07F18843561E06EB860605FAC3
:1005400006F10843606322E00D2A0FDA206BD61F04
:1005500006EB86071F2606FA07F18843D61F06EB2F
:10056000860605FA06F10843206310E0E06AA2F16E
:100570000D0606EB86071F2606FA07F18843A2F14F
:100580000D0606EB860605FA06F10843E062F0BDAB
:10059000816841F008018160704721B1826842F4AE
:1005A000A002826003E0826822F4A00282607047A9
:1005B000816841F004018160704700002DE9F0433B
:1005C00087B09D4800789D49097890FBF1F201FBC6
:1005D00012019A480078401E814202D101209849B8
:1005E0004870954800789749097890FBF1F201FB33
:1005F000120194480078401E814202D101209049A6
:1006000008708D4800789049097890FBF1F201FB61
:1006100012018D480078401E814202D10120884994
:100620004872854800788949097890FBF1F201FB0E
:10063000120186480078401E814202D10120804983
:1006400088727D480078401C7B4908707C4800789F
:1006500090B100207A4908707D48006806F038FCA7
:100660000446002000907B4B01901A6A9969D86972
:10067000234600F0C5FBDCE071484078D0B1002093
:100680006F49487002900390049005907248B0F949
:100690000A007149B1F908106F4CCDE90010B4F9A6
:1006A0000630B4F90420B4F90210B4F9000000F0E7
:1006B000E9FABEE06248407A00284CD00020604948
:1006C00048726649C86806F01FFC84B263498868AE
:1006D00006F01AFC85B26149486806F015FC86B23E
:1006E0005E49C86806F010FC87B25C49886806F06D
:1006F0000BFC1FFA80F85949486806F005FC1FFA00
:1007000080F9574800883B4642464946CDE9016595
:10071000039400905248008800F0CEF850480088BA
:1007200042F21071884204DD4FF0FF304D490860FD
:1007300006E04B480088052802DA01204949086094
:100740004848008800EB80004549098801EB4000DB
:10075000434908806DE03A48807A60B1002038490A
:1007600088724148006806F0CFFB84B2022120461F
:1007700000F03EFA5DE032488078E0B10020304978
:1007800088703A48806839494968384A1268384B55
:100790009B68CDE90232CDE9041035484068344900
:1007A0000968CDE900103348836842680168012078
:1007B00000F018F93DE02248C078D8B10020204967
:1007C000C8702D48816840682B4A12682B4B9B6883
:1007D000CDE90232CDE9040128484068274909687B
:1007E000CDE900102648836842680168022000F0C5
:1007F000F9F81EE012480079D8B1002010490871BC
:10080000204880681F4949681E4A12681D4B9B6832
:10081000CDE90232CDE904101A4840681949096847
:10082000CDE900101748836842680168032000F092
:10083000D9F807B0BDE8F0835C0000205D0000201F
:10084000B00100205E0000205F000020600000205A
:100850002C0000201C03002004030020840400203E
:1008600054000020580000200000002088000020D4
:100870007C00002070000020AC000020A0000020C0
:1008800094000020B800002070B504460D460026F4
:100890000DE02178074802F0A8FF00BF402105487D
:1008A00002F0D6FE0128F9D1641C701CC6B2AE421B
:1008B000EFDB70BD003801407FB500240026AA227E
:1008C0002146641C464842542146641C4254062278
:1008D0002146641C425400222146641C42549DF867
:1008E00001202146641C42549DF800202146641CCE
:1008F00042549DF805202146641C42549DF8042072
:100900002046611CCCB236490A549DF80920204685
:10091000611CCCB232490A549DF808202046611C63
:10092000CCB22F490A549DF80D202046611CCCB250
:100930002B490A549DF80C202046611CCCB2284952
:100940000A549DF821202046611CCCB224490A5447
:100950009DF820202046611CCCB221490A549DF804
:1009600025202046611CCCB21D490A549DF8242044
:100970002046611CCCB21A490A549DF82920204611
:10098000611CCCB216490A549DF828202046611CEF
:10099000CCB213490A549DF82D202046611CCCB2DC
:1009A0000F490A549DF82C202046611CCCB20C49FA
:1009B0000A54201FC870002505E00948405D3044F6
:1009C000C6B2681CC5B2A542F7DB2046611CCCB29A
:1009D00003490E5421460248FFF756FF7FBD000031
:1009E000BB0100202DE9FC5F06460F469046994664
:1009F000DDF830B00024A246AA222146641C7A48C1
:100A000042542146641C425406F10F00C2B22146F2
:100A1000641C7548425400222146641C42547349A8
:100A2000384606F00DFB009006F052FA00B2019035
:100A30009DF805202146641C6B4842549DF8042013
:100A40002146641C42546949404606F0F9FA009078
:100A500006F03EFA00B201909DF805202146641C84
:100A6000614842549DF804202046611CCCB25E4986
:100A70000A545E49484606F0E3FA009006F028FA68
:100A800000B201909DF805202046611CCCB2564969
:100A90000A549DF804202046611CCCB252490A54E5
:100AA0005249584606F0CCFA009006F011FA00B20E
:100AB00001909DF805202046611CCCB24A490A5499
:100AC0009DF804202046611CCCB247490A5447498E
:100AD0000D9806F0B5FA009006F0FAF900B2019010
:100AE0009DF805202046611CCCB23F490A549DF870
:100AF00004202046611CCCB23B490A543B490E9865
:100B000006F09EFA009006F0E3F900B201909DF81D
:100B100005202046611CCCB233490A549DF80420BC
:100B20002046611CCCB230490A5430490F9806F077
:100B300087FA009006F0CCF900B201909DF80520EC
:100B40002046611CCCB228490A549DF80420204656
:100B5000611CCCB224490A542449109806F070FA5A
:100B6000009006F0B5F900B201909DF805202046EE
:100B7000611CCCB21C490A549DF804202046611C1B
:100B8000CCB219490A541949119806F059FA009043
:100B900006F09EF900B201909DF805202046611CE8
:100BA000CCB211490A549DF804202046611CCCB2F5
:100BB0000D490A54201FC870002506E00A48405D10
:100BC000504400F0FF0A681CC5B2A542F6DB20467F
:100BD000611CCCB2044901F800A021460248FFF78D
:100BE00053FEBDE8FC9F0000BB01002000007A44DA
:100BF0002DE9F84306460F460024A046AA222146C6
:100C0000641C1F4842542146641C4254052221465C
:100C1000641C425400222146641C425400969DF8F4
:100C200001202146641C42549DF800202146641C8A
:100C3000425400979DF801202146641C42549DF8BF
:100C400000202046611CCCB20D490A54201FC870F8
:100C5000002506E00A48405D404400F0FF08681C9B
:100C6000C5B2A542F6DB2046611CCCB2044901F8AE
:100C7000008021460248FFF707FEBDE8F883000028
:100C8000BB0100202DE9F84F06460F4690469946D5
:100C9000DDF828B00024A246AA222146641C574849
:100CA00042542146641C425402222146641C425490
:100CB00000222146641C425400969DF801202146E2
:100CC000641C42549DF800202146641C4254009745
:100CD0009DF801202146641C42549DF800202046C6
:100CE000611CCCB245490A54CDF800809DF8012022
:100CF0002046611CCCB241490A549DF80020204690
:100D0000611CCCB23D490A54CDF800909DF80120F9
:100D10002046611CCCB239490A549DF80020204677
:100D2000611CCCB235490A54CDF800B09DF80120C1
:100D30002046611CCCB231490A549DF8002020465F
:100D4000611CCCB22D490A540B9800909DF80120EB
:100D50002046611CCCB229490A549DF80020204647
:100D6000611CCCB225490A540C9800909DF80120D2
:100D70002046611CCCB221490A549DF8002020462F
:100D8000611CCCB21D490A540D9800909DF80120B9
:100D90002046611CCCB219490A549DF80020204617
:100DA000611CCCB215490A540E9800909DF80120A0
:100DB0002046611CCCB211490A549DF800202046FF
:100DC000611CCCB20D490A54201FC870002506E0F2
:100DD0000A48405D504400F0FF0A681CC5B2A542B5
:100DE000F6DB2046611CCCB2044901F800A0214684
:100DF0000248FFF749FDBDE8F88F0000BB01002065
:100E00002DE9FE4F82460E4617469846DDF830B073
:100E10000024A146CDF80480AA222146641C48483B
:100E200042542146641C425401222146641C42540F
:100E300000222146641C42544249504606F000F903
:100E4000009006F045F800B202909DF80920214676
:100E5000641C3B4842549DF808202146641C4254BF
:100E60003849304606F0ECF8009006F031F800B250
:100E700002909DF809202146641C314842549DF897
:100E800008202146601CC4B22D4842542D493846E2
:100E900006F0D6F8009006F01BF800B202909DF81C
:100EA00009202046611CCCB225490A549DF808202F
:100EB0002146601CC4B2224842549DF807202046B7
:100EC000611CCCB21E490A549DF806202046611CC4
:100ED000CCB21B490A549DF805202046611CCCB2B7
:100EE00017490A549DF804202146601CC4B21448D6
:100EF00042542046611CCCB2114901F800B0214691
:100F0000621CD4B20E4A0D985054201F1146C8706E
:100F1000002506E00A48405D484400F0FF09681CCF
:100F2000C5B2A542F6DB2046611CCCB2044901F8EB
:100F3000009021460248FFF7A7FCBDE8FE8F0000A5
:100F4000BB0100200000C84200B587B001214FF46A
:100F5000017001F071FB4FF4004001F051FB0220E1
:100F6000ADF8040000208DF8070001A9174800F033
:100F70007DF91748FFF738FA002002908DF80C0031
:100F80008DF80D004FF460200490002005900120A2
:100F90008DF8180002A90E48FFF776FA01210C48D7
:100FA000FFF717FA0A48FFF7F3FA00BF0848FFF700
:100FB00060FA0028FAD10648FFF7FAFA00BF0448A1
:100FC000FFF740FA0028FAD107B000BD0008014041
:100FD0000024014070B504460D461CB929464B4813
:100FE00001F074F94A49494801F07CF8012C03D119
:100FF0003B21D02001F0F6F8454800894549C988D1
:10100000401A00B24249088108464089414909898D
:10101000401A00B23E494881084680893D494989C5
:10102000401A00B23A498881B1F9000005F08CFFFE
:1010300006463146384804F006FA3549B1F902004F
:1010400005F082FF06463146344804F0FCF9304989
:10105000B1F9040005F078FF06463146304804F047
:10106000F2F92D48C0682F4908602C48C0684860D4
:101070002B48C06888602649B1F9080005F064FF74
:101080002849C8602249B1F90A0005F05DFF2549E9
:1010900008611F49B1F90C0005F056FF214948616C
:1010A0002149204800F098F91A4AD1681D4A9069F0
:1010B00006F0CEF81B498861164A1169194AD069B1
:1010C00006F0C6F81749C861C868184905F0B8FFA6
:1010D00006464FF0804105F0B3FF1249C860086929
:1010E000124905F0ADFF06464FF0804105F0A8FF1C
:1010F0000C49086148690D4905F0A2FF06464FF00A
:10110000804105F09DFF0749486170BD1001002036
:101110001E01002004030020D4000020E400002071
:10112000F40000201C030020B020CD3BF6FFF93C6A
:1011300000BFFEE710B54FF4003000F02FF8012893
:101140000DD1400400F010F80021054800F001FD29
:101150000121034800F021FD01200249086010BD73
:10116000005800403000002000F0805111B10349C8
:10117000086001E002494860704700000404024032
:101180000000024021B1026842F00102026004E066
:1011900002684FF6FE731A40026070470146002055
:1011A000002201F0805313B1054B1A6801E0054B92
:1011B0001A6802EA01030BB1012000E00020704729
:1011C0000004024000000240416070477047000088
:1011D00010B54FF4804000F035F838B34FF480403C
:1011E00000F02AF84FF48041114800F0CAF80128B5
:1011F00008D10021800702F0D9F90121880702F007
:10120000ACF913E04FF48041094800F0BAF868B92E
:1012100000214FF0804002F0A0F94FF0804002F032
:10122000A8F9044600F03EFC0249086010BD000029
:10123000000C01402C0000200149086070470000AC
:1012400014040140014600200022074B1B6803EAFA
:101250000102054B14331B680B4013B10AB1012086
:1012600000E0002070470000000401402DE9F0413B
:10127000024600250026002000230024002791F8C4
:1012800003C00CF00F0591F803C00CF0100CBCF17A
:10129000000F03D091F802C04CEA050591F800C098
:1012A000BCF1000F31D0146800202BE04FF0010C8E
:1012B0000CFA00F3B1F800C00CEA03069E4220D1FC
:1012C00083004FF00F0C0CFA03F7BC4305FA03FC44
:1012D0004CEA040491F803C0BCF1280F06D14FF08A
:1012E000010C0CFA00FCC2F814C00AE091F803C02B
:1012F000BCF1480F05D14FF0010C0CFA00FCC2F80C
:1013000010C0401C0828D1D31460B1F800C0BCF153
:10131000FF0F34DD546800202EE000F1080C4FF080
:10132000010808FA0CF3B1F800C00CEA03069E426B
:1013300021D183004FF00F0C0CFA03F7BC4305FAE0
:1013400003FC4CEA040491F803C0BCF1280F05D15A
:1013500000F1080C08FA0CF8C2F8148091F803C0E8
:10136000BCF1480F07D100F1080C4FF0010808FA52
:101370000CF8C2F81080401C0828CED35460BDE899
:10138000F0810246002093680B400BB1012000E081
:1013900000207047016170470AB1016100E04161BE
:1013A0007047000010B50446072301222146094872
:1013B000FFF792F801210748FFF7EFF800BF02217D
:1013C0000448FFF74DF80028F9D00248FFF744F829
:1013D00010BD00000024014003B59FB04FF07C51C8
:1013E000209805F02DFE0D90FE4880680590FD4880
:1013F00000680490059905F023FE0790F948C0683D
:101400000590F84840680490059905F019FE06908B
:10141000079905F01DFF4FF08041089005F010FE80
:101420001C90F048C0680590EE48806804900599CB
:1014300005F006FE0790EB4840680590E948006813
:101440000490059905F0FCFD0690079905F0D6FB80
:101450004FF08041089005F0F3FD1D90E148806851
:101460000490E04880680390049905F0E9FD069037
:10147000DC4840680490DB4840680390049905F01C
:10148000DFFD0590069905F0B9FB4FF0804107900C
:1014900005F0D6FD4FF07E51089005F0CEFE1E906F
:1014A0001F98806805901F9880680490059905F042
:1014B000C7FD07901F98406803901F9840680290EE
:1014C000039905F0BDFD05901F98006803901F98D3
:1014D00000680290039905F0B3FD0490059905F0AA
:1014E0008DFB0690079905F089FB089001F060F8E4
:1014F0000E901F98006808900E9905F0A1FD1990B4
:101500001F98406808900E9905F09AFD1A901F9850
:10151000806808900E9905F093FD1B901D98069029
:101520001B980590069905F08BFD08901E98069073
:101530001A980590069905F083FD0790089905F023
:1015400087FE13901E98069019980590069905F04D
:1015500077FD08901C9806901B980590069905F059
:101560006FFD0790089905F073FE14901C98069083
:101570001A980590069905F063FD08901D9806904D
:1015800019980590069905F05BFD0790089905F0FC
:101590005FFE15901398079093480168079805F02F
:1015A0004FFD08909148006801460790089805F0A3
:1015B00025FB8E490860149807908B4801680798AE
:1015C00005F03EFD0890894840680146079008985C
:1015D00005F014FB8549486015980790824801681A
:1015E000079805F02DFD0890804880680146079017
:1015F000089805F003FB7D49886013980146059023
:101600007B48006805F01CFD07901F98C068794969
:10161000049005F015FD4FF08041059005F010FD98
:101620000690079905F0EAFA0890704800680146AC
:101630000790089805F0E2FA169014980146059074
:101640006B48006805F0FCFC07901F980069694929
:10165000049005F0F5FC4FF08041059005F0F0FC9A
:101660000690079905F0CAFA08906048406801465C
:101670000790089805F0C2FA179015980146059052
:101680005B48006805F0DCFC07901F9840695949E9
:10169000049005F0D5FC4FF08041059005F0D0FC9A
:1016A0000690079905F0AAFA08905048806801460C
:1016B0000790089805F0A2FA1890189805904948E4
:1016C000C0680490059905F0BBFC0790179803903B
:1016D000444880680290039905F0B2FC05904148A7
:1016E000406880F0004003901698014602900398ED
:1016F00005F0A6FC0490059905F0AAFD069007994F
:1017000005F0A6FD08900D9905F09AFC1290189826
:101710000590344880680490059905F091FC079085
:10172000179803902F48C0680290039905F088FC31
:101730000590169803902B4800680290039905F0D5
:101740007FFC0490059905F083FD0690079905F04C
:1017500055FA08900D9905F073FC119018980590B2
:10176000204840680490059905F06AFC0790179896
:1017700003901C4800680290039905F061FC0590F5
:10178000169803901748C0680290039905F058FC1A
:101790000490059905F032FA0690079905F058FD76
:1017A00008900D9905F04CFC1090189805900D4884
:1017B00000680490059905F043FC07901798039082
:1017C000084840680290039905F03AFC05900548E6
:1017D000806880F0004003901698014602900398BC
:1017E0000AE00000C40000200C0100204403002097
:1017F000080100202E9E0B3A05F022FC049005996A
:1018000005F0FCF90690079905F0F8F908900D9994
:1018100005F016FC0F909E4800680890129905F09C
:10182000EDF99B490860084640680890119905F059
:10183000E5F997494860084680680890109905F0D6
:10184000DDF9934988600846C06808900F9905F053
:10185000D5F98F49C8600846C06805900846C06839
:101860000490059905F0ECFB079089488068039087
:10187000874880680290039905F0E2FB0590844850
:1018800040680190824840680090019905F0D8FBBB
:1018900003907F48006801907D480068009001999E
:1018A00005F0CEFB0290039905F0A8F90490059984
:1018B00005F0A4F90690079905F0A0F9089000F04A
:1018C00077FE0E907248006808900E9905F0B8FBFC
:1018D0006F4908600846406808900E9905F0B0FB13
:1018E0006B4948600846806808900E9905F0A8FB8F
:1018F000674988600846C06808900E9905F0A0FB0B
:101900006349C86008464068014605904FF0804032
:1019100005F096FB06905E48C06801460590069863
:1019200005F08EFB08905A480068014605904FF07C
:10193000804005F085FB069055488068014605907B
:10194000069805F07DFB0790089905F081FC0C9046
:101950004F480068014605904FF0804005F070FB4D
:1019600006904B48406801460590069805F068FBD4
:10197000089047488068014605904FF0804005F088
:101980005FFB06904248C06801460590069805F046
:1019900057FB0790089905F031F90B903C48C06857
:1019A00006903B48C0680590069905F049FB0890F1
:1019B000374880680490364880680390049905F0A1
:1019C0003FFB0690324840680290314840680190E1
:1019D000029905F035FB04902D48006802902C48D0
:1019E00000680190029905F02BFB0390049905F023
:1019F0002FFC0590069905F02BFC0790089905F03F
:101A0000FDF80A901F9840692249079005F018FBDD
:101A10004FF08041089005F013FB09904FF07E5184
:101A2000099805F0D9FB04D31B49099805F0D4FAAD
:101A30000DD22099099805F003FB08901F98006AC1
:101A400001460790089805F0D9F81F9908620C988C
:101A500005F0A8F8CDE9020102F02EFA4FF000528D
:101A60000E4BCDE9040104F08DFDCDE9060104F033
:101A7000ADFA1F998861DDE90A1002F065FC08499A
:101A8000089005F0DDFA1F99C86121B000BD000083
:101A9000C4000020F6FFF93C000080BFDCA54C40EC
:101AA000E12E65422DE9F0410446204605F04CFA4E
:101AB0000746054905F016F90646044905F0C0FA3F
:101AC00005462846BDE8F08100409C460000AA4338
:101AD00010B50122D1030648FFF75EFC0F2002F08B
:101AE000F7FD00224FF400410148FFF755FC10BDFF
:101AF000000C014000BFFEE721B1028842F4806281
:101B0000028004E002884FF6FF331A4002807047DB
:101B100070B502460024002500230020958A138B0F
:101B20001B0445EA030626F07F4404EA01068E42C0
:101B300001D1012000E0002070BD21B1028842F0F7
:101B40000102028004E002884FF6FE731A40028010
:101B5000704721B1828842F40062828004E082886A
:101B60004FF2FF731A408280704721B1828842F49D
:101B70008052828004E082884EF6FF731A40828091
:101B8000704721B1028842F48072028004E002882A
:101B90004FF6FF631A400280704721B1028842F479
:101BA0000072028004E002884FF6FF531A40028060
:101BB00070470CB502460020002301930093009269
:101BC0000B0F019321F07F41019B1BB1009B14334C
:101BD000009303E0090C009B18330093009B1B68E3
:101BE0000B400BB1012000E000200CBD2DE9F043BB
:101BF00085B004460D460026B1460427DFF8CC80A8
:101C0000A6884FF6C0700640684600F035FDDDF846
:101C100008802F48B8FBF0F01FFA80F946EA090661
:101C2000A68020884FF6FE710840208000262949B2
:101C3000286888420CD828684000B8FBF0F087B2CA
:101C4000042F00DA04273E4309F10100208427E035
:101C5000E8884BF6FF71884206D1286800EB400007
:101C6000B8FBF0F087B209E0286800EBC00101EB97
:101C70000010B8FBF0F087B247F48047C7F30B00C1
:101C800008B947F0010747F4004006434FF4967047
:101C900009FB00F04FF47A7190FBF1F0401C2084B6
:101CA000A683208840F00100208026884FF6F5307A
:101CB0000640A8886989084306432680A88929899F
:101CC0000843208105B0BDE8F083000000127A00CF
:101CD00040420F00A08601000146088AC0B270474A
:101CE00012B141F0010102E04FF6FE73194001828A
:101CF000704701827047000010B500200F4908604E
:101D00000F48006820F470400D49086008460068DC
:101D100040F44050086000200A49C1F8AC0102209C
:101D200002F0D6FC012005490860022002F0D0FC38
:101D300000200449C1F8A80110BD0000A88121427B
:101D4000040C01400080214210B500200F490860BA
:101D50000F48006820F470400D490860084600688C
:101D600040F44050086001200A49C1F8AC0102204B
:101D700002F0AEFC012005490860022002F0A8FC38
:101D800000200449C1F8A80110BD0000A88121422B
:101D9000040C01400080214270B50546002417481C
:101DA000006820F47040154908600846006840F457
:101DB00000400860002616E000201149086002205B
:101DC00002F086FC01200F49C1F8A8016006040E4C
:101DD0000B487C38006808B1601CC4B2012002F0D6
:101DE00077FC701CC6B2082EE6DB15B9FFF7ACFF16
:101DF00001E0FFF781FF204670BD0000040C0140A8
:101E0000A88121420080214270B50446154800682F
:101E100020F47040134908600846006840F44050C0
:101E20000860002010490860002517E0E0090E490D
:101E3000091D08606006040E022002F049FC012022
:101E40000A49C1F8A801022002F042FC002006491C
:101E50000860022002F03CFC681CC5B2082DE5DBDE
:101E600070BD0000040C0140A88121420080214285
:101E700010B50F48006820F470400D49086008460E
:101E8000006840F44050086001200A4908600A498F
:101E9000C1F8A801042002F01BFC002005490860DD
:101EA000042002F015FC00200349C1F8A80110BD70
:101EB000040C0140AC8121420080214210B50F4842
:101EC000006820F470400D4908600846006840F43E
:101ED0004050086000200A4908600A49C1F8AC0176
:101EE000042002F0F5FB0120054908600549C1F80E
:101EF000AC01042002F0ECFB10BD0000040C01401A
:101F0000A88121420080214210B5002414480068B5
:101F100020F47040124908600846006840F4004010
:101F2000086001200F49086002F0D2FB01200E4931
:101F3000C1F8A80102F0CCFB07E0601CC4B2FA2C87
:101F400003DDFFF7BBFF012010BD064880380068A5
:101F50000028F2D10349091F086000BFF4E7000020
:101F6000040C0140AC8121420080214210B501F0F7
:101F700007FA00F049F800F033F802F061FBFEF7D1
:101F8000E3FF4FF4E13003F0D1FF4FF4A06000F025
:101F900003FB012003F05AF9012001F005F80120AC
:101FA00000F07EFA10BD0146CA1701EB9272921042
:101FB000A1EB820292B9642091FBF0F200FB1210B7
:101FC00050B94FF4C87091FBF0F200FB121008B941
:101FD000012070470020FCE70120FAE70020F8E725
:101FE00008B50121102000F027FB4FF40050ADF898
:101FF000000048208DF8030069460248FFF736F9D3
:1020000008BD00000010014008B50121042000F0C7
:1020100013FB4FF47060ADF8000010208DF8030042
:1020200003208DF8020069460448FFF71FF94FF4BA
:1020300070610248FFF7AEF908BD000000080140DA
:102040002DE9F047054600210F46884600262EE080
:102050002946204800F03AF91F491E4800F042F88E
:10206000042421E01C4931F9140004F06DFF82467C
:102070001A4904F0E5FF81464FF0804104F0E0FF8B
:10208000174941F824003846414604F078FF82465B
:10209000134850F82410504604F0B0FD814605F076
:1020A0004DF907468846641C062CDBDD761C642E41
:1020B000CEDB4FF49672002338464146FEF7ABF86C
:1020C000401F71F1000102DA0120BDE8F087002015
:1020D000FBE70000100100201E010020F6FFF93C84
:1020E000440100202DE9F04705460E4600240AE091
:1020F000681C10F8140015F8141000EB012000B251
:1021000026F81400641C072CF2DB00245BE0304846
:1021100030F91400002811DB2D4931F9140004F0C6
:1021200013FF80462B4904F0DDFD07464FF0814147
:1021300004F086FF284941F8240011E0244931F9D0
:10214000140004F001FF80464FF08E4104F0CAFDF8
:1021500007464FF0814104F073FF1F4941F8240006
:102160001B49201D31F91000002815DB0A46211DEE
:1021700032F9110004F0E8FE8146164904F0B2FD80
:102180008046164904F05CFF0746002105F055F82B
:10219000134941F8240015E00D4A211D32F91100C0
:1021A00004F0D2FE81464FF08E4104F09BFD804644
:1021B0000A4904F045FF0746002105F03EF80849AA
:1021C00041F82400641C032CA1DBBDE8F08700006B
:1021D0001E01002000FEFF462C0100200000FA44F2
:1021E0003801002070B504460E4600250021324813
:1021F000FEF7C8FF0E213048FEF7E6FF05E06D1C34
:1022000041F28830854200DD70BD4FF400312B482B
:10221000FFF7CFFC0028F2D101212848FFF7A5FCE9
:1022200001212648FFF7ADFC00BF25492348FFF7F1
:102230006FFC0028F9D0002221462048FFF750FD0E
:1022400000BF20491D48FFF763FC0028F9D0012199
:102250001A48FFF772FC31461848FFF74AFD00BFE5
:102260001849891C1548FFF753FC0028F8D00121B4
:102270001248FFF786FC00BF11491048FFF748FCE1
:102280000028F9D0012221460C48FFF729FD00BFA4
:102290000B49491C0948FFF73BFC0028F8D00121F5
:1022A0000548FEF76FFF01210448FFF752FC0020AC
:1022B0000549086000BFA7E75800024000580040E9
:1022C00001000300820007003000002070B50446C2
:1022D0000D4635B90E2322463B21D02003F012F8DB
:1022E00005E00E2322463B21D02003F07DF870BD8F
:1022F00070B50546002420E029466048FFF7E6FF58
:102300005F495E48FFF7EEFE5E48C0885C49098978
:10231000084400B25B49C880084600895849498989
:10232000084400B2574908810846408954498989C0
:10233000084400B253494881641C642CDCDB5148DA
:10234000B0F90600642190FBF1F000B24D49C8805D
:102350000846B0F90800642190FBF1F000B2494949
:1023600008810846B0F90A00642190FBF1F000B240
:1023700044494881002470E029464048FFF7A6FF01
:102380003F493E48FFF7AEFE3D4800893D49C988B8
:10239000401A00B23A4908810846408939490989FA
:1023A000401A00B236494881084680893549498932
:1023B000401A00B232498881B1F9000004F0C4FD2E
:1023C00006463146304803F03EF82D49B1F9020087
:1023D00004F0BAFD064631462C4803F034F828498B
:1023E000B1F9040004F0B0FD06463146284803F078
:1023F0002AF82548C068274908602448C068486012
:102400002348C06888601E49B1F9080004F09CFDAB
:102410002049C8601A49B1F90A0004F095FD1D4928
:1024200008611749B1F90C0004F08EFD19494861A3
:1024300019491848FEF7D0FF164A9169114AD06829
:1024400004F0DCFB0F49C860124AD1690D4A1069DB
:1024500004F0D4FB0B490861641C642C8CDB094933
:10246000C8680E4904F03EFC0649C86008690B497B
:1024700004F038FC0349086170BD00001001002021
:102480001E01002004030020D4000020E4000020EE
:10249000F40000201C030020B020CD3B0000C84207
:1024A00010B50446CCB900226B21D02002F076FE94
:1024B00007221921D02002F071FE06221A21D02015
:1024C00002F06CFE09221C21D02002F067FE1822C7
:1024D0001B21D02002F062FE18E000226B21D020E8
:1024E00002F09AFE07221921D02002F095FE062262
:1024F0001A21D02002F090FE09221C21D02002F0E7
:102500008BFE18221B21D02002F086FE00BF204641
:10251000FFF796FD0028FAD02046FFF7E9FE10BD30
:1025200000BFFEE77047000070B5002100230F22B6
:10253000C47804B3154C246804F4E064C4F5E06482
:10254000210AC1F10403CA40447804FA03F18478F3
:102550001440214309010E4C0678A155047804F07B
:102560001F050124AC4005786D11AD0005F1E02593
:10257000C5F8004109E0047804F01F050124AC40CF
:10258000044D0678761145F8264070BD0CED00E04C
:1025900000E400E080E100E002490143024A1160EA
:1025A000704700000000FA050CED00E070470000E5
:1025B0002DE9F05F04464FF07F594FF07C512046E3
:1025C00004F03EFD824625462E460C48A0EB6606EA
:1025D00035462946504604F033FD8346294604F02B
:1025E0002FFD8046494604F028FE0746294604F0A0
:1025F00027FD05462846BDE8F09F0000DF59375FFC
:1026000001460020034A506820F4404008435060CF
:10261000704700000010024029B1064AD269024307
:10262000044BDA6104E0034AD2698243014BDA6168
:10263000704700000010024029B1064A9269024327
:10264000044B9A6104E0034A92698243014B9A6108
:10265000704700000010024029B1064AD2680243C8
:10266000044BDA6004E0034AD2688243014BDA602B
:10267000704700000010024030B500210022002405
:1026800000232D4D6D6805F00C0121B1042905D002
:10269000082923D105E0294D056022E0274D05607A
:1026A0001FE0254D6D6805F47012234D6D6805F42B
:1026B0008034022505EB92421CB9214D554305603B
:1026C0000BE01D4D6D6805F400351DB11C4D5543E3
:1026D000056002E0194D5543056002E0174D0560A5
:1026E00000BF00BF144D6D6805F0F0010909154DDC
:1026F0006B5C0568DD4045600F4D6D6805F4E06179
:10270000090A104D6B5C4568DD4085600A4D6D68B7
:1027100005F46051C90A0B4D6B5C4568DD40C5602E
:10272000054D6D6805F44041890B074D6B5CC5682C
:10273000B5FBF3F5056130BD0010024000127A00D0
:1027400000093D00180000202800002002490988E7
:102750008143014A118070470428004070B500266B
:102760000024002500F07AF806463848B6FBF0F45D
:1027700037480088A0423CD035490C8040F2B27501
:1027800010E02846FFF70FFC40B1B4F5B77F02D345
:10279000A4F5B77404E0681C85B206E0A4F26D14D9
:1027A000681C85B2B4F5B67FEBD800BF2948858098
:1027B000002516E027498888FFF7F5FB30B1012D89
:1027C00004D11D2C01D31D3C09E00CE02248405DE2
:1027D000A04203D82048405D241A00E003E0681CB2
:1027E00085B21C2CE6D200BF681C1A498871601C97
:1027F000C8711648B6FBF0F100FB11644FF461603C
:10280000B4FBF0F0134908704FF46160B4FBF0F1D1
:1028100000FB11403C21B0FBF1F00E4948704FF431
:102820006160B4FBF0F100FB11403C21B0FBF1F220
:1028300001FB1200074988700B46DA79997998886C
:1028400000F028F803490872002070BD8051010093
:102850003C000020600100200A75000800210348A8
:102860000188001F008841EA004070471C28004092
:1028700001460020064A12880A40D0B2044A121FBC
:1028800012880A4012B108B1012000E00020704710
:1028900004280040F0B503460C461546642093FB1F
:1028A000F0F0C6B2642093FBF0F700FB1730C1B222
:1028B000132E02DD01F16400C1B20846CF1701EB0F
:1028C000977701EBA707BAB2072092FBF0F700FB5E
:1028D000172082B25719601EDFF82CC01CF80000C8
:1028E000384482B2CF1701EB9777BF10A1EB87076F
:1028F0001FB9032C01DA501E82B2072092FBF0F7B9
:1029000000FB1720C0B2F0BDFE74000810B5012016
:10291000FFF7AEFF08B1FFF721FF0220FFF7A8FF86
:1029200010B10220FFF712FF0520FFF70FFF00F0A4
:1029300001F810BD00BF0348008800F02000002807
:10294000F9D07047042800402DE9FE4307460D46A4
:10295000BFB9CC20DA4908806FF482704880D9482A
:102960004860D94888604FF20D50888140F2CA40D3
:10297000C8814DF2DD500882B72048824FF6BD1065
:102980008882012F7CD165B9012302AA1021EC2095
:1029900002F0B8FC01236A461121EC2002F0B2FCDF
:1029A0000BE0012302AA1021EC2002F01DFD0123FF
:1029B0006A461121EC2002F017FD9DF808409DF8B1
:1029C0000060200140EA1610BD49088008460088D2
:1029D00000F4006028B10846B0F9000040F47040EF
:1029E00002E0B748B0F9000000B2B549088065B907
:1029F000012302AA1121EC2002F084FC01236A4683
:102A00001221EC2002F07EFC0BE0012302AA11212E
:102A1000EC2002F0E9FC01236A461221EC2002F0CE
:102A2000E3FC9DF808409DF8006004F00F0046EAC2
:102A30000020A34948800846408800F4006028B17F
:102A40000846B0F9020040F4704002E09C48B0F93A
:102A5000020000B29A4948809DB9012302AA1321BD
:102A6000EC2002F04FFC012301AA1421EC2002F01B
:102A700049FC01236A461521EC2002F043FC12E0D8
:102A80001BE1012302AA1321EC2002F0ADFC01237B
:102A900001AA1421EC2002F0A7FC01236A461521AB
:102AA000EC2002F0A1FC9DF808409DF804809DF800
:102AB0000060200340EA081040EA26108049486080
:102AC0000846406800F4002020B1084640687F496D
:102AD000084301E07A4840687949486095B9012384
:102AE00002AA1521EC2002F00DFC012301AA1621F7
:102AF000EC2002F007FC01236A461721EC2002F0CB
:102B000001FC11E0012302AA1521EC2002F06CFC6B
:102B1000012301AA1621EC2002F066FC01236A467B
:102B20001721EC2002F060FC9DF808409DF804801D
:102B30009DF80060200440EA082030436049886026
:102B40000846806800F4002020B1084680685F498C
:102B5000084301E05A4880685949886065B90123F3
:102B600002AA1821EC2002F0CDFB01236A461921AC
:102B7000EC2002F0C7FB0BE0012302AA1821EC2095
:102B800002F032FC01236A461921EC2002F02CFCF1
:102B90009DF808409DF8006046EA042000B24849CC
:102BA000888165B9012302AA1A21EC2002F0AAFB50
:102BB00001236A461B21EC2002F0A4FB0BE0012359
:102BC00002AA1A21EC2002F00FFC01236A461B2105
:102BD000EC2002F009FC9DF808409DF8006046EAF0
:102BE000042000B23649C88165B9012302AA1C211C
:102BF000EC2002F087FB01236A461D21EC2002F045
:102C000081FB0BE0012302AA1C21EC2002F0ECFB6B
:102C100001236A461D21EC2002F0E6FB9DF80840E6
:102C20009DF8006046EA042000B22549088265B993
:102C3000012302AA1E21EC2002F064FB01236A4654
:102C40001F21EC2002F05EFB0BE0012302AA1E21F3
:102C5000EC2002F0C9FB01236A461F21EC2002F0A0
:102C6000C3FB9DF808409DF8006046EA042000B2CE
:102C70001349488265B9012302AA2021EC2002F001
:102C800041FB01236A462121EC2002F03BFB0BE0D3
:102C9000012302AA2021EC2002F0A6FB01236A46B0
:102CA0002121EC2002F0A0FB9DF808409DF8006077
:102CB00046EA042000B202498882BDE8FE83000093
:102CC0006C010020553A01000F2AFFFF0000F0FFC1
:102CD0002DE9FE4F0024002500260027A0463E498E
:102CE000C86804F031F981463B49486804F02CF982
:102CF0008246494603F0F6FF04463749886804F0E7
:102D000023F981463449086804F01EF98246494691
:102D100003F0E8FF05463149B1F9140004F014F955
:102D20002946009004F08CF983462C49B1F9100033
:102D300004F00AF95946019003F060FF82462946E3
:102D400004F07EF981462549886804F0FDF849467B
:102D5000029003F053FF06462049B1F9120004F037
:102D6000F3F82946019004F06BF982461B49B1F94A
:102D70000E0004F0E9F88346514603F03FFF814618
:102D80002946204604F05CF94946029004F058F9BF
:102D900007461249B1F90C0004F0D6F8214602901A
:102DA00004F04EF982463146284604F049F90B49B1
:102DB0000290486804F0C8F80190029903F01EFFE1
:102DC0008346514603F01AFF8146394603F016FF49
:102DD00080464046BDE8FE8F840100206C01002043
:102DE00038B504460020009034B903236A461946DA
:102DF000EC2002F087FA05E003236A461946EC202E
:102E000002F0F2FA9DF8000000049DF8011040EA7B
:102E100001209DF8021008431C494860084640689C
:102E200000F4000020B10846406840F07F4001E017
:102E3000164840681549486034B903236A460021A2
:102E4000EC2002F05FFA05E003236A460021EC2043
:102E500002F0CAFA9DF8000000049DF8011040EA53
:102E600001209DF8021008430849086008460068E0
:102E700000F4000020B10846006840F07F4001E007
:102E8000024800680149086038BD00008401002044
:102E900010B50446002008490860204600F014F8E8
:102EA00006498869064904F0CBF8064948620120C2
:102EB0000149086010BD000040000020840100208E
:102EC0000000C8421C0300202DE9F14F86B000BF6E
:102ED00000BF00BF00BF2A492A48CDE904102A4993
:102EE000086A03F05FFE04460022284B03F05CF9F9
:102EF000CDE902010698FFF773FFFFF7E9FE2249CB
:102F0000086202A80FC803F04FF98046204A214BFF
:102F100002F00AFB06464FF066321F4B03F032FB0D
:102F20004FF066321C4BCDE9000103F051FD044621
:102F30001A4A1B4B03F038F9824603F047F812494E
:102F400048614869174904F07BF8064603F0C0FF62
:102F500007460D490869134904F072F8064603F064
:102F6000B7FF381A05B2284603F0EEFF04460D49B4
:102F700003F0B8FE0449886107B0BDE8F08F000097
:102F8000CDCCCCCCCC5459408401002000408F40A3
:102F9000739B82A07A5AC83F6602724039B4C876E1
:102FA000BE9F7ABF00007A4438B5044600BF34B9EA
:102FB00001236A460821EC2002F0A4F905E0012370
:102FC0006A460821EC2002F00FFA9DF8000000F09C
:102FD00080008028EBD121460120FFF7B5FC00BF1F
:102FE00034B901236A460821EC2002F08BF905E090
:102FF00001236A460821EC2002F0F6F99DF8000052
:1030000000F040004028EBD1234620228021002000
:1030100000F024F8234608222021012000F01EF8A9
:103020002CB907220821EC2002F0B8F804E00722AE
:103030000821EC2002F0F0F840F6B83001F022FB55
:103040002046FFF741FF2046FFF73EFF0248406958
:103050000149086138BD0000840100202DE9F843D2
:1030600006460F4615461C46002000908046102F4D
:1030700022D008DC012F38D0022F0BD0042F0FD024
:10308000082F31D112E0202F1CD0402F20D0802FCC
:103090002AD123E09DF8000040F02000009025E0B8
:1030A0009DF8000040F0400000901FE09DF80000F7
:1030B00040F06000009019E09DF8000040F08000B2
:1030C000009013E09DF8000040F0A00000900DE09B
:1030D0009DF8000040F0C000009007E09DF800005F
:1030E00040F0E000009001E000BF00BF00BF102DE5
:1030F00028D008DC012D46D0022D0BD0042D11D094
:10310000082D3FD116E0202D24D0402D2AD0802D2F
:1031100038D12FE09DF8000040F0010000904FF4FE
:10312000C01833E09DF8000040F0020000904FF41A
:1031300060182BE09DF8000040F0030000904FF471
:10314000F00823E04FF478389DF8000040F00400C8
:1031500000901BE04FF4FC289DF8000040F00500B3
:10316000009013E04FF47E289DF8000040F0060028
:1031700000900BE04FF4FF189DF8000040F00700AE
:10318000009003E000BF4FF4002800BF00BF0EBB5B
:103190003448C0F8088034B99DF800200621EC209E
:1031A00001F0FCFF05E09DF800200621EC2002F074
:1031B00033F8082D1DDD74B901236A460921EC207E
:1031C00002F0A0F89DF8000040F004020921EC2074
:1031D00001F0E4FF0DE001236A460921EC2002F032
:1031E00003F99DF8000040F004020921EC2002F0F0
:1031F00013F8012E34D11B48C0F80C8044B99DF857
:10320000000040F080020721EC2001F0C7FF07E03A
:103210009DF8000040F080020721EC2001F0FCFF47
:10322000082D1DDD74B901236A460921EC2002F046
:1032300069F89DF8000040F008020921EC2001F037
:10324000ADFF0DE001236A460921EC2002F0CCF825
:103250009DF8000040F008020921EC2001F0DCFF9D
:10326000BDE8F88384010020704710B500F002F833
:1032700010BD00000CB5002001900090334800689C
:1032800040F480303149086000BF3048006800F4E5
:10329000003000900198401C0190009818B90198E6
:1032A000B0F5A06FF1D12948006800F4003010B1EA
:1032B0000120009001E0002000900098012843D1F7
:1032C0002348006840F01000214908600846006863
:1032D00020F0030008600846006840F00200086023
:1032E0001A484068194948600846406848600846DE
:1032F000406840F4806048600846406820F47C10D4
:1033000048600846406840F4E81048600846006895
:1033100040F08070086000BF0C48006800F000704A
:103320000028F9D00948406820F0030007494860A8
:103330000846406840F00200486000BF034840680B
:1033400000F00C000828F9D10CBD0000001002406C
:1033500000200240042808D14FF0E021096941F023
:1033600004014FF0E022116107E04FF0E02109690C
:1033700021F004014FF0E022116170477047000016
:1033800010B51348006840F0010011490860084674
:103390004068104908400E494860084600680E49D8
:1033A00008400B4908600846006820F48020086047
:1033B0000846406820F4FE0048604FF41F00886013
:1033C000FFF753FF4FF000600449086010BD000094
:1033D000001002400000FFF8FFFFF6FE08ED00E0DD
:1033E00010B50121880700F0C7F818B1012188073E
:1033F00000F0B0F810BD000010B50121314800F018
:10340000BBF801285CD101212E4800F0A3F801206F
:103410002D490860FEF75CFB2C480068B0F57A7F08
:103420001FDD2B49086803F06FFD84B2204600F0D1
:1034300051F82749486803F067FD84B2204600F040
:1034400059F82349886803F05FFD84B2204600F0F4
:1034500061F81F49C86803F057FD84B2204600F0A8
:1034600069F81A480068B0F5C87F0FD14FF4AF7003
:1034700000F030F84FF4AF7000F03CF84FF4AF704C
:1034800000F048F84FF4AF7000F054F80F480068AF
:10349000B0F5487F0FD14FF4167000F01BF84FF4D1
:1034A000167000F027F84FF4167000F033F84FF460
:1034B000167000F03FF805480068401C034908609A
:1034C00010BD00000004004038000020340000203F
:1034D0008404002010B5044640F2B630844200DB7C
:1034E000044604EBC40081B2014800F056F810BD58
:1034F0000008004010B5044640F2B630844200DBBC
:10350000044604EBC40081B2014800F048F810BD45
:103510000008004010B5044640F2B630844200DB9B
:10352000044604EBC40081B2014800F03AF810BD33
:103530000008004010B5044640F2B630844200DB7B
:10354000044604EBC40081B2014800F02CF810BD21
:1035500000080040CA430282704721B1028842F04D
:103560000102028004E002884FF6FE731A400280D6
:1035700070470146888C704730B502460020002312
:103580000024158A05EA0103958905EA010413B1AF
:103590000CB1012000E0002030BD8186704701871A
:1035A000704781877047A0F840107047818470474A
:1035B00010B540F225511D4800F057F810B31B48D4
:1035C00000F00EF9C4B21A48008800F40040C8B9EF
:1035D0001748008800F4804060B10A2C03D0002016
:1035E0001349088020E01248008840F40040104948
:1035F000088019E00D2C06D10D48008840F4804069
:103600000B49088010E00A480088C0F30D00094902
:103610000C5407480088401C05490880084600886B
:10362000C72801DD0020088010BD000000380140DF
:103630006C0000201F02002021B1828942F4005258
:10364000828104E082894DF6FF731A4082817047BF
:1036500002460020B1F5007F00D100BF13880B4067
:103660000BB1012000E00020704770B50246002435
:1036700000230025002040F66A16B14200D100BFA9
:10368000C1F3421501F01F03012606FA03F3012DD1
:1036900002D19689334006E0022D02D1168A3340CA
:1036A00001E0968A33400C12012606FA04F41688CB
:1036B000344013B10CB1012000E0002070BDF0B522
:1036C0000346002400260025002040F66A17B94270
:1036D00000D100BF1846C1F3421401F01F060127B4
:1036E00007FA06F5012C01D10C3004E0022C01D1BF
:1036F000103000E014301AB107682F43076002E071
:103700000768AF430760F0BD2DE9F04786B0054676
:103710000E460024A24600BFA1460027B08900B192
:1037200000BF2F462C8A4CF6FF700440F0880443FB
:103730002C82AC894EF6F3100440B08831890843DE
:10374000718908430443AC81AC8A4FF6FF400440C2
:10375000B0890443AC8201A8FEF78EFF1F48874260
:1037600002D1DDF810A001E0DDF80CA0A88900F47A
:10377000004040B10AEBCA0000EB0A103168490072
:10378000B0FBF1F807E00AEBCA0000EB0A10316861
:103790008900B0FBF1F86420B8FBF0F004012009C7
:1037A000642101FB1089A88900F4004040B1322057
:1037B00000EBC900B0FBF1F000F00700044308E0A3
:1037C000322000EB09106421B0FBF1F000F00F0093
:1037D00004432C8106B0BDE8F087000000380140AA
:1037E00001468888C0F308007047C1F30802828050
:1037F000704700BFFEE7490050EAC12018BF04200F
:103800004A0D18BF40F0010040F2FF72B2EB515F69
:1038100008BF40F00200012808BF052070474100A2
:10382000080218BF04200A0E18BF40F001004FF034
:103830007F4232EA010108BF40F00200012808BFC0
:10384000052070472DE9F74F144694B00021C4E9D4
:1038500002111599079121F00045C9498D4206DCF6
:103860001599C4E9000117B00020BDE8F08FC549E3
:10387000DFF814A3A9423CDD0799C44E0029C44FC8
:10388000C44A1599534619DD03F0A2F8554506D0F0
:10389000C14AC24B03F09CF8C4E900010AE04FF0B2
:1038A000D352BE4B03F094F832463B4603F090F8F7
:1038B000C4E9000117B00120BDE8F08F02F0B8FBA9
:1038C000554506D0B44AB54B02F0B2FBC4E900013D
:1038D0000AE04FF0D352B14B02F0AAFB32463B460E
:1038E00002F0A6FBC4E9000117B04FF0FF30BDE8BD
:1038F000F08FAB49A942159978DB21F0004183464E
:103900008846A84AA84B02F03DFE0022A74B02F0D1
:103910008FFB02F0A1FD099002F0CDFD06460F4697
:103920009C4A534602F02EFE43465A4602F05EFF82
:1039300080468A46984A994B3046394602F022FE24
:103940002A0D01250B924246534602F04FFF032DEC
:10395000C4E9000139D00B98C1F30A51401A05EBB4
:1039600045111139814230DA9148C346784400EB61
:103970000510CDF80CA00C90D0E900233046394654
:1039800002F000FE02460B46049106905846039949
:1039900003F01EF880468A4602460B4658460399B5
:1039A00003F016F8049B069A03F012F883460C986D
:1039B00003913946D0E90223304602F0E3FD5A462E
:1039C000039B03F005F86D1CBDE707980028A2BF14
:1039D000099817B0BDE8F08F616881F0004161601F
:1039E000099817B04042BDE8F08FFFE7844615986C
:1039F000C1F31301C0F30A50A0F2F5304FEA60188A
:103A000000F01F06C6F120001390002006900790DA
:103A100041F4801E05206D4676B1664A08EB000130
:103A20007A4452F8213002EB8101B3404A6813997D
:103A300022FA01F1194305E05F4908EB00027944DD
:103A400051F82210A1FB0E27A1FB0C131A449A4235
:103A500034BF0123002303EB070A05EB8003D3E9FE
:103A600001B70F448F4234BF0121002193448B449E
:103A700011B1934502D903E0934501D2012100E041
:103A80000021C3E901B7514445F82010011EA0F1FF
:103A90000100C1DC0298059F00F10050800F1290D8
:103AA0000298DDE90356800002F005FD83462846B2
:103AB0000D9102F017FD6FF01D0203F0B4FCCDE98B
:103AC0000E01304602F00EFD6FF03D0203F0ABFC3C
:103AD00080468A46384602F005FD6FF05D0203F02D
:103AE000A2FC074642465346119102F0A1FADDE9D5
:103AF0000E2302F09DFA5A460D9B02F099FA00251A
:103B00000E465A4628460D9B02F062FFDDE90E2361
:103B100002F05EFF4246534602F05AFF3A46119BBE
:103B200002F064FEDFF898A0244A534602F02AFD12
:103B300007468846234A244B3146284602F022FD98
:103B40003A46434602F074FA074688464FF0A842C8
:103B500053463146284602F015FD3A46434602F0E8
:103B600067FA159A12F0004F04D0129A81F00041C2
:103B700052421292C4E90001129817B0BDE8F08FCA
:103B8000FB21E93F7CD90240FB21F93F7370032EF2
:103B90008A19A33B000040543163621A61B4D03DDE
:103BA000FB21394183C8C96D305FE43F0000E03F2D
:103BB000503D0000CC3C0000AE3C0000182D4454A9
:103BC000FB21F93D3326A611460B113C2DE9FF4D93
:103BD00021F0004807460C46B8F1795F08DA02F098
:103BE0003BFC002801BF0020324904B0BDE8F08D45
:103BF0003A4623461046194602F0C4FC05460246E2
:103C00002D480E460B460621784400F05DF82A4602
:103C1000334602F0B7FCDDE9022382468B46384684
:103C2000214602F0AFFC04460F4652465B4628464A
:103C3000314602F0A7FC22463B4602F0C9FE074689
:103C40008A464FF0FF322846314603F0ECFB1B4A10
:103C500090450ADA3A46534602F0BAFE04B0002212
:103C6000BDE8F04D134B02F0C1BD154A4245A8BF57
:103C7000A8F500154FF00004B8BF124D22462B46A0
:103C800002F0A6FE0646884622462B460020094939
:103C900002F09EFE04460D463A46534630464146E3
:103CA00002F096FE04B022462B46BDE8F04D02F02D
:103CB0009DBD00000000F03F7C3A00003333D33F4D
:103CC0000000E93F0000D23F2DE9F0414F1E00EB1C
:103CD000C7010446D1E9000115461E4637F0060229
:103CE0000DD02A46334602F04DFC7F1E04EBC7037D
:103CF000D3E9002302F09CF937F00602F1D1022F3C
:103D000025D0042F13D0062F18BFBDE8F0812A4616
:103D1000334602F037FCD4E90A2302F089F92A4637
:103D2000334602F02FFCD4E9082302F081F92A4639
:103D3000334602F027FCD4E9062302F079F92A463B
:103D4000334602F01FFCD4E9042302F071F92A463D
:103D5000334602F017FCD4E9022302F069F92A463F
:103D6000334602F00FFCD4E90023BDE8F04102F035
:103D70005FB900002DE9FF4D054621F0004084B0F9
:103D80000C46B0F1795F0BDA2846FFF734FD0428C2
:103D900008BF00F07FF8284608B02146BDE8F08D46
:103DA0002A460B46104602F0EDFB06460F462A4611
:103DB000234602F0E7FB804626488A4632463B46C9
:103DC00005217844FFF780FF83461098029160B385
:103DD000214A224B4046514602F0D4FBCDE9000176
:103DE0005A4640465146029B02F0CCFB824688462A
:103DF000DDE906014FF0FF3203F015FB5246434662
:103E000002F0E6FD32463B4602F0BCFBDDE906234C
:103E100002F0DEFDDDE9002302F0DAFD08B02A46FB
:103E20002346BDE8F04D02F0E1BC0B465A46304651
:103E3000394602F0A7FB084A084B02F0F9F842465F
:103E4000534602F09FFB08B02A462346BDE8F04DDA
:103E500002F0EEB8C2390000495555555555C5BF59
:103E6000002213461046014902F09EB90000F03FBF
:103E7000012203F0D8BA02F0DBB800221346104644
:103E8000114602F091B940F2013200204FF0E041BA
:103E900003F0C9BA024A0020110703F0C4BA0000B7
:103EA00001FDFFFF02F0AABE6FF05E01080703F0FC
:103EB000E8BA014600BF70472DE9F04D8D4F21F063
:103EC000004A86B005460C46BA452ADBAAEB070035
:103ED00028430AD08848824501DC1AD1CDB106B00A
:103EE0002846BDE8F04DFFF7C3BF844A844B2846FF
:103EF00002F048FB07460E46824A834B284621467D
:103F000002F040FB06B03A463346BDE8F04D02F001
:103F10008FB80120FCF723FA06B0BDE8F04DFFF79B
:103F2000ACBF7A48824542DABAF1795F0BDA2846AB
:103F3000FFF761FC042808BFFFF7ACFF284606B076
:103F40002146BDE8F08D2A460B46104602F01AFBCA
:103F5000834602466E480E460B4606217844FFF71C
:103F6000B3FE5A46334602F00DFB804669488A4646
:103F70005A46334604217844FFF7A6FE5A46334694
:103F800002F000FB00223B4602F052F802460B46CC
:103F90004046514602F008F92A46234602F0F2FA5A
:103FA00006B02A462346BDE8F04D02F041B8284647
:103FB00024F0004100223D463B4602F017FC4FF042
:103FC000FF3203F030FA0646024653480F460B46CE
:103FD00006217844FFF778FE32463B4602F0D2FADB
:103FE000CDE900014D4832463B4604217844FFF7B5
:103FF0006BFE32463B4602F0C5FA00222B4602F029
:1040000017F8834602913046394601F069FF804631
:1040100043480D46504517DCDDE900015A46029B36
:1040200002F0C2F842462B4602F0ACFA42462B465A
:1040300001F0FEFF012203F0F6F9304A304B02F0A6
:10404000C7FC304A304B4CE04FF0000A52460B465A
:10405000404601F0EDFFCDE9031052462B461046D5
:10406000194602F08FFA32463B4602F0BFFBDDE90B
:10407000033202F099F806460F46DDE900015A4680
:10408000029B02F091F883460091012230463946A6
:1040900003F0C9F9194A1A4B02F0A8FB06460F466D
:1040A00001224046294603F0BEF95A46009B02F021
:1040B00069FA32463B4602F08BFC06460F46012267
:1040C0005046294603F0AFF90E4DDFF858802A46D6
:1040D000434602F08BFB32463B4602F087FB2A4602
:1040E000434602F083FB002CD8BF81F0004106B0AC
:1040F000BDE8F08D0000F03F0000F07F075C143356
:1041000026A6913C182D4454FB21F93F0000E03FC6
:10411000B8350000CE3500004235000058350000AB
:104120003333EF3FFB21E93F2DE9F84F04460D46BD
:1041300021F0004000917349814211DC72498842AC
:1041400001DC06D12CB120462946BDE8F84FFFF727
:104150008FBE6E48002DCCBF6D496E49BDE8F88F0B
:104160006D49814211DD6D498142D8BF4FF0FF3664
:104170006DDD20462946FFF73EFB042808BFFFF708
:1041800089FE20462946BDE8F88F6549654F25F030
:104190000045814233DD6449814219DD0026324603
:1041A0004FF080432046294601F042FF80468A4670
:1041B00001222046294603F036F900223B4602F050
:1041C00007FC4246534601F0EFFF04460D463EE031
:1041D00001260022BA463B462046294601F028FF28
:1041E00080460F46002253462046294602F0F0FB47
:1041F00042463B4601F0D8FF04460D4627E04B49B6
:1042000081421BDDDFF828A102260022534620460A
:10421000294602F0B7F900223B4601F009FF80462B
:104220000F46002253462046294602F0D1FB424663
:104230003B4601F0B9FF04460D4608E0032622463E
:104240002B4600203B4901F0AFFF04460D462246B5
:104250002B461046194602F095F98B4682460246D7
:104260000B4602F08FF907460246334888460B4654
:1042700006217844FFF728FD52465B4602F082F99A
:1042800082462E488B463A46434605217844FFF73E
:104290001BFD3A46434602F075F902460B46002ED6
:1042A000504659460CDA01F0C3FE22462B4602F076
:1042B00069F901B022462B46BDE8F04F02F096BAEC
:1042C00001F0B6FE22462B4602F05CF91C4A7A4405
:1042D00002EBC603D3E9002302F07AFB22462B4609
:1042E00002F076FB174A7A4402EBC603D3E90023B7
:1042F00002F07CFA009A002AB8BF81F00041BDE8C4
:10430000F88F0000000010440000F07F182D445486
:10431000FB21F93FFB21F9BF0000DC3F0000203EFC
:104320000000F33F0000F03F0000E63F0080034044
:104330000000F83F0000F0BF5A33000018330000BF
:10434000B63200007E3200002DE9F0474FF068429F
:1043500002EB40030C460546B3F1654F3CBF02EB50
:104360004102B2F1654F7CD2C0F3C753C1F3C752CB
:104370009A1A1B2A06DD10F0004F14BF76487748C2
:10438000BDE8F08712F11A0F17DA11F0004F06D0CE
:1043900010F0004F0CBF72487248BDE8F08721460C
:1043A000284602F09FFC0446FFF739FA042808BFAC
:1043B000FFF77AFD2046BDE8F0874200B2EB410FDF
:1043C00025D910F0004F19BF674F684E684F694EEE
:1043D000224685F0004415460A4680F0004110460A
:1043E0000A1A5200B2F1807F40D248406249DFF899
:1043F0008CA110F0004F18D04FF03F48384602F023
:1044000027FF07465146304602F022FF17E011F021
:10441000004F04BF00263746E2D010F0004F19BF0E
:10442000574F584E584F594EDAE74FF07C583846A0
:1044300002F0E4FB07465146304602F0DFFB064639
:104440004146284602F0FCFD214602F0D7FB824699
:104450002146404602F0F4FD294602F0EEFE5146A8
:1044600000E037E002F03EFC044604E02146284626
:1044700002F038FC0446014602F0E2FD8046444961
:1044800002F0DEFD434902F0B9FB414602F0D8FDDF
:10449000414902F0B3FB414602F0D2FD3F4902F030
:1044A000ADFB414602F0CCFD3D4902F0A7FB0546BD
:1044B0004146204602F0C4FD294602F0C1FD3146C6
:1044C00002F09CFB214602F099FB3946BDE8F0471B
:1044D00002F094BB4FF07F42B2EB400F28BFB2EB2B
:1044E000410F03D2BDE8F047FFF7DCBC40EA01030F
:1044F0005B0008BF44F0FF410AD0B2EB400F08BF99
:10450000B2EB410F06D125F0804024F080410546F2
:104510000C4629E7B2EB400F12BF5FEA410245F0BB
:10452000FF4004F000413FF41FAF4A0092EA40030D
:104530003FF51AAF002AACBF4FF09F464FF03E56F2
:10454000314602F07DFD05463146204602F078FDF9
:1045500004462846214607E7DB0FC9BFDB0FC93FEA
:10456000DB0F4940DB0F49C00000C9BF22AAFDB9DB
:104570000000C93F22AAFD390060ED3EC30ACE37D4
:10458000000049C022AA7DBA0000494022AA7D3A13
:104590002DAD65BD8FB8D53D0FB511BE61C84C3E80
:1045A000A8AAAABE00B5244B21F0004287B09A42C7
:1045B000DCBF0022134629DD204B9A4208D140B9C6
:1045C0004FF00100FBF7CBFEFFF757FC07B000BD33
:1045D00003DBFFF74DFC07B000BD02AAFFF732F97D
:1045E00010F0030104BF0DF1080C9CE80F000DD082
:1045F000012001290ED0022914D00DF1080C0090E1
:104600009CE80F00FFF7B6FB07B000BDFFF7DEFA2E
:1046100007B000BD0DF1080C00909CE80F00FFF7FB
:10462000A9FB05E00DF1080C9CE80F00FFF7CEFA9E
:1046300007B081F0004100BDFB21E93F0000F07FA1
:1046400010B56FF00400FEF785FE0A4800680A49BD
:10465000B0FBF1F0094908700846007800EB400112
:10466000C1EBC0104FF6FF7101EAC0000449088099
:1046700010BD00000400002000127A006400002039
:10468000660000200146114A12884A434FF0E02399
:104690005A6100229A611A46126942F001021A61B7
:1046A00000BF4FF0E022106900F001021AB100F4DF
:1046B0008032002AF5D04FF0E022126922F0010288
:1046C0004FF0E0231A6100229A61704766000020D3
:1046D0000146114A12784A434FF0E0235A61002202
:1046E0009A611A46126942F001021A6100BF4FF046
:1046F000E022106900F001021AB100F48032002AB1
:10470000F5D04FF0E022126922F001024FF0E023D1
:104710001A6100229A617047640000202DE9F04F71
:104720008BB00020089009905E4807904FF07E50B3
:1047300006908146002432E05B4951F824004FF096
:104740007E5102F049FD02D20898401C089056495B
:1047500051F8240002F026FA07464FF03332534B4B
:1047600001F0D4FE02D20998401C09904E4951F83C
:104770002400079902F030FD04D225464A4850F83B
:1047800024000790484951F82400069902F024FCBF
:1047900004D22646444850F824000690641C042C99
:1047A000CADB0898012845DB3F4951F8250002F093
:1047B000F9F907464FF033323C4B02F009F9024653
:1047C0000B46CDE904014FF06630394901F0ECFCAD
:1047D000824601F0FBFB8146002424E0324951F877
:1047E000240002F0DFF982464FF033322F4B02F003
:1047F000EFF807468846484602F0D4F93A46434661
:10480000CDE9000101F0BEFE4FF03332274BCDE978
:10481000020101F00DFCCDE9040101F0D7FB2249B2
:1048200041F82400641C042CD8DB4FF07E501E4954
:1048300041F825000998012831DB1B4850F8261063
:104840004FF07E5002F004FD059002F0ABF90746F0
:104850003A460B464FF06630154901F0A5FC8246FA
:1048600001F0B4FB8146002413E00F4850F82410F7
:104870004FF07E5002F0ECFC8046494602F0E0FB2F
:1048800007464FF07E5102F0D8FC074941F824005A
:10489000641C042CE9DB0348034941F826000BB0F3
:1048A000BDE8F08F9A99993E840400203333D33FBA
:1048B0006666E63F03B595B002201190DDE915016B
:1048C000FCF788FB0020139007E00021FE4A1398B4
:1048D00042F820101398401C139013980428F4DB1E
:1048E000FA4880680490F94880680390049902F0BF
:1048F000A7FB059002F056F9CDE9060101F0F0FAA8
:10490000CDE90A01F14840680290F0484068019002
:10491000029902F095FB0490EC4800680290EB4885
:1049200000680190029902F08BFB0390049902F059
:1049300065F9059002F036F9CDE9060101F0D0FAEB
:10494000CDE90801DDE90A2301F02EFCCDE90C01D7
:10495000FFF7EAFBCDE90E01DDE90E01FFF722FECC
:10496000CDE90A0101F032FB0D90D848406A0146BA
:104970000C900D9802F064FBD44948620020D449A1
:10498000C860C8608860D34888610846C068D24A59
:10499000D2490D9000F083FDCD49C86008460069FA
:1049A000CD4ACE490D9000F07AFDC949086108460C
:1049B0004069002211460D9000F071FDC449486124
:1049C00008468069002211460D9000F068FDC0493C
:1049D000886111980A2801DD0A2011901198401E63
:1049E000BF490968081A06D41198401EBC490968D5
:1049F000081A129007E01198401EB9490968401A38
:104A0000C0F10B001290B6480068C0EBC000B54979
:104A100001EB800080690D90B34880690C900D997E
:104A200002F016FCB0498861A848406A0D90A84879
:104A300080690C900D9902F00BFCA9490968C1EB43
:104A4000C101A84A02EB81018861A5480068C0EB5A
:104A5000C000114601EB800080690D90A24880697A
:104A60000C900D9902F0CAF89F4988611298C0EB2A
:104A7000C0009C4901EB800080690A90984800685A
:104A8000C0EBC00001EB8000806909900A9902F038
:104A9000DFFB0B909548806801460A900B9802F066
:104AA000CFFA0D909048806909909048406808902E
:104AB000099902F0C5FA0B9089480068C0EBC00163
:104AC000884800EB81008069099088480068089058
:104AD000099902F0B5FA0A900B9902F08FF80C9040
:104AE0000D9902F08BF8109000221146109800F0FA
:104AF000D6FC1090002013900EE07349139851F8E3
:104B000020000D90109902F079F86F4A139942F83D
:104B100021001398401C139013980428EDDB704873
:104B20000068C0EBC0006F4901EB8000C0680D90C9
:104B30006D48C0680C900D9902F08AFB6A49C86004
:104B4000624880690D906248C0680C900D9902F02F
:104B50007FFB63490968C1EBC101624A02EB810135
:104B6000C8605F480068C0EBC000114601EB8000E0
:104B7000C0680D905C48C0680C900D9902F03EF83A
:104B80005949C8601298C0EBC000564901EB80003B
:104B9000C0680A9052480068C0EBC00001EB80007A
:104BA000C06809900A9902F053FB0B905048806846
:104BB00001460A900B9802F043FA0D904A48C068EB
:104BC00009904B4840680890099902F039FA0B9017
:104BD00043480068C0EBC000424901EB8000C06858
:104BE0000990434800680890099902F029FA0A9050
:104BF0000B9902F003F80C900D9901F0FFFF344976
:104C00004860084640683B4A3B490D9000F047FC2D
:104C10002F49486032480068C0EBC000314901EBC1
:104C2000800000690D90304800690C900D9902F0E9
:104C30000FFB2D4908612548C0690D902448006983
:104C40000C900D9902F004FB25490968C1EBC101E4
:104C5000244A02EB8101086121480068C0EBC001D1
:104C6000104600EB810000690D901F4800690C9010
:104C70000D9901F0C3FF1C4908611298C0EBC000F8
:104C8000184901EB800000690A9015480068C0EBE4
:104C9000C00001EB8000006909900A9902F0D8FA7F
:104CA0000B901648806801460A900B9802F0C8F9EC
:104CB0000D900D48006909901048406808900999C6
:104CC00002F0BEF90B901BE0940400201C030020AE
:104CD000E802002000007A440000A0C20000A042C8
:104CE000040100205003002068040020B8000020C8
:104CF000700000200000B4C20000B4427C0000201C
:104D0000F7480068C0EBC001F64800EB810000697D
:104D10000990F54800680890099902F091F90A9005
:104D20000B9901F06BFF0C900D9901F067FFEF49B3
:104D3000086008460068EE4AEE490D9000F0AFFBAF
:104D4000EA4908600021E94881608068E84AE94949
:104D50000D9000F0A4FBE5498860E1480068C0EBD5
:104D6000C001E04800EB810040680D90E2484068D7
:104D70000C900D9902F06CFADF494860DF48006939
:104D80000D90DA4840680C900D9902F061FAD44910
:104D90000968C1EBC101D34A02EB81014860D048E8
:104DA0000068C0EBC000114601EB800040680D9028
:104DB000D14840680C900D9901F020FFCE49486021
:104DC0001298C0EBC000C74901EB800040680A9010
:104DD000C3480068C0EBC00001EB80004068099048
:104DE0000A9902F035FA0B90C548806801460A908E
:104DF0000B9802F025F90D90BF4840680990C04813
:104E000040680890099902F01BF90B90B4480068BB
:104E1000C0EBC000B34901EB800040680990B8487E
:104E200000680890099902F00BF90A900B9901F0BB
:104E3000E5FE0C900D9901F0E1FE10900022114664
:104E4000109800F02CFB1090AE4800680D9010995F
:104E500001F0D4FEAB490860084640680D901099F7
:104E600001F0CCFEA7494860084680680D90109973
:104E700002F0EEF9A34988600846C0680D901099C9
:104E800002F0E6F99F49C86095480068C0EBC00091
:104E9000944951F820000D90974800680C900D99A6
:104EA00002F0D6F9944908609448C0680D908F4884
:104EB00000680C900D9902F0CBF989490968C1EBA3
:104EC000C101884A42F8210085480068C0EBC00053
:104ED000114651F820000D90874800680C900D99FC
:104EE00001F08CFE844908601298C0EBC0007D4937
:104EF00051F820000A907A480068C0EBC00051F8D1
:104F0000200009900A9902F0A3F90B907E4880686E
:104F100001460A900B9802F093F80D9076480068CD
:104F20000990794840680890099902F089F80B9037
:104F30006B480068C0EBC0006A4951F82000099036
:104F4000714800680890099902F07AF80A900B9964
:104F500001F054FE0C900D9901F050FE10900022CB
:104F60001146109800F09BFA1090664800680D906A
:104F7000109902F06DF963490860084640680D9089
:104F8000109901F03BFE5F494860084680680D902B
:104F9000109901F033FE5B4988600846C0680D90A7
:104FA000109902F055F95749C8604D480068C0EBA8
:104FB000C0004C4901EB800080680D904E4880682D
:104FC0000C900D9902F044F94B4988604B484069B8
:104FD0000D90464880680C900D9902F039F94049CF
:104FE0000968C1EBC1013F4A02EB810188603C487E
:104FF0000068C0EBC000114601EB800080680D9096
:105000003D4880680C900D9901F0F8FD3A498860A0
:105010001298C0EBC001334800EB810080680A9011
:105020002F480068C0EBC0002E4901EB800080686B
:1050300009900A9902F00CF90B90344880680146F7
:105040000A900B9801F0FCFF0D902B4880680990A6
:105050002E4840680890099901F0F2FF0B90204813
:105060000068C0EBC0011F4800EB81008068099018
:10507000264800680890099901F0E2FF0A900B9910
:1050800001F0BCFD0C900D9901F0B8FD10900022CC
:105090001146109800F003FA10901A4800680D901D
:1050A000109901F0ABFD17490860084640680D9063
:1050B000109902F0CDF813494860084680680D90B9
:1050C000109901F09BFD0F4988600846C0680D905B
:1050D000109902F0BDF80B49C860002013902BE036
:1050E00004010020500300207C000020E802002082
:1050F0000000B4C20000B442680400201C03002079
:10510000A00000209404002094000020AC000020A7
:105110001E49139851F820001D490D90139851F81D
:1051200020000C900D9901F069FD194A139942F87D
:1051300021001398401C139013980428E8DBFFF714
:10514000EDFA0020139010E01149139851F8200057
:10515000104A4FF07E510D9000F0A1F90C4A1399BE
:1051600042F821001398401C139013980428EBDB9D
:1051700009480068401C08490860084600680A2879
:1051800001D10020086017B000BD00009404002089
:10519000840400209A99993E0401002070B50446C9
:1051A0000E46154601211948FCF7EBFC00BF1849D3
:1051B0001648FCF7ADFC0028F9D000222146134820
:1051C000FCF78EFD00BF13491048FCF7A1FC002836
:1051D000F9D031460D48FCF78CFD00BF0D49891C04
:1051E0000A48FCF795FC0028F8D029460748FCF748
:1051F00080FD00BF0749891C0448FCF789FC002892
:10520000F8D001210148FCF7C8FC70BD00580040EF
:10521000010003008200070070B504460D461646E3
:10522000FCF726FE04F0FE00FCF7EEFDFCF76CFE3A
:105230002846FCF7E9FDFCF767FE3046FCF7E4FD85
:10524000FCF762FEFCF73AFE70BD000010B586B0B8
:1052500004468CBB01210820FDF7EEF901218805E9
:10526000FDF7DAF94FF44060ADF8140003208DF833
:1052700016001C208DF8170005A91D48FBF7F6FF46
:105280000020ADF808004BF6FF70ADF80A000A20C8
:10529000ADF80C004FF48060ADF80E000001ADF8E1
:1052A00010001448019001A91348FCF79FFC01214C
:1052B0001148FCF742FC18E0FFE701210820FDF748
:1052C000BBF94FF44060ADF8140010208DF81700C2
:1052D00003208DF8160005A90548FBF7C7FF01203C
:1052E000064908600649C1F8AC0106B010BD0000CF
:1052F000000C0140400D030000580040A8812142ED
:10530000008021422DE9F04106460F4615461C4615
:1053100000BF4FF400313148FCF74BFC0028F8D1B6
:1053200001212E48FCF72DFC00BF2D492B48FCF72E
:10533000EFFB0028F9D0002231462848FCF7D0FCCA
:1053400000BF28492548FCF7E3FB0028F9D00121DC
:105350002248FCF7F2FB39462048FCF7CAFC00BFA4
:105360002049891C1D48FCF7D3FB0028F8D00121F7
:105370001A48FCF706FC00BF19491848FCF7C8FB9F
:105380000028F9D0012231461448FCF7A9FC00BFDF
:105390001349491C1148FCF7BBFB0028F8D015E065
:1053A000012C07D100210D48FCF7A6FB01210B4879
:1053B000FCF7F3FB0A493F310848FCF7A9FB28B189
:1053C0000648FCF789FC28706D1C641E002CE7D190
:1053D00001210248FCF790FBBDE8F0810058004035
:1053E00001000300820007002DE9F04106460F4648
:1053F00014461D46FCF73CFD06F0FE00FCF704FDDC
:10540000FCF782FD3846FCF7FFFCFCF77DFDFCF75E
:105410002FFD46F00100FCF7F7FCFCF775FD0CE0F2
:10542000012D04D10020FCF7B7FC207003E001201F
:10543000FCF7B2FC2070641C6D1E012DF0DAFCF745
:105440003DFDBDE8F0812DE9F04704460D46D4E965
:10545000000101F0D3FB80464046A16801F0CEFB7D
:1054600007463946404601F03DFC06462846E168BD
:1054700001F0EEFE8146314601F0E2FD0746E168AB
:1054800001F0BCFBE06031464FF07E5001F0E0FEE1
:105490000746414601F0D4FD2060BDE8F08770B5B5
:1054A00006460D4614462946204601F095FE01D2D7
:1054B000304670BD0021284601F0D6FC05D02946B3
:1054C000304601F089FE00D22E460021204601F030
:1054D000CBFC05D02146304601F07EFD00D22646A9
:1054E0003046E6E7FCF742FD1AE0FBF767F80120DB
:1054F000FBF758FF4FF4A57100FB01F4E11704EB33
:105500001151081301F020FD064908600121002017
:10551000FFF7D0F90120FFF7B5F80120FDF7B8FC3F
:10552000E3E70000000000202DE9F04D16460F468D
:1055300094B01C4621F0004123F00042002814BF23
:105540004FF0010C4FF0000C0CEB470CFE4B0CEB3A
:1055500003054FEA630C65452BD3350018BF0125C1
:1055600005EB44051D44F94B9D4222D3F84B52EA0A
:10557000060C02D09F4205D148B914B0002019464C
:10558000BDE8F08D002808BF4FF0000C01D04FF0AF
:10559000010C0CEB470313F5001F0AD8002E14BFB3
:1055A0004FF0010C4FF0000C0CEB440313F5001FFF
:1055B00007D914B0324623463946BDE8F04DFEF710
:1055C0005ABCDFF890834FF0000A002FB8BF424565
:1055D00023DAE14B9A42A8BF4FF0020A1DDADC4BF6
:1055E00093421ADCDD4B03EB2253142B08DDC3F18D
:1055F000340C26FA0CF303FA0CFCB4450DD108E088
:105600005EB9C3F1140C22FA0CF303FA0CFC9445B6
:1056100003D103F00103C3F1020A51EA00031BD1D5
:10562000002C19DA002F18BFBAF1020F02D0BAF11C
:10563000010F07D00220FAF792FE14B0BDE8F04D3A
:10564000FEF70EBC0220FAF78AFEFEF709FC14B042
:1056500081F00041BDE8F08D330070D1424525D185
:1056600007F1804212F5801201BF00280020B849DE
:1056700014B008BFBDE8F08DB548884207DC002CA7
:10568000A1BF1846214614B0BDE8F08D07E0002CFC
:10569000BFBF184684F0004114B0BDE8F08DB0499A
:1056A0007944D1E9000114B0BDE8F08DDFF8A0C263
:1056B00062452AD1002C24DA39B1414517D100289E
:1056C00004BF002002461CD106E040B10220FAF7D8
:1056D00046FEFEF7D8FB0A46394600F0D7BA9D4A87
:1056E000394614B0002062F31E01BDE8F08D08DADF
:1056F00014B03B46BDE8F04D02460020614600F084
:1057000053BD14B03946BDE8F08D414517DAB4F108
:10571000804F0CD0A4F10053B3F1FF530FD13B1EC7
:105720000DDB14B01946BDE8F04D00F0D9BB3B4687
:1057300014B00246BDE8F04D194600F023BF050045
:1057400027F000433AD1E1B1414537D1002F06DDC2
:10575000002CA1BF0020414614B0BDE8F08D002F01
:1057600001DD002C1FDB002F16DA002C14DBBAF150
:10577000010F4FF0000014BF76497A4914B0BDE81C
:10578000F08DBAF1020F18BF002F0CD0BAF1010F43
:1057900009D1002F07DA0BE0002FB8BF002C0DDA7B
:1057A000BAF1010F04D0002014B00146BDE8F08D1D
:1057B00014B000204FF00041BDE8F08D4FF001081B
:1057C00008EBE77CCDF814C05CEA0A0C0DD0DFF8DA
:1057D00098C162457EDDDFF894C1654B624512DDFC
:1057E0008B420ADB002C18DB23E00120FAF7B7FD1F
:1057F00014B0BDE8F04DFEF740BB554A8A4202DCCA
:10580000002C0ADC15E0994202DA002C11DA04E0DF
:105810004F4B994219DD002C0BDD0220FAF79FFD5A
:10582000FEF731FB4B4A14B061F31E021146BDE88E
:10583000F08D0220FAF793FDFEF72CFB444A14B0DA
:1058400061F31E021146BDE8F08D0022394601F0D9
:10585000BFF807460D466FF0010201F0E4FD4FF07E
:105860005532444B00F0C2FF3A462B4600F08AFE08
:105870000022414B00F0BAFF80468B463A462B4649
:105880001046194600F07EFE42465B4600F07AFE66
:1058900088460E904FF0C042384B3846294600F0FB
:1058A00071FE83460091364A344B41460E9800F013
:1058B00069FE80460191334A334B3846294600F051
:1058C00061FE4246019B01F083F80D4602460B46FD
:1058D0000C9000E011E05846009900F0A9FB002769
:1058E00088465A463846009B01F072F82B460C9ABF
:1058F00000F07CFF024600F079B90020B1F5801F6E
:1059000007DA35222846194601F08DFD05466FF06D
:10591000340000EB2150A0F2FF300190C1F31300DE
:1059200040F07F6141F04051029118498842D8BF50
:105930004FF0000B35DD16498142C8BF4FF0010B17
:105940002FDC4FF0000B25E0FFFF1F00FFFF0F00D3
:105950000000F03F0000F07F0000404301FCFFFF2B
:10596000142000000000F0FF0000E0410000F043C0
:10597000FFFFEF3F5555D53F0000E03F4715F73F8C
:10598000FE822B6544DF5DF80BAE543E8E9803001B
:105990007AB60B000198401C01900298A0F5801087
:1059A0000290FF480299784400EBCB000991D0E9BE
:1059B000002328460B93129201F00AF800910A90F6
:1059C00028460B9B129A099900F032FB02460B46BF
:1059D0000020F44900F0E8FBCDE90C010B4602463B
:1059E00000990A9800F0CEFD0690EF4888460027FF
:1059F00078440299006810904FF0005040EA61002E
:105A000000EB8B4000F5002102910B9B129A10983D
:105A100000F0DEFF2A46099B00F0E8FE3A464346C6
:105A200000F0B0FD0891129038464146029B109A52
:105A300000F0A8FD009B0A9A00F0D8FE089B129A7D
:105A400000F0C6FFDDE90C2300F09CFD0B91069AE7
:105A5000129043461046194600F094FD0546024652
:105A6000D2480B460A9106217844FEF72DF90A9B8D
:105A70002A46089102901046194600F083FD089BC3
:105A8000029A00F07FFD05460991434638461946C3
:105A9000069A00F0CDFA0B9B129A00F073FD2A468D
:105AA000099B00F0C5FACDE908013A464346104685
:105AB000194600F067FD0A910022BD4B009000F0EE
:105AC000B7FADDE9082300F0B3FA0D463A46B84BC1
:105AD000384600F07DFF0A9B009A00F079FFDDE96F
