:020000040800F2
:1000000000040020CF010008E1140008A90F000837
:10001000DD140008D3030008FF1F000800000000E3
:10002000000000000000000000000000F1160008C1
:10003000B304000800000000691500080518000856
:10004000EF010008EF010008EF010008EF010008D0
:10005000EF010008EF010008EF010008EF010008C0
:10006000EF010008EF010008EF010008EF010008B0
:10007000EF010008EF010008EF010008EF010008A0
:10008000EF010008D9030008EF010008EF010008A4
:10009000EF010008EF010008EF010008EF01000880
:1000A000EF010008EF010008EF010008EF01000870
:1000B00069180008D1180008EF010008EF010008D6
:1000C000EF010008EF010008EF010008EF01000850
:1000D000EF010008191F0008EF010008EF010008F8
:1000E000B5040008EF010008EF010008EF01000867
:1000F000EF010008EF010008EF010008EF01000820
:10010000EF010008EF010008EF010008EF0100080F
:10011000EF010008EF010008EF010008EF010008FF
:10012000EF010008EF010008EF010008EF010008EF
:1001300000F002F800F03AF80AA090E8000C8244BF
:100140008344AAF10107DA4501D100F02FF8AFF29C
:10015000090EBAE80F0013F0010F18BFFB1A43F0A5
:1001600001031847FC3A00001C3B0000103A24BF72
:1001700078C878C1FAD8520724BF30C830C144BF0C
:1001800004680C607047000000230024002500264E
:10019000103A28BF78C1FBD8520728BF30C148BFEA
:1001A0000B6070471FB51FBD10B510BD00F0E6F81D
:1001B0001146FFF7F7FF02F0C1FB00F004F903B4AA
:1001C000FFF7F2FF03BC01F0B0FF000070470B48DF
:1001D00080470B4981F308880A480047FEE7FEE79D
:1001E000FEE7FEE7FEE7FEE7FEE7FEE7FEE7FEE7E7
:1001F00005480649044A064B70470000CD01000837
:10020000F805002031010008F8030020F80500205F
:10021000F8030020704710B54C1084EA530404D54D
:100220004042C1F1000138BF491E1B4204D5524271
:10023000C3F1000338BF5B1E00F015F814F0804FC7
:1002400004D04042C1F1000138BF491E14F0004FF4
:1002500004D05242C3F1000338BF5B1E10BD70478B
:1002600070477047704753EA020C00F069802DE92F
:10027000F04B4FF00006002B1FBFB3FA83F503FAD3
:1002800005F424FA05F65E4012BF1643B2FA82F571
:1002900002FA05F4C5F120051EBF22FA05FC44EA66
:1002A0000C04203556EA044C4FEA144418BF641C71
:1002B0004FF000084FF00009904271EB030C39D366
:1002C000002919BFB1FA81F701FA07F6B0FA80F7F1
:1002D00000FA07F6C7F120071EBF20FA07FC46EA1E
:1002E0000C062037B6FBF4FCA7EB0507103F07F020
:1002F0001F0BCBF120060CFA0BFB2CFA06F644BFC1
:10030000B3460026202FA4BF5E464FF0000B5BEAE9
:10031000060C08BF4FF0010B19EB0B09ABFB027C7D
:1003200048EB0608C01B06FB02CC0BFB03CC71EBB1
:100330000C01C1E70B46024641464846BDE8F08B3A
:1003400013B54FF000004FF00001AFF30080BDE89F
:100350001C40704710B500F009F8006810BD10B5DA
:10036000044600F003F8046010BD00000048704728
:100370009803002000487047980300207546FFF757
:10038000F9FFAE4605006946534620F00700854652
:1003900018B020B5FFF72CFFBDE820404FF0000655
:1003A0004FF000074FF000084FF0000B21F007015D
:1003B000AC46ACE8C009ACE8C009ACE8C009ACE8A0
:1003C000C0098D4670470446AFF300802046FFF712
:1003D000F6FE00BFFEE7000010B54FF0007000F021
:1003E0002BF801280AD1400600F00CF8002104483F
:1003F00000F009FE0121024800F01DFE10BD0000C2
:100400000054004000F0805111B10349086001E040
:1004100002494860704700000404024000000240A6
:1004200021B1026842F00102026004E002684FF666
:10043000FE731A400260704701460020002201F05E
:10044000805313B1054B1A6801E0054B1A6802EAA4
:1004500001030BB1012000E00020704700040240BE
:10046000000002401AB103680B43036002E0036816
:100470008B430360704710B50022026847F6F073A3
:100480009A430C6A8B6823430C6923434C692343CA
:100490008C692343CC6923434C6A23438C6A2343EE
:1004A0001A430260CB6843600B6883604B68C3608B
:1004B00010BD704710B54FF4804000F035F838B3E8
:1004C0004FF4804000F02AF84FF48041114800F0CA
:1004D0007DF9012808D10021800701F0C9FC012124
:1004E000880701F038FB13E04FF48041094800F021
:1004F0006DF968B900214FF0804001F02CFB4FF0FE
:10050000804001F034FB044600F0D6FC024908604C
:1005100010BD0000000C01402800002001490860C7
:100520007047000014040140014600200022074BE0
:100530001B6803EA0102054B14331B680B4013B11F
:100540000AB1012000E000207047000000040140D3
:10055000002123498279002A3AD00A4612680368AA
:100560009A430B461A600A1D126803689A430B1DD2
:100570001A60027911440A6803681A430A60184A2B
:100580000832126803689A43154B08331A601A1D23
:10059000126803689A43124B0C331A604279102A8E
:1005A0000ED11A1F126803681A430D4B08331A60E4
:1005B0001A1D126803681A43094B0C331A600DE0C8
:1005C0000749427911440A6803681A430A6005E042
:1005D000027911440A6803689A430A607047000070
:1005E0000004014030B500228B071C0F0F2303FAD3
:1005F00004F20B4B8C1053F824309343084C8D10AD
:1006000044F8253023468C1053F824308C07240FEF
:1006100000FA04F42343024C8D1044F8253030BD19
:10062000080001402DE9F041024600250026002087
:1006300000230024002791F803C00CF00F0591F867
:1006400003C00CF0100CBCF1000F03D091F802C0F5
:100650004CEA050591F800C0BCF1000F31D01468D8
:1006600000202BE04FF0010C0CFA00F3B1F800C0B1
:100670000CEA03069E4220D183004FF00F0C0CFAC7
:1006800003F7BC4305FA03FC4CEA040491F803C0E9
:10069000BCF1280F06D14FF0010C0CFA00FCC2F897
:1006A00014C00AE091F803C0BCF1480F05D14FF027
:1006B000010C0CFA00FCC2F810C0401C0828D1D371
:1006C0001460B1F800C0BCF1FF0F34DD54680020A5
:1006D0002EE000F1080C4FF0010808FA0CF3B1F815
:1006E00000C00CEA03069E4221D183004FF00F0C9C
:1006F0000CFA03F7BC4305FA03FC4CEA040491F836
:1007000003C0BCF1280F05D100F1080C08FA0CF861
:10071000C2F8148091F803C0BCF1480F07D100F172
:10072000080C4FF0010808FA0CF8C2F81080401CC1
:100730000828CED35460BDE8F0810000F0B50A4629
:10074000002300240021002500F00046B6F1004FF0
:1007500002D11D4EF16901E01B4E7168C0F30345E3
:1007600083B200F44016B6F5401F08D121F0706145
:10077000154E766826F07066134F7E6012E000F426
:100780008016B6F5801F06D1032606FA05F4A143AC
:1007900041F0706106E0460D360103FA06F6B143FA
:1007A00041F0706122B1460D360103FA06F631437D
:1007B00000F00046B6F1004F02D1034EF16101E0B6
:1007C000014E7160F0BD00000000014002460020B3
:1007D00093680B400BB1012000E0002070470161DD
:1007E00070470AB1016100E04161704703B59FB0F5
:1007F0004FF07C51209802F0EDFF0D90FE4880688C
:100800000590FD4800680490059902F0E3FF079009
:10081000F948C0680590F84840680490059902F0CE
:10082000D9FF0690079903F0DDF84FF0804108905A
:1008300002F0D0FF1C90F048C0680590EE48806838
:100840000490059902F0C6FF0790EB4840680590B8
:10085000E94800680490059902F0BCFF06900799EA
:1008600002F0FAFD4FF08041089002F0B3FF1D90B6
:10087000E14880680490E04880680390049902F0A1
:10088000A9FF0690DC4840680490DB48406803906C
:10089000049902F09FFF0590069902F0DDFD4FF0EC
:1008A0008041079002F096FF4FF07E51089003F0D0
:1008B0008EF81E901F98806805901F98806804909D
:1008C000059902F087FF07901F98406803901F98D2
:1008D00040680290039902F07DFF05901F98006820
:1008E00003901F9800680290039902F073FF049030
:1008F000059902F0B1FD0690079902F0ADFD089050
:1009000000F034FE0E901F98006808900E9902F0D7
:1009100061FF19901F98006808900E9902F05AFF25
:100920001A901F98006808900E9902F053FF1B90D0
:100930001D9806901B980590069902F04BFF0890B1
:100940001E9806901A980590069902F043FF0790AA
:10095000089903F047F813901E980690199805908F
:10096000069902F037FF08901C9806901B98059096
:10097000069902F02FFF0790089903F033F81490BE
:100980001C9806901A980590069902F023FF08908B
:100990001D98069019980590069902F01BFF079084
:1009A000089903F01FF81590139807909348016871
:1009B000079802F00FFF08909148006801460790E1
:1009C000089802F049FD8E490860149807908B48FA
:1009D0000168079802F0FEFE0890894840680146C9
:1009E0000790089802F038FD8549486015980790EF
:1009F00082480168079802F0EDFE08908048806800
:100A000001460790089802F027FD7D4988601398F9
:100A1000014605907B48006802F0DCFE07901F98B5
:100A2000C0687949049002F0D5FE4FF080410590EE
:100A300002F0D0FE0690079902F00EFD0890704873
:100A4000006801460790089802F006FD1690149879
:100A5000014605906B48006802F0BCFE07901F98A5
:100A600000696949049002F0B5FE4FF0804105909D
:100A700002F0B0FE0690079902F0EEFC0890604884
:100A8000406801460790089802F0E6FC1790159818
:100A9000014605905B48006802F09CFE07901F9895
:100AA00040695949049002F095FE4FF0804105904D
:100AB00002F090FE0690079902F0CEFC0890504894
:100AC000806801460790089802F0C6FC18901898B4
:100AD00005904948C0680490059902F07BFE079094
:100AE00017980390444880680290039902F072FEC0
:100AF00005904148406880F00040039016980146F8
:100B00000290039802F066FE0490059902F06AFFD5
:100B10000690079902F066FF08900D9902F05AFEC0
:100B2000129018980590344880680490059902F056
:100B300051FE0790179803902F48C06802900399C0
:100B400002F048FE0590169803902B48006802902A
:100B5000039902F03FFE0490059902F043FF0690CE
:100B6000079902F079FC08900D9902F033FE11907C
:100B700018980590204840680490059902F02AFED4
:100B80000790179803901C4800680290039902F0A0
:100B900021FE0590169803901748C06802900399AB
:100BA00002F018FE0490059902F056FC0690079991
:100BB00002F018FF08900D9902F00CFE10901898A2
:100BC00005900D4800680490059902F003FE079017
:100BD00017980390084840680290039902F0FAFDC4
:100BE00005900548806880F0004003901698014603
:100BF000029003980AE0000094000020DC0000202E
:100C000038020020D80000202E9E0B3A02F0E2FDB0
:100C10000490059902F020FC0690079902F01CFC54
:100C200008900D9902F0D6FD0F909E48006808903C
:100C3000129902F011FC9B49086008464068089030
:100C4000119902F009FC97494860084680680890AD
:100C5000109902F001FC934988600846C06808902A
:100C60000F9902F0F9FB8F49C8600846C0680590EB
:100C70000846C0680490059902F0ACFD07908948C9
:100C800080680390874880680290039902F0A2FD73
:100C9000059084484068019082484068009001991E
:100CA00002F098FD03907F48006801907D4800683D
:100CB0000090019902F08EFD0290039902F0CCFBA6
:100CC0000490059902F0C8FB0690079902F0C4FB56
:100CD000089000F04BFC0E907248006808900E9946
:100CE00002F078FD6F4908600846406808900E9948
:100CF00002F070FD6B4948600846806808900E99C4
:100D000002F068FD674988600846C06808900E993F
:100D100002F060FD6349C8600846406801460590DE
:100D20004FF0804002F056FD06905E48C0680146D4
:100D30000590069802F04EFD08905A48006801465A
:100D400005904FF0804002F045FD069055488068C0
:100D500001460590069802F03DFD0790089902F0C3
:100D600041FE0C904F480068014605904FF08040CE
:100D700002F030FD06904B48406801460590069809
:100D800002F028FD089047488068014605904FF022
:100D9000804002F01FFD06904248C0680146059061
:100DA000069802F017FD0790089902F055FB0B908A
:100DB0003C48C06806903B48C0680590069902F020
:100DC00009FD089037488068049036488068039091
:100DD000049902F0FFFC06903248406802903148C6
:100DE00040680190029902F0F5FC04902D480068DB
:100DF00002902C4800680190029902F0EBFC0390ED
:100E0000049902F0EFFD0590069902F0EBFD0790C2
:100E1000089902F021FB0A901F9840692249079027
:100E200002F0D8FC4FF08041089002F0D3FC09900A
:100E30004FF07E51099802F099FD04D31B4909989F
:100E400002F094FC0DD22099099802F0C3FC08909E
:100E50001F98006A01460790089802F0FDFA1F9952
:100E600008620C9802F0CCFACDE9020101F060F9B9
:100E70004FF000520E4BCDE9040101F0E7FFCDE940
:100E8000060101F0A9FD1F998861DDE90A1001F052
:100E900087FA0849089002F09DFC1F99C86121B0AB
:100EA00000BD000094000020F6FFF93C000080BF68
:100EB000DCA54C40E12E65422DE9F0410446204678
:100EC00002F03CFC0746054902F03AFB064604499D
:100ED00002F080FC05462846BDE8F08100409C46B3
:100EE0000000AA431FB5472147F2305000F0C7FC6D
:100EF0000121082000F082FB4FF40040ADF8000013
:100F000010208DF8030003208DF8020069461C486C
:100F1000FFF788FB0121082000F070FB0121084643
:100F200000F06CFB4FF48040ADF8000028208DF8F5
:100F3000030069461248FFF775FB0E210120FFF7F9
:100F400051FB4FF48040029000208DF80C001020DF
:100F50008DF80D0001208DF80E0002A8FFF7F8FAB9
:100F600028208DF8040000208DF805008DF806007B
:100F700001208DF8070001A800F0B4FA1FBD0000A1
:100F8000000C014010B50122D1030648FFF729FCEF
:100F90000F2001F055FB00224FF400410148FFF7FC
:100FA00020FC10BD000C014000BFFEE721B102880B
:100FB00042F48062028004E002884FF6FF331A4058
:100FC0000280704770B502460024002500230020EF
:100FD000958A138B1B0445EA030626F07F4404EA36
:100FE00001068E4201D1012000E0002070BD21B138
:100FF000028842F00102028004E002884FF6FE738C
:101000001A400280704721B1828842F400628280D7
:1010100004E082884FF2FF731A408280704721B14A
:10102000028842F48072028004E002884FF6FF6377
:101030001A400280704721B1028842F40072028097
:1010400004E002884FF6FF531A40028070470CB547
:101050000246002000230193009300920B0F01939E
:1010600021F07F41019B1BB1009B1433009303E0EF
:10107000090C009B18330093009B1B680B400BB1BD
:10108000012000E000200CBD2DE9F04385B00446AE
:101090000D460026B1460427DFF8CC80A6884FF61F
:1010A000C0700640684600F0B9FADDF808802F48A5
:1010B000B8FBF0F01FFA80F946EA0906A6802088FE
:1010C0004FF6FE7108402080002629492868884292
:1010D0000CD828684000B8FBF0F087B2042F00DA83
:1010E00004273E4309F10100208427E0E8884BF6FD
:1010F000FF71884206D1286800EB4000B8FBF0F091
:1011000087B209E0286800EBC00101EB0010B8FBD2
:10111000F0F087B247F48047C7F30B0008B947F0F7
:10112000010747F4004006434FF4967009FB00F0B6
:101130004FF47A7190FBF1F0401C2084A683208844
:1011400040F00100208026884FF6F5300640A88840
:101150006989084306432680A88929890843208194
:1011600005B0BDE8F083000000127A0040420F0095
:10117000A08601000146088AC0B2704712B141F052
:10118000010102E04FF6FE731940018270470182AF
:10119000704710B500F038FB00F02CF800F016F89E
:1011A00001F02CFA4FF4A06000F0D4F9FFF79AFE9A
:1011B000072142F2273000F057FC01F0E7FA00F077
:1011C0006BF901F063FA01F0E3FB10BD08B50121F2
:1011D000102000F013FA4FF40050ADF80000482042
:1011E0008DF8030069460248FFF71CFA08BD0000AD
:1011F0000010014008B50121042000F0FFF94FF470
:101200007060ADF8000010208DF8030003208DF809
:10121000020069460448FFF705FA4FF4706102487E
:10122000FFF7DDFA08BD0000000801402DE9F04796
:10123000002428E01D4800F051F81D491B4800F02B
:101240003BF804251CE01A4931F9140002F076FA43
:101250008246184902F0BEFA81464FF0804102F002
:10126000B9FA804602F02EFA00B2114921F81400B2
:10127000084630F91400861947EBE07705F10105BF
:10128000062DE0DD641C642CD4DB4FF49672002341
:1012900030463946FEF7BFFF401F71F1000102DA08
:1012A0000120BDE8F0870020FBE70000E0000020FF
:1012B000EE000020F6FFF93C10B5024600200AE0DF
:1012C000531C13F8103012F8104003EB04231BB228
:1012D00021F81030401C0728F2DB10BD10B5044681
:1012E0000E2322463B21D02001F08AFA10BD0000D7
:1012F00070B500241FE05F48FFF7F0FF5E495D48CE
:10130000FFF7DAFF5D48C0885B490989084400B2ED
:101310005A49C8800846008957494989084400B29B
:10132000564908810846408953498989084400B2D2
:1013300052494881641C642CDDDB5048B0F906003A
:10134000642190FBF1F000B24C49C8800846B0F926
:101350000800642190FBF1F000B24849088108467A
:10136000B0F90A00642190FBF1F000B243494881D2
:1013700000246FE03F48FFF7B1FF3F493D48FFF7CA
:101380009BFF3D4800893D49C988401A00B23A494F
:1013900008810846408939490989401A00B236490E
:1013A00048810846808935494989401A00B2324946
:1013B0008881B1F9000002F0C1F90546294630489C
:1013C00001F090FA2C49B1F9020002F0B7F9054694
:1013D00029462C4801F086FA2749B1F9040002F0A9
:1013E000ADF905462946284801F07CFA2448C06832
:1013F000264908602348C06848602348C068886060
:101400001D49B1F9080002F099F92049C8601A494C
:10141000B1F90A0002F092F91C4908611649B1F9C4
:101420000C0002F08BF91949486119491748FFF778
:10143000DDF9164A9169114AD06802F00DF80F499A
:10144000C860124AD1690D4A106902F005F80B49CB
:101450000861641C642C8DDB0849C8680D4902F0E2
:101460006FF80649C86008690A4902F069F803493B
:10147000086170BDE0000020EE000020F8010020AF
:10148000A4000020B4000020C400002010020020AE
:10149000B020CD3B0000C84210B500226B21D02007
:1014A00001F036F907221921D02001F031F9062286
:1014B0001A21D02001F02CF909221C21D02001F0A2
:1014C00027F918221B21D02001F022F900BFFFF7D5
:1014D000ADFE0028FBD0FFF70BFF10BD00BFFEE7FD
:1014E0007047000070B5002100230F22C47804B3B8
:1014F000154C246804F4E064C4F5E064210AC1F1E9
:101500000403CA40447804FA03F184781440214368
:1015100009010E4C0678A155047804F01F0501243A
:10152000AC4005786D11AD0005F1E025C5F800412E
:1015300009E0047804F01F050124AC40044D06784E
:10154000761145F8264070BD0CED00E000E400E0A7
:1015500080E100E002490143024A11607047000047
:101560000000FA050CED00E0704700002DE9F05F87
:1015700004464FF07F594FF07C51204602F02AF983
:10158000824625462E460C48A0EB6606354629467F
:10159000504602F01FF98346294602F01BF98046A7
:1015A000494602F014FA0746294602F013F90546A7
:1015B0002846BDE8F09F0000DF59375F29B1064A91
:1015C00052690243044B5A6104E0034A5269824360
:1015D000014B5A61704700000010024029B1064AD1
:1015E000D2690243044BDA6104E0034AD2698243C0
:1015F000014BDA61704700000010024029B1064A31
:1016000092690243044B9A6104E0034A926982435F
:10161000014B9A61704700000010024030B5002174
:101620000022002400232D4D6D6805F00C0121B12E
:10163000042905D0082923D105E0294D056022E0C1
:10164000274D05601FE0254D6D6805F47012234D90
:101650006D6805F48034022505EB92421CB9214DDA
:10166000554305600BE01D4D6D6805F400351DB157
:101670001C4D5543056002E0194D5543056002E0DD
:10168000174D056000BF00BF144D6D6805F0F001F7
:101690000909154D6B5C0568DD4045600F4D6D68AF
:1016A00005F4E061090A104D6B5C4568DD4085601A
:1016B0000A4D6D6805F46051C90A0B4D6B5C4568B5
:1016C000DD40C560054D6D6805F44041890B074D4F
:1016D0006B5CC568B5FBF3F5056130BD00100240D9
:1016E00000127A0000093D001400002024000020B0
:1016F000704710B500F002F810BD00000CB50020D6
:10170000019000903348006840F48030314908600F
:1017100000BF3048006800F4003000900198401C81
:101720000190009818B90198B0F5A06FF1D129483F
:10173000006800F4003010B10120009001E00020AA
:1017400000900098012843D12348006840F0100021
:10175000214908600846006820F003000860084638
:10176000006840F0020008601A4840681949486063
:101770000846406848600846406840F48060486019
:101780000846406820F47C1048600846406840F4F1
:10179000E81048600846006840F08070086000BFAC
:1017A0000C48006800F000700028F9D00948406833
:1017B00020F00300074948600846406840F00200F6
:1017C000486000BF0348406800F00C000828F9D1C9
:1017D0000CBD00000010024000200240042808D187
:1017E0004FF0E021096941F004014FF0E02211615E
:1017F00007E04FF0E021096921F004014FF0E022F9
:10180000116170477047000010B51348006840F040
:1018100001001149086008464068104908400E4917
:101820004860084600680E4908400B4908600846B1
:10183000006820F4802008600846406820F4FE001C
:1018400048604FF41F008860FFF753FF4FF00060BF
:101850000449086010BD0000001002400000FFF8BD
:10186000FFFFF6FE08ED00E010B50121880700F04B
:1018700081F918B10121880700F06AF910BD7FB520
:1018800005460C4601210846FFF7A8FEADF80850B2
:10189000ADF804400020ADF80A00ADF8060001A93B
:1018A0004FF0804000F0E6FA01221146900700F068
:1018B00072F91C208DF8000002208DF801008DF8CF
:1018C000020001208DF803006846FFF70BFE7FBD84
:1018D00010B50121314800F04DF901285CD10121FA
:1018E0002E4800F035F901202D490860FFF74AFB2A
:1018F0002C480068B0F57A7F1FDD2B49086801F09D
:10190000FDFE84B2204600F06FF82749486801F0D8
:10191000F5FE84B2204600F077F82349886801F08C
:10192000EDFE84B2204600F07FF81F49C86801F040
:10193000E5FE84B2204600F087F81A480068B0F54A
:10194000C87F0FD14FF4AF7000F04EF84FF4AF7076
:1019500000F05AF84FF4AF7000F066F84FF4AF7033
:1019600000F072F80F480068B0F5487F0FD14FF4CF
:10197000167000F039F84FF4167000F045F84FF487
:10198000167000F051F84FF4167000F05DF805483D
:101990000068401C0349086010BD000000040040BE
:1019A000300000202C000020780300200EB501211B
:1019B0000220FFF713FE4FF4B470ADF8040040F2BC
:1019C000CF70ADF800000020ADF80600ADF80200C1
:1019D0006946044800F04EFA0021024800F0BBF8C6
:1019E0000EBD00000004004010B5044640F2B630C1
:1019F000844200DB044604EBC40081B2014800F0DD
:101A00002EFA10BD0008004010B5044640F2B63072
:101A1000844200DB044604EBC40081B2014800F0BC
:101A200020FA10BD0008004010B5044640F2B63060
:101A3000844200DB044604EBC40081B2014800F09C
:101A400012FA10BD0008004010B5044640F2B6304E
:101A5000844200DB044604EBC40081B2014800F07C
:101A600004FA10BD0008004030B589B005460C46A8
:101A700001210420FFF7B2FD01210920FFF7BEFD7F
:101A80004FF47070ADF8200018208DF8230003206B
:101A90008DF8220008A92648FEF7C4FD00214FF466
:101AA0008050FEF74BFEADF81850ADF81440002002
:101AB000ADF81A002020ADF8160005A91D4800F069
:101AC000D9F97020ADF804000120ADF8060000201F
:101AD000ADF80A000220ADF80C0001A9154800F08D
:101AE00063F801A9134800F0B5F801A9114800F006
:101AF00011F901A90F4800F067F908210D4800F01D
:101B00009FF808210B4800F0F7F80821094800F079
:101B100051F90821074800F095F90121054800F026
:101B20000BF80121034800F016F809B030BD0000A1
:101B3000000C01400008004021B1028842F0800200
:101B4000028004E002884FF67F731A4002807047DB
:101B5000CA430282704721B1028842F0010202802A
:101B600004E002884FF6FE731A4002807047014677
:101B7000888C704730B50246002000230024158A67
:101B800005EA0103958905EA010413B10CB10120AE
:101B900000E0002030BD1AB183890B43838102E04D
:101BA00083898B438381704770B500240022002312
:101BB000058C4FF6FE7635400584028C8388048BB5
:101BC0004FF68F752C40B51E2C400D882C43751E8A
:101BD0002A400D892A434D882A43144DA8420BD030
:101BE000134DA84208D0134DA84205D0124DA8426B
:101BF00002D0124DA84213D14FF6F7752A404D89F5
:101C00002A434FF6FB752A408D882A434FF6FF651D
:101C10002B404FF6FF552B408D892B43CD892B430D
:101C200083800483CD888586028470BD002C0140AA
:101C300000340140004001400044014000480140A0
:101C40000A460021018B4FF6F773194011430183B7
:101C50007047000070B5002400220023058C4FF669
:101C6000EF7635400584028C8388048B48F6FF7537
:101C70002C404FF6FF452C400D884FF6FF7606EAC4
:101C800005252C434FF6DF752A400D8906EA051518
:101C90002A434D8806EA05152A43154DA84202D06D
:101CA000144DA8421DD14FF67F752A404D894FF63D
:101CB000FF7606EA05152A434FF6BF752A408D8840
:101CC00006EA05152A434FF6FF352B404FF2FF7504
:101CD0002B408D8906EA85052B43CD8906EA8505CB
:101CE0002B4383800483CD880587028470BD000068
:101CF000002C0140003401400A460021018B4FF2C4
:101D0000FF7319404FF6FF7303EA0223194301835F
:101D10007047000070B5002400220023058C4FF6A8
:101D2000FF6635400584028C8388848B4FF68F755F
:101D30002C404FF6FC752C400D882C434FF6FF5578
:101D40002A400D894FF6FF7606EA05252A434D887D
:101D500006EA05252A43154DA84202D0144DA84293
:101D60001DD14FF2FF752A404D894FF6FF7606EAE6
:101D700005252A434FF6FF352A408D8806EA0525BA
:101D80002A434EF6FF752B404DF6FF752B408D898B
:101D900006EA05152B43CD8906EA05152B438380FA
:101DA0008483CD888587028470BD0000002C0140AB
:101DB000003401400A460021818B4FF6F773194029
:101DC000114381837047000070B500220023002476
:101DD000058C4EF6FF7635400584038C8488828B13
:101DE00048F6FF752A404FF6FF452A400D884FF60A
:101DF000FF7606EA05252A434DF6FF752B400D892F
:101E000006EA05352B434D8806EA05352B430B4D75
:101E1000A84202D00A4DA84208D14BF6FF752C40CB
:101E20008D894FF6FF7606EA85152C4384808283E0
:101E3000CD88A0F84050038470BD0000002C014004
:101E4000003401400A460021818B4FF2FF73194094
:101E50004FF6FF7303EA022319438183704781869B
:101E600070470187704781877047A0F8401070471E
:101E700081847047002202881D4B98420ED01D4B72
:101E800098420BD0B0F1804F08D01B4B984205D040
:101E90001A4B984202D01A4B984204D14FF68F73D6
:101EA0001A404B881A43174B984207D0164B98425A
:101EB00004D04FF6FF431A40CB881A4302808B8828
:101EC00083850B8803850A4B98420BD0094B9842B7
:101ED00008D00E4B984205D00D4B984202D00D4BC6
:101EE000984201D10B7A0386012383827047000058
:101EF000002C014000340140000400400008004074
:101F0000000C004000100040001400400040014060
:101F1000004401400048014010B540F225511D48E1
:101F200000F03EF810B31B4800F064F8C4B21A4841
:101F3000008800F40040C8B91748008800F48040C9
:101F400060B10A2C03D000201349088020E0124819
:101F5000008840F400401049088019E00D2C06D19B
:101F60000D48008840F480400B49088010E00A4882
:101F70000088C0F30D0009490C5407480088401C34
:101F80000549088008460088C72801DD0020088030
:101F900010BD0000003801403C000020140100206A
:101FA00070B50246002400230025002040F66A1682
:101FB000B14200D100BFC1F3421501F01F03012659
:101FC00006FA03F3012D02D19689334006E0022D73
:101FD00002D1168A334001E0968A33400C12012662
:101FE00006FA04F41688344013B10CB1012000E065
:101FF000002070BD01468888C0F30800704700BF0C
:10200000FEE7490050EAC12018BF04204A0D18BF5E
:1020100040F0010040F2FF72B2EB515F08BF40F0A8
:102020000200012808BF052070474100080218BFC0
:1020300004200A0E18BF40F001004FF07F4232EA40
:10204000010108BF40F00200012808BF05207047C9
:102050002DE9F0414F1E00EBC7010446D1E9000114
:1020600015461E4637F006020DD02A46334600F0CC
:10207000EDFE7F1E04EBC703D3E9002300F0DEFC76
:1020800037F00602F1D1022F25D0042F13D0062FEE
:1020900018BFBDE8F0812A46334600F0D7FED4E9E8
:1020A0000A2300F0CBFC2A46334600F0CFFED4E9E9
:1020B000082300F0C3FC2A46334600F0C7FED4E9EB
:1020C000062300F0BBFC2A46334600F0BFFED4E9ED
:1020D000042300F0B3FC2A46334600F0B7FED4E9EF
:1020E000022300F0ABFC2A46334600F0AFFED4E9F1
:1020F0000023BDE8F04100F0A1BC012201F019BDB0
:10210000002213461046114600F048BD024A002046
:10211000110701F00EBD000001FDFFFF01F09CB9A9
:102120006FF05E01080701F032BD014600BF704745
:102130002DE9F04D8D4F21F0004A86B005460C4642
:10214000BA452ADBAAEB070028430AD08848824513
:1021500001DC1AD1CDB106B02846BDE8F04DFFF73D
:10216000CCBF844A844B284600F070FE07460E46DA
:10217000824A834B2846214600F068FE06B03A4664
:102180003346BDE8F04D00F059BC0120FEF7E7F8FA
:1021900006B0BDE8F04DFFF7B3BF7A48824542DA9A
:1021A000BAF1795F0BDA2846FFF72BFF042808BF46
:1021B000FFF7ACFF284606B02146BDE8F08D2A4661
:1021C0000B46104600F042FE834602466E480E461D
:1021D0000B4606217844FFF73BFF5A46334600F092
:1021E00035FE804669488A465A463346042178447B
:1021F000FFF72EFF5A46334600F028FE00223B46EA
:1022000000F01CFC02460B464046514600F0C6FC5E
:102210002A46234600F01AFE06B02A462346BDE8A9
:10222000F04D00F00BBC284624F0004100223D4652
:102230003B4600F009FF4FF0FF3201F07AFC064602
:10224000024653480F460B4606217844FFF700FF2D
:1022500032463B4600F0FAFDCDE900014D483246DA
:102260003B4604217844FFF7F3FE32463B4600F03C
:10227000EDFD00222B4600F0E1FB83460291304643
:10228000394600F05FFB804643480D46504517DC59
:10229000DDE900015A46029B00F080FC42462B46D5
:1022A00000F0D4FD42462B4600F0C8FB012201F0AD
:1022B00040FC304A304B00F0B9FF304A304B4CE024
:1022C0004FF0000A52460B46404600F0B7FBCDE9FE
:1022D000031052462B461046194600F0B7FD324611
:1022E0003B4600F0B1FEDDE9033200F057FC064644
:1022F0000F46DDE900015A46029B00F04FFC834681
:10230000009101223046394601F013FC194A1A4B5C
:1023100000F09AFE06460F4601224046294601F08B
:1023200008FC5A46009B00F091FD32463B4600F007
:102330007DFF06460F4601225046294601F0F9FB73
:102340000E4DDFF858802A46434600F07DFE3246A7
:102350003B4600F079FE2A46434600F075FE002C0D
:10236000D8BF81F0004106B0BDE8F08D0000F03F1D
:102370000000F07F075C143326A6913C182D4454CE
:10238000FB21F93F0000E03F381A00004E1A000020
:10239000C2190000D81900003333EF3FFB21E93F99
:1023A0002DE9F0474FF0684202EB40030C4605462A
:1023B000B3F1654F3CBF02EB4102B2F1654F7CD2F5
:1023C000C0F3C753C1F3C7529A1A1B2A06DD10F097
:1023D000004F14BF76487748BDE8F08712F11A0F16
:1023E00017DA11F0004F06D010F0004F0CBF724802
:1023F0007248BDE8F0872146284601F0A1F804465E
:10240000FFF713FE042808BFFFF78AFE2046BDE849
:10241000F0874200B2EB410F25D910F0004F19BFF1
:10242000674F684E684F694E224685F00044154656
:102430000A4680F0004110460A1A5200B2F1807F2D
:1024400040D248406249DFF88CA110F0004F18D00C
:102450004FF03F48384601F0C5FA0746514630462E
:1024600001F0C0FA17E011F0004F04BF0026374614
:10247000E2D010F0004F19BF574F584E584F594EE9
:10248000DAE74FF07C58384600F0E6FF0746514641
:10249000304600F0E1FF06464146284601F09AF931
:1024A000214600F0D9FF82462146404601F092F9CC
:1024B000294601F08CFA514600E037E001F040F87F
:1024C000044604E02146284601F03AF80446014655
:1024D00001F080F98046444901F07CF9434900F05D
:1024E000BBFF414601F076F9414900F0B5FF414696
:1024F00001F070F93F4900F0AFFF414601F06AF981
:102500003D4900F0A9FF05464146204601F062F929
:10251000294601F05FF9314600F09EFF214600F0A8
:102520009BFF3946BDE8F04700F096BF4FF07F4271
:10253000B2EB400F28BFB2EB410F03D2BDE8F0472A
:10254000FFF7ECBD40EA01035B0008BF44F0FF4128
:102550000AD0B2EB400F08BFB2EB410F06D125F015
:10256000804024F0804105460C4629E7B2EB400F3D
:1025700012BF5FEA410245F0FF4004F000413FF422
:102580001FAF4A0092EA40033FF51AAF002AACBFE2
:102590004FF09F464FF03E56314601F01BF905467D
:1025A0003146204601F016F904462846214607E741
:1025B000DB0FC9BFDB0FC93FDB0F4940DB0F49C051
:1025C0000000C9BF22AAFDB90000C93F22AAFD39F7
:1025D0000060ED3EC30ACE37000049C022AA7DBA92
:1025E0000000494022AA7D3A2DAD65BD8FB8D53D8A
:1025F0000FB511BE61C84C3EA8AAAABE10B56FF0B7
:102600000400FFF7EBF80A4800680A49B0FBF1F054
:10261000094908700846007800EB4001C1EBC01082
:102620004FF6FF7101EAC0000449088010BD0000A8
:102630000000002000127A00340000203600002044
:102640000146114A12784A434FF0E0235A610022B2
:102650009A611A46126942F001021A6100BF4FF0F6
:10266000E022106900F001021AB100F48032002A61
:10267000F5D04FF0E022126922F001024FF0E02382
:102680001A6100229A6170473400002000B58BB0B7
:1026900001210846FEF792FF12480090124801906F
:1026A00000200A9008904FF480500990002002907A
:1026B0000E200390002004908020059000200690BA
:1026C000079069460948FDF7D6FE00F011F8012190
:1026D0000648FDF7A5FE012202210448FDF7C2FECF
:1026E0000BB000BD10540040E0000020800002400C
:1026F00008B511208DF8000001208DF8030000209E
:102700008DF801008DF802006846FEF7EBFE08BD6B
:1027100070B504460E46154601211948FEF77FFCA8
:1027200000BF18491648FEF74DFC0028F9D00022DA
:1027300021461348FEF722FD00BF13491048FEF75B
:1027400041FC0028F9D031460D48FEF720FD00BFBE
:102750000D49891C0A48FEF735FC0028F8D02946A7
:102760000748FEF714FD00BF0749891C0448FEF71F
:1027700029FC0028F8D001210148FEF75CFC70BD5F
:1027800000540040010003008200070000B585B03E
:1027900001210820FEF732FF01214805FEF71EFF48
:1027A000C020ADF8100003208DF812001C208DF819
:1027B000130004A90F48FDF735FF0020ADF8040011
:1027C0004BF6FF70ADF806000A20ADF808004FF494
:1027D0008060ADF80A000001ADF80C0006480090DA
:1027E00069460648FEF750FC01210448FEF7FFFB4E
:1027F00005B000BD000C0140801A060000540040E6
:102800002DE9F04106460F4615461C4600BF4FF421
:1028100000313148FEF71BFC0028F8D101212E4879
:10282000FEF7FDFB00BF2D492B48FEF7CBFB002830
:10283000F9D0002231462848FEF7A0FC00BF284905
:102840002548FEF7BFFB0028F9D001212248FEF7FA
:10285000CEFB39462048FEF79AFC00BF2049891C70
:102860001D48FEF7AFFB0028F8D001211A48FEF7FB
:10287000D6FB00BF19491848FEF7A4FB0028F9D081
:10288000012231461448FEF779FC00BF1349491C68
:102890001148FEF797FB0028F8D015E0012C07D16E
:1028A00000210D48FEF782FB01210B48FEF7C3FB18
:1028B0000A493F310848FEF785FB28B10648FEF774
:1028C00059FC28706D1C641E002CE7D101210248C0
:1028D000FEF76CFBBDE8F0810054004001000300EE
:1028E000820007002DE9F04704460D46D4E90001B7
:1028F00000F0B2FD80464046A16800F0ADFD0746FD
:102900003946404600F01CFE06462846E16801F0C4
:1029100069F88146314600F05DFF0746E16800F046
:102920009BFDE06031464FF07E5001F05BF80746BA
:10293000414600F04FFF2060BDE8F087FEF729FC1C
:1029400000BFFEE72DE9F04106460F4600F088FB88
:1029500004000D4618BF0120284320F00040C0F1BC
:102960007F6000F1E040C00F0ED0301C18BF012086
:10297000384320F00040C0F17F6000F1E040C00F1C
:1029800004BF0120FDF7EBFC20462946BDE8F0819D
:1029900010B5FFF70BF800F007F801210148FFF729
:1029A000DAF810BD0004004008B51D208DF80000C5
:1029B00001208DF803008DF8010000208DF8020041
:1029C0006846FEF78FFD012211460248FFF7E3F843
:1029D00008BD00000004004021F00042A2F1605256
:1029E000B2F5801F01F0004328BFD2F17F6C0BD9F4
:1029F0005FEA001C43EAC20242EB507018BF704706
:102A000028BF20F001007047B2F5801FBCBF1846F8
:102A100070474FEA410C1CF5001F02D2084600F037
:102A2000A0BF70B500F0BCFA00000089FFF7F6BF48
:102A30004FF00040A0F580007047000010B591EA0B
:102A4000030F48BF83F0004300F1F883841A71EB51
:102A5000030C05D2121943EB0C03001B61EB0C01B4
:102A6000DFF824E14FEA1154A4EB135C1EEA430F94
:102A700018BF9EEA445F73D023EA0E03DCF1200EF8
:102A800021EA045143F4801332D322FA0CFE10EBF6
:102A90000E0023FA0CFE41EB0E01CCF1200E03FADE
:102AA0000EFE10EB0E0051F10001B1F5801FCCF1CC
:102AB000200E32D201EB045112FA0EF2BDE81040A2
:102AC00058BF7047401C38BF5FEA420218BF7047CA
:102AD000002814BF20F0010041F100014FEA41033A
:102AE00013F5001F38BF7047A1F1C04100F0A6BA2E
:102AF000012A43EB0302ACF1200CDCF11F0E32BFC4
:102B00004FF0000E23FA0CF310EB030041EB0451DD
:102B1000B4EB115FD0D0A1EB045101F5801149084D
:102B20005FEA300001EB04510ED350F1000038BFD2
:102B300012FA0EFE08D1BDE81040C9E7401C38BFAC
:102B40005FEA4202CAD1C3E7BDE810404FEA410341
:102B500013F5001F38BF7047A1F1C04100F06EBAF5
:102B60009EEA445F08D011EA5E0FBDE8104004BF42
:102B700001F0004100207047BDE8104070B500F042
:102B80000FFA00BF64FBBE3E0000E0FF02494FF0B9
:102B9000000000F09CBF00BF0000F87F2DE9C0419D
:102BA00030B4DFF8A0C23CEA111418BF3CEA131499
:102BB00000F0EC8081EA03051CEA111444EAD574A4
:102BC00018BF1CEA131500F0C780A4EB05044FF0F2
:102BD000004545EAC12145EAC32341EA505143EA91
:102BE000525304F17F74994204F500344FEAC02037
:102BF0004FEAC22208BF904200F09C804FEA136562
:102C00000FF24016765D4FEA134506FB05F7C7F154
:102C1000807706FB07F74FEAD737A7FB03687642B2
:102C2000C8F58038A7FB06CE38BFA8F1010807FB1E
:102C300008E64FF0000EA6FB028CE6FB03CEDCF1AB
:102C4000000CCEF1004E38BFAEF1010EA6FB0C58C1
:102C50004FF000074FF00005E6FB0E87A1FB08C60A
:102C6000A0FB07CE16EB0E0645F10005E1FB07655C
:102C700015F1E04E7EBFA4F580345FEA46066D4153
:102C800016F1800745F100054FEA17274FEA06665F
:102C900047EA0567A6F1DE46B6F1805F4FEA1525E3
:102CA0001FD9384624F0010C05EBC471BCF1FE6F4E
:102CB00001EB0C1102D8F0BCBDE8008124425CBFDE
:102CC00001F5801E9EEAC47F02D4F0BCBDE80081FD
:102CD000244238D4F0BCA1F1C041BDE8004100F06D
:102CE000ADB94FEAD22242EA43524FEAD323A7FBBF
:102CF00002864FEAD02040EA415007FB03661EEAF5
:102D00000E0F4FEAD12105FB026658BFA6EB005615
:102D1000B6EB00564FEA520E4EEAC37E18EB0E0E8B
:102D200056EB530EBDD518EB02085E417F1C55F1E2
:102D30000005B6E74FF480154FF000074FF000068E
:102D40004FF00008ADE7F0BC4FF0000001F1C041CA
:102D500001F00041BDE8008111EA0C1F0CEA1315D7
:102D600000D00CE013EA0C1F00F025804FF00000AB
:102D7000F0BC81EA030101F00041BDE80081F0BC34
:102D8000BDE8004181EA030100F058B9F0BCBDE89C
:102D9000004170B500F004F9097EFC3E00F007B870
:102DA00081EA03014FF0000001F00041704781EA21
:102DB000030100F043B9F0BCBDE800414FF0000052
:102DC00021497047FFFDFBF9F7F5F4F2F0EEEDEB6A
:102DD000E9E8E6E4E3E1E0DEDDDBDAD8D7D5D4D319
:102DE000D1D0CFCDCCCBCAC8C7C6C5C4C2C1C0BF65
:102DF000BEBDBCBBBAB9B8B7B6B5B4B3B2B1B0AF6B
:102E0000AEADACABAAA9A8A8A7A6A5A4A3A3A2A14E
:102E1000A09F9F9E9D9C9C9B9A9999989797969509
:102E200095949393929191908F8F8E8E8D8C8C8BA5
:102E30008B8A89898888878786858584848383822D
:102E4000828181800000FF070000F87FDFF848C121
:102E500070B51CEA111E1EBF1CEA13159EEA0C0F6A
:102E600095EA0C0F00F06F8081EA030423EA4C130B
:102E70004EEAD47E21EA4C1141F4801143F48013D0
:102E8000AE44A1FB024CA0FB0365AEF17F7E361978
:102E900055EB0C05A1FB034C4CF10003A0FB021CFD
:102EA00016EB0C06654153F10003094218BF46F0CA
:102EB000010613F4007F0BD14FEA03314FEA0530CE
:102EC000340341EA155140EA16506FF003020AE05C
:102ED0004FEAC3214FEAC520F40241EA555140EAC6
:102EE00056506FF0020202EB2E4201EB025585EACA
:102EF000CE710AD05FEA440C18BF24F0004450F1B0
:102F0000000041F1000120EAD47040F2FE7C6245ED
:102F100000D270BDA84214BF4FF080444FF040442F
:102F2000002E08BF0024BEF1806FA8BFA1F1C041F0
:102F3000BDE8704080F282804FF0000001F1C04196
:102F400001F0004170479EEA0C0F0CEA131518BF00
:102F500095EA0C0F06D04FF0000081EA030E0EF048
:102F6000004170BD00F01CF88900013E00F007B878
:102F700000F009B84FEA430C5FEA5C5C08D081EAD4
:102F8000030100F05BB84FEA410C5FEA5C5CF6D1EC
:102F90004FF00000014970470000FF070000F87F74
:102FA0000EF1020E2EF0030E5EF8046B364205D4CD
:102FB000012A43EB030515F5001F12D8012841EB48
:102FC000010C1CF5001F0CD80ED14FEAD17C15F571
:102FD000001F0CEB4C0C0CF1020C08BF4CEBD37C2B
:102FE00004E04FF0080C01E04FEAD37C0CEB4C05F9
:102FF00026FA05F606F00706B6F1040C06D20EEB2B
:10300000860CBDE870404CF0010C6047DFE80CF026
:10301000090B02024FF000414FF00000A1F5002122
:1030200070BD19461046012851EB010418BFD4F5B4
:10303000001484BF002001F0004170BD0808A0F515
:1030400000114FEA3101704791EA030F10B581F08A
:1030500000413FF5FBAC83F0004300F0EFB8000007
:103060002DE9F04101F5801CBCF5001FC0F2C380C2
:103070004FEA115C21EA0C510CF1FD0C41F4801176
:103080005FEA5C0C0CF5C07C01D3400049413DA4D3
:10309000890241EA905187028E0E0A0CA45D04FB5E
:1030A00004F602FB06F6C6F14046A4FB0662F60DE6
:1030B00046EA422606FB06F4A4FB01235242C3F172
:1030C000404338BF5B1EA6FB02420024E6FB0324FC
:1030D000D20B42EA4446A6FB0623A1FB02E2A3FB75
:1030E00007E4A4184FF0000252F10002E3FB014292
:1030F0006442C2F1404E38BFAEF1010EA6FB04237C
:103100004FF00002E6FB0E32A2FB03464FF0000434
:10311000B61954F10004E2FB0264A1FB06E6A4FB2D
:1031200007E816EB08064FF0000858F10008E4FB2A
:1031300001687642C8F1405838BFA8F10108A2FBE7
:1031400006E4A3FB08E52D194FF0000454F1000438
:10315000E2FB0854A1FB05E6A7FB04E818EB060810
:103160004FF0000656F10006E1FB048618F1200539
:1031700056F10006A809A8F11B08B10908F03F089C
:10318000B8F10A0F40EA86601CD901EB0C51BDE88A
:10319000F08100BFFCF5EEE8E2DDD8D3CFCBC7C3AA
:1031A000C0BDB9B6B4B1AEACA9A7A5A3A19F9D9B64
:1031B0009A9896959392908F8D8C8B898887868527
:1031C00084838281A0FB006800FB01F208EB4208C7
:1031D000B8EB872807D5341858EB0104D5D5401C27
:1031E00051F10001D1E7341A78EB0104CDD4401E2F
:1031F00071F10001C9E75FEA4C0C5FEA9C5C0DD1FC
:1032000005D34FF0000001F00041BDE8F081BDE8BA
:10321000F04170B5FFF7C4FE6DDBFFBEBDE8F041C5
:103220004FF00000004970470000F87F10B591EAA8
:10323000030F48BF83F000433FF508AC841A71EBDD
:10324000030C07D212198CF0004C43EB0C03001B4B
:1032500061EB0C01DFF8A4E14FEA1154A4EB135C1D
:103260001EEA430F18BF9EEA445F00F0B08023EAD5
:103270006E03524221EA0451C3EB6E0338BF5B1E5A
:10328000DCF1200E25D322FA0CFE10EB0E0043FADF
:103290000CFE41EB0E01CCF1200E03FA0EFE10EBFA
:1032A0000E0051F10001CCF1200E29D412FA0EF2D9
:1032B00001EB0451BDE8104058BF7047401C1CBFD3
:1032C000B2F1004F704700280CBF491C20F00100EC
:1032D000704712EB020E43EB030218BF4FF0010ED2
:1032E0004EEA4202ACF1200CDCF11E0E54D943FA36
:1032F0000CFE10EB0E0051F1FF31CCF11E0ED5D5B6
:103300000EF1010E12FA0EFE404141EB010101EBFC
:10331000445C5FEA5C5C10D910EBDE7001EB045199
:1033200038BFBEF1004FBDE8104018BF70470028FD
:103330000CBF491C20F00100704730D24FEAD42C5A
:1033400011F5001124F400641BD0B1FA81F20B3A9C
:10335000A41AA41ED2F12003914030FA03F31943BA
:10336000904001EBCC71002C01EB0451BDE8104002
:10337000A8BF704701F1C0414FF0000001F00041CB
:103380007047B0FA80F310FA03F100D110BDE41ACF
:10339000173C4805C90AE4E701EB045110BD491088
:1033A00001EB0451BDE810404FEA300002E04FF05D
:1033B000000170474A0008BF0042F8D0B2F5001F74
:1033C00028BF704701F000414FF0000070479EEAAF
:1033D000445F07D011EA5E0FBDE8104004BF002132
:1033E00000207047BDE8104070B5FFF7D9FD00BF61
:1033F00040DFF63E83F00041104670470000E0FFDA
:1034000043004FEAD30C4FEA3C0C43401FBF400738
:103410000CF1605113F0FE4F70471CF0006F03D1A8
:1034200000200CF0004170470CF0004343EA50705C
:1034300010B540EACC0000F04EFA00BF0000009248
:103440004FEA0001FFF7FABD4FF000414FF00000D6
:10345000A1F500217047000090EA010F48BF81F0FC
:10346000004100F1C682421A3CBF801A89184FEA17
:10347000D0524FF07F4C1CEA410FA2EBD15318BF42
:103480009CEA026F00F03B804FF0004C4CEA0020B9
:103490004CEA012121FA03FC10EB0C0C1ED202F1C4
:1034A000FF325FEA1C2040EBC25038BF70471CF06F
:1034B0007F0F4FEA400C18BFBCF17F4F38BF7047F9
:1034C000C3F12003994008BF20F00100BCF17F4FF9
:1034D00038BF7047A0F1C04000F043BA4FEA3C004B
:1034E000000A40EBC25028BF1CF0FF0F4FEA400C0F
:1034F000E6D018BFBCF17F4F38BF7047EAE79CEABF
:10350000026F05D010EA5C0F08BF00F00040704762
:1035100010B500F0E0F900BF64FBBE3E014800F0CA
:10352000D6BA00BF0000C07F401058BFC0F1404075
:10353000491058BFC1F140418142EFF3008070470C
:103540004FF47F0C1CEAD0121EBF1CEAD11392EA82
:103550000C0F93EA0C0F00F0858090EA010F48BF32
:1035600042F4807240F4000C41F400002CF07F41E2
:1035700020F07F4000B58142A2EB03020FF2081C4D
:10358000ACEB504EC0F100009EF800E04FEA4E0E4A
:1035900000FB0EFC38BF49004FEA2C1C02F5FA0272
:1035A0000CFB0EF34FEACE1E4FEA112C4FEAC1215D
:1035B0000EEB635E42EB22420EFB0CFC4FEA1C5307
:1035C00000FB03114FEA112C4FEA01310EFB0CFCFA
:1035D0004FEADC4C00FB0C11C14228BF09184CEB30
:1035E00003335DF804EB10EB410143EBC250B2F53D
:1035F0007C0F38BF704729D512F0F00F1CBF00F1C7
:10360000C04000F000407047008182838485868737
:1036100088898B8C8D8E8F919293959697999A9C91
:103620009D9FA0A2A3A5A7A8AAACAEB0B2B3B5B700
:10363000B9BCBEC0C2C5C7C9CCCED1D4D7D9DCDFD6
:10364000E2E6E9ECF0F3F7FAFE0000004FEA400C86
:103650000CF1807CBCF17E4F28BF7047B0F1C040B8
:1036600000F07FB990EA010F0CEAD11348BF42F491
:103670008072624538BF634507D213F47F0F16D0BE
:1036800080EA010000F00040704710B500F023F917
:10369000097EFC3E00F005B880EA010000F0004021
:1036A000704780EA010000F0004000F05AB912F4BF
:1036B0007F0F04BF0248704780EA010000F051B953
:1036C0000000C07F41000B0ED3F19E0208D950F4D8
:1036D00000034FEA032323FA02F048BF4042704739
:1036E00010B500F0F8F800BF499224800020704720
:1036F0006FF0004282EA200070470000C10DD1F156
:103700009E0206DB4FEA002343F0004323FA02F057
:103710007047004207D54FEA4001B1F1FE4F02D297
:103720004FF00000704710B500F0D5F849922480A2
:10373000002070476FEA20007047000010F0004141
:1037400048BF4042B0FA80F310FA03F2C3F19D0380
:103750000BD051EAC35101EB1220530638BF70471A
:1037600000F1010008BF20F00100704750EA010C91
:1037700000F113801CF5000F58BFBCF5000F01D4F9
:103780008842704707D710F5000F58BF11F5000F9A
:1037900015D488427047894270471CF5000F04D544
:1037A000BCF5000FF7D5814270474FF0807C1CEBD1
:1037B000400F38BF1CEB410F01D28142704710B55A
:1037C00000F089F8922449004FF000504FF08051EA
:1037D000FFF7AABE4FF47F0C1CEAD0121EBF1CEAF2
:1037E000D11392EA0C0F93EA0C0F00F0478090EA95
:1037F000010F48BF42F480724FF0004C4CEA0020A9
:103800004CEA012102EB0302A0FB0113A2F5000226
:10381000002918BF43F001035B0028BF4FEA3303C0
:1038200042EB22425FEA132C4CEBC2502EBFBCEBA2
:10383000436FB2F57C0F70474FEA036CBCF1004F49
:1038400008BF20F00100B2F57C0F38BF70470BD5E0
:1038500082F0FF0212F5803FC8BF704700F1C04000
:10386000D8BF00F00040704700F5000C5FEA4C0C38
:1038700048BF7047B0F1C04000F073B890EA010F44
:103880000CEAD11348BF42F48072624538BF6345E9
:1038900004D280EA010000F00040704710B500F04B
:1038A0001AF800BF8900013E00F007B800F009B81F
:1038B0005FEA410C5FEA1C6C08D080EA010000F06E
:1038C00050B85FEA400C5FEA1C6CF6D14FF0004044
:1038D000A0F5800070470EF1020E2EF0030E5EF888
:1038E000044B244204D44FEA4102B2F17F4F11D875
:1038F0004FEA4003B3F17F4F0CD80ED14FEAD07C92
:10390000B2F17F4F0CEB4C0C0CF1020C08BF4CEBEE
:10391000D17C04E04FF0080C01E04FEAD17C0CEBC5
:103920004C0324FA03F404F00704B4F1040C06D2A7
:103930000EEB840CBDE810404CF0010C6047DFE852
:103940000CF0070802024FF00040A0F5800010BD07
:103950000846420018BFD2F1807288BF00F00040D4
:1039600010BDFF2141EAD050C005704751EA000C5C
:1039700000F113801CF5000F58BFBCF5000F01D4F7
:103980008142704707D711F5000F58BF10F5000F9F
:1039900015D481427047894270471CF5000F04D549
:1039A000BCF5000FF7D5884270474FF0807C1CEBC8
:1039B000410F38BF1CEB400F01D28842704780EAAC
:1039C000010081EA000180EA0100FFF7F8BE80F003
:1039D000004090EA010F7FF546AD81F0004100F014
:1039E00008B8000090EA010F48BF81F000413FF5A0
:1039F0003AAD421A04D882F00042A0EB0200114412
:103A00004FEAD0524FF07F4C1CEA410FA2EBD1534A
:103A100018BF9CEA026F4AD04FF0004C4CEA0020DD
:103A20004CEA012121FA03FCB0EB0C0C0FD412F08C
:103A3000FE0F36D05FEA4C001DD5001240EBC2509D
:103A400038BF70471CF03F0F18BF70470BE0A2F162
:103A500001025FEA1C2040EBC25038BF70471CF0E7
:103A60007F0F18BF7047C3F12003994014BF401E59
:103A700020F00100704780084FEA122308BF70470A
:103A8000B0FA80FCA2EB0C02CCF1280C60FA0CF02E
:103A900093EA122F04BF00EBC25070474FEAC37085
:103AA0007047130A5FEADC1008BF7047F6E79CEA2C
:103AB000026F04D010EA5C0F08BF0020704710B5F9
:103AC000FFF709FF40DFF63E81F0004070470CF041
:103AD0000F03092B08BF082000F07F800A2B0BD0B2
:103AE000082B18BF704708BF1CF0400F0AD04FF0DA
:103AF00000004FF0000170471CF0400F18BF4FF05E
:103B0000004070471CF0100F08D020F0704300F008
:103B10007F4242EAD3014FEA4370704700F06040B1
:103B200021F07F4242EA000201F07F4040EA7270D9
:103B300070474FF0FF0C4CF4E06C1CEA11531CBFB3
:103B40009CEA030C9445C2BFDA4201EB0251704774
:103B5000002B0DD0BCF1000F0FD0002A01F0004166
:103B6000A4BF41F0E04141F07F614FF00000704799
:103B700001F000414FF00000704750EA01334FF070
:103B80009B0C18BF4CF0806C7FF400A870474FF07E
:103B9000FF0212EAD0521CBF92F0FF038B42C2BF59
:103BA000D14200EBC1507047002A0AD0002B0BD045
:103BB000002900F00040A4BF40F0FE4040F40000A7
:103BC000704700F00040704743024FF00B0C18BFE5
:103BD0004CF0806C7FF4A2AC70471CF4801F11D0B5
:103BE0001CF4E02F03D06FEACC31490070474FF04E
:103BF0004050EFF3008222F0704242EA000282F36A
:103C0000008870474FF0000070470000000000007F
:103C1000555555555555C53F7D6FEB0312D6D4BF4D
:103C20005544880E55C1C93F3B8F68B52882A4BF53
:103C300088B20175E0EF493F09F7FD0DE13D023F14
:103C40004B2D8A1C273A03C0C88A599CE52A00409C
:103C500059018D1B6C06E6BF82922EB1C5B8B33FE9
:103C6000803C000800000020E00000006C0100081B
:103C7000603D0008E00000201805000088010008F1
:103C800000A24A040000000000000000010203043A
:103C900006070809000000000102030401020304F2
:103CA00006070809020406080000000000000000E2
:103CB0000000000000000000000000000000000004
:103CC0000000803F0000803F0000803F0000803FF8
:103CD0000000803F0000803F0000803F0000803FE8
:103CE0000000803F0000803F0000803F0000803FD8
:103CF0000000803F0000803F0000803F0000803FC8
:103D00000000803F0000803F0000803F0000803FB7
:103D10000000803F0000803F000000000000000025
:103D2000000000000AD7A33C6F12833A0C020B3F3D
:103D3000000000000AD7A33C6F12833A0C020B3F2D
:103D4000000000000AD7A33C6F12833A0C020B3F1D
:103D50000000000000000000CDCC4C3F52499D39CE
:0400000508000131BD
:00000001FF
