:020000040800F2
:1000000000040020CF01000861270008691C0008D7
:100010005D27000801110008173F000800000000DC
:10002000000000000000000000000000A5380008EB
:10003000C911000800000000BD2A0008B9390008F5
:10004000EF010008EF010008EF0100081D2E000875
:10005000EF010008EF010008EF010008EF010008C0
:10006000EF010008EF010008EF010008EF010008B0
:10007000EF010008EF010008EF010008311100084E
:10008000EF010008EF010008EF010008EF01000890
:10009000EF010008EF010008EF010008EF01000880
:1000A000EF010008EF010008EF010008EF01000870
:1000B0001D3A0008853A0008EF010008EF0100082A
:1000C000EF010008EF010008EF010008EF01000850
:1000D000EF010008F53C0008EF010008EF010008FF
:1000E000CD110008EF010008EF010008EF01000842
:1000F000EF010008EF010008EF010008EF01000820
:10010000EF010008EF010008EF010008EF0100080F
:10011000EF010008EF010008EF010008EF010008FF
:10012000EF010008EF010008EF010008EF010008EF
:1001300000F002F800F03AF80AA090E8000C8244BF
:100140008344AAF10107DA4501D100F02FF8AFF29C
:10015000090EBAE80F0013F0010F18BFFB1A43F0A5
:1001600001031847947D0000B47D0000103A24BFBD
:1001700078C878C1FAD8520724BF30C830C144BF0C
:1001800004680C607047000000230024002500264E
:10019000103A28BF78C1FBD8520728BF30C148BFEA
:1001A0000B6070471FB51FBD10B510BD00F0E6F81D
:1001B0001146FFF7F7FF05F027FD00F004F903B43F
:1001C000FFF7F2FF03BC04F006FA000070470B488B
:1001D00080470B4981F308880A480047FEE7FEE79D
:1001E000FEE7FEE7FEE7FEE7FEE7FEE7FEE7FEE7E7
:1001F00005480649044A064B70470000CD01000837
:1002000020070020310100082005002020070020E1
:1002100020050020704710B54C1084EA530404D523
:100220004042C1F1000138BF491E1B4204D5524271
:10023000C3F1000338BF5B1E00F015F814F0804FC7
:1002400004D04042C1F1000138BF491E14F0004FF4
:1002500004D05242C3F1000338BF5B1E10BD70478B
:1002600070477047704753EA020C00F069802DE92F
:10027000F04B4FF00006002B1FBFB3FA83F503FAD3
:1002800005F424FA05F65E4012BF1643B2FA82F571
:1002900002FA05F4C5F120051EBF22FA05FC44EA66
:1002A0000C04203556EA044C4FEA144418BF641C71
:1002B0004FF000084FF00009904271EB030C39D366
:1002C000002919BFB1FA81F701FA07F6B0FA80F7F1
:1002D00000FA07F6C7F120071EBF20FA07FC46EA1E
:1002E0000C062037B6FBF4FCA7EB0507103F07F020
:1002F0001F0BCBF120060CFA0BFB2CFA06F644BFC1
:10030000B3460026202FA4BF5E464FF0000B5BEAE9
:10031000060C08BF4FF0010B19EB0B09ABFB027C7D
:1003200048EB0608C01B06FB02CC0BFB03CC71EBB1
:100330000C01C1E70B46024641464846BDE8F08B3A
:1003400013B54FF000004FF00001AFF30080BDE89F
:100350001C40704710B500F009F8006810BD10B5DA
:10036000044600F003F8046010BD00000048704728
:10037000C004002000487047C00400207546FFF705
:10038000F9FFAE4605006946534620F00700854652
:1003900018B020B5FFF72CFFBDE820404FF0000655
:1003A0004FF000074FF000084FF0000B21F007015D
:1003B000AC46ACE8C009ACE8C009ACE8C009ACE8A0
:1003C000C0098D4670470446AFF300802046FFF712
:1003D000F6FE21B1826842F00102826003E0826889
:1003E00022F001028260704710B504461248844230
:1003F00008D10121401502F0B7FB0021601502F081
:10040000B3FB17E00D48844208D10121001502F02A
:10041000ABFB0021201502F0A7FB0BE0084884424B
:1004200008D10121C80302F09FFB00214FF40040D6
:1004300002F09AFB10BD000000240140002801409A
:10044000003C0140014600208A6802F004020AB123
:10045000012000E0002070470146C86C80B2704760
:100460000246002013680B400BB1012000E0002081
:100470007047014600208A6802F008020AB1012094
:1004800000E000207047000030B502460020002345
:1004900050680F4C20400D790C6844EA0524204335
:1004A000506090680B4C2040D1E902542C434D79A8
:1004B00044EA450420439060D06A20F470000C7C2C
:1004C000641EE4B2234340EA0350D06230BD000012
:1004D000FFFEF0FFFDF7F1FFF0B504460D460020EA
:1004E0000021092D11DDE068A5F10A0606EB46079B
:1004F000072606FA07F18843A5F10A0606EB460629
:1005000003FA06F10843E0600CE0206905EB4507BB
:10051000072606FA07F1884305EB450603FA06F1BC
:1005200008432061072A0FDA606B561E06EB860728
:100530001F2606FA07F18843561E06EB860605FAC3
:1005400006F10843606322E00D2A0FDA206BD61F04
:1005500006EB86071F2606FA07F18843D61F06EB2F
:10056000860605FA06F10843206310E0E06AA2F16E
:100570000D0606EB86071F2606FA07F18843A2F14F
:100580000D0606EB860605FA06F10843E062F0BDAB
:10059000816841F008018160704721B1826842F4AE
:1005A000A002826003E0826822F4A00282607047A9
:1005B000816841F004018160704700002DE9F04F2F
:1005C00087B0934800789349097890FBF1F201FBDA
:1005D000120190480078401E814202D101208E49CC
:1005E00048708B4800788D49097890FBF1F201FB47
:1005F00012018A480078401E814202D101208649BA
:100600000870834800788649097890FBF1F201FB75
:10061000120183480078401E814202D101207E49A8
:1006200048727B4800787F49097890FBF1F201FB22
:1006300012017C480078401E814202D10120764997
:10064000887273480078401C7149087072480078BD
:1006500090B10020704908707348006806F0D8FF18
:10066000044600200090714B01901A6A9969D8697C
:10067000234600F0A1FBC8E067484078D0B10020D5
:100680006549487002900390049005906848B0F95D
:100690000A006749B1F90810654CCDE90010B4F9BA
:1006A0000630B4F90420B4F90210B4F9000000F0E7
:1006B000C5FAAAE05848407AC8B3002056494872A3
:1006C0005C49C86806F0C0FF84B25A49886806F0E1
:1006D000BBFF85B25749486806F0B6FF86B2554958
:1006E000086806F0B1FF87B25249C86806F0ACFF4F
:1006F0001FFA80F84F49886806F0A6FF1FFA80F9B4
:100700004C49486806F0A0FF1FFA80FA494908687A
:1007100006F09AFF1FFA80FB43464A465146584668
:10072000CDE90076CDE9025400F0A2F86DE0FFE7D4
:100730003948807A60B10020374988723E480068A5
:1007400006F082FF84B20221204600F02DFA5CE020
:1007500031488078E0B100202F49887037488068A0
:1007600036494968354A1268354B9B68CDE90232F3
:10077000CDE904103248406831490968CDE90010DC
:100780003048836842680168012000F007F93CE0C6
:100790002148C078E0B100201F49C8702A4880680D
:1007A00029494968284A1268284B9B68CDE90232DA
:1007B000CDE904102548406824490968CDE90010B6
:1007C0002348836842680168022000F0E7F81CE0D3
:1007D00011480079C8B100200F4908711D4881688F
:1007E000426800681B4B9B68CDE90230CDE90421CB
:1007F0001848406817490968CDE900101548836812
:1008000042680168032000F0C9F807B0BDE8F08F26
:100810006200002063000020CC0100206400002062
:1008200065000020660000205000002038030020F2
:1008300020030020A00400200000002090000020E1
:100840008400002078000020B4000020A8000020D0
:100850009C000020C000002070B504460D4602F048
:100860004DF800BF204602F07DF82028FAD070BD78
:100870007FB500240026AA222146641C4648425423
:100880002146641C425406222146641C4254002224
:100890002146641C42549DF801202146641C4254A8
:1008A0009DF800202146641C42549DF805202146F5
:1008B000641C42549DF804202046611CCCB2364989
:1008C0000A549DF809202046611CCCB232490A54D2
:1008D0009DF808202046611CCCB22F490A549DF88F
:1008E0000D202046611CCCB22B490A549DF80C20E7
:1008F0002046611CCCB228490A549DF8212020468C
:10090000611CCCB224490A549DF820202046611C69
:10091000CCB221490A549DF825202046611CCCB256
:100920001D490A549DF824202046611CCCB21A4966
:100930000A549DF829202046611CCCB216490A545D
:100940009DF828202046611CCCB213490A549DF81A
:100950002D202046611CCCB20F490A549DF82C2052
:100960002046611CCCB20C490A54201FC8700025D7
:1009700005E00948405D3044C6B2681CC5B2A542D6
:10098000F7DB2046611CCCB203490E5421460248D5
:10099000FFF762FF7FBD0000D70100202DE9FC5F5B
:1009A00006460F4690469946DDF830B00024A24630
:1009B000AA222146641C7A4842542146641C4254AF
:1009C00006F10F00C2B22146641C75484254002251
:1009D0002146641C42547349384606F0D1FE00900B
:1009E00006F016FE00B201909DF805202146641C19
:1009F0006B4842549DF804202146641C42546949C6
:100A0000404606F0BDFE009006F002FE00B20190E6
:100A10009DF805202146641C614842549DF804203D
:100A20002046611CCCB25E490A545E49484606F035
:100A3000A7FE009006F0ECFD00B201909DF80520A5
:100A40002046611CCCB256490A549DF80420204629
:100A5000611CCCB252490A545249584606F090FEE5
:100A6000009006F0D5FD00B201909DF805202046CB
:100A7000611CCCB24A490A549DF804202046611CEE
:100A8000CCB247490A5447490D9806F079FE0090C8
:100A900006F0BEFD00B201909DF805202046611CC5
:100AA000CCB23F490A549DF804202046611CCCB2C8
:100AB0003B490A543B490E9806F062FE009006F04E
:100AC000A7FD00B201909DF805202046611CCCB224
:100AD00033490A549DF804202046611CCCB23049A9
:100AE0000A5430490F9806F04BFE009006F090FD36
:100AF00000B201909DF805202046611CCCB2284927
:100B00000A549DF804202046611CCCB224490A54A2
:100B10002449109806F034FE009006F079FD00B2EA
:100B200001909DF805202046611CCCB21C490A5456
:100B30009DF804202046611CCCB219490A54194979
:100B4000119806F01DFE009006F062FD00B20190C3
:100B50009DF805202046611CCCB211490A549DF82D
:100B600004202046611CCCB20D490A54201FC870D5
:100B7000002506E00A48405D504400F0FF0A681C6A
:100B8000C5B2A542F6DB2046611CCCB2044901F88F
:100B900000A021460248FFF75FFEBDE8FC9F000071
:100BA000D701002000007A442DE9F84306460F469D
:100BB0000024A046AA222146641C1F484254214614
:100BC000641C425405222146641C425400222146E2
:100BD000641C425400969DF801202146641C425436
:100BE0009DF800202146641C425400979DF8012086
:100BF0002146641C42549DF800202046611CCCB262
:100C00000D490A54201FC870002506E00A48405DBF
:100C1000404400F0FF08681CC5B2A542F6DB204640
:100C2000611CCCB2044901F8008021460248FFF75C
:100C300013FEBDE8F8830000D70100202DE9F84F2E
:100C400006460F4690469946DDF828B00024A24695
:100C5000AA222146641C574842542146641C42542F
:100C600002222146641C425400222146641C425444
:100C700000969DF801202146641C42549DF80020F6
:100C80002146641C425400979DF801202146641CB3
:100C900042549DF800202046611CCCB245490A54BC
:100CA000CDF800809DF801202046611CCCB241495E
:100CB0000A549DF800202046611CCCB23D490A54DC
:100CC000CDF800909DF801202046611CCCB2394936
:100CD0000A549DF800202046611CCCB235490A54C4
:100CE000CDF800B09DF801202046611CCCB23149FE
:100CF0000A549DF800202046611CCCB22D490A54AC
:100D00000B9800909DF801202046611CCCB2294927
:100D10000A549DF800202046611CCCB225490A5493
:100D20000C9800909DF801202046611CCCB221490E
:100D30000A549DF800202046611CCCB21D490A547B
:100D40000D9800909DF801202046611CCCB21949F5
:100D50000A549DF800202046611CCCB215490A5463
:100D60000E9800909DF801202046611CCCB21149DC
:100D70000A549DF800202046611CCCB20D490A544B
:100D8000201FC870002506E00A48405D504400F06E
:100D9000FF0A681CC5B2A542F6DB2046611CCCB236
:100DA000044901F800A021460248FFF755FDBDE8BF
:100DB000F88F0000D70100202DE9FE4F82460E4635
:100DC00017469846DDF830B00024A146CDF80480DF
:100DD000AA222146641C484842542146641C4254BD
:100DE00001222146641C425400222146641C4254C4
:100DF0004249504606F0C4FC009006F009FC00B2DF
:100E000002909DF809202146641C3B4842549DF8FD
:100E100008202146641C42543849304606F0B0FC94
:100E2000009006F0F5FB00B202909DF809202146E3
:100E3000641C314842549DF808202146601CC4B20D
:100E40002D4842542D49384606F09AFC009006F091
:100E5000DFFB00B202909DF809202046611CCCB255
:100E600025490A549DF808202146601CC4B2224836
:100E700042549DF807202046611CCCB21E490A54FA
:100E80009DF806202046611CCCB21B490A549DF8EF
:100E900005202046611CCCB217490A549DF8042055
:100EA0002146601CC4B2144842542046611CCCB296
:100EB000114901F800B02146621CD4B20E4A0D98C7
:100EC0005054201F1146C870002506E00A48405DB6
:100ED000484400F0FF09681CC5B2A542F6DB204675
:100EE000611CCCB2044901F8009021460248FFF78A
:100EF000B3FCBDE8FE8F0000D70100200000C8420F
:100F000000B587B001214FF4017001F01DFE4FF4D0
:100F1000004001F0FDFD0220ADF8040000208DF836
:100F2000070001A9174800F009FA1748FFF75CFA13
:100F3000002002908DF80C008DF80D004FF4602019
:100F400004900020059001208DF8180002A90E4899
:100F5000FFF79AFA01210C48FFF73BFA0A48FFF71E
:100F600017FB00BF0848FFF784FA0028FAD10648AB
:100F7000FFF71EFB00BF0448FFF764FA0028FAD110
:100F800007B000BD000801400024014070B50446D0
:100F90000D461CB92946514801F0B6FA50494F4850
:100FA00001F0BEF9012C03D13B21D02001F038FA29
:100FB0004B4800894B49C988401A00B2484908810A
:100FC0000846408947490989401A00B24449488186
:100FD0000846808943494989401A00B240498881BE
:100FE000B1F9000006F050FB064631463E4804F0D9
:100FF000BCFD3B49B1F9020006F046FB064631460E
:101000003A4804F0B2FD3649B1F9040006F03CFB61
:1010100006463146364804F0A8FD3348C0683549D5
:1010200008603248C06848603148C06888602C4910
:10103000B1F9080006F028FB2E49C8602849B1F92B
:101040000A0006F021FB2B4908612549B1F90C0083
:1010500006F01AFB274948612749264800F026FA7E
:10106000204AD168234A906906F092FC064621483E
:101070008169304606F081FC1E498861194A116970
:101080001C4AD06906F084FC06461A48C1693046FD
:1010900006F073FC1749C861C868184906F070FB70
:1010A00006464FF0804106F06BFB1249C8600869A4
:1010B000124906F065FB06464FF0804106F060FBE2
:1010C0000C49086148690D4906F05AFB06464FF085
:1010D000804106F055FB0749486170BD18010020AA
:1010E0002601002020030020DC000020EC0000206E
:1010F000FC00002038030020B020CD3BF6FFF93C77
:1011000000BFFEE710B50BE0002001F087F8C82013
:1011100003F04AFE002001F051F8C82003F044FE1D
:1011200001F020FB0028EFD1012001F047F810BDAD
:1011300010B54FF4003000F02FF801280DD1400415
:1011400000F010F80021054800F0BDFD0121034822
:1011500000F0DDFD01200249086010BD005800408C
:101160005400002000F0805111B10349086001E0F3
:101170000249486070470000040402400000024039
:1011800021B1026842F00102026004E002684FF6F9
:10119000FE731A400260704701460020002201F0F1
:1011A000805313B1054B1A6801E0054B1A6802EA37
:1011B00001030BB1012000E0002070470004024051
:1011C00000000240416070477047000010B54FF4C6
:1011D000804000F035F838B34FF4804000F02AF832
:1011E0004FF48041114800F034F9012808D1002162
:1011F000800702F02AFD0121880702F0F4FC13E0C9
:101200004FF48041094800F024F968B900214FF0FB
:10121000804002F0E8FC4FF0804002F0F0FC044611
:1012200000F0AAFC0249086010BD0000000C01405B
:10123000500000200149086070470000140401407C
:10124000014600200022074B1B6803EA0102054B00
:1012500014331B680B4013B10AB1012000E00020D9
:101260007047000000040140002123498279002AD0
:101270003AD00A46126803689A430B461A600A1D60
:10128000126803689A430B1D1A60027911440A68B8
:1012900003681A430A60184A0832126803689A43BE
:1012A000154B08331A601A1D126803689A43124BD3
:1012B0000C331A604279102A0ED11A1F1268036883
:1012C0001A430D4B08331A601A1D126803681A433B
:1012D000094B0C331A600DE00749427911440A6842
:1012E00003681A430A6005E0027911440A6803683A
:1012F0009A430A60704700000004014030B50022A4
:101300008B071C0F0F2303FA04F20B4B8C1053F8BE
:1013100024309343084C8D1044F8253023468C101C
:1013200053F824308C07240F00FA04F42343024CB2
:101330008D1044F8253030BD080001402DE9F04102
:10134000024600250026002000230024002791F8F3
:1013500003C00CF00F0591F803C00CF0100CBCF1A9
:10136000000F03D091F802C04CEA050591F800C0C7
:10137000BCF1000F31D0146800202BE04FF0010CBD
:101380000CFA00F3B1F800C00CEA03069E4220D12B
:1013900083004FF00F0C0CFA03F7BC4305FA03FC73
:1013A0004CEA040491F803C0BCF1280F06D14FF0B9
:1013B000010C0CFA00FCC2F814C00AE091F803C05A
:1013C000BCF1480F05D14FF0010C0CFA00FCC2F83B
:1013D00010C0401C0828D1D31460B1F800C0BCF183
:1013E000FF0F34DD546800202EE000F1080C4FF0B0
:1013F000010808FA0CF3B1F800C00CEA03069E429B
:1014000021D183004FF00F0C0CFA03F7BC4305FA0F
:1014100003FC4CEA040491F803C0BCF1280F05D189
:1014200000F1080C08FA0CF8C2F8148091F803C017
:10143000BCF1480F07D100F1080C4FF0010808FA81
:101440000CF8C2F81080401C0828CED35460BDE8C8
:10145000F0810246002093680B400BB1012000E0B0
:101460000020704741617047016170470AB1016116
:1014700000E041617047000010B5044607230122D7
:1014800021460948FFF728F801210748FFF785F8AA
:1014900000BF02210448FEF7E3FF0028F9D002480C
:1014A000FEF7DAFF10BD00000024014003B59FB035
:1014B0004FF07C51209806F063F90D90FE4880684B
:1014C0000590FD4800680490059906F059F90790C9
:1014D000F948C0680590F84840680490059906F0FE
:1014E0004FF90690079906F053FA4FF080410890A3
:1014F00006F046F91C90F048C0680590EE488068F8
:101500000490059906F03CF90790EB484068059077
:10151000E94800680490059906F032F906900799A9
:1015200005F00CFF4FF08041089006F029F91D905E
:10153000E14880680490E04880680390049906F0D0
:101540001FF90690DC4840680490DB48406803902F
:10155000049906F015F90590069905F0EFFE4FF095
:101560008041079006F00CF94FF07E51089006F08C
:1015700004FA1E901F98806805901F988068049058
:10158000059906F0FDF807901F98406803901F9892
:1015900040680290039906F0F3F805901F980068E0
:1015A00003901F9800680290039906F0E9F80490F0
:1015B000059905F0C3FE0690079905F0BFFE089057
:1015C00001F07EFA0E901F98006808900E9906F0C0
:1015D000D7F819901F98406808900E9906F0D0F837
:1015E0001A901F98806808900E9906F0C9F81B9011
:1015F0001D9806901B980590069906F0C1F8089072
:101600001E9806901A980590069906F0B9F807906A
:10161000089906F0BDF913901E9806901998059048
:10162000069906F0ADF808901C9806901B98059056
:10163000069906F0A5F80790089906F0A9F9149004
:101640001C9806901A980590069906F099F808904B
:101650001D98069019980590069906F091F8079044
:10166000089906F095F9159013980790934801682A
:10167000079806F085F808909148006801460790A1
:10168000089805F05BFE8E490860149807908B4817
:101690000168079806F074F8089089484068014688
:1016A0000790089805F04AFE85494860159807900C
:1016B00082480168079806F063F8089080488068BF
:1016C00001460790089805F039FE7D498860139817
:1016D000014605907B48006806F052F807901F9875
:1016E000C0687949049006F04BF84FF080410590AE
:1016F00006F046F80690079905F020FE089070481D
:10170000006801460790089805F018FE1690149896
:10171000014605906B48006806F032F807901F9864
:1017200000696949049006F02BF84FF0804105905C
:1017300006F026F80690079905F000FE089060482C
:10174000406801460790089805F0F8FD1790159835
:10175000014605905B48006806F012F807901F9854
:1017600040695949049006F00BF84FF0804105900C
:1017700006F006F80690079905F0E0FD089050483D
:10178000806801460790089805F0D8FD18901898D1
:1017900005904948C0680490059905F0F1FF07904D
:1017A00017980390444880680290039905F0E8FF79
:1017B00005904148406880F000400390169801462B
:1017C0000290039805F0DCFF0490059906F0E0F81C
:1017D0000690079906F0DCF808900D9905F0D0FF07
:1017E000129018980590344880680490059905F087
:1017F000C7FF0790179803902F48C068029003997D
:1018000005F0BEFF0590169803902B4800680290E3
:10181000039905F0B5FF0490059906F0B9F8069014
:10182000079905F08BFD08900D9905F0A9FF11901F
:1018300018980590204840680490059905F0A0FF8D
:101840000790179803901C4800680290039905F0D0
:1018500097FF0590169803901748C0680290039967
:1018600005F08EFF0490059905F068FD0690079934
:1018700006F08EF808900D9905F082FF10901898E8
:1018800005900D4800680490059905F079FF0790D0
:1018900017980390084840680290039905F070FF7C
:1018A00005900548806880F0004003901698014636
:1018B000029003980AE00000CC00002014010020F0
:1018C00060030020100100202E9E0B3A05F058FF07
:1018D0000490059905F032FD0690079905F02EFD5C
:1018E00008900D9905F04CFF0F909E4800680890F5
:1018F000129905F023FD9B4908600846406808904E
:10190000119905F01BFD97494860084680680890CA
:10191000109905F013FD934988600846C068089047
:101920000F9905F00BFD8F49C8600846C068059007
:101930000846C0680490059905F022FF0790894881
:1019400080680390874880680290039905F018FF2B
:101950000590844840680190824840680090019951
:1019600005F00EFF03907F48006801907D480068F5
:101970000090019905F004FF0290039905F0DEFC48
:101980000490059905F0DAFC0690079905F0D6FC5D
:10199000089001F095F80E907248006808900E9932
:1019A00005F0EEFE6F4908600846406808900E9901
:1019B00005F0E6FE6B4948600846806808900E997D
:1019C00005F0DEFE674988600846C06808900E99F9
:1019D00005F0D6FE6349C860084640680146059098
:1019E0004FF0804005F0CCFE06905E48C06801468E
:1019F0000590069805F0C4FE08905A480068014614
:101A000005904FF0804005F0BBFE06905548806879
:101A100001460590069805F0B3FE0790089905F079
:101A2000B7FF0C904F480068014605904FF080408A
:101A300005F0A6FE06904B484068014605900698C2
:101A400005F09EFE089047488068014605904FF0DB
:101A5000804005F095FE06904248C068014605901A
:101A6000069805F08DFE0790089905F067FC0B902D
:101A70003C48C06806903B48C0680590069905F050
:101A80007FFE08903748806804903648806803904D
:101A9000049905F075FE069032484068029031487E
:101AA00040680190029905F06BFE04902D48006893
:101AB00002902C4800680190029905F061FE0390A5
:101AC000049905F065FF0590069905F061FF079000
:101AD000089905F033FC0A901F9840692249079045
:101AE00005F04EFE4FF08041089005F049FE099048
:101AF0004FF07E51099805F00FFF04D31B49099858
:101B000005F00AFE0DD22099099805F039FE0890DB
:101B10001F98006A01460790089805F00FFC1F996E
:101B200008620C9805F0DEFBCDE9020102F056FDDB
:101B30004FF000520E4BCDE9040105F0C3F8CDE99A
:101B4000060104F0E3FD1F998861DDE90A1002F047
:101B50008DFF0849089005F013FE1F99C86121B058
:101B600000BD0000CC000020F6FFF93C000080BF63
:101B7000DCA54C40E12E65422DE9F04104462046AB
:101B800005F082FD0746054905F04CFC0646044970
:101B900005F0F6FD05462846BDE8F08100409C466C
:101BA0000000AA431FB5472147F2305001F041FF22
:101BB0000121082000F0C8FF4FF40040ADF80000FC
:101BC00010208DF8030003208DF8020069461C48A0
:101BD000FFF7B4FB0121082000F0B6FF0121084601
:101BE00000F0B2FF4FF48040ADF8000028208DF8DF
:101BF000030069461248FFF7A1FB0E210120FFF701
:101C00007DFB4FF48040029000208DF80C001020E6
:101C10008DF80D0001208DF80E0002A8FFF724FBBF
:101C200028208DF8040000208DF805008DF80600AE
:101C300001208DF8070001A800F0FEFE1FBD000086
:101C4000000C014010B50122D1030648FFF70EFC3D
:101C50000F2003F0CFF800224FF400410148FFF7B6
:101C600005FC10BD000C014000BFFEE721B1028859
:101C700042F48062028004E002884FF6FF331A408B
:101C80000280704770B50246002400250023002022
:101C9000958A138B1B0445EA030626F07F4404EA69
:101CA00001068E4201D1012000E0002070BD21B16B
:101CB000028842F00102028004E002884FF6FE73BF
:101CC0001A400280704721B1828842F4006282800B
:101CD00004E082884FF2FF731A408280704721B17E
:101CE000828842F48052828004E082884EF6FF733C
:101CF0001A408280704721B1028842F480720280CB
:101D000004E002884FF6FF631A400280704721B159
:101D1000028842F40072028004E002884FF6FF530A
:101D20001A40028070470CB5024600200023019340
:101D3000009300920B0F019321F07F41019B1BB197
:101D4000009B1433009303E0090C009B18330093AD
:101D5000009B1B680B400BB1012000E000200CBD74
:101D60002DE9F04385B004460D460026B146042710
:101D7000DFF8CC80A6884FF6C0700640684600F0B9
:101D800003FFDDF808802F48B8FBF0F01FFA80F958
:101D900046EA0906A68020884FF6FE71084020809A
:101DA00000262949286888420CD828684000B8FBDA
:101DB000F0F087B2042F00DA04273E4309F1010056
:101DC000208427E0E8884BF6FF71884206D1286816
:101DD00000EB4000B8FBF0F087B209E0286800EBA8
:101DE000C00101EB0010B8FBF0F087B247F4804768
:101DF000C7F30B0008B947F0010747F4004006435A
:101E00004FF4967009FB00F04FF47A7190FBF1F0FB
:101E1000401C2084A683208840F001002080268872
:101E20004FF6F5300640A8886989084306432680A6
:101E3000A88929890843208105B0BDE8F083000006
:101E400000127A0040420F00A08601000146088A75
:101E5000C0B2704712B141F0010102E04FF6FE73CB
:101E600019400182704701827047000010B50020C0
:101E70000F4908600F48006820F470400D49086061
:101E80000846006840F44050086000200A49C1F844
:101E9000AC01022002F0AEFF0120054908600220DB
:101EA00002F0A8FF00200449C1F8A80110BD0000FD
:101EB000A8812142040C01400080214210B500207D
:101EC0000F4908600F48006820F470400D49086011
:101ED0000846006840F44050086001200A49C1F8F3
:101EE000AC01022002F086FF0120054908600220B3
:101EF00002F080FF00200449C1F8A80110BD0000D5
:101F0000A8812142040C01400080214270B50546A1
:101F100000241748006820F47040154908600846FE
:101F2000006840F400400860002616E000201149D7
:101F30000860022002F05EFF01200F49C1F8A801ED
:101F40006006040E0B487C38006808B1601CC4B2FF
:101F5000012002F04FFF701CC6B2082EE6DB15B957
:101F6000FFF7ACFF01E0FFF781FF204670BD0000E6
:101F7000040C0140A88121420080214270B5044632
:101F80001548006820F4704013490860084600684E
:101F900040F440500860002010490860002517E018
:101FA000E0090E49091D08606006040E022002F0D7
:101FB00021FF01200A49C1F8A801022002F01AFFFE
:101FC000002006490860022002F014FF681CC5B218
:101FD000082DE5DB70BD0000040C0140A881214202
:101FE0000080214210B50F48006820F470400D4970
:101FF00008600846006840F44050086001200A4923
:1020000008600A49C1F8A801042002F0F3FE00208C
:1020100005490860042002F0EDFE00200349C1F8E4
:10202000A80110BD040C0140AC8121420080214276
:1020300010B50F48006820F470400D49086008464C
:10204000006840F44050086000200A4908600A49CE
:10205000C1F8AC01042002F0CDFE01200549086062
:102060000549C1F8AC01042002F0C4FE10BD000017
:10207000040C0140A88121420080214210B50024B7
:102080001448006820F4704012490860084600684F
:1020900040F40040086001200F49086002F0AAFEE9
:1020A00001200E49C1F8A80102F0A4FE07E0601C5F
:1020B000C4B2FA2C03DDFFF7BBFF012010BD0648B8
:1020C000803800680028F2D10349091F086000BF6A
:1020D000F4E70000040C0140AC8121420080214261
:1020E00010B501F06BFC00F04DF800F037F802F08D
:1020F00039FEFEF705FF4FF4E13004F0B7FA00F0C7
:1021000059FB4FF4A06000F0CFFCFFF74BFD01201E
:1021100003F02EFC012001F065FA012000F0DEFA48
:1021200010BD0146CA1701EB92729210A1EB820218
:1021300092B9642091FBF0F200FB121050B94FF4F9
:10214000C87091FBF0F200FB121008B90120704733
:102150000020FCE70120FAE70020F8E708B501219C
:10216000102000F0F1FC4FF40050ADF800004820C2
:102170008DF8030069460248FFF7E0F808BD00004B
:102180000010014008B50121042000F0DDFC4FF4EF
:102190007060ADF8000010208DF8030003208DF86A
:1021A000020069460448FFF7C9F84FF4706102481D
:1021B000FFF75AF908BD00000008014010B50446B9
:1021C000052C22D2DFE804F003090F151B004FF4A1
:1021D00080711148FFF748F900BF4FF400710E48B5
:1021E000FFF742F900BF4FF480610B48FFF73CF95D
:1021F00000BF4FF400610848FFF736F900BF4FF405
:1022000070610548FFF730F900BF0A2002F0CCFDED
:1022100000BF00BF10BD00000008014010B504461B
:10222000052C22D2DFE804F003090F151B004FF440
:1022300080711148FFF716F900BF4FF400710E4886
:10224000FFF710F900BF4FF480610B48FFF70AF960
:1022500000BF4FF400610848FFF704F900BF4FF4D6
:1022600070610548FFF7FEF800BF0A2002F09CFDF0
:1022700000BF00BF10BD0000000801402DE9F0477D
:10228000054600210F46884600262EE029462048B4
:1022900000F03AF91F491E4800F042F8042421E0FA
:1022A0001C4931F9140005F0EFF982461A4905F08E
:1022B00067FA81464FF0804105F062FA174941F80C
:1022C00024003846414605F0FAF98246134850F892
:1022D0002410504605F032F8814605F0CFFB074642
:1022E0008846641C062CDBDD761C642ECEDB4FF4A6
:1022F0009672002338464146FDF78DFF401F71F16D
:10230000000102DA0120BDE8F0870020FBE70000B1
:102310001801002026010020F6FFF93C6001002092
:102320002DE9F04705460E4600240AE0681C10F827
:10233000140015F8141000EB012000B226F8140068
:10234000641C072CF2DB00245BE0304830F91400F9
:10235000002811DB2D4931F9140005F095F980466C
:102360002B4905F05FF807464FF0814105F008FA68
:10237000284941F8240011E0244931F9140005F0FE
:1023800083F980464FF08E4105F04CF807464FF038
:10239000814105F0F5F91F4941F824001B49201D32
:1023A00031F91000002815DB0A46211D32F9110011
:1023B00005F06AF98146164905F034F88046164959
:1023C00005F0DEF90746002105F0D7FA134941F878
:1023D000240015E00D4A211D32F9110005F054F9D1
:1023E00081464FF08E4105F01DF880460A4905F000
:1023F000C7F90746002105F0C0FA084941F8240052
:10240000641C032CA1DBBDE8F0870000260100203E
:1024100000FEFF46340100200000FA444001002085
:1024200070B504460E46002500213248FEF7A8FE8E
:102430000E213048FEF7C6FE05E06D1C41F28830E3
:10244000854200DD70BD4FF400312B48FFF76BFC77
:102450000028F2D101212848FFF741FC012126483C
:10246000FFF749FC00BF25492348FFF70BFC002874
:10247000F9D0002221462048FFF7ECFC00BF20499C
:102480001D48FFF7FFFB0028F9D001211A48FFF78C
:102490000EFC31461848FFF7E6FC00BF1849891CBE
:1024A0001548FFF7EFFB0028F8D001211248FFF78D
:1024B00022FC00BF11491048FFF7E4FB0028F9D0C7
:1024C000012221460C48FFF7C5FC00BF0B49491CFF
:1024D0000948FFF7D7FB0028F8D001210548FEF78F
:1024E0004FFE01210448FFF7EEFB0020054908607C
:1024F00000BFA7E758000240005800400100030059
:10250000820007005400002070B504460D4635B91E
:102510000E2322463B21D02003F086FA05E00E234D
:1025200022463B21D02003F0F1FA70BD70B505467C
:10253000002420E029466048FFF7E6FF5F495E4837
:10254000FFF7EEFE5E48C0885C490989084400B286
:102550005B49C8800846008958494989084400B247
:10256000574908810846408954498989084400B27E
:1025700053494881641C642CDCDB5148B0F90600E7
:10258000642190FBF1F000B24D49C8800846B0F9D3
:102590000800642190FBF1F000B249490881084627
:1025A000B0F90A00642190FBF1F000B2444948817F
:1025B000002470E029464048FFF7A6FF3F493E4807
:1025C000FFF7AEFE3D4800893D49C988401A00B278
:1025D0003A4908810846408939490989401A00B2B8
:1025E000364948810846808935494989401A00B2F0
:1025F00032498881B1F9000005F046F806463146B7
:10260000304803F0B2FA2D49B1F9020005F03CF868
:10261000064631462C4803F0A8FA2849B1F90400CF
:1026200005F032F806463146284803F09EFA254860
:10263000C068274908602448C06848602348C068CB
:1026400088601E49B1F9080005F01EF82049C860ED
:102650001A49B1F90A0005F017F81D490861174930
:10266000B1F90C0005F010F81949486119491848EA
:10267000FEF71CFF164A9169114AD06804F05EFE0D
:102680000F49C860124AD1690D4A106904F056FE1C
:102690000B490861641C642C8CDB0949C8680E492D
:1026A00004F0C0FE0649C86008690B4904F0BAFE90
:1026B0000349086170BD00001801002026010020B8
:1026C00020030020DC000020EC000020FC000020A3
:1026D00038030020B020CD3B0000C84210B50446AE
:1026E000CCB900226B21D02003F0EAF8072219218F
:1026F000D02003F0E5F806221A21D02003F0E0F8FC
:1027000009221C21D02003F0DBF818221B21D02045
:1027100003F0D6F818E000226B21D02003F00EF968
:1027200007221921D02003F009F906221A21D0200E
:1027300003F004F909221C21D02003F0FFF818222D
:102740001B21D02003F0FAF800BF2046FFF796FDCA
:102750000028FAD02046FFF7E9FE10BD00BFFEE7D3
:10276000704700001CB511A103C9CDE9000110207C
:1027700000F0D8FB05226946302000F027F9052239
:102780006946102000F086F8002406E01DF80400D9
:10279000A52800D003E0601CC4B2052CF6DB00BF06
:1027A000052C01D001201CBD0020FCE7A5A5A5A596
:1027B000A500000000B587B001211C2000F0C4F97D
:1027C0001020ADF818008DF81B0003208DF81A00BA
:1027D00006A92A48FEF7B2FD4FF48040ADF8180074
:1027E00010208DF81B0003208DF81A0006A924483C
:1027F000FEF7A4FD4FF480412148FEF735FE082086
:10280000ADF8180048208DF81B0003208DF81A0041
:1028100006A91C48FEF792FD10211848FEF724FE79
:1028200000F01AFB0021184800F090FB0020ADF8E2
:1028300004004FF48270ADF806000020ADF80800E7
:10284000ADF80A00ADF80C004FF40070ADF80E00C2
:102850003820ADF810000020ADF812000720ADF8C8
:10286000140001A9084800F08BFB0020074908600C
:1028700001200749C1F8B80107B000BD00080140B8
:1028800000100140000C0140003001409001214245
:10289000000022422DE9F04107460D461646002071
:1028A0000A490860384600F013FB8046002405E022
:1028B000FF2000F00DFB2855601CC4B2B442F7DBCA
:1028C0000120024908604046BDE8F081B80122427B
:1028D00070B50446002007490860204600F0F8FA69
:1028E000FF2000F0F5FA054601200349C1F8B801C0
:1028F000284670BDB80122420000224210B50020D7
:102900001449086005221449302000F05FF80522C0
:1029100012492A2000F05AF80121212000F074F811
:102920000121222000F070F81A21242000F06CF818
:102930002821252000F068F80F21262000F064F8F7
:102940000E21202000F060F801200549C1F8900117
:1029500010BD0000900121423E7C0008437C00082D
:102960000000214270B50546102000F0DBFA00207F
:102970001349086020222946A02000F027F80120F2
:102980001049C1F8900100BF0F4800680028FBD132
:102990000720FFF79DFF04462146272000F034F86A
:1029A00004F0100028B1FF21E12000F02DF81020E4
:1029B00070BD04F0200008B12020F9E7FF20F7E700
:1029C00090012142000021420C8121422DE9F04179
:1029D00007460C46154600200A490860384600F0B4
:1029E00077FA8046002605E014F8010B00F070FA33
:1029F000701CC6B2AE42F7DB0120024908604046B7
:102A0000BDE8F081B801224270B505460C460020B1
:102A100007490860284600F05BFA0646204600F0A9
:102A200057FA01200349C1F8B801304670BD0000D3
:102A3000B80122420000224270B5002100230F227B
:102A4000C47804B3154C246804F4E064C4F5E0646D
:102A5000210AC1F10403CA40447804FA03F18478DE
:102A60001440214309010E4C0678A155047804F066
:102A70001F050124AC4005786D11AD0005F1E0257E
:102A8000C5F8004109E0047804F01F050124AC40BA
:102A9000044D0678761145F8264070BD0CED00E037
:102AA00000E400E080E100E002490143024A1160D5
:102AB000704700000000FA050CED00E070470000D0
:102AC0002DE9F05F04464FF07F594FF07C512046CE
:102AD00004F056FE824625462E460C48A0EB6606BC
:102AE00035462946504604F04BFE8346294604F0FD
:102AF00047FE8046494604F040FF0746294604F059
:102B00003FFE05462846BDE8F09F0000DF59375FCD
:102B100001460020034A506820F4404008435060BA
:102B2000704700000010024029B1064AD2690243F2
:102B3000044BDA6104E0034AD2698243014BDA6153
:102B4000704700000010024029B1064A9269024312
:102B5000044B9A6104E0034A92698243014B9A61F3
:102B6000704700000010024029B1064AD2680243B3
:102B7000044BDA6004E0034AD2688243014BDA6016
:102B8000704700000010024030B5002100220024F0
:102B900000232D4D6D6805F00C0121B1042905D0ED
:102BA000082923D105E0294D056022E0274D056065
:102BB0001FE0254D6D6805F47012234D6D6805F416
:102BC0008034022505EB92421CB9214D5543056026
:102BD0000BE01D4D6D6805F400351DB11C4D5543CE
:102BE000056002E0194D5543056002E0174D056090
:102BF00000BF00BF144D6D6805F0F0010909154DC7
:102C00006B5C0568DD4045600F4D6D6805F4E06163
:102C1000090A104D6B5C4568DD4085600A4D6D68A2
:102C200005F46051C90A0B4D6B5C4568DD40C56019
:102C3000054D6D6805F44041890B074D6B5CC56817
:102C4000B5FBF3F5056130BD0010024000127A00BB
:102C500000093D003C0000204C000020024909888A
:102C60008143014A118070470428004070B5002656
:102C70000024002500F07AF806463848B6FBF0F448
:102C800037480088A0423CD035490C8040F2B275EC
:102C900010E02846FFF745FA40B1B4F5B77F02D3FC
:102CA000A4F5B77404E0681C85B206E0A4F26D14C4
:102CB000681C85B2B4F5B67FEBD800BF2948858083
:102CC000002516E027498888FFF72BFA30B1012D3F
:102CD00004D11D2C01D31D3C09E00CE02248405DCD
:102CE000A04203D82048405D241A00E003E0681C9D
:102CF00085B21C2CE6D200BF681C1A498871601C82
:102D0000C8711648B6FBF0F100FB11644FF4616026
:102D1000B4FBF0F0134908704FF46160B4FBF0F1BC
:102D200000FB11403C21B0FBF1F00E4948704FF41C
:102D30006160B4FBF0F100FB11403C21B0FBF1F20B
:102D400001FB1200074988700B46DA799979988857
:102D500000F028F803490872002070BD805101007E
:102D6000600000207C010020547C00080021034802
:102D70000188001F008841EA004070471C2800407D
:102D800001460020064A12880A40D0B2044A121FA7
:102D900012880A4012B108B1012000E000207047FB
:102DA00004280040F0B503460C461546642093FB0A
:102DB000F0F0C6B2642093FBF0F700FB1730C1B20D
:102DC000132E02DD01F16400C1B20846CF1701EBFA
:102DD000977701EBA707BAB2072092FBF0F700FB49
:102DE000172082B25719601EDFF82CC01CF80000B3
:102DF000384482B2CF1701EB9777BF10A1EB87075A
:102E00001FB9032C01DA501E82B2072092FBF0F7A3
:102E100000FB1720C0B2F0BD487C000810B50120AF
:102E2000FFF7AEFF08B1FFF721FF0220FFF7A8FF71
:102E300010B10220FFF712FF0520FFF70FFF00F08F
:102E400001F810BD00BF0348008800F020000028F2
:102E5000F9D070470428004008B5012141F2040070
:102E6000FFF772FEE020ADF8000018208DF8030097
:102E700003208DF8020069461248FEF75FFAE02150
:102E80001048FEF7F1FA00200F4908804FF48270D5
:102E90004880002088800220C880012008814002EC
:102EA0004881382088810020C8810720088207488F
:102EB00000F066F80121054800F048F8FF2000F016
:102EC00007F808BD000801404C0100200030014017
:102ED00070B50546002405E0601CC4B2C82C01DDB5
:102EE000002070BD02210E4800F03CF80028F3D00D
:102EF00029460B4800F042F8002405E0601CC4B2EB
:102F0000C82C01DD0020ECE70121054800F02AF87B
:102F10000028F3D0024800F02EF8C0B2E1E700002C
:102F200000300140084909884FF6C7721140064A2F
:102F3000118011460988014311801146098841F02A
:102F400040011180704700000030014021B102882B
:102F500042F04002028004E002884FF6BF731A403C
:102F6000028070470246002013890B400BB10120FC
:102F700000E00020704701468889704781817047D2
:102F800010B50022028802F441520B884C8823437A
:102F90008C882343CC8823430C8923434C892343C7
:102FA0008C892343CC8923431A430280838B4FF2BD
:102FB000FF74234083830B8A038210BD2DE9FE43F7
:102FC00007460D46BFB9CC20DA4908806FF48270FD
:102FD0004880D9484860D94888604FF20D508881B0
:102FE00040F2CA40C8814DF2DD500882B7204882C5
:102FF0004FF6BD108882012F7CD165B9012302AA4A
:103000001021EC2002F010FD01236A461121EC2072
:1030100002F00AFD0BE0012302AA1021EC2002F0CD
:1030200075FD01236A461121EC2002F06FFD9DF829
:1030300008409DF80060200140EA1610BD49088054
:103040000846008800F4006028B10846B0F9000086
:1030500040F4704002E0B748B0F9000000B2B54952
:10306000088065B9012302AA1121EC2002F0DCFCE2
:1030700001236A461221EC2002F0D6FC0BE001236A
:1030800002AA1121EC2002F041FD01236A4612211F
:10309000EC2002F03BFD9DF808409DF8006004F034
:1030A0000F0046EA0020A34948800846408800F403
:1030B000006028B10846B0F9020040F4704002E018
:1030C0009C48B0F9020000B29A4948809DB901239A
:1030D00002AA1321EC2002F0A7FC012301AA14216B
:1030E000EC2002F0A1FC01236A461521EC2002F03D
:1030F0009BFC12E01BE1012302AA1321EC2002F049
:1031000005FD012301AA1421EC2002F0FFFC01239C
:103110006A461521EC2002F0F9FC9DF808409DF864
:1031200004809DF80060200340EA081040EA261061
:10313000804948600846406800F4002020B10846F5
:1031400040687F49084301E07A484068794948600F
:1031500095B9012302AA1521EC2002F065FC012398
:1031600001AA1621EC2002F05FFC01236A46172118
:10317000EC2002F059FC11E0012302AA1521EC20F9
:1031800002F0C4FC012301AA1621EC2002F0BEFCCF
:1031900001236A461721EC2002F0B8FC9DF8084094
:1031A0009DF804809DF80060200440EA0820304328
:1031B000604988600846806800F4002020B1084615
:1031C00080685F49084301E05A488068594988602F
:1031D00065B9012302AA1821EC2002F025FC012385
:1031E0006A461921EC2002F01FFC0BE0012302AA21
:1031F0001821EC2002F08AFC01236A461921EC20F8
:1032000002F084FC9DF808409DF8006046EA042026
:1032100000B24849888165B9012302AA1A21EC202D
:1032200002F002FC01236A461B21EC2002F0FCFBA9
:103230000BE0012302AA1A21EC2002F067FC012313
:103240006A461B21EC2002F061FC9DF808409DF8C5
:10325000006046EA042000B23649C88165B90123FE
:1032600002AA1C21EC2002F0DFFB01236A461D218B
:10327000EC2002F0D9FB0BE0012302AA1C21EC2078
:1032800002F044FC01236A461D21EC2002F03EFCC2
:103290009DF808409DF8006046EA042000B22549E8
:1032A000088265B9012302AA1E21EC2002F0BCFBB2
:1032B00001236A461F21EC2002F0B6FB0BE001233C
:1032C00002AA1E21EC2002F021FC01236A461F21E4
:1032D000EC2002F01BFC9DF808409DF8006046EAD7
:1032E000042000B21349488265B9012302AA2021B3
:1032F000EC2002F099FB01236A462121EC2002F028
:1033000093FB0BE0012302AA2021EC2002F0FEFB3C
:1033100001236A462121EC2002F0F8FB9DF80840C9
:103320009DF8006046EA042000B202498882BDE8A8
:10333000FE83000088010020553A01000F2AFFFF9C
:103340000000F0FF2DE9FE4F002400250026002795
:10335000A0463E49C86804F097F981463B49486851
:1033600004F092F98246494604F05CF80446374975
:10337000886804F089F981463449086804F084F9C2
:103380008246494604F04EF805463149B1F9140029
:1033900004F07AF92946009004F0F2F983462C49AA
:1033A000B1F9100004F070F95946019003F0C6FF1E
:1033B0008246294604F0E4F981462549886804F0EC
:1033C00063F94946029003F0B9FF06462049B1F976
:1033D000120004F059F92946019004F0D1F982460F
:1033E0001B49B1F90E0004F04FF98346514603F032
:1033F000A5FF81462946204604F0C2F949460290BD
:1034000004F0BEF907461249B1F90C0004F03CF98A
:103410002146029004F0B4F982463146284604F071
:10342000AFF90B490290486804F02EF90190029917
:1034300003F084FF8346514603F080FF81463946FE
:1034400003F07CFF80464046BDE8FE8FA0010020CF
:103450008801002038B504460020009034B90323C9
:103460006A461946EC2002F0DFFA05E003236A46BB
:103470001946EC2002F04AFB9DF8000000049DF87C
:10348000011040EA01209DF8021008431C494860E1
:103490000846406800F4000020B10846406840F04B
:1034A0007F4001E0164840681549486034B903235D
:1034B0006A460021EC2002F0B7FA05E003236A46D1
:1034C0000021EC2002F022FB9DF8000000049DF892
:1034D000011040EA01209DF80210084308490860E5
:1034E0000846006800F4000020B10846006840F07B
:1034F0007F4001E0024800680149086038BD0000D3
:10350000A00100202DE9F14F86B000BF00BF00BF31
:1035100000BF2A492A48CDE904102A49086A03F065
:10352000E1FE04460022284B03F0DEF9CDE902015A
:103530000698FFF78FFFFFF705FF2249086202A8F0
:103540000FC803F0D1F98046204A214B02F08CFBD2
:1035500006464FF066321F4B03F0B4FB4FF0663265
:103560001C4BCDE9000103F0D3FD04461A4A1B4B66
:1035700003F0BAF9824603F0C9F812494861486974
:10358000174904F0FDF8064604F042F807460D49D5
:103590000869134904F0F4F8064604F039F8381ABB
:1035A00005B2284604F070F804460D4903F03AFFCE
:1035B0000449886107B0BDE8F08F0000CDCCCCCCC9
:1035C000CC545940A001002000408F40739B82A042
:1035D0007A5AC83F6602724039B4C876BE9F7ABF35
:1035E00000007A4438B5044600BF34B901236A4666
:1035F0000821EC2002F018FA05E001236A460821B0
:10360000EC2002F083FA9DF8000000F08000802892
:10361000EBD121460120FFF7D1FC00BF34B90123D3
:103620006A460821EC2002F0FFF905E001236A4612
:103630000821EC2002F06AFA9DF8000000F040003A
:103640004028EBD1234620228021002000F024F8DE
:10365000234608222021012000F01EF82CB9072261
:103660000821EC2002F02CF904E007220821EC20CC
:1036700002F064F940F6B83001F096FB2046FFF7FF
:1036800041FF2046FFF73EFF0248406901490861BB
:1036900038BD0000A00100202DE9F84306460F4682
:1036A00015461C46002000908046102F22D008DCD2
:1036B000012F38D0022F0BD0042F0FD0082F31D17B
:1036C00012E0202F1CD0402F20D0802F2AD123E0C1
:1036D0009DF8000040F02000009025E09DF80000DB
:1036E00040F0400000901FE09DF8000040F06000B6
:1036F000009019E09DF8000040F08000009013E079
:103700009DF8000040F0A00000900DE09DF8000042
:1037100040F0C000009007E09DF8000040F0E0009D
:10372000009001E000BF00BF00BF102D28D008DCD2
:10373000012D46D0022D0BD0042D11D0082D3FD1E4
:1037400016E0202D24D0402D2AD0802D38D12FE016
:103750009DF8000040F0010000904FF4C01833E0E5
:103760009DF8000040F0020000904FF460182BE03C
:103770009DF8000040F0030000904FF4F00823E0B3
:103780004FF478389DF8000040F0040000901BE0F2
:103790004FF4FC289DF8000040F00500009013E075
:1037A0004FF47E289DF8000040F0060000900BE0EA
:1037B0004FF4FF189DF8000040F00700009003E070
:1037C00000BF4FF4002800BF00BF0EBB3448C0F854
:1037D000088034B99DF800200621EC2002F070F832
:1037E00005E09DF800200621EC2002F0A7F8082D46
:1037F0001DDD74B901236A460921EC2002F014F999
:103800009DF8000040F004020921EC2002F058F875
:103810000DE001236A460921EC2002F077F99DF8BA
:10382000000040F004020921EC2002F087F8012E8C
:1038300034D11B48C0F80C8044B99DF8000040F01A
:1038400080020721EC2002F03BF807E09DF8000021
:1038500040F080020721EC2002F070F8082D1DDDF9
:1038600074B901236A460921EC2002F0DDF89DF8C5
:10387000000040F008020921EC2002F021F80DE0E0
:1038800001236A460921EC2002F040F99DF800006E
:1038900040F008020921EC2002F050F8BDE8F8835E
:1038A000A0010020704710B500F002F810BD000024
:1038B0000CB50020019000903348006840F480303F
:1038C0003149086000BF3048006800F400300090C3
:1038D0000198401C0190009818B90198B0F5A06FAC
:1038E000F1D12948006800F4003010B101200090A7
:1038F00001E0002000900098012843D1234800688F
:1039000040F01000214908600846006820F00300DC
:1039100008600846006840F0020008601A484068E5
:10392000194948600846406848600846406840F4C5
:10393000806048600846406820F47C104860084673
:10394000406840F4E81048600846006840F0807025
:10395000086000BF0C48006800F000700028F9D033
:103960000948406820F0030007494860084640685D
:1039700040F00200486000BF0348406800F00C00BF
:103980000828F9D10CBD00000010024000200240C0
:10399000042808D14FF0E021096941F004014FF0FB
:1039A000E022116107E04FF0E021096921F00401F4
:1039B0004FF0E022116170477047000010B51348C6
:1039C000006840F00100114908600846406810494D
:1039D00008400E494860084600680E4908400B49F7
:1039E00008600846006820F48020086008464068A7
:1039F00020F4FE0048604FF41F008860FFF753FF7B
:103A00004FF000600449086010BD00000010024043
:103A10000000FFF8FFFFF6FE08ED00E010B5012101
:103A2000880700F0EFF818B10121880700F0D8F8F6
:103A300010BD7FB505460C4601210846FFF774F816
:103A4000ADF80850ADF804400020ADF80A00ADF81C
:103A5000060001A94FF0804000F0FAF8012211465B
:103A6000900700F0E0F81C208DF8000002208DF88F
:103A700001008DF8020001208DF803006846FEF772
:103A8000DBFF7FBD10B50121314800F0BBF80128F4
:103A90005CD101212E4800F0A3F801202D490860D7
:103AA000FEF7D0F82C480068B0F57A7F1FDD2B496F
:103AB000086803F0C9FD84B2204600F051F8274998
:103AC000486803F0C1FD84B2204600F059F823494C
:103AD000886803F0B9FD84B2204600F061F81F4900
:103AE000C86803F0B1FD84B2204600F069F81A48B6
:103AF0000068B0F5C87F0FD14FF4AF7000F030F818
:103B00004FF4AF7000F03CF84FF4AF7000F048F89D
:103B10004FF4AF7000F054F80F480068B0F5487FDC
:103B20000FD14FF4167000F01BF84FF4167000F030
:103B300027F84FF4167000F033F84FF4167000F0C9
:103B40003FF805480068401C0349086010BD0000AC
:103B5000000400405C00002058000020A004002069
:103B600010B5044640F2B630844200DB044604EB54
:103B7000C40081B2014800F05FF810BD00080040A9
:103B800010B5044640F2B630844200DB044604EB34
:103B9000C40081B2014800F051F810BD0008004097
:103BA00010B5044640F2B630844200DB044604EB14
:103BB000C40081B2014800F043F810BD0008004085
:103BC00010B5044640F2B630844200DB044604EBF4
:103BD000C40081B2014800F035F810BD0008004073
:103BE000CA430282704721B1028842F0010202807A
:103BF00004E002884FF6FE731A40028070470146C7
:103C0000888C704730B50246002000230024158AB6
:103C100005EA0103958905EA010413B10CB10120FD
:103C200000E0002030BD1AB183890B43838102E09C
:103C300083898B43838170478186704701877047F2
:103C400081877047A0F8401070478184704700005A
:103C5000002202881D4B98420ED01D4B98420BD07B
:103C6000B0F1804F08D01B4B984205D01A4B9842B8
:103C700002D01A4B984204D14FF68F731A404B88EA
:103C80001A43174B984207D0164B984204D04FF670
:103C9000FF431A40CB881A4302808B8883850B88A8
:103CA00003850A4B98420BD0094B984208D00E4B23
:103CB000984205D00D4B984202D00D4B984201D14D
:103CC0000B7A03860123838270470000002C014099
:103CD000003401400004004000080040000C004097
:103CE000001000400014004000400140004401402A
:103CF0000048014010B540F225511D4800F04AF837
:103D000010B31B4800F002F9C4B21A48008800F44E
:103D10000040C8B91748008800F4804060B10A2C00
:103D200003D000201349088020E01248008840F4A6
:103D300000401049088019E00D2C06D10D4800887C
:103D400040F480400B49088010E00A480088C0F326
:103D50000D0009490C5407480088401C054908809B
:103D600008460088C72801DD0020088010BD00003B
:103D700000380140740000203B02002021B18289FC
:103D800042F40052828104E082894DF6FF731A40AA
:103D90008281704770B50246002400230025002070
:103DA00040F66A16B14200D100BFC1F3421501F0DE
:103DB0001F03012606FA03F3012D02D19689334031
:103DC00006E0022D02D1168A334001E0968A334084
:103DD0000C12012606FA04F41688344013B10CB113
:103DE000012000E0002070BDF0B50346002400264D
:103DF0000025002040F66A17B94200D100BF1846DE
:103E0000C1F3421401F01F06012707FA06F5012C41
:103E100001D10C3004E0022C01D1103000E014304C
:103E20001AB107682F43076002E00768AF430760D5
:103E3000F0BD00002DE9F04786B005460E4600248F
:103E4000A24600BFA1460027B08900B100BF2F469F
:103E50002C8A4CF6FF700440F08804432C82AC8915
:103E60004EF6F3100440B088318908437189084345
:103E70000443AC81AC8A4FF6FF400440B089044350
:103E8000AC8201A8FEF780FE1F48874202D1DDF810
:103E900010A001E0DDF80CA0A88900F4004040B1BA
:103EA0000AEBCA0000EB0A1031684900B0FBF1F8D8
:103EB00007E00AEBCA0000EB0A1031688900B0FB8A
:103EC000F1F86420B8FBF0F004012009642101FB43
:103ED0001089A88900F4004040B1322000EBC900ED
:103EE000B0FBF1F000F00700044308E0322000EBE3
:103EF00009106421B0FBF1F000F00F0004432C81A5
:103F000006B0BDE8F087000000380140014688880F
:103F1000C0F30800704700BFFEE7490050EAC12027
:103F200018BF04204A0D18BF40F0010040F2FF7294
:103F3000B2EB515F08BF40F00200012808BF052026
:103F400070474100080218BF04200A0E18BF40F055
:103F500001004FF07F4232EA010108BF40F0020049
:103F6000012808BF052070472DE9F74F144694B08B
:103F70000021C4E902111599079121F00045C949B2
:103F80008D4206DC1599C4E9000117B00020BDE898
:103F9000F08FC549DFF814A3A9423CDD0799C44E50
:103FA0000029C44FC44A1599534619DD03F0B0F8EF
:103FB000554506D0C14AC24B03F0AAF8C4E9000136
:103FC0000AE04FF0D352BE4B03F0A2F832463B4614
:103FD00003F09EF8C4E9000117B00120BDE8F08F9E
:103FE00002F0C6FB554506D0B44AB54B02F0C0FB03
:103FF000C4E900010AE04FF0D352B14B02F0B8FB24
:1040000032463B4602F0B4FBC4E9000117B04FF062
:10401000FF30BDE8F08FAB49A942159978DB21F05C
:10402000004183468846A84AA84B02F04BFE002276
:10403000A74B02F09DFB02F0AFFD099002F0DBFD03
:1040400006460F469C4A534602F03CFE43465A46FB
:1040500002F06CFF80468A46984A994B30463946B2
:1040600002F030FE2A0D01250B924246534602F023
:104070005DFF032DC4E9000139D00B98C1F30A514B
:10408000401A05EB45111139814230DA9148C34697
:10409000784400EB0510CDF80CA00C90D0E900237B
:1040A0003046394602F00EFE02460B460491069059
:1040B0005846039903F02CF880468A4602460B4680
:1040C0005846039903F024F8049B069A03F020F85D
:1040D00083460C9803913946D0E90223304602F01A
:1040E000F1FD5A46039B03F013F86D1CBDE70798DA
:1040F0000028A2BF099817B0BDE8F08F616881F071
:1041000000416160099817B04042BDE8F08FFFE7B9
:1041100084461598C1F31301C0F30A50A0F2F5309C
:104120004FEA601800F01F06C6F12000139000202F
:104130000690079041F4801E05206D4676B1664AD0
:1041400008EB00017A4452F8213002EB8101B340C0
:104150004A68139922FA01F1194305E05F4908EB17
:104160000002794451F82210A1FB0E27A1FB0C1389
:104170001A449A4234BF0123002303EB070A05EBDC
:104180008003D3E901B70F448F4234BF01210021DE
:1041900093448B4411B1934502D903E0934501D276
:1041A000012100E00021C3E901B7514445F8201086
:1041B000011EA0F10100C1DC0298059F00F1005032
:1041C000800F12900298DDE90356800002F013FD83
:1041D000834628460D9102F025FD6FF01D0203F085
:1041E000C2FCCDE90E01304602F01CFD6FF03D022D
:1041F00003F0B9FC80468A46384602F013FD6FF0A2
:104200005D0203F0B0FC074642465346119102F0AE
:10421000AFFADDE90E2302F0ABFA5A460D9B02F02D
:10422000A7FA00250E465A4628460D9B02F070FF5D
:10423000DDE90E2302F06CFF4246534602F068FFB0
:104240003A46119B02F072FEDFF898A0244A5346CA
:1042500002F038FD07468846234A244B314628465B
:1042600002F030FD3A46434602F082FA074688469D
:104270004FF0A84253463146284602F023FD3A4605
:10428000434602F075FA159A12F0004F04D0129AC4
:1042900081F0004152421292C4E90001129817B015
:1042A000BDE8F08FFB21E93F7CD90240FB21F93FBB
:1042B0007370032E8A19A33B000040543163621AC5
:1042C00061B4D03DFB21394183C8C96D305FE43F03
:1042D0000000E03F743D0000F03C0000D23C0000D4
:1042E000182D4454FB21F93D3326A611460B113CF1
:1042F0002DE9FF4D21F0004807460C46B8F1795FE3
:1043000008DA02F049FC002801BF0020324904B05D
:10431000BDE8F08D3A4623461046194602F0D2FC1D
:10432000054602462D480E460B460621784400F00D
:104330005DF82A46334602F0C5FCDDE902238246D9
:104340008B463846214602F0BDFC04460F465246D5
:104350005B462846314602F0B5FC22463B4602F059
:10436000D7FE07468A464FF0FF322846314603F013
:10437000FAFB1B4A90450ADA3A46534602F0C8FE59
:1043800004B00022BDE8F04D134B02F0CFBD154A3A
:104390004245A8BFA8F500154FF00004B8BF124D64
:1043A00022462B4602F0B4FE0646884622462B469D
:1043B0000020094902F0ACFE04460D463A46534639
:1043C0003046414602F0A4FE04B022462B46BDE82A
:1043D000F04D02F0ABBD00000000F03FA03A00003D
:1043E0003333D33F0000E93F0000D23F2DE9F041D5
:1043F0004F1E00EBC7010446D1E9000115461E46D9
:1044000037F006020DD02A46334602F05BFC7F1ED1
:1044100004EBC703D3E9002302F0AAF937F0060240
:10442000F1D1022F25D0042F13D0062F18BFBDE8DD
:10443000F0812A46334602F045FCD4E90A2302F013
:1044400097F92A46334602F03DFCD4E9082302F0EE
:104450008FF92A46334602F035FCD4E9062302F0F0
:1044600087F92A46334602F02DFCD4E9042302F0F2
:104470007FF92A46334602F025FCD4E9022302F0F4
:1044800077F92A46334602F01DFCD4E90023BDE843
:10449000F04102F06DB900002DE9FF4D054621F015
:1044A000004084B00C46B0F1795F0BDA2846FFF784
:1044B00034FD042808BF00F07FF8284608B02146E4
:1044C000BDE8F08D2A460B46104602F0FBFB06467F
:1044D0000F462A46234602F0F5FB804626488A46C8
:1044E00032463B4605217844FFF780FF834610980B
:1044F000029160B3214A224B4046514602F0E2FB52
:10450000CDE900015A4640465146029B02F0DAFBD3
:1045100082468846DDE906014FF0FF3203F023FBB7
:104520005246434602F0F4FD32463B4602F0CAFBD7
:10453000DDE9062302F0ECFDDDE9002302F0E8FDF1
:1045400008B02A462346BDE8F04D02F0EFBC0B460A
:104550005A463046394602F0B5FB084A084B02F08D
:1045600007F94246534602F0ADFB08B02A462346FF
:10457000BDE8F04D02F0FCB8E6390000495555554C
:104580005555C5BF002213461046014902F0ACB98B
:104590000000F03F012203F0E6BA02F0E9B8002281
:1045A00013461046114602F09FB940F20132002036
:1045B0004FF0E04103F0D7BA024A0020110703F0A0
:1045C000D2BA000001FDFFFF02F0B8BE6FF05E013D
:1045D000080703F0F6BA014600BF70472DE9F04D19
:1045E0008D4F21F0004A86B005460C46BA452ADBBD
:1045F000AAEB070028430AD08848824501DC1AD17B
:10460000CDB106B02846BDE8F04DFFF7C3BF844AE0
:10461000844B284602F056FB07460E46824A834BDF
:104620002846214602F04EFB06B03A463346BDE826
:10463000F04D02F09DB80120FBF791FE06B0BDE8F9
:10464000F04DFFF7ACBF7A48824542DABAF1795FA4
:104650000BDA2846FFF761FC042808BFFFF7ACFF20
:10466000284606B02146BDE8F08D2A460B46104686
:1046700002F028FB834602466E480E460B46062192
:104680007844FFF7B3FE5A46334602F01BFB8046E0
:1046900069488A465A46334604217844FFF7A6FE05
:1046A0005A46334602F00EFB00223B4602F060F809
:1046B00002460B464046514602F016F92A4623466A
:1046C00002F000FB06B02A462346BDE8F04D02F09A
:1046D0004FB8284624F0004100223D463B4602F0F8
:1046E00025FC4FF0FF3203F03EFA064602465348DF
:1046F0000F460B4606217844FFF778FE32463B46CC
:1047000002F0E0FACDE900014D4832463B46042173
:104710007844FFF76BFE32463B4602F0D3FA0022A4
:104720002B4602F025F8834602913046394601F0C7
:1047300077FF804643480D46504517DCDDE9000110
:104740005A46029B02F0D0F842462B4602F0BAFAD3
:1047500042462B4602F00CF8012203F004FA304ADC
:10476000304B02F0D5FC304A304B4CE04FF0000AA1
:1047700052460B46404601F0FBFFCDE9031052467E
:104780002B461046194602F09DFA32463B4602F08F
:10479000CDFBDDE9033202F0A7F806460F46DDE95E
:1047A00000015A46029B02F09FF8834600910122C5
:1047B0003046394603F0D7F9194A1A4B02F0B6FBD6
:1047C00006460F4601224046294603F0CCF95A46D8
:1047D000009B02F077FA32463B4602F099FC06460F
:1047E0000F4601225046294603F0BDF90E4DDFF871
:1047F00058802A46434602F099FB32463B4602F077
:1048000095FB2A46434602F091FB002CD8BF81F06D
:10481000004106B0BDE8F08D0000F03F0000F07FE1
:10482000075C143326A6913C182D4454FB21F93F14
:104830000000E03FDC350000F23500006635000086
:104840007C3500003333EF3FFB21E93F2DE9F84F82
:1048500004460D4621F0004000917349814211DC6D
:104860007249884201DC06D12CB120462946BDE8B8
:10487000F84FFFF78FBE6E48002DCCBF6D496E49D3
:10488000BDE8F88F6D49814211DD6D498142D8BF85
:104890004FF0FF366DDD20462946FFF73EFB04282A
:1048A00008BFFFF789FE20462946BDE8F88F654915
:1048B000654F25F00045814233DD6449814219DDB1
:1048C000002632464FF080432046294601F050FF33
:1048D00080468A4601222046294603F044F90022F8
:1048E0003B4602F015FC4246534601F0FDFF0446EC
:1048F0000D463EE001260022BA463B4620462946A8
:1049000001F036FF80460F460022534620462946D6
:1049100002F0FEFB42463B4601F0E6FF04460D4630
:1049200027E04B4981421BDDDFF828A10226002247
:1049300053462046294602F0C5F900223B4601F0C5
:1049400017FF80460F46002253462046294602F0B4
:10495000DFFB42463B4601F0C7FF04460D4608E038
:10496000032622462B4600203B4901F0BDFF0446AA
:104970000D4622462B461046194602F0A3F98B46F7
:10498000824602460B4602F09DF90746024633482E
:1049900088460B4606217844FFF728FD52465B46C1
:1049A00002F090F982462E488B463A46434605214E
:1049B0007844FFF71BFD3A46434602F083F902466E
:1049C0000B46002E504659460CDA01F0D1FE224625
:1049D0002B4602F077F901B022462B46BDE8F04F96
:1049E00002F0A4BA01F0C4FE22462B4602F06AF996
:1049F0001C4A7A4402EBC603D3E9002302F088FB89
:104A000022462B4602F084FB174A7A4402EBC60387
:104A1000D3E9002302F08AFA009A002AB8BF81F095
:104A20000041BDE8F88F0000000010440000F07F56
:104A3000182D4454FB21F93FFB21F9BF0000DC3F56
:104A40000000203E0000F33F0000F03F0000E63F82
:104A5000008003400000F83F0000F0BF7E330000FC
:104A60003C330000DA320000A23200002DE9F047AA
:104A70004FF0684202EB40030C460546B3F1654F28
:104A80003CBF02EB4102B2F1654F7CD2C0F3C75389
:104A9000C1F3C7529A1A1B2A06DD10F0004F14BF4B
:104AA00076487748BDE8F08712F11A0F17DA11F04F
:104AB000004F06D010F0004F0CBF72487248BDE89E
:104AC000F0872146284602F0ADFC0446FFF739FA8C
:104AD000042808BFFFF77AFD2046BDE8F0874200B2
:104AE000B2EB410F25D910F0004F19BF674F684E48
:104AF000684F694E224685F0004415460A4680F00C
:104B0000004110460A1A5200B2F1807F40D248405C
:104B10006249DFF88CA110F0004F18D04FF03F48E9
:104B2000384602F035FF07465146304602F030FF66
:104B300017E011F0004F04BF00263746E2D010F016
:104B4000004F19BF574F584E584F594EDAE74FF0A4
:104B50007C58384602F0F2FB07465146304602F0D8
:104B6000EDFB06464146284602F00AFE214602F0C9
:104B7000E5FB82462146404602F002FE294602F04D
:104B8000FCFE514600E037E002F04CFC044604E035
:104B90002146284602F046FC0446014602F0F0FD9C
:104BA0008046444902F0ECFD434902F0C7FB414610
:104BB00002F0E6FD414902F0C1FB414602F0E0FD92
:104BC0003F4902F0BBFB414602F0DAFD3D4902F0ED
:104BD000B5FB05464146204602F0D2FD294602F0CB
:104BE000CFFD314602F0AAFB214602F0A7FB394671
:104BF000BDE8F04702F0A2BB4FF07F42B2EB400F9E
:104C000028BFB2EB410F03D2BDE8F047FFF7DCBC91
:104C100040EA01035B0008BF44F0FF410AD0B2EB59
:104C2000400F08BFB2EB410F06D125F0804024F0C1
:104C3000804105460C4629E7B2EB400F12BF5FEA00
:104C4000410245F0FF4004F000413FF41FAF4A002D
:104C500092EA40033FF51AAF002AACBF4FF09F46DF
:104C60004FF03E56314602F08BFD05463146204658
:104C700002F086FD04462846214607E7DB0FC9BF40
:104C8000DB0FC93FDB0F4940DB0F49C00000C9BF44
:104C900022AAFDB90000C93F22AAFD390060ED3EFD
:104CA000C30ACE37000049C022AA7DBA000049409D
:104CB00022AA7D3A2DAD65BD8FB8D53D0FB511BE89
:104CC00061C84C3EA8AAAABE00B5244B21F0004200
:104CD00087B09A42DCBF0022134629DD204B9A425E
:104CE00008D140B94FF00100FBF739FBFFF757FC43
:104CF00007B000BD03DBFFF74DFC07B000BD02AA03
:104D0000FFF732F910F0030104BF0DF1080C9CE825
:104D10000F000DD0012001290ED0022914D00DF171
:104D2000080C00909CE80F00FFF7B6FB07B000BD31
:104D3000FFF7DEFA07B000BD0DF1080C00909CE80B
:104D40000F00FFF7A9FB05E00DF1080C9CE80F0030
:104D5000FFF7CEFA07B081F0004100BDFB21E93F2B
:104D60000000F07F10B56FF00400FEF711FE0A4856
:104D700000680A49B0FBF1F009490870084600785C
:104D800000EB4001C1EBC0104FF6FF7101EAC0001B
:104D90000449088010BD00002800002000127A009D
:104DA0006A0000206C0000200146114A12884A4324
:104DB0004FF0E0235A6100229A611A46126942F0CC
:104DC00001021A6100BF4FF0E022106900F00102F9
:104DD0001AB100F48032002AF5D04FF0E0221269B7
:104DE00022F001024FF0E0231A6100229A6170471D
:104DF0006C0000200146114A12784A434FF0E0232C
:104E00005A6100229A611A46126942F001021A613F
:104E100000BF4FF0E022106900F001021AB100F467
:104E20008032002AF5D04FF0E022126922F0010210
:104E30004FF0E0231A6100229A6170476A00002057
:104E40002DE9F04F8BB00020089009905E48079044
:104E50004FF07E5006908146002432E05B4951F8C5
:104E600024004FF07E5102F057FD02D20898401CFA
:104E70000890564951F8240002F034FA07464FF0E2
:104E80003332534B01F0E2FE02D20998401C0990E4
:104E90004E4951F82400079902F03EFD04D2254600
:104EA0004A4850F824000790484951F824000699D0
:104EB00002F032FC04D22646444850F82400069002
:104EC000641C042CCADB0898012845DB3F4951F8D3
:104ED000250002F007FA07464FF033323C4B02F050
:104EE00017F902460B46CDE904014FF06630394907
:104EF00001F0FAFC824601F009FC8146002424E01E
:104F0000324951F8240002F0EDF982464FF0333275
:104F10002F4B02F0FDF807468846484602F0E2F9BA
:104F20003A464346CDE9000101F0CCFE4FF0333262
:104F3000274BCDE9020101F01BFCCDE9040101F092
:104F4000E5FB224941F82400641C042CD8DB4FF017
:104F50007E501E4941F825000998012831DB1B4885
:104F600050F826104FF07E5002F012FD059002F02E
:104F7000B9F907463A460B464FF06630154901F03D
:104F8000B3FC824601F0C2FB8146002413E00F48C7
:104F900050F824104FF07E5002F0FAFC804649464B
:104FA00002F0EEFB07464FF07E5102F0E6FC0749A7
:104FB00041F82400641C042CE9DB0348034941F850
:104FC00026000BB0BDE8F08F9A99993EA00400200E
:104FD0003333D33F6666E63F03B595B002201190A8
:104FE000DDE91501FBF7D2FF0020139007E0002157
:104FF000FE4A139842F820101398401C13901398FF
:105000000428F4DBFA4880680490F948806803902B
:10501000049902F0B5FB059002F064F9CDE90601B0
:1050200001F0FEFACDE90A01F14840680290F0482B
:1050300040680190029902F0A3FB0490EC480068DC
:105040000290EB4800680190029902F099FB0390EE
:10505000049902F073F9059002F044F9CDE90601D4
:1050600001F0DEFACDE90801DDE90A2301F03CFC9C
:10507000CDE90C01FFF7EAFBCDE90E01DDE90E01F8
:10508000FFF722FECDE90A0101F040FB0D90D84860
:10509000406A01460C900D9802F072FBD4494862B8
:1050A0000020D449C860C8608860D3488861084639
:1050B000C068D24AD2490D9000F083FDCD49C86046
:1050C00008460069CD4ACE490D9000F07AFDC949E5
:1050D000086108464069002211460D9000F071FDFC
:1050E000C449486108468069002211460D9000F0CD
:1050F00068FDC049886111980A2801DD0A201190D5
:105100001198401EBF490968081A06D41198401E1C
:10511000BC490968081A129007E01198401EB94965
:105120000968401AC0F10B001290B6480068C0EB45
:10513000C000B54901EB800080690D90B3488069DB
:105140000C900D9902F024FCB0498861A848406A8F
:105150000D90A84880690C900D9902F019FCA9499E
:105160000968C1EBC101A84A02EB81018861A54829
:105170000068C0EBC000114601EB800080690D9013
:10518000A24880690C900D9902F0D8F89F49886177
:105190001298C0EBC0009C4901EB800080690A9026
:1051A00098480068C0EBC00001EB8000806909905E
:1051B0000A9902F0EDFB0B909548806801460A9031
:1051C0000B9802F0DDFA0D909048806909909048A4
:1051D00040680890099902F0D3FA0B90894800685A
:1051E000C0EBC001884800EB8100806909908848C5
:1051F00000680890099902F0C3FA0A900B9902F02E
:105200009DF80C900D9902F099F81090002211462B
:10521000109800F0D6FC1090002013900EE0734917
:10522000139851F820000D90109902F087F86F4AFA
:10523000139942F821001398401C139013980428E6
:10524000EDDB70480068C0EBC0006F4901EB8000E7
:10525000C0680D906D48C0680C900D9902F098FBE5
:105260006A49C860624880690D906248C0680C90C5
:105270000D9902F08DFB63490968C1EBC101624AD7
:1052800002EB8101C8605F480068C0EBC0001146B6
:1052900001EB8000C0680D905C48C0680C900D99CF
:1052A00002F04CF85949C8601298C0EBC00056494A
:1052B00001EB8000C0680A9052480068C0EBC00053
:1052C00001EB8000C06809900A9902F061FB0B9025
:1052D0005048806801460A900B9802F051FA0D90F0
:1052E0004A48C06809904B4840680890099902F004
:1052F00047FA0B9043480068C0EBC000424901EBFD
:105300008000C0680990434800680890099902F03D
:1053100037FA0A900B9902F011F80C900D9902F0EF
:105320000DF834494860084640683B4A3B490D90B7
:1053300000F047FC2F49486032480068C0EBC000CD
:10534000314901EB800000690D90304800690C90F4
:105350000D9902F01DFB2D4908612548C0690D908B
:10536000244800690C900D9902F012FB2549096848
:10537000C1EBC101244A02EB8101086121480068A8
:10538000C0EBC001104600EB810000690D901F4882
:1053900000690C900D9901F0D1FF1C490861129829
:1053A000C0EBC000184901EB800000690A90154865
:1053B0000068C0EBC00001EB8000006909900A9909
:1053C00002F0E6FA0B901648806801460A900B98A6
:1053D00002F0D6F90D900D48006909901048406818
:1053E0000890099902F0CCF90B901BE0B004002062
:1053F000380300200403002000007A440000A0C20B
:105400000000A0420C0100206C0300208404002056
:10541000C0000020780000200000B4C20000B442A8
:1054200084000020F7480068C0EBC001F64800EB9C
:10543000810000690990F54800680890099902F018
:105440009FF90A900B9901F079FF0C900D9901F0EA
:1054500075FFEF49086008460068EE4AEE490D9076
:1054600000F0AFFBEA4908600021E94881608068EC
:10547000E84AE9490D9000F0A4FBE5498860E1485D
:105480000068C0EBC001E04800EB810040680D906F
:10549000E24840680C900D9902F07AFADF494860C2
:1054A000DF4800690D90DA4840680C900D9902F0D1
:1054B0006FFAD4490968C1EBC101D34A02EB8101FB
:1054C0004860D0480068C0EBC000114601EB800086
:1054D00040680D90D14840680C900D9901F02EFF66
:1054E000CE4948601298C0EBC000C74901EB80006C
:1054F00040680A90C3480068C0EBC00001EB800020
:10550000406809900A9902F043FA0B90C5488068F8
:1055100001460A900B9802F033F90D90BF4840689D
:105520000990C04840680890099902F029F90B9049
:10553000B4480068C0EBC000B34901EB800040688C
:105540000990B84800680890099902F019F90A9082
:105550000B9901F0F3FE0C900D9901F0EFFE109005
:1055600000221146109800F02CFB1090AE48006805
:105570000D90109901F0E2FEAB49086008464068C2
:105580000D90109901F0DAFEA7494860084680683E
:105590000D90109902F0FCF9A34988600846C06894
:1055A0000D90109902F0F4F99F49C8609548006881
:1055B000C0EBC000944951F820000D909748006856
:1055C0000C900D9902F0E4F9944908609448C06881
:1055D0000D908F4800680C900D9902F0D9F9894917
:1055E0000968C1EBC101884A42F82100854800687A
:1055F000C0EBC000114651F820000D9087480068AC
:105600000C900D9901F09AFE844908601298C0EB45
:10561000C0007D4951F820000A907A480068C0EB2C
:10562000C00051F8200009900A9902F0B1F90B90DE
:105630007E48806801460A900B9802F0A1F80D9010
:10564000764800680990794840680890099902F006
:1056500097F80B906B480068C0EBC0006A4951F89E
:1056600020000990714800680890099902F088F8B4
:105670000A900B9901F062FE0C900D9901F05EFE0C
:10568000109000221146109800F09BFA1090664886
:1056900000680D90109902F07BF963490860084694
:1056A00040680D90109901F049FE5F494860084636
:1056B00080680D90109901F041FE5B4988600846B2
:1056C000C0680D90109902F063F95749C8604D48C1
:1056D0000068C0EBC0004C4901EB800080680D9071
:1056E0004E4880680C900D9902F052F94B49886041
:1056F0004B4840690D90464880680C900D9902F027
:1057000047F940490968C1EBC1013F4A02EB8101F9
:1057100088603C480068C0EBC000114601EB800087
:1057200080680D903D4880680C900D9901F006FE50
:105730003A4988601298C0EBC001334800EB810001
:1057400080680A902F480068C0EBC0002E4901EB2A
:105750008000806809900A9902F01AF90B90344889
:10576000806801460A900B9802F00AF80D902B48C9
:10577000806809902E4840680890099902F000F866
:105780000B9020480068C0EBC0011F4800EB81006F
:1057900080680990264800680890099901F0F0FF98
:1057A0000A900B9901F0CAFD0C900D9901F0C6FD0D
:1057B000109000221146109800F003FA10901A4839
:1057C00000680D90109901F0B9FD1749086008466E
:1057D00040680D90109902F0DBF8134948600846C4
:1057E00080680D90109901F0A9FD0F498860084666
:1057F000C0680D90109902F0CBF80B49C8600020EA
:1058000013902BE00C0100206C030020840000208A
:10581000040300200000B4C20000B442840400204D
:1058200038030020A8000020B00400209C000020C5
:10583000B40000201E49139851F820001D490D9016
:10584000139851F820000C900D9901F077FD194A3A
:10585000139942F821001398401C139013980428C0
:10586000E8DBFFF7EDFA0020139010E011491398E0
:1058700051F82000104A4FF07E510D9000F0A1F930
:105880000C4A139942F821001398401C1390139866
:105890000428EBDB09480068401C084908600846FA
:1058A00000680A2801D10020086017B000BD000080
:1058B000B0040020A00400209A99993E0C01002019
:1058C00070B504460E46154601211948FCF713FA37
:1058D00000BF18491648FCF7D5F90028F9D0002276
:1058E00021461348FCF7B6FA00BF13491048FCF7ED
:1058F000C9F90028F9D031460D48FCF7B4FA00BFC9
:105900000D49891C0A48FCF7BDF90028F8D0294642
:105910000748FCF7A8FA00BF0749891C0448FCF7B0
:10592000B1F90028F8D001210148FCF7F0F970BD69
:1059300000580040010003008200070070B50446D3
:105940000D461646FCF74EFB04F0FE00FCF716FB76
:10595000FCF794FB2846FCF711FBFCF78FFB304665
:10596000FCF70CFBFCF78AFBFCF762FB70BD000048
:1059700010B586B004468CBB01210820FDF7E4F881
:1059800001218805FDF7D0F84FF44060ADF8140010
:1059900003208DF816001C208DF8170005A91D485E
:1059A000FBF7CCFC0020ADF808004BF6FF70ADF81B
:1059B0000A000A20ADF80C004FF48060ADF80E002C
:1059C0000001ADF810001448019001A91348FCF73C
:1059D000C7F901211148FCF76AF918E0FFE7012136
:1059E0000820FDF7B1F84FF44060ADF81400102026
:1059F0008DF8170003208DF8160005A90548FBF760
:105A00009DFC0120064908600649C1F8AC0106B0BA
:105A100010BD0000000C0140400D03000058004084
:105A2000A8812142008021422DE9F04106460F461F
:105A300015461C4600BF4FF400313148FCF773F99E
:105A40000028F8D101212E48FCF755F900BF2D4957
:105A50002B48FCF717F90028F9D0002231462848D6
:105A6000FCF7F8F900BF28492548FCF70BF9002896
:105A7000F9D001212248FCF71AF939462048FCF7F1
:105A8000F2F900BF2049891C1D48FCF7FBF80028EB
:105A9000F8D001211A48FCF72EF900BF194918481F
:105AA000FCF7F0F80028F9D0012231461448FCF741
:105AB000D1F900BF1349491C1148FCF7E3F800284D
:105AC000F8D015E0012C07D100210D48FCF7CEF8E5
:105AD00001210B48FCF71BF90A493F310848FCF744
