:020000040800F2
:1000000000040020CF010008AD2200087D1900087F
:10001000A9220008D50F00084335000800000000A1
:10002000000000000000000000000000B92F0008E0
:10003000551000080000000035230008CD300008EE
:10004000EF010008EF010008EF0100089526000805
:10005000EF010008EF010008EF010008EF010008C0
:10006000EF010008EF010008EF010008EF010008B0
:10007000EF010008EF010008EF010008D90F0008A8
:10008000EF010008EF010008EF010008EF01000890
:10009000EF010008EF010008EF010008EF01000880
:1000A000EF010008EF010008EF010008EF01000870
:1000B0003131000849310008EF010008EF01000864
:1000C000EF010008EF010008EF010008EF01000850
:1000D000EF01000801330008EF010008EF010008FC
:1000E00059100008EF010008EF010008EF010008B7
:1000F000EF010008EF010008EF010008EF01000820
:10010000EF010008EF010008EF010008EF0100080F
:10011000EF010008EF010008EF010008EF010008FF
:10012000EF010008EF010008EF010008EF010008EF
:1001300000F002F800F03AF80AA090E8000C8244BF
:100140008344AAF10107DA4501D100F02FF8AFF29C
:10015000090EBAE80F0013F0010F18BFFB1A43F0A5
:1001600001031847FC5D00001C5E0000103A24BF2C
:1001700078C878C1FAD8520724BF30C830C144BF0C
:1001800004680C607047000000230024002500264E
:10019000103A28BF78C1FBD8520728BF30C148BFEA
:1001A0000B6070471FB51FBD10B510BD00F0E6F81D
:1001B0001146FFF7F7FF03F0C5FE00F004F903B4A2
:1001C000FFF7F2FF03BC03F064FA000070470B482E
:1001D00080470B4981F308880A480047FEE7FEE79D
:1001E000FEE7FEE7FEE7FEE7FEE7FEE7FEE7FEE7E7
:1001F00005480649044A064B70470000CD01000837
:10020000F006002031010008F0040020F006002074
:10021000F0040020704710B54C1084EA530404D554
:100220004042C1F1000138BF491E1B4204D5524271
:10023000C3F1000338BF5B1E00F015F814F0804FC7
:1002400004D04042C1F1000138BF491E14F0004FF4
:1002500004D05242C3F1000338BF5B1E10BD70478B
:1002600070477047704753EA020C00F069802DE92F
:10027000F04B4FF00006002B1FBFB3FA83F503FAD3
:1002800005F424FA05F65E4012BF1643B2FA82F571
:1002900002FA05F4C5F120051EBF22FA05FC44EA66
:1002A0000C04203556EA044C4FEA144418BF641C71
:1002B0004FF000084FF00009904271EB030C39D366
:1002C000002919BFB1FA81F701FA07F6B0FA80F7F1
:1002D00000FA07F6C7F120071EBF20FA07FC46EA1E
:1002E0000C062037B6FBF4FCA7EB0507103F07F020
:1002F0001F0BCBF120060CFA0BFB2CFA06F644BFC1
:10030000B3460026202FA4BF5E464FF0000B5BEAE9
:10031000060C08BF4FF0010B19EB0B09ABFB027C7D
:1003200048EB0608C01B06FB02CC0BFB03CC71EBB1
:100330000C01C1E70B46024641464846BDE8F08B3A
:1003400013B54FF000004FF00001AFF30080BDE89F
:100350001C40704710B500F009F8006810BD10B5DA
:10036000044600F003F8046010BD00000048704728
:100370009004002000487047900400207546FFF765
:10038000F9FFAE4605006946534620F00700854652
:1003900018B020B5FFF72CFFBDE820404FF0000655
:1003A0004FF000074FF000084FF0000B21F007015D
:1003B000AC46ACE8C009ACE8C009ACE8C009ACE8A0
:1003C000C0098D4670470446AFF300802046FFF712
:1003D000F6FE21B1826842F00102826003E0826889
:1003E00022F001028260704710B504461248844230
:1003F00008D10121401501F0F3FF0021601501F043
:10040000EFFF17E00D48844208D10121001501F0EB
:10041000E7FF0021201501F0E3FF0BE008488442CC
:1004200008D10121C80301F0DBFF00214FF4004097
:1004300001F0D6FF10BD000000240140002801405B
:10044000003C0140014600208A6802F004020AB123
:10045000012000E0002070470146C86C80B2704760
:100460000246002013680B400BB1012000E0002081
:100470007047014600208A6802F008020AB1012094
:1004800000E000207047000030B502460020002345
:1004900050680F4C20400D790C6844EA0524204335
:1004A000506090680B4C2040D1E902542C434D79A8
:1004B00044EA450420439060D06A20F470000C7C2C
:1004C000641EE4B2234340EA0350D06230BD000012
:1004D000FFFEF0FFFDF7F1FFF0B504460D460020EA
:1004E0000021092D11DDE068A5F10A0606EB46079B
:1004F000072606FA07F18843A5F10A0606EB460629
:1005000003FA06F10843E0600CE0206905EB4507BB
:10051000072606FA07F1884305EB450603FA06F1BC
:1005200008432061072A0FDA606B561E06EB860728
:100530001F2606FA07F18843561E06EB860605FAC3
:1005400006F10843606322E00D2A0FDA206BD61F04
:1005500006EB86071F2606FA07F18843D61F06EB2F
:10056000860605FA06F10843206310E0E06AA2F16E
:100570000D0606EB86071F2606FA07F18843A2F14F
:100580000D0606EB860605FA06F10843E062F0BDAB
:10059000816841F008018160704721B1826842F4AE
:1005A000A002826003E0826822F4A00282607047A9
:1005B000816841F004018160704700002DE9F0433B
:1005C00087B09D4800789D49097890FBF1F201FBC6
:1005D00012019A480078401E814202D101209849B8
:1005E0004870954800789749097890FBF1F201FB33
:1005F000120194480078401E814202D101209049A6
:1006000008708D4800789049097890FBF1F201FB61
:1006100012018D480078401E814202D10120884994
:100620004872854800788949097890FBF1F201FB0E
:10063000120186480078401E814202D10120804983
:1006400088727D480078401C7B4908707C4800789F
:1006500090B100207A4908707D48006805F0EAF8FA
:100660000446002000907B4B01901A6A9969D86972
:10067000234600F0C5FBDCE071484078D0B1002093
:100680006F49487002900390049005907248B0F949
:100690000A007149B1F908106F4CCDE90010B4F9A6
:1006A0000630B4F90420B4F90210B4F9000000F0E7
:1006B000E9FABEE06248407A00284CD00020604948
:1006C00048726649C86805F0D1F884B26349886801
:1006D00005F0CCF885B26149486805F0C7F886B2E4
:1006E0005E49C86805F0C2F887B25C49886805F0C1
:1006F000BDF81FFA80F85949486805F0B7F81FFAA5
:1007000080F9574800883B4642464946CDE9016595
:10071000039400905248008800F0CEF850480088BA
:1007200042F21071884204DD4FF0FF304D490860FD
:1007300006E04B480088052802DA01204949086094
:100740004848008800EB80004549098801EB4000DB
:10075000434908806DE03A48807A60B1002038490A
:1007600088724148006805F081F884B20221204671
:1007700000F03EFA5DE032488078E0B10020304978
:1007800088703A48806839494968384A1268384B55
:100790009B68CDE90232CDE9041035484068344900
:1007A0000968CDE900103348836842680168012078
:1007B00000F018F93DE02248C078D8B10020204967
:1007C000C8702D48816840682B4A12682B4B9B6883
:1007D000CDE90232CDE9040128484068274909687B
:1007E000CDE900102648836842680168022000F0C5
:1007F000F9F81EE012480079D8B1002010490871BC
:10080000204880681F4949681E4A12681D4B9B6832
:10081000CDE90232CDE904101A4840681949096847
:10082000CDE900101748836842680168032000F092
:10083000D9F807B0BDE8F083480000204900002047
:100840009C0100204A0000204B0000204C000020AA
:100850002C00002008030020F0020020700400207B
:100860004000002044000020000000207400002010
:10087000680000205C000020980000208C00002010
:1008800080000020A400002070B504460D4600261C
:100890000DE02178074802F050FE00BF40210548D6
:1008A00002F07EFD0128F9D1641C701CC6B2AE4274
:1008B000EFDB70BD003801407FB500240026AA227E
:1008C0002146641C464842542146641C4254062278
:1008D0002146641C425400222146641C42549DF867
:1008E00001202146641C42549DF800202146641CCE
:1008F00042549DF805202146641C42549DF8042072
:100900002046611CCCB236490A549DF80920204685
:10091000611CCCB232490A549DF808202046611C63
:10092000CCB22F490A549DF80D202046611CCCB250
:100930002B490A549DF80C202046611CCCB2284952
:100940000A549DF821202046611CCCB224490A5447
:100950009DF820202046611CCCB221490A549DF804
:1009600025202046611CCCB21D490A549DF8242044
:100970002046611CCCB21A490A549DF82920204611
:10098000611CCCB216490A549DF828202046611CEF
:10099000CCB213490A549DF82D202046611CCCB2DC
:1009A0000F490A549DF82C202046611CCCB20C49FA
:1009B0000A54201FC870002505E00948405D3044F6
:1009C000C6B2681CC5B2A542F7DB2046611CCCB29A
:1009D00003490E5421460248FFF756FF7FBD000031
:1009E000A70100202DE9FC5F06460F469046994678
:1009F000DDF830B00024A246AA222146641C7A48C1
:100A000042542146641C425406F10F00C2B22146F2
:100A1000641C7548425400222146641C42547349A8
:100A2000384604F0BFFF009004F004FF00B20190CC
:100A30009DF805202146641C6B4842549DF8042013
:100A40002146641C42546949404604F0ABFF0090C3
:100A500004F0F0FE00B201909DF805202146641CD0
:100A6000614842549DF804202046611CCCB25E4986
:100A70000A545E49484604F095FF009004F0DAFEFF
:100A800000B201909DF805202046611CCCB2564969
:100A90000A549DF804202046611CCCB252490A54E5
:100AA0005249584604F07EFF009004F0C3FE00B2A5
:100AB00001909DF805202046611CCCB24A490A5499
:100AC0009DF804202046611CCCB247490A5447498E
:100AD0000D9804F067FF009004F0ACFE00B20190A6
:100AE0009DF805202046611CCCB23F490A549DF870
:100AF00004202046611CCCB23B490A543B490E9865
:100B000004F050FF009004F095FE00B201909DF8B3
:100B100005202046611CCCB233490A549DF80420BC
:100B20002046611CCCB230490A5430490F9804F079
:100B300039FF009004F07EFE00B201909DF8052080
:100B40002046611CCCB228490A549DF80420204656
:100B5000611CCCB224490A542449109804F022FFA5
:100B6000009004F067FE00B201909DF80520204639
:100B7000611CCCB21C490A549DF804202046611C1B
:100B8000CCB219490A541949119804F00BFF00908E
:100B900004F050FE00B201909DF805202046611C33
:100BA000CCB211490A549DF804202046611CCCB2F5
:100BB0000D490A54201FC870002506E00A48405D10
:100BC000504400F0FF0A681CC5B2A542F6DB20467F
:100BD000611CCCB2044901F800A021460248FFF78D
:100BE00053FEBDE8FC9F0000A701002000007A44EE
:100BF0002DE9F84306460F460024A046AA222146C6
:100C0000641C1F4842542146641C4254052221465C
:100C1000641C425400222146641C425400969DF8F4
:100C200001202146641C42549DF800202146641C8A
:100C3000425400979DF801202146641C42549DF8BF
:100C400000202046611CCCB20D490A54201FC870F8
:100C5000002506E00A48405D404400F0FF08681C9B
:100C6000C5B2A542F6DB2046611CCCB2044901F8AE
:100C7000008021460248FFF707FEBDE8F883000028
:100C8000A70100202DE9F84F06460F4690469946E9
:100C9000DDF828B00024A246AA222146641C574849
:100CA00042542146641C425402222146641C425490
:100CB00000222146641C425400969DF801202146E2
:100CC000641C42549DF800202146641C4254009745
:100CD0009DF801202146641C42549DF800202046C6
:100CE000611CCCB245490A54CDF800809DF8012022
:100CF0002046611CCCB241490A549DF80020204690
:100D0000611CCCB23D490A54CDF800909DF80120F9
:100D10002046611CCCB239490A549DF80020204677
:100D2000611CCCB235490A54CDF800B09DF80120C1
:100D30002046611CCCB231490A549DF8002020465F
:100D4000611CCCB22D490A540B9800909DF80120EB
:100D50002046611CCCB229490A549DF80020204647
:100D6000611CCCB225490A540C9800909DF80120D2
:100D70002046611CCCB221490A549DF8002020462F
:100D8000611CCCB21D490A540D9800909DF80120B9
:100D90002046611CCCB219490A549DF80020204617
:100DA000611CCCB215490A540E9800909DF80120A0
:100DB0002046611CCCB211490A549DF800202046FF
:100DC000611CCCB20D490A54201FC870002506E0F2
:100DD0000A48405D504400F0FF0A681CC5B2A542B5
:100DE000F6DB2046611CCCB2044901F800A0214684
:100DF0000248FFF749FDBDE8F88F0000A701002079
:100E00002DE9FE4F82460E4617469846DDF830B073
:100E10000024A146CDF80480AA222146641C48483B
:100E200042542146641C425401222146641C42540F
:100E300000222146641C42544249504604F0B2FD4F
:100E4000009004F0F7FC00B202909DF809202146C2
:100E5000641C3B4842549DF808202146641C4254BF
:100E60003849304604F09EFD009004F0E3FC00B2E7
:100E700002909DF809202146641C314842549DF897
:100E800008202146601CC4B22D4842542D493846E2
:100E900004F088FD009004F0CDFC00B202909DF8B3
:100EA00009202046611CCCB225490A549DF808202F
:100EB0002146601CC4B2224842549DF807202046B7
:100EC000611CCCB21E490A549DF806202046611CC4
:100ED000CCB21B490A549DF805202046611CCCB2B7
:100EE00017490A549DF804202146601CC4B21448D6
:100EF00042542046611CCCB2114901F800B0214691
:100F0000621CD4B20E4A0D985054201F1146C8706E
:100F1000002506E00A48405D484400F0FF09681CCF
:100F2000C5B2A542F6DB2046611CCCB2044901F8EB
:100F3000009021460248FFF7A7FCBDE8FE8F0000A5
:100F4000A70100200000C84200B587B001214FF47E
:100F5000017001F035FA4FF4004001F015FA02205B
:100F6000ADF8040000208DF8070001A9174800F033
:100F7000C1F81748FFF738FA002002908DF80C00EE
:100F80008DF80D004FF460200490002005900120A2
:100F90008DF8180002A90E48FFF776FA01210C48D7
:100FA000FFF717FA0A48FFF7F3FA00BF0848FFF700
:100FB00060FA0028FAD10648FFF7FAFA00BF0448A1
:100FC000FFF740FA0028FAD107B000BD0008014041
:100FD0000024014000BFFEE710B54FF4003000F0E0
:100FE00023F801280DD1400400F010F80021054835
:100FF00000F0F3FC0121034800F007FD0120024945
:10100000086010BD005800403000002000F0805102
:1010100011B10349086001E00249486070470000CF
:10102000040402400000024001460020002201F0BA
:10103000805313B1054B1A6801E0054B1A6802EAA8
:1010400001030BB1012000E00020704700040240C2
:10105000000002407047000010B54FF4804000F0DF
:1010600035F838B34FF4804000F02AF84FF480414F
:10107000114800F0CAF8012808D10021800702F0C9
:101080003DF90121880702F010F913E04FF4804187
:10109000094800F0BAF868B900214FF0804002F02A
:1010A00004F94FF0804002F00CF9044600F03EFCD9
:1010B0000249086010BD0000000C01402C00002017
:1010C00001490860704700001404014001460020F7
:1010D0000022074B1B6803EA0102054B14331B680F
:1010E0000B4013B10AB1012000E00020704700005E
:1010F000000401402DE9F0410246002500260020B1
:1011000000230024002791F803C00CF00F0591F88C
:1011100003C00CF0100CBCF1000F03D091F802C01A
:101120004CEA050591F800C0BCF1000F31D01468FD
:1011300000202BE04FF0010C0CFA00F3B1F800C0D6
:101140000CEA03069E4220D183004FF00F0C0CFAEC
:1011500003F7BC4305FA03FC4CEA040491F803C00E
:10116000BCF1280F06D14FF0010C0CFA00FCC2F8BC
:1011700014C00AE091F803C0BCF1480F05D14FF04C
:10118000010C0CFA00FCC2F810C0401C0828D1D396
:101190001460B1F800C0BCF1FF0F34DD54680020CA
:1011A0002EE000F1080C4FF0010808FA0CF3B1F83A
:1011B00000C00CEA03069E4221D183004FF00F0CC1
:1011C0000CFA03F7BC4305FA03FC4CEA040491F85B
:1011D00003C0BCF1280F05D100F1080C08FA0CF887
:1011E000C2F8148091F803C0BCF1480F07D100F198
:1011F000080C4FF0010808FA0CF8C2F81080401CE7
:101200000828CED35460BDE8F081024600209368E0
:101210000B400BB1012000E00020704701617047D6
:101220000AB1016100E041617047000010B5044659
:101230000723012221460948FFF74EF901210748FB
:10124000FFF7ABF900BF02210448FFF709F90028B6
:10125000F9D00248FFF700F910BD0000002401405A
:1012600003B59FB04FF07C51209804F09BFB0D908C
:10127000FE4880680590FD4800680490059904F0D8
:1012800091FB0790F948C0680590F84840680490C1
:10129000059904F087FB0690079904F08BFC4FF04A
:1012A0008041089004F07EFB1C90F048C0680590D7
:1012B000EE4880680490059904F074FB0790EB48B1
:1012C00040680590E94800680490059904F06AFBBD
:1012D0000690079904F078F94FF08041089004F0E7
:1012E00061FB1D90E14880680490E04880680390AD
:1012F000049904F057FB0690DC4840680490DB48F2
:1013000040680390049904F04DFB0590069904F0A1
:101310005BF94FF08041079004F044FB4FF07E51A1
:10132000089004F03CFC1E901F98806805901F9860
:1013300080680490059904F035FB07901F98406879
:1013400003901F9840680290039904F02BFB0590CE
:101350001F98006803901F9800680290039904F09A
:1013600021FB0490059904F02FF90690079904F0E9
:101370002BF9089000F0E0FF0E901F98006808908D
:101380000E9904F00FFB19901F98406808900E9971
:1013900004F008FB1A901F98806808900E9904F0DA
:1013A00001FB1B901D9806901B980590069904F070
:1013B000F9FA08901E9806901A980590069904F07C
:1013C000F1FA0790089904F0F5FB13901E98069027
:1013D00019980590069904F0E5FA08901C98069073
:1013E0001B980590069904F0DDFA0790089904F01F
:1013F000E1FB14901C9806901A980590069904F049
:10140000D1FA08901D98069019980590069904F055
:10141000C9FA0790089904F0CDFB1590139807902E
:1014200093480168079804F0BDFA08909148006855
:1014300001460790089804F0C7F88E490860149890
:1014400007908B480168079804F0ACFA0890894827
:10145000406801460790089804F0B6F8854948604E
:101460001598079082480168079804F09BFA089045
:101470008048806801460790089804F0A5F87D49E7
:1014800088601398014605907B48006804F08AFA4A
:1014900007901F98C0687949049004F083FA4FF0D0
:1014A0008041059004F07EFA0690079904F08CF8CC
:1014B00008907048006801460790089804F084F886
:1014C00016901498014605906B48006804F06AFA7B
:1014D00007901F9800696949049004F063FA4FF07F
:1014E0008041059004F05EFA0690079904F06CF8CC
:1014F00008906048406801460790089804F064F836
:1015000017901598014605905B48006804F04AFA68
:1015100007901F9840695949049004F043FA4FF02E
:101520008041059004F03EFA0690079904F04CF8CB
:1015300008905048806801460790089804F044F8E5
:101540001890189805904948C0680490059904F0CF
:1015500029FA0790179803904448806802900399ED
:1015600004F020FA05904148406880F00040039064
:10157000169801460290039804F014FA0490059915
:1015800004F018FB0690079904F014FB08900D99DD
:1015900004F008FA12901898059034488068049076
:1015A000059904F0FFF90790179803902F48C06839
:1015B0000290039904F0F6F90590169803902B48D1
:1015C00000680290039904F0EDF90490059904F085
:1015D000F1FA0690079903F0F7FF08900D9904F0CF
:1015E000E1F91190189805902048406804900599F9
:1015F00004F0D8F90790179803901C4800680290EF
:10160000039904F0CFF90590169803901748C06825
:101610000290039904F0C6F90490059903F0D4FFF1
:101620000690079904F0C6FA08900D9904F0BAF9EB
:101630001090189805900D4800680490059904F0E2
:10164000B1F90790179803900848406802900399F1
:1016500004F0A8F905900548806880F000400390E8
:1016600016980146029003980AE00000B00000209E
:10167000F800002030030020F40000202E9E0B3ADA
:1016800004F090F90490059903F09EFF06900799E5
:1016900003F09AFF08900D9904F084F90F909E488A
:1016A00000680890129903F08FFF9B490860084674
:1016B00040680890119903F087FF974948600846F1
:1016C00080680890109903F07FFF9349886008466E
:1016D000C06808900F9903F077FF8F49C8600846EB
:1016E000C06805900846C0680490059904F05AF94E
:1016F0000790894880680390874880680290039922
:1017000004F050F905908448406801908248406890
:101710000090019904F046F903907F480068019019
:101720007D4800680090019904F03CF9029003990B
:1017300003F04AFF0490059903F046FF06900799CD
:1017400003F042FF089000F0F7FD0E907248006829
:1017500008900E9904F026F96F4908600846406821
:1017600008900E9904F01EF96B494860084680689D
:1017700008900E9904F016F9674988600846C06819
:1017800008900E9904F00EF96349C8600846406855
:10179000014605904FF0804004F004F906905E4841
:1017A000C06801460590069804F0FCF808905A4875
:1017B0000068014605904FF0804004F0F3F8069071
:1017C0005548806801460590069804F0EBF80790AC
:1017D000089904F0EFF90C904F4800680146059015
:1017E0004FF0804004F0DEF806904B484068014618
:1017F0000590069804F0D6F808904748806801469E
:1018000005904FF0804004F0CDF806904248C06843
:1018100001460590069804F0C5F80790089903F072
:10182000D3FE0B903C48C06806903B48C0680590CA
:10183000069904F0B7F80890374880680490364855
:1018400080680390049904F0ADF80690324840682F
:101850000290314840680190029904F0A3F8049086
:101860002D48006802902C4800680190029904F00D
:1018700099F80390049904F09DF90590069904F0F5
:1018800099F90790089903F09FFE0A901F98406904
:101890002249079004F086F84FF08041089004F048
:1018A00081F809904FF07E51099804F047F904D36C
:1018B0001B49099804F042F80DD22099099804F0C8
:1018C00071F808901F98006A01460790089803F085
:1018D0007BFE1F9908620C9803F04AFECDE90201D5
:1018E00001F0DAFE4FF000520E4BCDE9040103F097
:1018F0002FFBCDE9060103F091F81F998861DDE91E
:101900000A1002F001F80849089004F04BF81F99FA
:10191000C86121B000BD0000B0000020F6FFF93C16
:10192000000080BFDCA54C40E12E65422DE9F0416E
:101930000446204603F0BAFF0746054903F0B8FE07
:101940000646044904F02EF805462846BDE8F08115
:1019500000409C460000AA4310B50122D10306486E
:10196000FFF75EFC0F2002F045F900224FF4004122
:101970000148FFF755FC10BD000C014000BFFEE719
:1019800021B1028842F48062028004E002884FF6AE
:10199000FF331A400280704770B5024600240025CC
:1019A00000230020958A138B1B0445EA030626F0CA
:1019B0007F4404EA01068E4201D1012000E00020AC
:1019C00070BD21B1028842F00102028004E0028869
:1019D0004FF6FE731A400280704721B1828842F4AC
:1019E0000062828004E082884FF2FF731A40828096
:1019F000704721B1028842F48072028004E00288BC
:101A00004FF6FF631A400280704721B1028842F40A
:101A10000072028004E002884FF6FF531A400280F1
:101A200070470CB5024600200023019300930092FA
:101A30000B0F019321F07F41019B1BB1009B1433DD
:101A4000009303E0090C009B18330093009B1B6874
:101A50000B400BB1012000E000200CBD2DE9F0434C
:101A600085B004460D460026B1460427DFF8CC8039
:101A7000A6884FF6C0700640684600F0C1FCDDF84D
:101A800008802F48B8FBF0F01FFA80F946EA0906F3
:101A9000A68020884FF6FE71084020800026294944
:101AA000286888420CD828684000B8FBF0F087B25C
:101AB000042F00DA04273E4309F10100208427E0C7
:101AC000E8884BF6FF71884206D1286800EB400099
:101AD000B8FBF0F087B209E0286800EBC00101EB29
:101AE0000010B8FBF0F087B247F48047C7F30B0053
:101AF00008B947F0010747F4004006434FF49670D9
:101B000009FB00F04FF47A7190FBF1F0401C208447
:101B1000A683208840F00100208026884FF6F5300B
:101B20000640A8886989084306432680A889298930
:101B30000843208105B0BDE8F083000000127A0060
:101B400040420F00A08601000146088AC0B27047DB
:101B500012B141F0010102E04FF6FE73194001821B
:101B6000704701827047000010B500200F490860DF
:101B70000F48006820F470400D490860084600686E
:101B800040F44050086000200A49C1F8AC0102202E
:101B900002F030F8012005490860022002F02AF81E
:101BA00000200449C1F8A80110BD0000A88121420D
:101BB000040C01400080214210B500200F4908604C
:101BC0000F48006820F470400D490860084600681E
:101BD00040F44050086001200A49C1F8AC010220DD
:101BE00002F008F8012005490860022002F002F81E
:101BF00000200449C1F8A80110BD0000A8812142BD
:101C0000040C01400080214270B5054600241748AD
:101C1000006820F47040154908600846006840F4E8
:101C200000400860002616E00020114908600220EC
:101C300001F0E0FF01200F49C1F8A8016006040E81
:101C40000B487C38006808B1601CC4B2012001F068
:101C5000D1FF701CC6B2082EE6DB15B9FFF7ACFF4A
:101C600001E0FFF781FF204670BD0000040C014039
:101C7000A88121420080214270B5044615480068C1
:101C800020F47040134908600846006840F4405052
:101C90000860002010490860002517E0E0090E499F
:101CA000091D08606006040E022001F0A3FF012058
:101CB0000A49C1F8A801022001F09CFF0020064952
:101CC0000860022001F096FF681CC5B2082DE5DB14
:101CD00070BD0000040C0140A88121420080214217
:101CE00010B50F48006820F470400D4908600846A0
:101CF000006840F44050086001200A4908600A4921
:101D0000C1F8A801042001F075FF00200549086012
:101D1000042001F06FFF00200349C1F8A80110BDA5
:101D2000040C0140AC8121420080214210B50F48D3
:101D3000006820F470400D4908600846006840F4CF
:101D40004050086000200A4908600A49C1F8AC0107
:101D5000042001F04FFF0120054908600549C1F842
:101D6000AC01042001F046FF10BD0000040C01404E
:101D7000A88121420080214210B500241448006847
:101D800020F47040124908600846006840F40040A2
:101D9000086001200F49086001F02CFF01200E4966
:101DA000C1F8A80101F026FF07E0601CC4B2FA2CBC
:101DB00003DDFFF7BBFF012010BD06488038006837
:101DC0000028F2D10349091F086000BFF4E70000B2
:101DD000040C0140AC8121420080214210B501F089
:101DE00077F900F049F800F033F801F0BBFEFFF797
:101DF000ABF84FF4E13002F0C1FD4FF4A06000F009
:101E00008FFA012001F074FF012000F075FF01201E
:101E100000F00AFA10BD0146CA1701EB9272921047
:101E2000A1EB820292B9642091FBF0F200FB121048
:101E300050B94FF4C87091FBF0F200FB121008B9D2
:101E4000012070470020FCE70120FAE70020F8E7B6
:101E500008B50121102000F0B3FA4FF40050ADF89E
:101E6000000048208DF8030069460248FFF742F958
:101E700008BD00000010014008B50121042000F059
:101E80009FFA4FF47060ADF8000010208DF8030049
:101E900003208DF8020069460448FFF72BF94FF440
:101EA00070610248FFF7BAF908BD00000008014060
:101EB0002DE9F047054600210F46884600262EE012
:101EC0002946204800F0C6F81F491E4800F042F895
:101ED000042421E01C4931F9140003F0E7FC824698
:101EE0001A4903F05FFD81464FF0804103F05AFD2F
:101EF000174941F824003846414603F0F2FC824677
:101F0000134850F82410504603F05EFB814603F05E
:101F1000C7FE07468846641C062CDBDD761C642E53
:101F2000CEDB4FF49672002338464146FEF773F934
:101F3000401F71F1000102DA0120BDE8F0870020A6
:101F4000FBE70000FC0000200A010020F6FFF93C3E
:101F5000300100202DE9F04705460E4600240AE036
:101F6000681C10F8140015F8141000EB012000B2E2
:101F700026F81400641C072CF2DB00245BE03048D8
:101F800030F91400002811DB2D4931F9140003F059
:101F90008DFC80462B4903F08BFB07464FF08141B7
:101FA00003F000FD284941F8240011E0244931F9EB
:101FB000140003F07BFC80464FF08E4103F078FB69
:101FC00007464FF0814103F0EDFC1F4941F8240022
:101FD0001B49201D31F91000002815DB0A46211D80
:101FE00032F9110003F062FC8146164903F060FBF0
:101FF0008046164903F0D6FC0746002103F0CFFDCA
:10200000134941F8240015E00D4A211D32F9110051
:1020100003F04CFC81464FF08E4103F049FB8046B3
:102020000A4903F0BFFC0746002103F0B8FD084948
:1020300041F82400641C032CA1DBBDE8F0870000FC
:102040000A01002000FEFF46180100200000FA44AB
:102050002401002070B504460D4635B90E232246F2
:102060003B21D02001F0A0FE05E00E2322463B21BB
:10207000D02001F00BFF70BD70B50546002420E0B4
:1020800029466048FFF7E6FF5F495E48FFF762FFB9
:102090005E48C0885C490989084400B25B49C88031
:1020A0000846008958494989084400B257490881BF
:1020B0000846408954498989084400B253494881F7
:1020C000641C642CDCDB5148B0F90600642190FBF1
:1020D000F1F000B24D49C8800846B0F9080064210B
:1020E00090FBF1F000B2494908810846B0F90A00B6
:1020F000642190FBF1F000B244494881002470E073
:1021000029464048FFF7A6FF3F493E48FFF722FF18
:102110003D4800893D49C988401A00B23A490881C2
:102120000846408939490989401A00B23649488130
:102130000846808935494989401A00B23249888168
:10214000B1F9000003F0B2FB06463146304801F019
:10215000CCFE2D49B1F9020003F0A8FB064631463A
:102160002C4801F0C2FE2849B1F9040003F09EFB9F
:1021700006463146284801F0B8FE2548C068274980
:1021800008602448C06848602348C06888601E49C9
:10219000B1F9080003F08AFB2049C8601A49B1F977
:1021A0000A0003F083FB1D4908611749B1F90C00CF
:1021B00003F07CFB1949486119491848FFF750F8AA
:1021C000164A9169114AD06803F0FEF90F49C860B8
:1021D000124AD1690D4A106903F0F6F90B490861FA
:1021E000641C642C8CDB0949C8680E4903F060FA52
:1021F0000649C86008690B4903F05AFA03490861A7
:1022000070BD0000FC0000200A010020F002002048
:10221000C0000020D0000020E000002008030020C3
:10222000B020CD3B0000C84210B50446CCB9002216
:102230006B21D02001F004FD07221921D02001F0EC
:10224000FFFC06221A21D02001F0FAFC09221C21F1
:10225000D02001F0F5FC18221B21D02001F0F0FC69
:1022600018E000226B21D02001F028FD072219215F
:10227000D02001F023FD06221A21D02001F01EFDFE
:1022800009221C21D02001F019FD18221B21D02089
:1022900001F014FD00BF2046FFF70AFE0028FAD027
:1022A0002046FFF7E9FE10BD00BFFEE770470000C3
:1022B00070B5002100230F22C47804B3154C2468A4
:1022C00004F4E064C4F5E064210AC1F10403CA40E7
:1022D000447804FA03F184781440214309010E4C38
:1022E0000678A155047804F01F050124AC40057858
:1022F0006D11AD0005F1E025C5F8004109E0047855
:1023000004F01F050124AC40044D0678761145F811
:10231000264070BD0CED00E000E400E080E100E04C
:1023200002490143024A1160704700000000FA05AB
:102330000CED00E0704700002DE9F05F04464FF01F
:102340007F594FF07C51204603F02CFB82462546F6
:102350002E460C48A0EB660635462946504603F04B
:1023600021FB8346294603F01DFB8046494603F0C6
:1023700016FC0746294603F015FB05462846BDE82E
:10238000F09F0000DF59375F01460020034A506884
:1023900020F44040084350607047000000100240A5
:1023A00029B1064AD2690243044BDA6104E0034AC8
:1023B000D2698243014BDA6170470000001002408D
:1023C00029B1064A92690243044B9A6104E0034A28
:1023D00092698243014B9A617047000000100240ED
:1023E00029B1064AD2680243044BDA6004E0034A8A
:1023F000D2688243014BDA6070470000001002404F
:1024000030B500210022002400232D4D6D6805F019
:102410000C0121B1042905D0082923D105E0294D5B
:10242000056022E0274D05601FE0254D6D6805F42D
:102430007012234D6D6805F48034022505EB92423D
:102440001CB9214D554305600BE01D4D6D6805F429
:1024500000351DB11C4D5543056002E0194D554333
:10246000056002E0174D056000BF00BF144D6D68A8
:1024700005F0F0010909154D6B5C0568DD4045600C
:102480000F4D6D6805F4E061090A104D6B5C4568FD
:10249000DD4085600A4D6D6805F46051C90A0B4D39
:1024A0006B5C4568DD40C560054D6D6805F44041D5
:1024B000890B074D6B5CC568B5FBF3F5056130BD55
:1024C0000010024000127A0000093D0018000020B0
:1024D00028000020024909888143014A1180704781
:1024E0000428004070B500260024002500F07AF88A
:1024F00006463848B6FBF0F437480088A0423CD086
:1025000035490C8040F2B27510E02846FFF783FC95
:1025100040B1B4F5B77F02D3A4F5B77404E0681CEA
:1025200085B206E0A4F26D14681C85B2B4F5B67FDE
:10253000EBD800BF29488580002516E02749888808
:10254000FFF769FC30B1012D04D11D2C01D31D3CD6
:1025500009E00CE02248405DA04203D82048405DDD
:10256000241A00E003E0681C85B21C2CE6D200BFF0
:10257000681C1A498871601CC8711648B6FBF0F1D6
:1025800000FB11644FF46160B4FBF0F01349087074
:102590004FF46160B4FBF0F100FB11403C21B0FB53
:1025A000F1F00E4948704FF46160B4FBF0F100FBAC
:1025B00011403C21B0FBF1F201FB12000749887089
:1025C0000B46DA799979988800F028F8034908725F
:1025D000002070BD805101003C0000204C01002013
:1025E0006E5E0008002103480188001F008841EA50
:1025F000004070471C28004001460020064A12880F
:102600000A40D0B2044A121F12880A4012B108B11F
:10261000012000E00020704704280040F0B5034688
:102620000C461546642093FBF0F0C6B2642093FB81
:10263000F0F700FB1730C1B2132E02DD01F1640088
:10264000C1B20846CF1701EB977701EBA707BAB2E3
:10265000072092FBF0F700FB172082B25719601E8B
:10266000DFF82CC01CF80000384482B2CF1701EB11
:102670009777BF10A1EB87071FB9032C01DA501E13
:1026800082B2072092FBF0F700FB1720C0B2F0BD2A
:10269000625E000810B50120FFF7AEFF08B1FFF73A
:1026A00021FF0220FFF7A8FF10B10220FFF712FF61
:1026B0000520FFF70FFF00F001F810BD00BF034831
:1026C000008800F020000028F9D07047042800405E
:1026D0002DE9FE4307460D46BFB9CC20DA490880F4
:1026E0006FF482704880D9484860D94888604FF2BA
:1026F0000D50888140F2CA40C8814DF2DD500882F9
:10270000B72048824FF6BD108882012F7CD165B971
:10271000012302AA1021EC2001F046FB01236A46A6
:102720001121EC2001F040FB0BE0012302AA102153
:10273000EC2001F0ABFB01236A461121EC2001F0F3
:10274000A5FB9DF808409DF80060200140EA1610A6
:10275000BD4908800846008800F4006028B108469A
:10276000B0F9000040F4704002E0B748B0F9000052
:1027700000B2B549088065B9012302AA1121EC20F5
:1027800001F012FB01236A461221EC2001F00CFB40
:102790000BE0012302AA1121EC2001F077FB0123B9
:1027A0006A461221EC2001F071FB9DF808409DF86B
:1027B000006004F00F0046EA0020A3494880084664
:1027C000408800F4006028B10846B0F9020040F4E7
:1027D000704002E09C48B0F9020000B29A4948807B
:1027E0009DB9012302AA1321EC2001F0DDFA012397
:1027F00001AA1421EC2001F0D7FA01236A46152121
:10280000EC2001F0D1FA12E01BE1012302AA13210E
:10281000EC2001F03BFB012301AA1421EC2001F084
:1028200035FB01236A461521EC2001F02FFB9DF8B2
:1028300008409DF804809DF80060200340EA0810DD
:1028400040EA2610804948600846406800F40020AD
:1028500020B1084640687F49084301E07A48406853
:102860007949486095B9012302AA1521EC2001F0AD
:102870009BFA012301AA1621EC2001F095FA01230D
:102880006A461721EC2001F08FFA11E0012302AA19
:102890001521EC2001F0FAFA012301AA1621EC20FF
:1028A00001F0F4FA01236A461721EC2001F0EEFA58
:1028B0009DF808409DF804809DF80060200440EADF
:1028C00008203043604988600846806800F4002092
:1028D00020B1084680685F49084301E05A48806893
:1028E0005949886065B9012302AA1821EC2001F03A
:1028F0005BFA01236A461921EC2001F055FA0BE03E
:10290000012302AA1821EC2001F0C0FA01236A4633
:102910001921EC2001F0BAFA9DF808409DF80060FA
:1029200046EA042000B24849888165B9012302AA19
:102930001A21EC2001F038FA01236A461B21EC2011
:1029400001F032FA0BE0012302AA1A21EC2001F077
:102950009DFA01236A461B21EC2001F097FA9DF8AD
:1029600008409DF8006046EA042000B23649C8815C
:1029700065B9012302AA1C21EC2001F015FA0123FC
:102980006A461D21EC2001F00FFA0BE0012302AA98
:102990001C21EC2001F07AFA01236A461D21EC206B
:1029A00001F074FA9DF808409DF8006046EA0420A2
:1029B00000B22549088265B9012302AA1E21EC2034
:1029C00001F0F2F901236A461F21EC2001F0ECF935
:1029D0000BE0012302AA1E21EC2001F057FA01238B
:1029E0006A461F21EC2001F051FA9DF808409DF83D
:1029F000006046EA042000B21349488265B9012309
:102A000002AA2021EC2001F0CFF901236A462121FE
:102A1000EC2001F0C9F90BE0012302AA2021EC20EF
:102A200001F034FA01236A462121EC2001F02EFA4C
:102A30009DF808409DF8006046EA042000B2024973
:102A40008882BDE8FE83000058010020553A01004D
:102A50000F2AFFFF0000F0FF2DE9FE4F00240025A4
:102A600000260027A0463E49C86802F01FFF8146A5
:102A70003B49486802F01AFF8246494602F018FEB8
:102A800004463749886802F011FF814634490868D6
:102A900002F00CFF8246494602F00AFE0546314923
:102AA000B1F9140002F002FF2946009002F07AFF0B
:102AB00083462C49B1F9100002F0F8FE5946019006
:102AC00002F082FD8246294602F06CFF81462549CC
:102AD000886802F0EBFE4946029002F075FD06465A
:102AE0002049B1F9120002F0E1FE2946019002F0FE
:102AF00059FF82461B49B1F90E0002F0D7FE83460A
:102B0000514602F061FD81462946204602F04AFF07
:102B10004946029002F046FF07461249B1F90C00FF
:102B200002F0C4FE2146029002F03CFF824631468C
:102B3000284602F037FF0B490290486802F0B6FEC3
:102B40000190029902F040FD8346514602F03CFD9F
:102B50008146394602F038FD80464046BDE8FE8F8A
:102B6000700100205801002038B504460020009074
:102B700034B903236A461946EC2001F015F905E043
:102B800003236A461946EC2001F080F99DF8000005
:102B900000049DF8011040EA01209DF8021008434E
:102BA0001C4948600846406800F4000020B108460F
:102BB000406840F07F4001E0164840681549486091
:102BC00034B903236A460021EC2001F0EDF805E05A
:102BD00003236A460021EC2001F058F99DF800001B
:102BE00000049DF8011040EA01209DF802100843FE
:102BF000084908600846006800F4000020B1084653
:102C0000006840F07F4001E0024800680149086028
:102C100038BD0000700100202DE9F14F86B000BFE3
:102C200000BF00BF00BF2A492A48CDE904102A4945
:102C3000086A02F09DFC04460022284B01F0DCFFEC
:102C4000CDE902010698FFF78FFFFFF705FF224944
:102C5000086202A80FC801F0CFFF8046204A214B2E
:102C600001F08AF906464FF066321F4B02F070F908
:102C70004FF066321C4BCDE9000102F08FFB044699
:102C80001A4A1B4B01F0B8FF824601F0C7FE1249F9
:102C900048614869174902F085FE064602F0CAFD00
:102CA00007460D490869134902F07CFE064602F00A
:102CB000C1FD381A05B2284602F0F8FD04460D4958
:102CC00002F0F6FC0449886107B0BDE8F08F00000F
:102CD000CDCCCCCCCC5459407001002000408F406A
:102CE000739B82A07A5AC83F6602724039B4C87694
:102CF000BE9F7ABF00007A4438B5044600BF34B99D
:102D000001236A460821EC2001F04EF805E001237A
:102D10006A460821EC2001F0B9F89DF8000000F0A7
:102D200080008028EBD121460120FFF7D1FC00BFB5
:102D300034B901236A460821EC2001F035F805E09A
:102D400001236A460821EC2001F0A0F89DF800005C
:102D500000F040004028EBD12346202280210020B3
:102D600000F024F8234608222021012000F01EF85C
:102D70002CB907220821EC2000F062FF04E00722B2
:102D80000821EC2000F09AFF40F6B83000F00CFF6C
:102D90002046FFF741FF2046FFF73EFF024840690B
:102DA0000149086138BD0000700100202DE9F84399
:102DB00006460F4615461C46002000908046102F00
:102DC00022D008DC012F38D0022F0BD0042F0FD0D7
:102DD000082F31D112E0202F1CD0402F20D0802F7F
:102DE0002AD123E09DF8000040F02000009025E06B
:102DF0009DF8000040F0400000901FE09DF80000AA
:102E000040F06000009019E09DF8000040F0800064
:102E1000009013E09DF8000040F0A00000900DE04D
:102E20009DF8000040F0C000009007E09DF8000011
:102E300040F0E000009001E000BF00BF00BF102D97
:102E400028D008DC012D46D0022D0BD0042D11D046
:102E5000082D3FD116E0202D24D0402D2AD0802DE2
:102E600038D12FE09DF8000040F0010000904FF4B1
:102E7000C01833E09DF8000040F0020000904FF4CD
:102E800060182BE09DF8000040F0030000904FF424
:102E9000F00823E04FF478389DF8000040F004007B
:102EA00000901BE04FF4FC289DF8000040F0050066
:102EB000009013E04FF47E289DF8000040F00600DB
:102EC00000900BE04FF4FF189DF8000040F0070061
:102ED000009003E000BF4FF4002800BF00BF0EBB0E
:102EE0003448C0F8088034B99DF800200621EC2051
:102EF00000F0A6FE05E09DF800200621EC2000F081
:102F0000DDFE082D1DDD74B901236A460921EC2080
:102F100000F04AFF9DF8000040F004020921EC2077
:102F200000F08EFE0DE001236A460921EC2000F03E
:102F3000ADFF9DF8000040F004020921EC2000F0F4
:102F4000BDFE012E34D11B48C0F80C8044B99DF859
:102F5000000040F080020721EC2000F071FE07E045
:102F60009DF8000040F080020721EC2000F0A6FE52
:102F7000082D1DDD74B901236A460921EC2000F0FB
:102F800013FF9DF8000040F008020921EC2000F03A
:102F900057FE0DE001236A460921EC2000F076FF80
:102FA0009DF8000040F008020921EC2000F086FEA8
:102FB000BDE8F88370010020704710B500F002F8FA
:102FC00010BD00000CB5002001900090334800684F
:102FD00040F480303149086000BF3048006800F498
:102FE000003000900198401C0190009818B9019899
:102FF000B0F5A06FF1D12948006800F4003010B19D
:103000000120009001E0002000900098012843D1A9
:103010002348006840F01000214908600846006815
:1030200020F0030008600846006840F002000860D5
:103030001A48406819494860084640684860084690
:10304000406840F4806048600846406820F47C1086
:1030500048600846406840F4E81048600846006848
:1030600040F08070086000BF0C48006800F00070FD
:103070000028F9D00948406820F00300074948605B
:103080000846406840F00200486000BF03484068BE
:1030900000F00C000828F9D10CBD0000001002401F
:1030A00000200240042808D14FF0E021096941F0D6
:1030B00004014FF0E022116107E04FF0E0210969BF
:1030C00021F004014FF0E0221161704770470000C9
:1030D00010B51348006840F0010011490860084627
:1030E0004068104908400E494860084600680E498B
:1030F00008400B4908600846006820F480200860FA
:103100000846406820F4FE0048604FF41F008860C5
:10311000FFF753FF4FF000600449086010BD000046
:10312000001002400000FFF8FFFFF6FE08ED00E08F
:1031300010B50121880700F0C7F818B101218807F0
:1031400000F0B0F810BD000010B50121314800F0CA
:10315000BBF801285CD101212E4800F0A3F8012022
:103160002D490860FEF7F8FB2C480068B0F57A7F1F
:103170001FDD2B49086802F079FB84B2204600F07D
:1031800051F82749486802F071FB84B2204600F0EC
:1031900059F82349886802F069FB84B2204600F0A0
:1031A00061F81F49C86802F061FB84B2204600F054
:1031B00069F81A480068B0F5C87F0FD14FF4AF70B6
:1031C00000F030F84FF4AF7000F03CF84FF4AF70FF
:1031D00000F048F84FF4AF7000F054F80F48006862
:1031E000B0F5487F0FD14FF4167000F01BF84FF484
:1031F000167000F027F84FF4167000F033F84FF413
:10320000167000F03FF805480068401C034908604C
:1032100010BD0000000400403800002034000020F1
:103220007004002010B5044640F2B630844200DB42
:10323000044604EBC40081B2014800F056F810BD0A
:103240000008004010B5044640F2B630844200DB6E
:10325000044604EBC40081B2014800F048F810BDF8
:103260000008004010B5044640F2B630844200DB4E
:10327000044604EBC40081B2014800F03AF810BDE6
:103280000008004010B5044640F2B630844200DB2E
:10329000044604EBC40081B2014800F02CF810BDD4
:1032A00000080040CA430282704721B1028842F000
:1032B0000102028004E002884FF6FE731A40028089
:1032C00070470146888C704730B5024600200023C5
:1032D0000024158A05EA0103958905EA010413B162
:1032E0000CB1012000E0002030BD818670470187CD
:1032F000704781877047A0F84010704781847047FD
:1033000010B540F225511D4800F057F810B31B4886
:1033100000F00EF9C4B21A48008800F40040C8B9A1
:103320001748008800F4804060B10A2C03D00020C8
:103330001349088020E01248008840F400401049FA
:10334000088019E00D2C06D10D48008840F480401B
:103350000B49088010E00A480088C0F30D000949B5
:103360000C5407480088401C05490880084600881E
:10337000C72801DD0020088010BD00000038014092
:10338000580000200B02002021B1828942F4005233
:10339000828104E082894DF6FF731A408281704772
:1033A00002460020B1F5007F00D100BF13880B401A
:1033B0000BB1012000E00020704770B502460024E8
:1033C00000230025002040F66A16B14200D100BF5C
:1033D000C1F3421501F01F03012606FA03F3012D84
:1033E00002D19689334006E0022D02D1168A33407D
:1033F00001E0968A33400C12012606FA04F416887E
:10340000344013B10CB1012000E0002070BDF0B5D4
:103410000346002400260025002040F66A17B94222
:1034200000D100BF1846C1F3421401F01F06012766
:1034300007FA06F5012C01D10C3004E0022C01D171
:10344000103000E014301AB107682F43076002E023
:103450000768AF430760F0BD2DE9F04786B0054629
:103460000E460024A24600BFA1460027B08900B145
:1034700000BF2F462C8A4CF6FF700440F0880443AE
:103480002C82AC894EF6F3100440B0883189084391
:10349000718908430443AC81AC8A4FF6FF40044075
:1034A000B0890443AC8201A8FEF7AAFF1F488742F7
:1034B00002D1DDF810A001E0DDF80CA0A88900F42D
:1034C000004040B10AEBCA0000EB0A103168490025
:1034D000B0FBF1F807E00AEBCA0000EB0A10316814
:1034E0008900B0FBF1F86420B8FBF0F0040120097A
:1034F000642101FB1089A88900F4004040B132200A
:1035000000EBC900B0FBF1F000F00700044308E055
:10351000322000EB09106421B0FBF1F000F00F0045
:1035200004432C8106B0BDE8F0870000003801405C
:1035300001468888C0F308007047C1F30802828002
:10354000704700BFFEE7490050EAC12018BF0420C1
:103550004A0D18BF40F0010040F2FF72B2EB515F1C
:1035600008BF40F00200012808BF05207047410055
:10357000080218BF04200A0E18BF40F001004FF0E7
:103580007F4232EA010108BF40F00200012808BF73
:10359000052070472DE9F0414F1E00EBC70104469E
:1035A000D1E9000115461E4637F006020DD02A4625
:1035B000334601F0CDFC7F1E04EBC703D3E90023A3
:1035C00001F05EFA37F00602F1D1022F25D0042F68
:1035D00013D0062F18BFBDE8F0812A46334601F00C
:1035E000B7FCD4E90A2301F04BFA2A46334601F02E
:1035F000AFFCD4E9082301F043FA2A46334601F030
:10360000A7FCD4E9062301F03BFA2A46334601F031
:103610009FFCD4E9042301F033FA2A46334601F033
:1036200097FCD4E9022301F02BFA2A46334601F035
:103630008FFCD4E90023BDE8F04101F021BA00007D
:10364000002213461046014901F0D6BA0000F03FAF
:10365000012202F09ABB01F013BA00221346104671
:10366000114601F0C9BA40F2013200204FF0E041AA
:1036700002F08BBB024A0020110702F086BB00005B
:1036800001FDFFFF01F0A0BF6FF05E01080702F02F
:10369000AABB014600BF70472DE9F04D8D4F21F0C8
:1036A000004A86B005460C46BA452ADBAAEB07005D
:1036B00028430AD08848824501DC1AD1CDB106B032
:1036C0002846BDE8F04DFFF7C3BF844A844B284627
:1036D00001F03EFC07460E46824A834B28462146AF
:1036E00001F036FC06B03A463346BDE8F04D01F035
:1036F000C7B90120FCF733FE06B0BDE8F04DFFF777
:10370000ACBF7A48824542DABAF1795F0BDA2846D3
:10371000FFF719FF042808BFFFF7ACFF284606B0E3
:103720002146BDE8F08D2A460B46104601F010FCFC
:10373000834602466E480E460B4606217844FFF744
:1037400029FF5A46334601F003FC804669488A4601
:103750005A46334604217844FFF71CFF5A46334645
:1037600001F0F6FB00223B4601F08AF902460B46C7
:103770004046514601F040FA2A46234601F0E8FB54
:1037800006B02A462346BDE8F04D01F079B9284637
:1037900024F0004100223D463B4601F00DFD4FF074
:1037A000FF3202F0F2FA0646024653480F460B4635
:1037B00006217844FFF7EEFE32463B4601F0C8FB97
:1037C000CDE900014D4832463B4604217844FFF7DD
:1037D000E1FE32463B4601F0BBFB00222B4601F0E6
:1037E0004FF9834602913046394601F0A1F88046F0
:1037F00043480D46504517DCDDE900015A46029B5F
:1038000001F0FAF942462B4601F0A2FB42462B4654
:1038100001F036F9012202F0B8FA304A304B01F0DB
:10382000BDFD304A304B4CE04FF0000A52460B468B
:10383000404601F025F9CDE9031052462B461046CB
:10384000194601F085FB32463B4601F0B5FCDDE947
:10385000033201F0D1F906460F46DDE900015A4670
:10386000029B01F0C9F98346009101223046394696
:1038700002F08BFA194A1A4B01F09EFC06460F46DD
:1038800001224046294602F080FA5A46009B01F088
:103890005FFB32463B4601F081FD06460F460122A2
:1038A0005046294602F071FA0E4DDFF858802A463C
:1038B000434601F081FC32463B4601F07DFC2A463E
:1038C000434601F079FC002CD8BF81F0004106B0DE
:1038D000BDE8F08D0000F03F0000F07F075C14337E
:1038E00026A6913C182D4454FB21F93F0000E03FEF
:1038F0004027000056270000CA260000E0260000EE
:103900003333EF3FFB21E93F2DE9F0474FF06842A9
:1039100002EB40030C460546B3F1654F3CBF02EB9A
:103920004102B2F1654F7CD2C0F3C753C1F3C75215
:103930009A1A1B2A06DD10F0004F14BF764877480C
:10394000BDE8F08712F11A0F17DA11F0004F06D018
:1039500010F0004F0CBF72487248BDE8F087214656
:10396000284601F0A5FE0446FFF701FE042808BF23
:10397000FFF78AFE2046BDE8F0874200B2EB410F18
:1039800025D910F0004F19BF674F684E684F694E38
:10399000224685F0004415460A4680F00041104654
:1039A0000A1A5200B2F1807F40D248406249DFF8E3
:1039B0008CA110F0004F18D04FF03F48384602F06D
:1039C000F9F807465146304602F0F4F817E011F0D6
:1039D000004F04BF00263746E2D010F0004F19BF59
:1039E000574F584E584F594EDAE74FF07C583846EB
:1039F00001F0EAFD07465146304601F0E5FD064676
:103A00004146284601F0CEFF214601F0DDFD824609
:103A10002146404601F0C6FF294602F0C0F8514653
:103A200000E037E001F044FE044604E02146284669
:103A300001F03EFE0446014601F0B4FF80464449D1
:103A400001F0B0FF434901F0BFFD414601F0AAFF7C
:103A5000414901F0B9FD414601F0A4FF3F4901F0A1
:103A6000B3FD414601F09EFF3D4901F0ADFD054625
:103A70004146204601F096FF294601F093FF31466A
:103A800001F0A2FD214601F09FFD3946BDE8F04757
:103A900001F09ABD4FF07F42B2EB400F28BFB2EB6E
:103AA000410F03D2BDE8F047FFF7ECBD40EA010348
:103AB0005B0008BF44F0FF410AD0B2EB400F08BFE3
:103AC000B2EB410F06D125F0804024F0804105463D
:103AD0000C4629E7B2EB400F12BF5FEA410245F006
:103AE000FF4004F000413FF41FAF4A0092EA400358
:103AF0003FF51AAF002AACBF4FF09F464FF03E563D
:103B0000314601F04FFF05463146204601F04AFF9D
:103B100004462846214607E7DB0FC9BFDB0FC93F34
:103B2000DB0F4940DB0F49C00000C9BF22AAFDB925
:103B30000000C93F22AAFD390060ED3EC30ACE371E
:103B4000000049C022AA7DBA0000494022AA7D3A5D
:103B50002DAD65BD8FB8D53D0FB511BE61C84C3ECA
:103B6000A8AAAABE10B56FF00400FFF79BFA0A4896
:103B700000680A49B0FBF1F009490870084600786E
:103B800000EB4001C1EBC0104FF6FF7101EAC0002D
:103B90000449088010BD00000400002000127A00D3
:103BA00050000020520000200146114A12884A436A
:103BB0004FF0E0235A6100229A611A46126942F0DE
:103BC00001021A6100BF4FF0E022106900F001020B
:103BD0001AB100F48032002AF5D04FF0E0221269C9
:103BE00022F001024FF0E0231A6100229A6170472F
:103BF000520000200146114A12784A434FF0E02358
:103C00005A6100229A611A46126942F001021A6151
:103C100000BF4FF0E022106900F001021AB100F479
:103C20008032002AF5D04FF0E022126922F0010222
:103C30004FF0E0231A6100229A6170475000002083
:103C400070B504460E46154601211948FDF7D1FE10
:103C500000BF18491648FDF79FFE0028F9D0002242
:103C600021461348FDF774FF00BF13491048FDF7C4
:103C700093FE0028F9D031460D48FDF772FF00BFD2
:103C80000D49891C0A48FDF787FE0028F8D029460F
:103C90000748FDF766FF00BF0749891C0448FDF788
:103CA0007BFE0028F8D001210148FDF7AEFE70BD73
:103CB00000580040010003008200070070B5044670
:103CC0000D461646FEF70CF804F0FE00FDF7D4FF93
:103CD000FEF752F82846FDF7CFFFFEF74DF83046C5
:103CE000FDF7CAFFFEF748F8FEF720F870BD0000A8
:103CF00010B586B004468CBB01210820FEF760FB9E
:103D000001218805FEF74CFB4FF44060ADF814002C
:103D100003208DF816001C208DF8170005A91D48FA
:103D2000FDF7E8F90020ADF808004BF6FF70ADF89C
:103D30000A000A20ADF80C004FF48060ADF80E00C8
:103D40000001ADF810001448019001A91348FDF7D7
:103D500085FE01211148FDF734FE18E0FFE701213F
:103D60000820FEF72DFB4FF44060ADF81400102042
:103D70008DF8170003208DF8160005A90548FDF7FA
:103D8000B9F90120064908600649C1F8AC0106B03E
:103D900010BD0000000C0140400D03000058004021
:103DA000A8812142008021422DE9F04106460F46BC
:103DB00015461C4600BF4FF400313148FDF731FE77
:103DC0000028F8D101212E48FDF713FE00BF2D4930
:103DD0002B48FDF7E1FD0028F9D0002231462848A4
:103DE000FDF7B6FE00BF28492548FDF7D5FD0028A0
:103DF000F9D001212248FDF7E4FD39462048FDF7BE
:103E0000B0FE00BF2049891C1D48FDF7C5FD0028F4
:103E1000F8D001211A48FDF7ECFD00BF19491848F8
:103E2000FDF7BAFD0028F9D0012231461448FDF70C
:103E30008FFE00BF1349491C1148FDF7ADFD002856
:103E4000F8D015E0012C07D100210D48FDF798FDB1
:103E500001210B48FDF7D9FD0A493F310848FDF71C
:103E60009BFD28B10648FDF76FFE28706D1C641E8F
:103E7000002CE7D101210248FDF782FDBDE8F08169
:103E80000058004001000300820007002DE9F041C6
:103E900006460F4614461D46FDF722FF06F0FE00BB
:103EA000FDF7EAFEFDF768FF3846FDF7E5FEFDF792
:103EB00063FFFDF715FF46F00100FDF7DDFEFDF79E
:103EC0005BFF0CE0012D04D10020FDF79DFE20706A
:103ED00003E00120FDF798FE2070641C6D1E012D8B
:103EE000F0DAFDF723FFBDE8F0812DE9F047044645
:103EF0000D46D4E9000101F067FB80464046A16809
:103F000001F062FB07463946404601F0D1FB064608
:103F10002846E16801F04EFE8146314601F042FD3F
:103F20000746E16801F050FBE06031464FF07E50FB
:103F300001F040FE0746414601F034FD2060BDE837
:103F4000F0870000FDF74AFF13E0FCF737FB012084
:103F5000FDF76CF94FF4A57100FB01F4E11704EBD8
:103F60001151081301F0A2FC024908600120FFF77B
:103F70001BFEEAE7000000202DE9F04D16460F4633
:103F800094B01C4621F0004123F00042002814BFE9
:103F90004FF0010C4FF0000C0CEB470CFE4B0CEB00
:103FA00003054FEA630C65452BD3350018BF012587
:103FB00005EB44051D44F94B9D4222D3F84B52EAD0
:103FC000060C02D09F4205D148B914B00020194612
:103FD000BDE8F08D002808BF4FF0000C01D04FF075
:103FE000010C0CEB470313F5001F0AD8002E14BF79
:103FF0004FF0010C4FF0000C0CEB440313F5001FC5
:1040000007D914B0324623463946BDE8F04DFFF7D4
:1040100022BBDFF890834FF0000A002FB8BF424563
:1040200023DAE14B9A42A8BF4FF0020A1DDADC4BBB
:1040300093421ADCDD4B03EB2253142B08DDC3F152
:10404000340C26FA0CF303FA0CFCB4450DD108E04D
:104050005EB9C3F1140C22FA0CF303FA0CFC94457C
:1040600003D103F00103C3F1020A51EA00031BD19B
:10407000002C19DA002F18BFBAF1020F02D0BAF1E2
:10408000010F07D00220FCF76AF914B0BDE8F04D2B
:10409000FFF7D6BA0220FCF762F9FFF7D1FA14B0A5
:1040A00081F00041BDE8F08D330070D1424525D14B
:1040B00007F1804212F5801201BF00280020B849A4
:1040C00014B008BFBDE8F08DB548884207DC002C6D
:1040D000A1BF1846214614B0BDE8F08D07E0002CC2
:1040E000BFBF184684F0004114B0BDE8F08DB04960
:1040F0007944D1E9000114B0BDE8F08DDFF8A0C229
:1041000062452AD1002C24DA39B1414517D1002863
:1041100004BF002002461CD106E040B10220FCF79B
:104120001EF9FFF7A0FA0A46394600F0D7BA9D4AB1
:10413000394614B0002062F31E01BDE8F08D08DAA4
:1041400014B03B46BDE8F04D02460020614600F049
:1041500053BD14B03946BDE8F08D414517DAB4F1CE
:10416000804F0CD0A4F10053B3F1FF530FD13B1E8D
:104170000DDB14B01946BDE8F04D00F0D9BB3B464D
:1041800014B00246BDE8F04D194600F0E1BE05004E
:1041900027F000433AD1E1B1414537D1002F06DD88
:1041A000002CA1BF0020414614B0BDE8F08D002FC7
:1041B00001DD002C1FDB002F16DA002C14DBBAF116
:1041C000010F4FF0000014BF76497A4914B0BDE8E2
:1041D000F08DBAF1020F18BF002F0CD0BAF1010F09
:1041E00009D1002F07DA0BE0002FB8BF002C0DDA41
:1041F000BAF1010F04D0002014B00146BDE8F08DE3
:1042000014B000204FF00041BDE8F08D4FF00108E0
:1042100008EBE77CCDF814C05CEA0A0C0DD0DFF89F
:1042200098C162457EDDDFF894C1654B624512DDC1
:104230008B420ADB002C18DB23E00120FCF78FF80F
:1042400014B0BDE8F04DFFF708BA554A8A4202DCC7
:10425000002C0ADC15E0994202DA002C11DA04E0A5
:104260004F4B994219DD002C0BDD0220FCF777F84B
:10427000FFF7F9F94B4A14B061F31E021146BDE88D
:10428000F08D0220FCF76BF8FFF7F4F9444A14B004
:1042900061F31E021146BDE8F08D0022394601F09F
:1042A0007DF807460D466FF0010201F06EFD4FF0FC
:1042B0005532444B00F080FF3A462B4600F048FE52
:1042C0000022414B00F078FF80468B463A462B4651
:1042D0001046194600F03CFE42465B4600F038FEB0
:1042E00088460E904FF0C042384B3846294600F0C1
:1042F0002FFE83460091364A344B41460E9800F01B
:1043000027FE80460191334A334B3846294600F058
:104310001FFE4246019B01F041F80D4602460B4646
:104320000C9000E011E05846009900F0A9FB00272E
:1043300088465A463846009B01F030F82B460C9AC6
:1043400000F03AFF024600F079B90020B1F5801F75
:1043500007DA35222846194601F017FD05466FF0A9
:10436000340000EB2150A0F2FF300190C1F31300A4
:1043700040F07F6141F04051029118498842D8BF16
:104380004FF0000B35DD16498142C8BF4FF0010BDD
:104390002FDC4FF0000B25E0FFFF1F00FFFF0F0099
:1043A0000000F03F0000F07F0000404301FCFFFFF1
:1043B000641E00000000F0FF0000E0410000F04338
:1043C000FFFFEF3F5555D53F0000E03F4715F73F52
:1043D000FE822B6544DF5DF80BAE543E8E980300E1
:1043E0007AB60B000198401C01900298A0F580104D
:1043F0000290FF480299784400EBCB000991D0E984
:10440000002328460B93129200F0C8FF00910A90F7
:1044100028460B9B129A099900F032FB02460B4684
:104420000020F44900F0E8FBCDE90C010B46024600
:1044300000990A9800F08CFD0690EF488846002706
:1044400078440299006810904FF0005040EA6100F3
:1044500000EB8B4000F5002102910B9B129A109803
:1044600000F09CFF2A46099B00F0A6FE3A46434610
:1044700000F06EFD0891129038464146029B109A5A
:1044800000F066FD009B0A9A00F096FE089B129AC7
:1044900000F084FFDDE90C2300F05AFD0B91069A31
:1044A000129043461046194600F052FD054602465A
:1044B000D2480B460A9106217844FFF76BF80A9B15
:1044C0002A46089102901046194600F041FD089BCB
:1044D000029A00F03DFD05460991434638461946CB
:1044E000069A00F0CDFA0B9B129A00F031FD2A4695
:1044F000099B00F0C5FACDE908013A46434610464B
:10450000194600F025FD0A910022BD4B009000F0F5
:10451000B7FADDE9082300F0B3FA0D463A46B84B86
:10452000384600F03BFF0A9B009A00F037FFDDE9B8
:10453000082300F041FECDE908013A462B4610461B
:10454000414600F005FD00910A90DDE9080143466F
:10455000069A00F0FDFC069088462B463A460B99D9
:10456000129800F0F5FC4346069A00F089FA80465E
:104570000B4602460D9100990A9800F081FA00203E
:104580000F460546009B0A9A00F008FF42460D9B25
:1045900000F012FE88460E904FF06042994B28467C
:1045A000394600F0D5FC02910090974A954B414660
:1045B0000E9800F0CDFC80460391944A944B284617
:1045C000394600F0C5FC4246039B00F059FA914A77
:1045D0007A4402EBCB03D3E9002300F051FA0546FD
:1045E0000791019800F060FC0C9003912A46079B0C
:1045F0000299009800F044FA874A7A4402EBCB0310
:10460000D3E900239346019300F03AFA039B0C9AF6
:1046100000F036FA002788463846039B0C9A00F0D3
:10462000BDFE5A46019B00F0B9FE029B009A00F0C5
:10463000B5FE2A46079B00F0BFFD0246002006900B
:1046400005986C4DAAF10103184301D1734D0690F2
:1046500000200B4604903046214600F079FC82464B
:104660008B46234630461946049A00F097FE3A4698
:10467000434600F06DFC52465B4600F001FA0646E8
:104680008A463A4643462146049800F061FC0446B7
:104690000F463246534600F0F3F9614A8B46914289
:1046A00021DBABEB020353EA000210D122463B466A
:1046B00000F074FE804603915A4A5B4B30465146E7
:1046C00000F0DEF94246039B00F040FD27D20220B5
:1046D000FBF745FEFEF7C7FF0A46294614B062F312
:1046E0001E01BDE8F08D514B2BF000429A4216D3CB
:1046F0004F4A0BEB020353EA000208D122463B4625
:1047000000F04CFE3246534600F020FD07D8022050
:10471000FBF725FEFEF7AEFF0A462946DEE72BF043
:1047200000404449444A01EB20514FF000088242C6
:1047300023DA481C4FF4801121FA00F058443F4A14
:10474000C0F30A517A443E4BA1F2FF31CB4020EA3C
:104750000303C0F3130040F4801CC1F1140012687D
:104760002CFA00F8BBF1000FB8BFC8F100082046D2
:10477000394600F013FE04460F4622463B463046BB
:10478000514600F07DF94FF0000B5A462D4B58462C
:10479000039100F0DDFB00910A902B4A2B4B584609
:1047A000039900F0D5FB0491029022463B465846FF
:1047B000039900F0F3FD3246534600F0FDFC244A15
:1047C000244B00F0C5FB049B029A00F059F9074600
:1047D0008A46009B0A9A00F053F904460E46009B55
:1047E0000A9A00F0DBFD3A46534600F0E5FC33E060
:1047F000D61A00000000F03F141B0000441A00000D
:104800000000084009C7EE3FFD033ADCF5015B14E8
:10481000E02F3EBE1C190000E21800000000F0BFAF
:1048200000009040FE822B654715973C00CC9040DD
:1048300000346F3F01FCFFFF0000E03F1018000054
:10484000FFFF0F00432EE63F396CA80C615C20BED1
:10485000EF39FAFE422EE63F0746224633460F91D5
:104860001046194600F074FB834602462E488A46DD
:104870000B4605217844FEF78DFE5A46534600F05C
:1048800067FB2246334600F097FC82468B463A4649
:10489000204631460F9B00F05BFB3A460F9B00F031
:1048A000EFF80F460A9000224FF0804350465946D9
:1048B00000F074FD0391009052465B46204631465D
:1048C00000F046FB039B009A00F096F93B460A9ADB
:1048D00000F064FD2246334600F060FD0022134BD9
:1048E00000F06AFC0E46044601EB0851081500284A
:1048F00010DC42462046314601F047FAFEF723FE1F
:10490000042808BFFEF7B6FE42462046314601F0B5
:104910003CFA044606980B4614B022462946BDE8E8
:10492000F04D00F015BB0000B81600000000F03F8D
:104930002DE9F04106460F4600F04AFC04000D4602
:1049400018BF0120284320F00040C0F17F6000F133
:10495000E040C00F0ED0301C18BF0120384320F0BB
:104960000040C0F17F6000F1E040C00F04BF0120B3
:10497000FBF7F5FC20462946BDE8F08110B586B06E
:104980000446012144F20400FDF71AFD4FF40070C3
:10499000ADF8140003208DF8160018208DF81700CC
:1049A00005A91C48FCF7A6FB4FF48060ADF8140085
:1049B00004208DF8170005A91648FCF79BFB25205D
:1049C0008DF8000003208DF801008DF80200012011
:1049D0008DF803006846FDF76BFC01940020ADF8EC
:1049E0000800ADF80A00ADF80C00ADF810000C207E
:1049F000ADF80E0001A90848FEF72EFD012240F295
:104A000025510548FEF703FD01210348FEF7BCFCD4
:104A100006B010BD000801400038014021F00042FE
:104A2000A2F16052B2F5801F01F0004328BFD2F11D
:104A30007F6C0BD95FEA001C43EAC20242EB507064
:104A400018BF704728BF20F001007047B2F5801FE3
:104A5000BCBF184670474FEA410C1CF5001F02D23C
:104A6000084601F066B870B500F01CFB0000008934
:104A7000FFF7F6BF4FF00040A0F580007047000040
:104A800010B591EA030F48BF83F0004300F18E8414
:104A9000841A71EB030C05D2121943EB0C03001BB3
:104AA00061EB0C01DFF824E14FEA1154A4EB135C35
:104AB0001EEA430F18BF9EEA445F73D023EA0E0339
:104AC000DCF1200E21EA045143F4801332D322FAA0
:104AD0000CFE10EB0E0023FA0CFE41EB0E01CCF1A4
:104AE000200E03FA0EFE10EB0E0051F10001B1F59D
:104AF000801FCCF1200E32D201EB045112FA0EF2DB
:104B0000BDE8104058BF7047401C38BF5FEA420202
:104B100018BF7047002814BF20F0010041F10001C8
:104B20004FEA410313F5001F38BF7047A1F1C041A0
:104B300000F006BB012A43EB0302ACF1200CDCF1D0
:104B40001F0E32BF4FF0000E23FA0CF310EB0300E0
:104B500041EB0451B4EB115FD0D0A1EB045101F54E
:104B6000801149085FEA300001EB04510ED350F187
:104B7000000038BF12FA0EFE08D1BDE81040C9E7A8
:104B8000401C38BF5FEA4202CAD1C3E7BDE810400B
:104B90004FEA410313F5001F38BF7047A1F1C04130
:104BA00000F0CEBA9EEA445F08D011EA5E0FBDE87D
:104BB000104004BF01F0004100207047BDE81040E4
:104BC00070B500F06FFA00BF64FBBE3E0000E0FF6E
:104BD00002494FF0000001F0A6B800BF0000F87FC6
:104BE000491058BFC1F140415B1058BFC3F1404369
:104BF0008B42EFF3008070472DE9C04130B4DFF8FD
:104C0000A0C23CEA111418BF3CEA131400F0EC8077
:104C100081EA03051CEA111444EAD57418BF1CEAA2
:104C2000131500F0C780A4EB05044FF0004545EADA
:104C3000C12145EAC32341EA505143EA525304F1EA
:104C40007F74994204F500344FEAC0204FEAC22233
:104C500008BF904200F09C804FEA13650FF24016A7
:104C6000765D4FEA134506FB05F7C7F1807706FB33
:104C700007F74FEAD737A7FB03687642C8F58038B5
:104C8000A7FB06CE38BFA8F1010807FB08E64FF0E6
:104C9000000EA6FB028CE6FB03CEDCF1000CCEF18D
:104CA000004E38BFAEF1010EA6FB0C584FF00007C6
:104CB0004FF00005E6FB0E87A1FB08C6A0FB07CE60
:104CC00016EB0E0645F10005E1FB076515F1E04E18
:104CD0007EBFA4F580345FEA46066D4116F1800779
:104CE00045F100054FEA17274FEA066647EA0567D0
:104CF000A6F1DE46B6F1805F4FEA15251FD938468A
:104D000024F0010C05EBC471BCF1FE6F01EB0C113A
:104D100002D8F0BCBDE8008124425CBF01F5801ED2
:104D20009EEAC47F02D4F0BCBDE80081244238D49E
:104D3000F0BCA1F1C041BDE8004100F001BA4FEA6A
:104D4000D22242EA43524FEAD323A7FB02864FEA1C
:104D5000D02040EA415007FB03661EEA0E0F4FEADF
:104D6000D12105FB026658BFA6EB0056B6EB0056F4
:104D70004FEA520E4EEAC37E18EB0E0E56EB530E60
:104D8000BDD518EB02085E417F1C55F10005B6E762
:104D90004FF480154FF000074FF000064FF0000869
:104DA000ADE7F0BC4FF0000001F1C04101F000415F
:104DB000BDE8008111EA0C1F0CEA131500D00CE0CD
:104DC00013EA0C1F00F025804FF00000F0BC81EAD0
:104DD000030101F00041BDE80081F0BCBDE80041E5
:104DE00081EA030100F0ACB9F0BCBDE8004170B548
:104DF00000F058F9097EFC3E00F007B881EA030193
:104E00004FF0000001F00041704781EA030100F01B
:104E100097B9F0BCBDE800414FF000002149704750
:104E2000FFFDFBF9F7F5F4F2F0EEEDEBE9E8E6E46F
:104E3000E3E1E0DEDDDBDAD8D7D5D4D3D1D0CFCDF6
:104E4000CCCBCAC8C7C6C5C4C2C1C0BFBEBDBCBB2F
:104E5000BAB9B8B7B6B5B4B3B2B1B0AFAEADACAB2A
:104E6000AAA9A8A8A7A6A5A4A3A3A2A1A09F9F9E04
:104E70009D9C9C9B9A9999989797969595949393B6
:104E8000929191908F8F8E8E8D8C8C8B8B8A89894D
:104E900088888787868585848483838282818180D0
:104EA0000000FF070000F87F10F0004248BF4042BA
:104EB000B0FA80F310FA03F10AD0C3F11D0303F531
:104EC00080634FEA415002EB035202EBD12170475D
:104ED0004FF000007047000051EA030C17D41CF596
:104EE000801F58BFBCF5801F00F10680994218BF93
:104EF000704708BF9042704707D711F5801F58BF11
:104F000013F5801F19D499427047894270471CF5E8
:104F1000801F08D5BCF5801FF7D58B4218BF70479E
:104F200008BF824270474FF4001C1CEB410F38BF92
:104F30001CEB430F01D28B42704770B500F0B2F802
:104F4000922449004FF000514FF08053FFF748BEC4
:104F5000DFF848C170B51CEA111E1EBF1CEA13150C
:104F60009EEA0C0F95EA0C0F00F06F8081EA0304B3
:104F700023EA4C134EEAD47E21EA4C1141F480110D
:104F800043F48013AE44A1FB024CA0FB0365AEF1D9
:104F90007F7E361955EB0C05A1FB034C4CF1000349
:104FA000A0FB021C16EB0C06654153F100030942FD
:104FB00018BF46F0010613F4007F0BD14FEA03310E
:104FC0004FEA0530340341EA155140EA16506FF0BC
:104FD00003020AE04FEAC3214FEAC520F40241EA86
:104FE000555140EA56506FF0020202EB2E4201EB9F
:104FF000025585EACE710AD05FEA440C18BF24F04E
:10500000004450F1000041F1000120EAD47040F268
:10501000FE7C624500D270BDA84214BF4FF08044B0
:105020004FF04044002E08BF0024BEF1806FA8BF9F
:10503000A1F1C041BDE8704080F282804FF00000D5
:1050400001F1C04101F0004170479EEA0C0F0CEAEB
:10505000131518BF95EA0C0F06D04FF0000081EA37
:10506000030E0EF0004170BD00F01CF88900013EF7
:1050700000F007B800F009B84FEA430C5FEA5C5C47
:1050800008D081EA030100F05BB84FEA410C5FEA07
:105090005C5CF6D14FF00000014970470000FF074B
:1050A0000000F87F0EF1020E2EF0030E5EF8046B86
:1050B000364205D4012A43EB030515F5001F12D82B
:1050C000012841EB010C1CF5001F0CD80ED14FEA52
:1050D000D17C15F5001F0CEB4C0C0CF1020C08BF39
:1050E0004CEBD37C04E04FF0080C01E04FEAD37C9A
:1050F0000CEB4C0526FA05F606F00706B6F1040C93
:1051000006D20EEB860CBDE870404CF0010C6047F7
:10511000DFE80CF0090B02024FF000414FF00000F5
:10512000A1F5002170BD19461046012851EB01047C
:1051300018BFD4F5001484BF002001F0004170BDF9
:105140000808A0F500114FEA3101704753EA010C3D
:1051500017D41CF5801F58BFBCF5801F00F10680D6
:105160008B4218BF704708BF8242704707D713F5BC
:10517000801F58BF11F5801F19D48B4270479B4286
:1051800070471CF5801F08D5BCF5801FF7D59942E4
:1051900018BF704708BF904270474FF4001C1CEBCB
:1051A000430F38BF1CEB410F01D2994270470FB437
:1051B0000CBC03BCFFF7C1BE91EA030F10B581F030
:1051C00000413FF565AC83F0004300F0EFB800000C
:1051D0002DE9F04101F5801CBCF5001FC0F2C38031
:1051E0004FEA115C21EA0C510CF1FD0C41F48011E5
:1051F0005FEA5C0C0CF5C07C01D3400049413DA442
:10520000890241EA905187028E0E0A0CA45D04FBCC
:1052100004F602FB06F6C6F14046A4FB0662F60D54
:1052200046EA422606FB06F4A4FB01235242C3F1E0
:10523000404338BF5B1EA6FB02420024E6FB03246A
:10524000D20B42EA4446A6FB0623A1FB02E2A3FBE3
:1052500007E4A4184FF0000252F10002E3FB014200
:105260006442C2F1404E38BFAEF1010EA6FB0423EA
:105270004FF00002E6FB0E32A2FB03464FF00004A3
:10528000B61954F10004E2FB0264A1FB06E6A4FB9C
:1052900007E816EB08064FF0000858F10008E4FB99
:1052A00001687642C8F1405838BFA8F10108A2FB56
:1052B00006E4A3FB08E52D194FF0000454F10004A7
:1052C000E2FB0854A1FB05E6A7FB04E818EB06087F
:1052D0004FF0000656F10006E1FB048618F12005A8
:1052E00056F10006A809A8F11B08B10908F03F080B
:1052F000B8F10A0F40EA86601CD901EB0C51BDE8F9
:10530000F08100BFFCF5EEE8E2DDD8D3CFCBC7C318
:10531000C0BDB9B6B4B1AEACA9A7A5A3A19F9D9BD2
:105320009A9896959392908F8D8C8B898887868595
:1053300084838281A0FB006800FB01F208EB420835
:10534000B8EB872807D5341858EB0104D5D5401C95
:1053500051F10001D1E7341A78EB0104CDD4401E9D
:1053600071F10001C9E75FEA4C0C5FEA9C5C0DD16A
:1053700005D34FF0000001F00041BDE8F081BDE829
:10538000F04170B5FFF78EFE6DDBFFBEBDE8F0416A
:105390004FF00000004970470000F87F10B591EA17
:1053A000030F48BF83F000433FF572AB841A71EBE3
:1053B000030C07D212198CF0004C43EB0C03001BBA
:1053C00061EB0C01DFF8A4E14FEA1154A4EB135C8C
:1053D0001EEA430F18BF9EEA445F00F0B08023EA44
:1053E0006E03524221EA0451C3EB6E0338BF5B1EC9
:1053F000DCF1200E25D322FA0CFE10EB0E0043FA4E
:105400000CFE41EB0E01CCF1200E03FA0EFE10EB68
:105410000E0051F10001CCF1200E29D412FA0EF247
:1054200001EB0451BDE8104058BF7047401C1CBF41
:10543000B2F1004F704700280CBF491C20F001005A
:10544000704712EB020E43EB030218BF4FF0010E40
:105450004EEA4202ACF1200CDCF11E0E54D943FAA4
:105460000CFE10EB0E0051F1FF31CCF11E0ED5D524
:105470000EF1010E12FA0EFE404141EB010101EB6B
:10548000445C5FEA5C5C10D910EBDE7001EB045108
:1054900038BFBEF1004FBDE8104018BF704700286C
:1054A0000CBF491C20F00100704730D24FEAD42CC9
:1054B00011F5001124F400641BD0B1FA81F20B3A0B
:1054C000A41AA41ED2F12003914030FA03F3194329
:1054D000904001EBCC71002C01EB0451BDE8104071
:1054E000A8BF704701F1C0414FF0000001F000413A
:1054F0007047B0FA80F310FA03F100D110BDE41A3E
:10550000173C4805C90AE4E701EB045110BD4910F6
:1055100001EB0451BDE810404FEA300002E04FF0CB
:10552000000170474A0008BF0042F8D0B2F5001FE2
:1055300028BF704701F000414FF0000070479EEA1D
:10554000445F07D011EA5E0FBDE8104004BF0021A0
:1055500000207047BDE8104070B5FFF7A3FD00BF05
:1055600040DFF63E83F00041104670470000E0FF48
:1055700043004FEAD30C4FEA3C0C43401FBF4007A7
:105580000CF1605113F0FE4F70471CF0006F03D117
:1055900000200CF0004170470CF0004343EA5070CB
:1055A00010B540EACC0000F07EFA00BF0000009287
:1055B0004FEA0001FFF7C4BD4FF000414FF000007B
:1055C000A1F500217047000090EA010F48BF81F06B
:1055D000004100F1F682421A3CBF801A89184FEA56
:1055E000D0524FF07F4C1CEA410FA2EBD15318BFB1
:1055F0009CEA026F00F03B804FF0004C4CEA002028
:105600004CEA012121FA03FC10EB0C0C1ED202F132
:10561000FF325FEA1C2040EBC25038BF70471CF0DD
:105620007F0F4FEA400C18BFBCF17F4F38BF704767
:10563000C3F12003994008BF20F00100BCF17F4F67
:1056400038BF7047A0F1C04000F073BA4FEA3C0089
:10565000000A40EBC25028BF1CF0FF0F4FEA400C7D
:10566000E6D018BFBCF17F4F38BF7047EAE79CEA2D
:10567000026F05D010EA5C0F08BF00F000407047D1
:1056800010B500F010FA00BF64FBBE3E014800F008
:105690004ABB00BF0000C07F401058BFC0F140406F
:1056A000491058BFC1F140418142EFF3008070477B
:1056B0004FF47F0C1CEAD0121EBF1CEAD11392EAF1
:1056C0000C0F93EA0C0F00F0858090EA010F48BFA1
:1056D00042F4807240F4000C41F400002CF07F4151
:1056E00020F07F4000B58142A2EB03020FF2081CBC
:1056F000ACEB504EC0F100009EF800E04FEA4E0EB9
:1057000000FB0EFC38BF49004FEA2C1C02F5FA02E0
:105710000CFB0EF34FEACE1E4FEA112C4FEAC121CB
:105720000EEB635E42EB22420EFB0CFC4FEA1C5375
:1057300000FB03114FEA112C4FEA01310EFB0CFC68
:105740004FEADC4C00FB0C11C14228BF09184CEB9E
:1057500003335DF804EB10EB410143EBC250B2F5AB
:105760007C0F38BF704729D512F0F00F1CBF00F135
:10577000C04000F0004070470081828384858687A6
:1057800088898B8C8D8E8F919293959697999A9C00
:105790009D9FA0A2A3A5A7A8AAACAEB0B2B3B5B76F
:1057A000B9BCBEC0C2C5C7C9CCCED1D4D7D9DCDF45
:1057B000E2E6E9ECF0F3F7FAFE0000004FEA400CF5
:1057C0000CF1807CBCF17E4F28BF7047B0F1C04027
:1057D00000F0AFB990EA010F0CEAD11348BF42F4D0
:1057E0008072624538BF634507D213F47F0F16D02D
:1057F00080EA010000F00040704710B500F053F956
:10580000097EFC3E00F005B880EA010000F000408F
:10581000704780EA010000F0004000F08AB912F4FD
:105820007F0F04BF0248704780EA010000F081B991
:105830000000C07F41000B0ED3F19E0208D950F446
:1058400000034FEA032323FA02F048BF40427047A7
:1058500010B500F028F900BF49922480002070475D
:105860006FF0004282EA200070470000C10DD1F1C4
:105870009E0206DB4FEA002343F0004323FA02F0C6
:105880007047004207D54FEA4001B1F1FE4F02D206
:105890004FF00000704710B500F005F949922480E0
:1058A000002070476FEA20007047000010F00041B0
:1058B00048BF4042B0FA80F310FA03F2C3F19D03EF
:1058C0000BD051EAC35101EB1220530638BF704789
:1058D00000F1010008BF20F0010070474FF07E5238
:1058E00009E011F0004204D54042C1F1000138BF87
:1058F000491E42F07E520B0002F1706212BF20235B
:105900005FEA00017047B1FA81FCA3EB0C0301FAD6
:105910000CF120FA03FC02EBC352C3F1200341EA6D
:105920000C0110FA03FC5CEA416C42EB112018BF39
:105930005FF0806C28BF20F00100704750EA010C36
:1059400000F113801CF5000F58BFBCF5000F01D407
:105950008842704707D710F5000F58BF11F5000FA8
:1059600015D488427047894270471CF5000F04D552
:10597000BCF5000FF7D5814270474FF0807C1CEBDF
:10598000400F38BF1CEB410F01D28142704710B568
:1059900000F089F8922449004FF000504FF08051F8
:1059A000FFF77ABE4FF47F0C1CEAD0121EBF1CEA30
:1059B000D11392EA0C0F93EA0C0F00F0478090EAA3
:1059C000010F48BF42F480724FF0004C4CEA0020B7
:1059D0004CEA012102EB0302A0FB0113A2F5000235
:1059E000002918BF43F001035B0028BF4FEA3303CF
:1059F00042EB22425FEA132C4CEBC2502EBFBCEBB1
:105A0000436FB2F57C0F70474FEA036CBCF1004F57
:105A100008BF20F00100B2F57C0F38BF70470BD5EE
:105A200082F0FF0212F5803FC8BF704700F1C0400E
:105A3000D8BF00F00040704700F5000C5FEA4C0C46
:105A400048BF7047B0F1C04000F073B890EA010F52
:105A50000CEAD11348BF42F48072624538BF6345F7
:105A600004D280EA010000F00040704710B500F059
:105A70001AF800BF8900013E00F007B800F009B82D
:105A80005FEA410C5FEA1C6C08D080EA010000F07C
:105A900050B85FEA400C5FEA1C6CF6D14FF0004052
:105AA000A0F5800070470EF1020E2EF0030E5EF896
:105AB000044B244204D44FEA4102B2F17F4F11D883
:105AC0004FEA4003B3F17F4F0CD80ED14FEAD07CA0
:105AD000B2F17F4F0CEB4C0C0CF1020C08BF4CEBFD
